{
  "contractName": "CrimeReport",
  "abi": [
    {
      "inputs": [
        {
          "internalType": "address",
          "name": "",
          "type": "address"
        },
        {
          "internalType": "string",
          "name": "",
          "type": "string"
        }
      ],
      "name": "countTipsPerDay",
      "outputs": [
        {
          "internalType": "uint8",
          "name": "",
          "type": "uint8"
        }
      ],
      "stateMutability": "view",
      "type": "function",
      "constant": true
    },
    {
      "inputs": [
        {
          "internalType": "uint256",
          "name": "_timestamp",
          "type": "uint256"
        },
        {
          "internalType": "string[]",
          "name": "_location",
          "type": "string[]"
        },
        {
          "internalType": "string",
          "name": "_crimeType",
          "type": "string"
        },
        {
          "internalType": "string[]",
          "name": "_questionnaireAnswers",
          "type": "string[]"
        },
        {
          "internalType": "string",
          "name": "_crimeDesc",
          "type": "string"
        },
        {
          "internalType": "string[]",
          "name": "_suspectInfoAnswers",
          "type": "string[]"
        },
        {
          "internalType": "string[]",
          "name": "_vehicleInfoAnswers",
          "type": "string[]"
        },
        {
          "internalType": "string[]",
          "name": "_victimInfoAnswers",
          "type": "string[]"
        },
        {
          "internalType": "string",
          "name": "_ipfsHash",
          "type": "string"
        },
        {
          "internalType": "string[]",
          "name": "_fileNames",
          "type": "string[]"
        },
        {
          "internalType": "string",
          "name": "_date",
          "type": "string"
        }
      ],
      "name": "submitCrime",
      "outputs": [
        {
          "internalType": "bool",
          "name": "",
          "type": "bool"
        }
      ],
      "stateMutability": "nonpayable",
      "type": "function"
    },
    {
      "inputs": [
        {
          "internalType": "uint256",
          "name": "_crimeId",
          "type": "uint256"
        },
        {
          "internalType": "string",
          "name": "_feedback",
          "type": "string"
        }
      ],
      "name": "submitFeedback",
      "outputs": [],
      "stateMutability": "nonpayable",
      "type": "function"
    },
    {
      "inputs": [
        {
          "internalType": "uint256",
          "name": "_crimeId",
          "type": "uint256"
        }
      ],
      "name": "getFeedbacksById",
      "outputs": [
        {
          "internalType": "string[]",
          "name": "",
          "type": "string[]"
        }
      ],
      "stateMutability": "view",
      "type": "function",
      "constant": true
    },
    {
      "inputs": [],
      "name": "getCrimes",
      "outputs": [
        {
          "components": [
            {
              "internalType": "uint256",
              "name": "crimeId",
              "type": "uint256"
            },
            {
              "internalType": "address",
              "name": "reporterWalletAddress",
              "type": "address"
            },
            {
              "internalType": "uint256",
              "name": "timeStamp",
              "type": "uint256"
            },
            {
              "internalType": "string[]",
              "name": "location",
              "type": "string[]"
            },
            {
              "internalType": "string",
              "name": "crimeType",
              "type": "string"
            },
            {
              "internalType": "string[]",
              "name": "questionnaireAnswers",
              "type": "string[]"
            },
            {
              "internalType": "string",
              "name": "crimeDesc",
              "type": "string"
            },
            {
              "internalType": "bool",
              "name": "isSuspectKnown",
              "type": "bool"
            },
            {
              "internalType": "string[]",
              "name": "suspectInfoAnswers",
              "type": "string[]"
            },
            {
              "internalType": "bool",
              "name": "isVehiclePresent",
              "type": "bool"
            },
            {
              "internalType": "string[]",
              "name": "vehicleInfoAnswers",
              "type": "string[]"
            },
            {
              "internalType": "bool",
              "name": "isVictimKnown",
              "type": "bool"
            },
            {
              "internalType": "string[]",
              "name": "victimInfoAnswers",
              "type": "string[]"
            },
            {
              "internalType": "string",
              "name": "ipfsHash",
              "type": "string"
            },
            {
              "internalType": "string[]",
              "name": "fileNames",
              "type": "string[]"
            },
            {
              "internalType": "string[]",
              "name": "feedbacks",
              "type": "string[]"
            },
            {
              "internalType": "bool",
              "name": "isCaseActive",
              "type": "bool"
            }
          ],
          "internalType": "struct CrimeReport.Crime[]",
          "name": "",
          "type": "tuple[]"
        }
      ],
      "stateMutability": "view",
      "type": "function",
      "constant": true
    },
    {
      "inputs": [
        {
          "internalType": "uint256",
          "name": "_crimeId",
          "type": "uint256"
        }
      ],
      "name": "getCrimeById",
      "outputs": [
        {
          "components": [
            {
              "internalType": "uint256",
              "name": "crimeId",
              "type": "uint256"
            },
            {
              "internalType": "address",
              "name": "reporterWalletAddress",
              "type": "address"
            },
            {
              "internalType": "uint256",
              "name": "timeStamp",
              "type": "uint256"
            },
            {
              "internalType": "string[]",
              "name": "location",
              "type": "string[]"
            },
            {
              "internalType": "string",
              "name": "crimeType",
              "type": "string"
            },
            {
              "internalType": "string[]",
              "name": "questionnaireAnswers",
              "type": "string[]"
            },
            {
              "internalType": "string",
              "name": "crimeDesc",
              "type": "string"
            },
            {
              "internalType": "bool",
              "name": "isSuspectKnown",
              "type": "bool"
            },
            {
              "internalType": "string[]",
              "name": "suspectInfoAnswers",
              "type": "string[]"
            },
            {
              "internalType": "bool",
              "name": "isVehiclePresent",
              "type": "bool"
            },
            {
              "internalType": "string[]",
              "name": "vehicleInfoAnswers",
              "type": "string[]"
            },
            {
              "internalType": "bool",
              "name": "isVictimKnown",
              "type": "bool"
            },
            {
              "internalType": "string[]",
              "name": "victimInfoAnswers",
              "type": "string[]"
            },
            {
              "internalType": "string",
              "name": "ipfsHash",
              "type": "string"
            },
            {
              "internalType": "string[]",
              "name": "fileNames",
              "type": "string[]"
            },
            {
              "internalType": "string[]",
              "name": "feedbacks",
              "type": "string[]"
            },
            {
              "internalType": "bool",
              "name": "isCaseActive",
              "type": "bool"
            }
          ],
          "internalType": "struct CrimeReport.Crime",
          "name": "",
          "type": "tuple"
        }
      ],
      "stateMutability": "view",
      "type": "function",
      "constant": true
    },
    {
      "inputs": [],
      "name": "totalCrimes",
      "outputs": [
        {
          "internalType": "uint256",
          "name": "",
          "type": "uint256"
        }
      ],
      "stateMutability": "view",
      "type": "function",
      "constant": true
    },
    {
      "inputs": [],
      "name": "getReporterWalletAddress",
      "outputs": [
        {
          "internalType": "address",
          "name": "",
          "type": "address"
        }
      ],
      "stateMutability": "view",
      "type": "function",
      "constant": true
    },
    {
      "inputs": [],
      "name": "getCrimeOfCurrentUser",
      "outputs": [
        {
          "components": [
            {
              "internalType": "uint256",
              "name": "crimeId",
              "type": "uint256"
            },
            {
              "internalType": "address",
              "name": "reporterWalletAddress",
              "type": "address"
            },
            {
              "internalType": "uint256",
              "name": "timeStamp",
              "type": "uint256"
            },
            {
              "internalType": "string[]",
              "name": "location",
              "type": "string[]"
            },
            {
              "internalType": "string",
              "name": "crimeType",
              "type": "string"
            },
            {
              "internalType": "string[]",
              "name": "questionnaireAnswers",
              "type": "string[]"
            },
            {
              "internalType": "string",
              "name": "crimeDesc",
              "type": "string"
            },
            {
              "internalType": "bool",
              "name": "isSuspectKnown",
              "type": "bool"
            },
            {
              "internalType": "string[]",
              "name": "suspectInfoAnswers",
              "type": "string[]"
            },
            {
              "internalType": "bool",
              "name": "isVehiclePresent",
              "type": "bool"
            },
            {
              "internalType": "string[]",
              "name": "vehicleInfoAnswers",
              "type": "string[]"
            },
            {
              "internalType": "bool",
              "name": "isVictimKnown",
              "type": "bool"
            },
            {
              "internalType": "string[]",
              "name": "victimInfoAnswers",
              "type": "string[]"
            },
            {
              "internalType": "string",
              "name": "ipfsHash",
              "type": "string"
            },
            {
              "internalType": "string[]",
              "name": "fileNames",
              "type": "string[]"
            },
            {
              "internalType": "string[]",
              "name": "feedbacks",
              "type": "string[]"
            },
            {
              "internalType": "bool",
              "name": "isCaseActive",
              "type": "bool"
            }
          ],
          "internalType": "struct CrimeReport.Crime[]",
          "name": "",
          "type": "tuple[]"
        }
      ],
      "stateMutability": "view",
      "type": "function",
      "constant": true
    },
    {
      "inputs": [
        {
          "internalType": "string",
          "name": "_city",
          "type": "string"
        }
      ],
      "name": "getCrimeOfCity",
      "outputs": [
        {
          "components": [
            {
              "internalType": "uint256",
              "name": "crimeId",
              "type": "uint256"
            },
            {
              "internalType": "address",
              "name": "reporterWalletAddress",
              "type": "address"
            },
            {
              "internalType": "uint256",
              "name": "timeStamp",
              "type": "uint256"
            },
            {
              "internalType": "string[]",
              "name": "location",
              "type": "string[]"
            },
            {
              "internalType": "string",
              "name": "crimeType",
              "type": "string"
            },
            {
              "internalType": "string[]",
              "name": "questionnaireAnswers",
              "type": "string[]"
            },
            {
              "internalType": "string",
              "name": "crimeDesc",
              "type": "string"
            },
            {
              "internalType": "bool",
              "name": "isSuspectKnown",
              "type": "bool"
            },
            {
              "internalType": "string[]",
              "name": "suspectInfoAnswers",
              "type": "string[]"
            },
            {
              "internalType": "bool",
              "name": "isVehiclePresent",
              "type": "bool"
            },
            {
              "internalType": "string[]",
              "name": "vehicleInfoAnswers",
              "type": "string[]"
            },
            {
              "internalType": "bool",
              "name": "isVictimKnown",
              "type": "bool"
            },
            {
              "internalType": "string[]",
              "name": "victimInfoAnswers",
              "type": "string[]"
            },
            {
              "internalType": "string",
              "name": "ipfsHash",
              "type": "string"
            },
            {
              "internalType": "string[]",
              "name": "fileNames",
              "type": "string[]"
            },
            {
              "internalType": "string[]",
              "name": "feedbacks",
              "type": "string[]"
            },
            {
              "internalType": "bool",
              "name": "isCaseActive",
              "type": "bool"
            }
          ],
          "internalType": "struct CrimeReport.Crime[]",
          "name": "",
          "type": "tuple[]"
        }
      ],
      "stateMutability": "view",
      "type": "function",
      "constant": true
    },
    {
      "inputs": [
        {
          "internalType": "uint32",
          "name": "_crimeId",
          "type": "uint32"
        }
      ],
      "name": "closeCase",
      "outputs": [],
      "stateMutability": "nonpayable",
      "type": "function"
    },
    {
      "inputs": [
        {
          "internalType": "uint256",
          "name": "_crimeId",
          "type": "uint256"
        },
        {
          "internalType": "string",
          "name": "_message",
          "type": "string"
        },
        {
          "internalType": "string",
          "name": "_from",
          "type": "string"
        }
      ],
      "name": "sendMessage",
      "outputs": [],
      "stateMutability": "nonpayable",
      "type": "function"
    },
    {
      "inputs": [
        {
          "internalType": "uint256",
          "name": "_crimeId",
          "type": "uint256"
        }
      ],
      "name": "getMessages",
      "outputs": [
        {
          "components": [
            {
              "internalType": "string",
              "name": "from",
              "type": "string"
            },
            {
              "internalType": "string",
              "name": "message",
              "type": "string"
            }
          ],
          "internalType": "struct CrimeReport.MESSAGE[]",
          "name": "",
          "type": "tuple[]"
        }
      ],
      "stateMutability": "view",
      "type": "function",
      "constant": true
    },
    {
      "inputs": [],
      "name": "getCrimeStatistics",
      "outputs": [
        {
          "components": [
            {
              "internalType": "uint16",
              "name": "murderCases",
              "type": "uint16"
            },
            {
              "internalType": "uint16",
              "name": "theftCases",
              "type": "uint16"
            },
            {
              "internalType": "uint16",
              "name": "drugsCases",
              "type": "uint16"
            },
            {
              "internalType": "uint16",
              "name": "harassmentCases",
              "type": "uint16"
            }
          ],
          "internalType": "struct CrimeReport.Statistics",
          "name": "",
          "type": "tuple"
        }
      ],
      "stateMutability": "view",
      "type": "function",
      "constant": true
    },
    {
      "inputs": [],
      "name": "getActiveDeativeCases",
      "outputs": [
        {
          "internalType": "uint16",
          "name": "",
          "type": "uint16"
        },
        {
          "internalType": "uint16",
          "name": "",
          "type": "uint16"
        }
      ],
      "stateMutability": "view",
      "type": "function",
      "constant": true
    },
    {
      "inputs": [],
      "name": "getStateStatistics",
      "outputs": [
        {
          "components": [
            {
              "internalType": "uint16",
              "name": "maharashtraCases",
              "type": "uint16"
            },
            {
              "internalType": "uint16",
              "name": "tamilnaduCases",
              "type": "uint16"
            },
            {
              "internalType": "uint16",
              "name": "pondicherryCases",
              "type": "uint16"
            },
            {
              "internalType": "uint16",
              "name": "uttarPradeshCases",
              "type": "uint16"
            }
          ],
          "internalType": "struct CrimeReport.StateCases",
          "name": "",
          "type": "tuple"
        }
      ],
      "stateMutability": "view",
      "type": "function",
      "constant": true
    },
    {
      "inputs": [
        {
          "internalType": "string",
          "name": "_a",
          "type": "string"
        },
        {
          "internalType": "string",
          "name": "_b",
          "type": "string"
        }
      ],
      "name": "compare",
      "outputs": [
        {
          "internalType": "int256",
          "name": "",
          "type": "int256"
        }
      ],
      "stateMutability": "pure",
      "type": "function",
      "constant": true
    },
    {
      "inputs": [
        {
          "internalType": "string",
          "name": "_a",
          "type": "string"
        },
        {
          "internalType": "string",
          "name": "_b",
          "type": "string"
        }
      ],
      "name": "equal",
      "outputs": [
        {
          "internalType": "bool",
          "name": "",
          "type": "bool"
        }
      ],
      "stateMutability": "pure",
      "type": "function",
      "constant": true
    },
    {
      "inputs": [
        {
          "internalType": "string",
          "name": "_date",
          "type": "string"
        }
      ],
      "name": "checkTipsCountOfUser",
      "outputs": [
        {
          "internalType": "bool",
          "name": "",
          "type": "bool"
        }
      ],
      "stateMutability": "view",
      "type": "function",
      "constant": true
    }
  ],
  "bytecode": "0x608060405234801561001057600080fd5b5061560180620000216000396000f3fe608060405234801561001057600080fd5b50600436106101215760003560e01c8063749b5e52116100ad578063cc8a9d7e11610071578063cc8a9d7e14610330578063cd5813eb1461034e578063d3d96b201461036d578063f63fcf381461039d578063fd334c88146103cd57610121565b8063749b5e5214610264578063a4881afd14610294578063ae36853d146102b2578063b46b6d60146102e2578063c72511431461030057610121565b806346bdca9a116100f457806346bdca9a146101c05780634c253551146101f05780635a61e48d1461020c57806368b3275b1461022a5780636b561b2f1461024857610121565b806305608f641461012657806314034a741461014457806320b0c9d6146101745780633a96fdd714610190575b600080fd5b61012e6103fd565b60405161013b9190614011565b60405180910390f35b61015e60048036038101906101599190614186565b61040a565b60405161016b91906145e9565b60405180910390f35b61018e60048036038101906101899190614637565b610d03565b005b6101aa60048036038101906101a59190614693565b610d5f565b6040516101b79190614724565b60405180910390f35b6101da60048036038101906101d59190614693565b610f3b565b6040516101e7919061474e565b60405180910390f35b61020a600480360381019061020591906147a5565b610f51565b005b610214610fd3565b6040516102219190614844565b60405180910390f35b61023261106d565b60405161023f919061486e565b60405180910390f35b610262600480360381019061025d9190614889565b611075565b005b61027e60048036038101906102799190614914565b611100565b60405161028b9190614aed565b60405180910390f35b61029c6119b8565b6040516102a991906145e9565b60405180910390f35b6102cc60048036038101906102c79190614914565b612293565b6040516102d99190614c15565b60405180910390f35b6102ea612429565b6040516102f791906145e9565b60405180910390f35b61031a60048036038101906103159190614914565b612d41565b6040516103279190614cbd565b60405180910390f35b610338612e3f565b6040516103459190614d34565b60405180910390f35b610356612ed9565b604051610364929190614d5e565b60405180910390f35b61038760048036038101906103829190614186565b612f1c565b604051610394919061474e565b60405180910390f35b6103b760048036038101906103b29190614e6d565b612fa3565b6040516103c4919061474e565b60405180910390f35b6103e760048036038101906103e291906150a5565b613dad565b6040516103f4919061511d565b60405180910390f35b6000600480549050905090565b606060078260405161041c9190615174565b9081526020016040518091039020805480602002602001604051908101604052809291908181526020016000905b82821015610cf8578382906000526020600020906011020160405180610220016040529081600082015481526020016001820160009054906101000a900473ffffffffffffffffffffffffffffffffffffffff1673ffffffffffffffffffffffffffffffffffffffff1673ffffffffffffffffffffffffffffffffffffffff1681526020016002820154815260200160038201805480602002602001604051908101604052809291908181526020016000905b828210156105a957838290600052602060002001805461051c906151ba565b80601f0160208091040260200160405190810160405280929190818152602001828054610548906151ba565b80156105955780601f1061056a57610100808354040283529160200191610595565b820191906000526020600020905b81548152906001019060200180831161057857829003601f168201915b5050505050815260200190600101906104fd565b5050505081526020016004820180546105c1906151ba565b80601f01602080910402602001604051908101604052809291908181526020018280546105ed906151ba565b801561063a5780601f1061060f5761010080835404028352916020019161063a565b820191906000526020600020905b81548152906001019060200180831161061d57829003601f168201915b5050505050815260200160058201805480602002602001604051908101604052809291908181526020016000905b82821015610714578382906000526020600020018054610687906151ba565b80601f01602080910402602001604051908101604052809291908181526020018280546106b3906151ba565b80156107005780601f106106d557610100808354040283529160200191610700565b820191906000526020600020905b8154815290600101906020018083116106e357829003601f168201915b505050505081526020019060010190610668565b50505050815260200160068201805461072c906151ba565b80601f0160208091040260200160405190810160405280929190818152602001828054610758906151ba565b80156107a55780601f1061077a576101008083540402835291602001916107a5565b820191906000526020600020905b81548152906001019060200180831161078857829003601f168201915b505050505081526020016007820160009054906101000a900460ff1615151515815260200160088201805480602002602001604051908101604052809291908181526020016000905b8282101561089a57838290600052602060002001805461080d906151ba565b80601f0160208091040260200160405190810160405280929190818152602001828054610839906151ba565b80156108865780601f1061085b57610100808354040283529160200191610886565b820191906000526020600020905b81548152906001019060200180831161086957829003601f168201915b5050505050815260200190600101906107ee565b5050505081526020016009820160009054906101000a900460ff16151515158152602001600a8201805480602002602001604051908101604052809291908181526020016000905b8282101561098e578382906000526020600020018054610901906151ba565b80601f016020809104026020016040519081016040528092919081815260200182805461092d906151ba565b801561097a5780601f1061094f5761010080835404028352916020019161097a565b820191906000526020600020905b81548152906001019060200180831161095d57829003601f168201915b5050505050815260200190600101906108e2565b505050508152602001600b820160009054906101000a900460ff16151515158152602001600c8201805480602002602001604051908101604052809291908181526020016000905b82821015610a825783829060005260206000200180546109f5906151ba565b80601f0160208091040260200160405190810160405280929190818152602001828054610a21906151ba565b8015610a6e5780601f10610a4357610100808354040283529160200191610a6e565b820191906000526020600020905b815481529060010190602001808311610a5157829003601f168201915b5050505050815260200190600101906109d6565b505050508152602001600d82018054610a9a906151ba565b80601f0160208091040260200160405190810160405280929190818152602001828054610ac6906151ba565b8015610b135780601f10610ae857610100808354040283529160200191610b13565b820191906000526020600020905b815481529060010190602001808311610af657829003601f168201915b50505050508152602001600e8201805480602002602001604051908101604052809291908181526020016000905b82821015610bed578382906000526020600020018054610b60906151ba565b80601f0160208091040260200160405190810160405280929190818152602001828054610b8c906151ba565b8015610bd95780601f10610bae57610100808354040283529160200191610bd9565b820191906000526020600020905b815481529060010190602001808311610bbc57829003601f168201915b505050505081526020019060010190610b41565b505050508152602001600f8201805480602002602001604051908101604052809291908181526020016000905b82821015610cc6578382906000526020600020018054610c39906151ba565b80601f0160208091040260200160405190810160405280929190818152602001828054610c65906151ba565b8015610cb25780601f10610c8757610100808354040283529160200191610cb2565b820191906000526020600020905b815481529060010190602001808311610c9557829003601f168201915b505050505081526020019060010190610c1a565b5050505081526020016010820160009054906101000a900460ff1615151515815250508152602001906001019061044a565b505050509050919050565b60048281548110610d1757610d166151eb565b5b9060005260206000209060110201600f0181908060018154018082558091505060019003906000526020600020016000909190919091509081610d5a91906153c6565b505050565b60008083905060008390506000825190508082511015610d7e57815190505b60005b81811015610ee157828181518110610d9c57610d9b6151eb565b5b602001015160f81c60f81b7effffffffffffffffffffffffffffffffffffffffffffffffffffffffffffff1916848281518110610ddc57610ddb6151eb565b5b602001015160f81c60f81b7effffffffffffffffffffffffffffffffffffffffffffffffffffffffffffff19161015610e3b577fffffffffffffffffffffffffffffffffffffffffffffffffffffffffffffffff945050505050610f35565b828181518110610e4e57610e4d6151eb565b5b602001015160f81c60f81b7effffffffffffffffffffffffffffffffffffffffffffffffffffffffffffff1916848281518110610e8e57610e8d6151eb565b5b602001015160f81c60f81b7effffffffffffffffffffffffffffffffffffffffffffffffffffffffffffff19161115610ece576001945050505050610f35565b8080610ed9906154c7565b915050610d81565b50815183511015610f17577fffffffffffffffffffffffffffffffffffffffffffffffffffffffffffffffff9350505050610f35565b815183511115610f2d5760019350505050610f35565b600093505050505b92915050565b600080610f488484610d5f565b14905092915050565b6002600081819054906101000a900461ffff1680929190610f719061550f565b91906101000a81548161ffff021916908361ffff16021790555050600060048263ffffffff1681548110610fa857610fa76151eb565b5b906000526020600020906011020160100160006101000a81548160ff02191690831515021790555050565b610fdb613df2565b60056040518060800160405290816000820160009054906101000a900461ffff1661ffff1661ffff1681526020016000820160029054906101000a900461ffff1661ffff1661ffff1681526020016000820160049054906101000a900461ffff1661ffff1661ffff1681526020016000820160069054906101000a900461ffff1661ffff1661ffff1681525050905090565b600033905090565b61107d613e2a565b8281602001819052508181600001819052506003600085815260200190815260200160002081908060018154018082558091505060019003906000526020600020906002020160009091909190915060008201518160000190816110e191906153c6565b5060208201518160010190816110f791906153c6565b50505050505050565b611108613e44565b6004828154811061111c5761111b6151eb565b5b906000526020600020906011020160405180610220016040529081600082015481526020016001820160009054906101000a900473ffffffffffffffffffffffffffffffffffffffff1673ffffffffffffffffffffffffffffffffffffffff1673ffffffffffffffffffffffffffffffffffffffff1681526020016002820154815260200160038201805480602002602001604051908101604052809291908181526020016000905b828210156112715783829060005260206000200180546111e4906151ba565b80601f0160208091040260200160405190810160405280929190818152602001828054611210906151ba565b801561125d5780601f106112325761010080835404028352916020019161125d565b820191906000526020600020905b81548152906001019060200180831161124057829003601f168201915b5050505050815260200190600101906111c5565b505050508152602001600482018054611289906151ba565b80601f01602080910402602001604051908101604052809291908181526020018280546112b5906151ba565b80156113025780601f106112d757610100808354040283529160200191611302565b820191906000526020600020905b8154815290600101906020018083116112e557829003601f168201915b5050505050815260200160058201805480602002602001604051908101604052809291908181526020016000905b828210156113dc57838290600052602060002001805461134f906151ba565b80601f016020809104026020016040519081016040528092919081815260200182805461137b906151ba565b80156113c85780601f1061139d576101008083540402835291602001916113c8565b820191906000526020600020905b8154815290600101906020018083116113ab57829003601f168201915b505050505081526020019060010190611330565b5050505081526020016006820180546113f4906151ba565b80601f0160208091040260200160405190810160405280929190818152602001828054611420906151ba565b801561146d5780601f106114425761010080835404028352916020019161146d565b820191906000526020600020905b81548152906001019060200180831161145057829003601f168201915b505050505081526020016007820160009054906101000a900460ff1615151515815260200160088201805480602002602001604051908101604052809291908181526020016000905b828210156115625783829060005260206000200180546114d5906151ba565b80601f0160208091040260200160405190810160405280929190818152602001828054611501906151ba565b801561154e5780601f106115235761010080835404028352916020019161154e565b820191906000526020600020905b81548152906001019060200180831161153157829003601f168201915b5050505050815260200190600101906114b6565b5050505081526020016009820160009054906101000a900460ff16151515158152602001600a8201805480602002602001604051908101604052809291908181526020016000905b828210156116565783829060005260206000200180546115c9906151ba565b80601f01602080910402602001604051908101604052809291908181526020018280546115f5906151ba565b80156116425780601f1061161757610100808354040283529160200191611642565b820191906000526020600020905b81548152906001019060200180831161162557829003601f168201915b5050505050815260200190600101906115aa565b505050508152602001600b820160009054906101000a900460ff16151515158152602001600c8201805480602002602001604051908101604052809291908181526020016000905b8282101561174a5783829060005260206000200180546116bd906151ba565b80601f01602080910402602001604051908101604052809291908181526020018280546116e9906151ba565b80156117365780601f1061170b57610100808354040283529160200191611736565b820191906000526020600020905b81548152906001019060200180831161171957829003601f168201915b50505050508152602001906001019061169e565b505050508152602001600d82018054611762906151ba565b80601f016020809104026020016040519081016040528092919081815260200182805461178e906151ba565b80156117db5780601f106117b0576101008083540402835291602001916117db565b820191906000526020600020905b8154815290600101906020018083116117be57829003601f168201915b50505050508152602001600e8201805480602002602001604051908101604052809291908181526020016000905b828210156118b5578382906000526020600020018054611828906151ba565b80601f0160208091040260200160405190810160405280929190818152602001828054611854906151ba565b80156118a15780601f10611876576101008083540402835291602001916118a1565b820191906000526020600020905b81548152906001019060200180831161188457829003601f168201915b505050505081526020019060010190611809565b505050508152602001600f8201805480602002602001604051908101604052809291908181526020016000905b8282101561198e578382906000526020600020018054611901906151ba565b80601f016020809104026020016040519081016040528092919081815260200182805461192d906151ba565b801561197a5780601f1061194f5761010080835404028352916020019161197a565b820191906000526020600020905b81548152906001019060200180831161195d57829003601f168201915b5050505050815260200190600101906118e2565b5050505081526020016010820160009054906101000a900460ff1615151515815250509050919050565b60606004805480602002602001604051908101604052809291908181526020016000905b8282101561228a578382906000526020600020906011020160405180610220016040529081600082015481526020016001820160009054906101000a900473ffffffffffffffffffffffffffffffffffffffff1673ffffffffffffffffffffffffffffffffffffffff1673ffffffffffffffffffffffffffffffffffffffff1681526020016002820154815260200160038201805480602002602001604051908101604052809291908181526020016000905b82821015611b3b578382906000526020600020018054611aae906151ba565b80601f0160208091040260200160405190810160405280929190818152602001828054611ada906151ba565b8015611b275780601f10611afc57610100808354040283529160200191611b27565b820191906000526020600020905b815481529060010190602001808311611b0a57829003601f168201915b505050505081526020019060010190611a8f565b505050508152602001600482018054611b53906151ba565b80601f0160208091040260200160405190810160405280929190818152602001828054611b7f906151ba565b8015611bcc5780601f10611ba157610100808354040283529160200191611bcc565b820191906000526020600020905b815481529060010190602001808311611baf57829003601f168201915b5050505050815260200160058201805480602002602001604051908101604052809291908181526020016000905b82821015611ca6578382906000526020600020018054611c19906151ba565b80601f0160208091040260200160405190810160405280929190818152602001828054611c45906151ba565b8015611c925780601f10611c6757610100808354040283529160200191611c92565b820191906000526020600020905b815481529060010190602001808311611c7557829003601f168201915b505050505081526020019060010190611bfa565b505050508152602001600682018054611cbe906151ba565b80601f0160208091040260200160405190810160405280929190818152602001828054611cea906151ba565b8015611d375780601f10611d0c57610100808354040283529160200191611d37565b820191906000526020600020905b815481529060010190602001808311611d1a57829003601f168201915b505050505081526020016007820160009054906101000a900460ff1615151515815260200160088201805480602002602001604051908101604052809291908181526020016000905b82821015611e2c578382906000526020600020018054611d9f906151ba565b80601f0160208091040260200160405190810160405280929190818152602001828054611dcb906151ba565b8015611e185780601f10611ded57610100808354040283529160200191611e18565b820191906000526020600020905b815481529060010190602001808311611dfb57829003601f168201915b505050505081526020019060010190611d80565b5050505081526020016009820160009054906101000a900460ff16151515158152602001600a8201805480602002602001604051908101604052809291908181526020016000905b82821015611f20578382906000526020600020018054611e93906151ba565b80601f0160208091040260200160405190810160405280929190818152602001828054611ebf906151ba565b8015611f0c5780601f10611ee157610100808354040283529160200191611f0c565b820191906000526020600020905b815481529060010190602001808311611eef57829003601f168201915b505050505081526020019060010190611e74565b505050508152602001600b820160009054906101000a900460ff16151515158152602001600c8201805480602002602001604051908101604052809291908181526020016000905b82821015612014578382906000526020600020018054611f87906151ba565b80601f0160208091040260200160405190810160405280929190818152602001828054611fb3906151ba565b80156120005780601f10611fd557610100808354040283529160200191612000565b820191906000526020600020905b815481529060010190602001808311611fe357829003601f168201915b505050505081526020019060010190611f68565b505050508152602001600d8201805461202c906151ba565b80601f0160208091040260200160405190810160405280929190818152602001828054612058906151ba565b80156120a55780601f1061207a576101008083540402835291602001916120a5565b820191906000526020600020905b81548152906001019060200180831161208857829003601f168201915b50505050508152602001600e8201805480602002602001604051908101604052809291908181526020016000905b8282101561217f5783829060005260206000200180546120f2906151ba565b80601f016020809104026020016040519081016040528092919081815260200182805461211e906151ba565b801561216b5780601f106121405761010080835404028352916020019161216b565b820191906000526020600020905b81548152906001019060200180831161214e57829003601f168201915b5050505050815260200190600101906120d3565b505050508152602001600f8201805480602002602001604051908101604052809291908181526020016000905b828210156122585783829060005260206000200180546121cb906151ba565b80601f01602080910402602001604051908101604052809291908181526020018280546121f7906151ba565b80156122445780601f1061221957610100808354040283529160200191612244565b820191906000526020600020905b81548152906001019060200180831161222757829003601f168201915b5050505050815260200190600101906121ac565b5050505081526020016010820160009054906101000a900460ff161515151581525050815260200190600101906119dc565b50505050905090565b606060036000838152602001908152602001600020805480602002602001604051908101604052809291908181526020016000905b8282101561241e57838290600052602060002090600202016040518060400160405290816000820180546122fb906151ba565b80601f0160208091040260200160405190810160405280929190818152602001828054612327906151ba565b80156123745780601f1061234957610100808354040283529160200191612374565b820191906000526020600020905b81548152906001019060200180831161235757829003601f168201915b5050505050815260200160018201805461238d906151ba565b80601f01602080910402602001604051908101604052809291908181526020018280546123b9906151ba565b80156124065780601f106123db57610100808354040283529160200191612406565b820191906000526020600020905b8154815290600101906020018083116123e957829003601f168201915b505050505081525050815260200190600101906122c8565b505050509050919050565b6060600660003373ffffffffffffffffffffffffffffffffffffffff1673ffffffffffffffffffffffffffffffffffffffff168152602001908152602001600020805480602002602001604051908101604052809291908181526020016000905b82821015612d38578382906000526020600020906011020160405180610220016040529081600082015481526020016001820160009054906101000a900473ffffffffffffffffffffffffffffffffffffffff1673ffffffffffffffffffffffffffffffffffffffff1673ffffffffffffffffffffffffffffffffffffffff1681526020016002820154815260200160038201805480602002602001604051908101604052809291908181526020016000905b828210156125e957838290600052602060002001805461255c906151ba565b80601f0160208091040260200160405190810160405280929190818152602001828054612588906151ba565b80156125d55780601f106125aa576101008083540402835291602001916125d5565b820191906000526020600020905b8154815290600101906020018083116125b857829003601f168201915b50505050508152602001906001019061253d565b505050508152602001600482018054612601906151ba565b80601f016020809104026020016040519081016040528092919081815260200182805461262d906151ba565b801561267a5780601f1061264f5761010080835404028352916020019161267a565b820191906000526020600020905b81548152906001019060200180831161265d57829003601f168201915b5050505050815260200160058201805480602002602001604051908101604052809291908181526020016000905b828210156127545783829060005260206000200180546126c7906151ba565b80601f01602080910402602001604051908101604052809291908181526020018280546126f3906151ba565b80156127405780601f1061271557610100808354040283529160200191612740565b820191906000526020600020905b81548152906001019060200180831161272357829003601f168201915b5050505050815260200190600101906126a8565b50505050815260200160068201805461276c906151ba565b80601f0160208091040260200160405190810160405280929190818152602001828054612798906151ba565b80156127e55780601f106127ba576101008083540402835291602001916127e5565b820191906000526020600020905b8154815290600101906020018083116127c857829003601f168201915b505050505081526020016007820160009054906101000a900460ff1615151515815260200160088201805480602002602001604051908101604052809291908181526020016000905b828210156128da57838290600052602060002001805461284d906151ba565b80601f0160208091040260200160405190810160405280929190818152602001828054612879906151ba565b80156128c65780601f1061289b576101008083540402835291602001916128c6565b820191906000526020600020905b8154815290600101906020018083116128a957829003601f168201915b50505050508152602001906001019061282e565b5050505081526020016009820160009054906101000a900460ff16151515158152602001600a8201805480602002602001604051908101604052809291908181526020016000905b828210156129ce578382906000526020600020018054612941906151ba565b80601f016020809104026020016040519081016040528092919081815260200182805461296d906151ba565b80156129ba5780601f1061298f576101008083540402835291602001916129ba565b820191906000526020600020905b81548152906001019060200180831161299d57829003601f168201915b505050505081526020019060010190612922565b505050508152602001600b820160009054906101000a900460ff16151515158152602001600c8201805480602002602001604051908101604052809291908181526020016000905b82821015612ac2578382906000526020600020018054612a35906151ba565b80601f0160208091040260200160405190810160405280929190818152602001828054612a61906151ba565b8015612aae5780601f10612a8357610100808354040283529160200191612aae565b820191906000526020600020905b815481529060010190602001808311612a9157829003601f168201915b505050505081526020019060010190612a16565b505050508152602001600d82018054612ada906151ba565b80601f0160208091040260200160405190810160405280929190818152602001828054612b06906151ba565b8015612b535780601f10612b2857610100808354040283529160200191612b53565b820191906000526020600020905b815481529060010190602001808311612b3657829003601f168201915b50505050508152602001600e8201805480602002602001604051908101604052809291908181526020016000905b82821015612c2d578382906000526020600020018054612ba0906151ba565b80601f0160208091040260200160405190810160405280929190818152602001828054612bcc906151ba565b8015612c195780601f10612bee57610100808354040283529160200191612c19565b820191906000526020600020905b815481529060010190602001808311612bfc57829003601f168201915b505050505081526020019060010190612b81565b505050508152602001600f8201805480602002602001604051908101604052809291908181526020016000905b82821015612d06578382906000526020600020018054612c79906151ba565b80601f0160208091040260200160405190810160405280929190818152602001828054612ca5906151ba565b8015612cf25780601f10612cc757610100808354040283529160200191612cf2565b820191906000526020600020905b815481529060010190602001808311612cd557829003601f168201915b505050505081526020019060010190612c5a565b5050505081526020016010820160009054906101000a900460ff1615151515815250508152602001906001019061248a565b50505050905090565b606060048281548110612d5757612d566151eb565b5b9060005260206000209060110201600f01805480602002602001604051908101604052809291908181526020016000905b82821015612e34578382906000526020600020018054612da7906151ba565b80601f0160208091040260200160405190810160405280929190818152602001828054612dd3906151ba565b8015612e205780601f10612df557610100808354040283529160200191612e20565b820191906000526020600020905b815481529060010190602001808311612e0357829003601f168201915b505050505081526020019060010190612d88565b505050509050919050565b612e47613ee6565b60016040518060800160405290816000820160009054906101000a900461ffff1661ffff1661ffff1681526020016000820160029054906101000a900461ffff1661ffff1661ffff1681526020016000820160049054906101000a900461ffff1661ffff1661ffff1681526020016000820160069054906101000a900461ffff1661ffff1661ffff1681525050905090565b600080600260009054906101000a900461ffff16600260009054906101000a900461ffff1661ffff16612f0a6103fd565b612f149190615538565b915091509091565b600060036000803373ffffffffffffffffffffffffffffffffffffffff1673ffffffffffffffffffffffffffffffffffffffff16815260200190815260200160002083604051612f6c9190615174565b908152602001604051809103902060009054906101000a900460ff1660ff1610612f995760009050612f9e565b600190505b919050565b6000612fad613e44565b600480549050816000018181525050612fc461106d565b816020019073ffffffffffffffffffffffffffffffffffffffff16908173ffffffffffffffffffffffffffffffffffffffff16815250508c8160400181815250508b81606001819052508a8160800181905250898160a00181905250888160c0018190525060018161020001901515908115158152505060008160e00190151590811515815250506000885111156130725760018160e0019015159081151581525050878161010001819052505b6000816101200190151590811515815250506000875111156130ab57600181610120019015159081151581525050868161014001819052505b6000816101600190151590811515815250506000865111156130e457600181610160019015159081151581525050858161018001819052505b84816101a0018190525083816101c00181905250606080826101e0018190525060048290806001815401808255809150506001900390600052602060002090601102016000909190919091506000820151816000015560208201518160010160006101000a81548173ffffffffffffffffffffffffffffffffffffffff021916908373ffffffffffffffffffffffffffffffffffffffff1602179055506040820151816002015560608201518160030190805190602001906131a7929190613f1e565b5060808201518160040190816131bd91906153c6565b5060a08201518160050190805190602001906131da929190613f1e565b5060c08201518160060190816131f091906153c6565b5060e08201518160070160006101000a81548160ff02191690831515021790555061010082015181600801908051906020019061322e929190613f1e565b506101208201518160090160006101000a81548160ff02191690831515021790555061014082015181600a01908051906020019061326d929190613f1e565b5061016082015181600b0160006101000a81548160ff02191690831515021790555061018082015181600c0190805190602001906132ac929190613f1e565b506101a082015181600d0190816132c391906153c6565b506101c082015181600e0190805190602001906132e1929190613f1e565b506101e082015181600f0190805190602001906132ff929190613f1e565b506102008201518160100160006101000a81548160ff0219169083151502179055505050600660003373ffffffffffffffffffffffffffffffffffffffff1673ffffffffffffffffffffffffffffffffffffffff1681526020019081526020016000208290806001815401808255809150506001900390600052602060002090601102016000909190919091506000820151816000015560208201518160010160006101000a81548173ffffffffffffffffffffffffffffffffffffffff021916908373ffffffffffffffffffffffffffffffffffffffff160217905550604082015181600201556060820151816003019080519060200190613403929190613f1e565b50608082015181600401908161341991906153c6565b5060a0820151816005019080519060200190613436929190613f1e565b5060c082015181600601908161344c91906153c6565b5060e08201518160070160006101000a81548160ff02191690831515021790555061010082015181600801908051906020019061348a929190613f1e565b506101208201518160090160006101000a81548160ff02191690831515021790555061014082015181600a0190805190602001906134c9929190613f1e565b5061016082015181600b0160006101000a81548160ff02191690831515021790555061018082015181600c019080519060200190613508929190613f1e565b506101a082015181600d01908161351f91906153c6565b506101c082015181600e01908051906020019061353d929190613f1e565b506101e082015181600f01908051906020019061355b929190613f1e565b506102008201518160100160006101000a81548160ff021916908315150217905550505060078d600181518110613595576135946151eb565b5b60200260200101516040516135aa9190615174565b90815260200160405180910390208290806001815401808255809150506001900390600052602060002090601102016000909190919091506000820151816000015560208201518160010160006101000a81548173ffffffffffffffffffffffffffffffffffffffff021916908373ffffffffffffffffffffffffffffffffffffffff160217905550604082015181600201556060820151816003019080519060200190613659929190613f1e565b50608082015181600401908161366f91906153c6565b5060a082015181600501908051906020019061368c929190613f1e565b5060c08201518160060190816136a291906153c6565b5060e08201518160070160006101000a81548160ff0219169083151502179055506101008201518160080190805190602001906136e0929190613f1e565b506101208201518160090160006101000a81548160ff02191690831515021790555061014082015181600a01908051906020019061371f929190613f1e565b5061016082015181600b0160006101000a81548160ff02191690831515021790555061018082015181600c01908051906020019061375e929190613f1e565b506101a082015181600d01908161377591906153c6565b506101c082015181600e019080519060200190613793929190613f1e565b506101e082015181600f0190805190602001906137b1929190613f1e565b506102008201518160100160006101000a81548160ff02191690831515021790555050506138148c6040518060400160405280600681526020017f4d75726465720000000000000000000000000000000000000000000000000000815250610f3b565b1561385c576005600001600081819054906101000a900461ffff168092919061383c9061556c565b91906101000a81548161ffff021916908361ffff160217905550506139f0565b61389b8c6040518060400160405280600581526020017f5468656674000000000000000000000000000000000000000000000000000000815250610f3b565b156138e3576005600001600281819054906101000a900461ffff16809291906138c39061556c565b91906101000a81548161ffff021916908361ffff160217905550506139ef565b6139228c6040518060400160405280600581526020017f4472756773000000000000000000000000000000000000000000000000000000815250610f3b565b1561396a576005600001600481819054906101000a900461ffff168092919061394a9061556c565b91906101000a81548161ffff021916908361ffff160217905550506139ee565b6139a98c6040518060400160405280600a81526020017f4861726173736d656e7400000000000000000000000000000000000000000000815250610f3b565b156139ed576005600001600681819054906101000a900461ffff16809291906139d19061556c565b91906101000a81548161ffff021916908361ffff160217905550505b5b5b5b613a4a8d600081518110613a0757613a066151eb565b5b60200260200101516040518060400160405280600b81526020017f4d61686172617368747261000000000000000000000000000000000000000000815250610f3b565b15613a92576001600001600081819054906101000a900461ffff1680929190613a729061556c565b91906101000a81548161ffff021916908361ffff16021790555050613c77565b613aec8d600081518110613aa957613aa86151eb565b5b60200260200101516040518060400160405280600d81526020017f5574746172205072616465736800000000000000000000000000000000000000815250610f3b565b15613b34576001600001600681819054906101000a900461ffff1680929190613b149061556c565b91906101000a81548161ffff021916908361ffff16021790555050613c76565b613b8e8d600081518110613b4b57613b4a6151eb565b5b60200260200101516040518060400160405280600b81526020017f506f6e6469636865727279000000000000000000000000000000000000000000815250610f3b565b15613bd6576001600001600481819054906101000a900461ffff1680929190613bb69061556c565b91906101000a81548161ffff021916908361ffff16021790555050613c75565b613c308d600081518110613bed57613bec6151eb565b5b60200260200101516040518060400160405280600a81526020017f54616d696c204e61647500000000000000000000000000000000000000000000815250610f3b565b15613c74576001600001600281819054906101000a900461ffff1680929190613c589061556c565b91906101000a81548161ffff021916908361ffff160217905550505b5b5b5b6002600081819054906101000a900461ffff1680929190613c979061556c565b91906101000a81548161ffff021916908361ffff1602179055505060016000803373ffffffffffffffffffffffffffffffffffffffff1673ffffffffffffffffffffffffffffffffffffffff16815260200190815260200160002085604051613d009190615174565b908152602001604051809103902060009054906101000a900460ff16613d269190615596565b6000803373ffffffffffffffffffffffffffffffffffffffff1673ffffffffffffffffffffffffffffffffffffffff16815260200190815260200160002085604051613d729190615174565b908152602001604051809103902060006101000a81548160ff021916908360ff1602179055506001925050509b9a5050505050505050505050565b6000602052816000526040600020818051602081018201805184825260208301602085012081835280955050505050506000915091509054906101000a900460ff1681565b6040518060800160405280600061ffff168152602001600061ffff168152602001600061ffff168152602001600061ffff1681525090565b604051806040016040528060608152602001606081525090565b60405180610220016040528060008152602001600073ffffffffffffffffffffffffffffffffffffffff16815260200160008152602001606081526020016060815260200160608152602001606081526020016000151581526020016060815260200160001515815260200160608152602001600015158152602001606081526020016060815260200160608152602001606081526020016000151581525090565b6040518060800160405280600061ffff168152602001600061ffff168152602001600061ffff168152602001600061ffff1681525090565b828054828255906000526020600020908101928215613f66579160200282015b82811115613f65578251829081613f5591906153c6565b5091602001919060010190613f3e565b5b509050613f739190613f77565b5090565b5b80821115613f975760008181613f8e9190613f9b565b50600101613f78565b5090565b508054613fa7906151ba565b6000825580601f10613fb95750613fd8565b601f016020900490600052602060002090810190613fd79190613fdb565b5b50565b5b80821115613ff4576000816000905550600101613fdc565b5090565b6000819050919050565b61400b81613ff8565b82525050565b60006020820190506140266000830184614002565b92915050565b6000604051905090565b600080fd5b600080fd5b600080fd5b600080fd5b6000601f19601f8301169050919050565b7f4e487b7100000000000000000000000000000000000000000000000000000000600052604160045260246000fd5b6140938261404a565b810181811067ffffffffffffffff821117156140b2576140b161405b565b5b80604052505050565b60006140c561402c565b90506140d1828261408a565b919050565b600067ffffffffffffffff8211156140f1576140f061405b565b5b6140fa8261404a565b9050602081019050919050565b82818337600083830152505050565b6000614129614124846140d6565b6140bb565b90508281526020810184848401111561414557614144614045565b5b614150848285614107565b509392505050565b600082601f83011261416d5761416c614040565b5b813561417d848260208601614116565b91505092915050565b60006020828403121561419c5761419b614036565b5b600082013567ffffffffffffffff8111156141ba576141b961403b565b5b6141c684828501614158565b91505092915050565b600081519050919050565b600082825260208201905092915050565b6000819050602082019050919050565b61420481613ff8565b82525050565b600073ffffffffffffffffffffffffffffffffffffffff82169050919050565b60006142358261420a565b9050919050565b6142458161422a565b82525050565b600081519050919050565b600082825260208201905092915050565b6000819050602082019050919050565b600081519050919050565b600082825260208201905092915050565b60005b838110156142b1578082015181840152602081019050614296565b60008484015250505050565b60006142c882614277565b6142d28185614282565b93506142e2818560208601614293565b6142eb8161404a565b840191505092915050565b600061430283836142bd565b905092915050565b6000602082019050919050565b60006143228261424b565b61432c8185614256565b93508360208202850161433e85614267565b8060005b8581101561437a578484038952815161435b85826142f6565b94506143668361430a565b925060208a01995050600181019050614342565b50829750879550505050505092915050565b60008115159050919050565b6143a18161438c565b82525050565b6000610220830160008301516143c060008601826141fb565b5060208301516143d3602086018261423c565b5060408301516143e660408601826141fb565b50606083015184820360608601526143fe8282614317565b9150506080830151848203608086015261441882826142bd565b91505060a083015184820360a08601526144328282614317565b91505060c083015184820360c086015261444c82826142bd565b91505060e083015161446160e0860182614398565b5061010083015184820361010086015261447b8282614317565b915050610120830151614492610120860182614398565b506101408301518482036101408601526144ac8282614317565b9150506101608301516144c3610160860182614398565b506101808301518482036101808601526144dd8282614317565b9150506101a08301518482036101a08601526144f982826142bd565b9150506101c08301518482036101c08601526145158282614317565b9150506101e08301518482036101e08601526145318282614317565b915050610200830151614548610200860182614398565b508091505092915050565b600061455f83836143a7565b905092915050565b6000602082019050919050565b600061457f826141cf565b61458981856141da565b93508360208202850161459b856141eb565b8060005b858110156145d757848403895281516145b88582614553565b94506145c383614567565b925060208a0199505060018101905061459f565b50829750879550505050505092915050565b600060208201905081810360008301526146038184614574565b905092915050565b61461481613ff8565b811461461f57600080fd5b50565b6000813590506146318161460b565b92915050565b6000806040838503121561464e5761464d614036565b5b600061465c85828601614622565b925050602083013567ffffffffffffffff81111561467d5761467c61403b565b5b61468985828601614158565b9150509250929050565b600080604083850312156146aa576146a9614036565b5b600083013567ffffffffffffffff8111156146c8576146c761403b565b5b6146d485828601614158565b925050602083013567ffffffffffffffff8111156146f5576146f461403b565b5b61470185828601614158565b9150509250929050565b6000819050919050565b61471e8161470b565b82525050565b60006020820190506147396000830184614715565b92915050565b6147488161438c565b82525050565b6000602082019050614763600083018461473f565b92915050565b600063ffffffff82169050919050565b61478281614769565b811461478d57600080fd5b50565b60008135905061479f81614779565b92915050565b6000602082840312156147bb576147ba614036565b5b60006147c984828501614790565b91505092915050565b600061ffff82169050919050565b6147e9816147d2565b82525050565b60808201600082015161480560008501826147e0565b50602082015161481860208501826147e0565b50604082015161482b60408501826147e0565b50606082015161483e60608501826147e0565b50505050565b600060808201905061485960008301846147ef565b92915050565b6148688161422a565b82525050565b6000602082019050614883600083018461485f565b92915050565b6000806000606084860312156148a2576148a1614036565b5b60006148b086828701614622565b935050602084013567ffffffffffffffff8111156148d1576148d061403b565b5b6148dd86828701614158565b925050604084013567ffffffffffffffff8111156148fe576148fd61403b565b5b61490a86828701614158565b9150509250925092565b60006020828403121561492a57614929614036565b5b600061493884828501614622565b91505092915050565b60006102208301600083015161495a60008601826141fb565b50602083015161496d602086018261423c565b50604083015161498060408601826141fb565b50606083015184820360608601526149988282614317565b915050608083015184820360808601526149b282826142bd565b91505060a083015184820360a08601526149cc8282614317565b91505060c083015184820360c08601526149e682826142bd565b91505060e08301516149fb60e0860182614398565b50610100830151848203610100860152614a158282614317565b915050610120830151614a2c610120860182614398565b50610140830151848203610140860152614a468282614317565b915050610160830151614a5d610160860182614398565b50610180830151848203610180860152614a778282614317565b9150506101a08301518482036101a0860152614a9382826142bd565b9150506101c08301518482036101c0860152614aaf8282614317565b9150506101e08301518482036101e0860152614acb8282614317565b915050610200830151614ae2610200860182614398565b508091505092915050565b60006020820190508181036000830152614b078184614941565b905092915050565b600081519050919050565b600082825260208201905092915050565b6000819050602082019050919050565b60006040830160008301518482036000860152614b5882826142bd565b91505060208301518482036020860152614b7282826142bd565b9150508091505092915050565b6000614b8b8383614b3b565b905092915050565b6000602082019050919050565b6000614bab82614b0f565b614bb58185614b1a565b935083602082028501614bc785614b2b565b8060005b85811015614c035784840389528151614be48582614b7f565b9450614bef83614b93565b925060208a01995050600181019050614bcb565b50829750879550505050505092915050565b60006020820190508181036000830152614c2f8184614ba0565b905092915050565b600082825260208201905092915050565b6000614c538261424b565b614c5d8185614c37565b935083602082028501614c6f85614267565b8060005b85811015614cab5784840389528151614c8c85826142f6565b9450614c978361430a565b925060208a01995050600181019050614c73565b50829750879550505050505092915050565b60006020820190508181036000830152614cd78184614c48565b905092915050565b608082016000820151614cf560008501826147e0565b506020820151614d0860208501826147e0565b506040820151614d1b60408501826147e0565b506060820151614d2e60608501826147e0565b50505050565b6000608082019050614d496000830184614cdf565b92915050565b614d58816147d2565b82525050565b6000604082019050614d736000830185614d4f565b614d806020830184614d4f565b9392505050565b600067ffffffffffffffff821115614da257614da161405b565b5b602082029050602081019050919050565b600080fd5b6000614dcb614dc684614d87565b6140bb565b90508083825260208201905060208402830185811115614dee57614ded614db3565b5b835b81811015614e3557803567ffffffffffffffff811115614e1357614e12614040565b5b808601614e208982614158565b85526020850194505050602081019050614df0565b5050509392505050565b600082601f830112614e5457614e53614040565b5b8135614e64848260208601614db8565b91505092915050565b60008060008060008060008060008060006101608c8e031215614e9357614e92614036565b5b6000614ea18e828f01614622565b9b505060208c013567ffffffffffffffff811115614ec257614ec161403b565b5b614ece8e828f01614e3f565b9a505060408c013567ffffffffffffffff811115614eef57614eee61403b565b5b614efb8e828f01614158565b99505060608c013567ffffffffffffffff811115614f1c57614f1b61403b565b5b614f288e828f01614e3f565b98505060808c013567ffffffffffffffff811115614f4957614f4861403b565b5b614f558e828f01614158565b97505060a08c013567ffffffffffffffff811115614f7657614f7561403b565b5b614f828e828f01614e3f565b96505060c08c013567ffffffffffffffff811115614fa357614fa261403b565b5b614faf8e828f01614e3f565b95505060e08c013567ffffffffffffffff811115614fd057614fcf61403b565b5b614fdc8e828f01614e3f565b9450506101008c013567ffffffffffffffff811115614ffe57614ffd61403b565b5b61500a8e828f01614158565b9350506101208c013567ffffffffffffffff81111561502c5761502b61403b565b5b6150388e828f01614e3f565b9250506101408c013567ffffffffffffffff81111561505a5761505961403b565b5b6150668e828f01614158565b9150509295989b509295989b9093969950565b6150828161422a565b811461508d57600080fd5b50565b60008135905061509f81615079565b92915050565b600080604083850312156150bc576150bb614036565b5b60006150ca85828601615090565b925050602083013567ffffffffffffffff8111156150eb576150ea61403b565b5b6150f785828601614158565b9150509250929050565b600060ff82169050919050565b61511781615101565b82525050565b6000602082019050615132600083018461510e565b92915050565b600081905092915050565b600061514e82614277565b6151588185615138565b9350615168818560208601614293565b80840191505092915050565b60006151808284615143565b915081905092915050565b7f4e487b7100000000000000000000000000000000000000000000000000000000600052602260045260246000fd5b600060028204905060018216806151d257607f821691505b6020821081036151e5576151e461518b565b5b50919050565b7f4e487b7100000000000000000000000000000000000000000000000000000000600052603260045260246000fd5b60008190508160005260206000209050919050565b60006020601f8301049050919050565b600082821b905092915050565b60006008830261527c7fffffffffffffffffffffffffffffffffffffffffffffffffffffffffffffffff8261523f565b615286868361523f565b95508019841693508086168417925050509392505050565b6000819050919050565b60006152c36152be6152b984613ff8565b61529e565b613ff8565b9050919050565b6000819050919050565b6152dd836152a8565b6152f16152e9826152ca565b84845461524c565b825550505050565b600090565b6153066152f9565b6153118184846152d4565b505050565b5b818110156153355761532a6000826152fe565b600181019050615317565b5050565b601f82111561537a5761534b8161521a565b6153548461522f565b81016020851015615363578190505b61537761536f8561522f565b830182615316565b50505b505050565b600082821c905092915050565b600061539d6000198460080261537f565b1980831691505092915050565b60006153b6838361538c565b9150826002028217905092915050565b6153cf82614277565b67ffffffffffffffff8111156153e8576153e761405b565b5b6153f282546151ba565b6153fd828285615339565b600060209050601f831160018114615430576000841561541e578287015190505b61542885826153aa565b865550615490565b601f19841661543e8661521a565b60005b8281101561546657848901518255600182019150602085019450602081019050615441565b86831015615483578489015161547f601f89168261538c565b8355505b6001600288020188555050505b505050505050565b7f4e487b7100000000000000000000000000000000000000000000000000000000600052601160045260246000fd5b60006154d282613ff8565b91507fffffffffffffffffffffffffffffffffffffffffffffffffffffffffffffffff820361550457615503615498565b5b600182019050919050565b600061551a826147d2565b91506000820361552d5761552c615498565b5b600182039050919050565b600061554382613ff8565b915061554e83613ff8565b925082820390508181111561556657615565615498565b5b92915050565b6000615577826147d2565b915061ffff820361558b5761558a615498565b5b600182019050919050565b60006155a182615101565b91506155ac83615101565b9250828201905060ff8111156155c5576155c4615498565b5b9291505056fea2646970667358221220e7d8170c52d4f1aba0fdd7ac91cff79899a6336c8a9b086c71f8509f3afefb1764736f6c63430008100033",
  "immutableReferences": {},
  "source": "pragma solidity >= 0.7.0 < 0.9.0;\r\n\r\n\r\ncontract CrimeReport{\r\n\r\n/* Array Of Feedback in another stuct not supported yet.\r\n    struct Feedback{\r\n\r\n        // Wallet Address who submitted Feedback\r\n         address feebdbackFrom;\r\n\r\n        // Feedback\r\n        string feedback;\r\n\r\n        // Feedback Time\r\n        // uint256 timestamp;\r\n    }\r\n\r\n    */\r\n\r\n    // Conversation Model\r\n    struct MESSAGE{\r\n        // uint256 id;\r\n        string from;\r\n        string message;\r\n    }\r\n\r\n    struct Crime{\r\n\r\n        // Unique Id Number for each crime\r\n        uint256 crimeId;\r\n\r\n        // Wallet Address who submitted crime details\r\n        address reporterWalletAddress;\r\n\r\n        // TimeStamp in Unix / Epoch\r\n        uint256 timeStamp;\r\n\r\n        /*\r\n        // State Name Where Crime Occured\r\n        string state; \r\n\r\n        // City Name Where Crime Occured\r\n        string city; \r\n\r\n        // Geographical Coordinates\r\n        string latitude; \r\n        string longitude; \r\n        */\r\n\r\n        string[] location;\r\n\r\n        // Crime Type -> Murder/Theft/Robbery...etc\r\n        string crimeType;\r\n\r\n        /* Questionnaire regarding crime type and mapping it to answer.\r\n           Question_Number -> Answer\r\n           mapping(uint32 => string) questionnaires;\r\n        */\r\n        \r\n        /*  Use This if Above Mapping doesn't work \r\n\r\n        // Questionnaire regarding crime type */\r\n        //string[] questionnaires;\r\n\r\n        // Answers of Questionnaire.\r\n        string[] questionnaireAnswers;\r\n\r\n        \r\n\r\n        // Crime Description in detail\r\n        string crimeDesc; \r\n\r\n        /* Details regarding suspect\r\n            KEY         -> VALUE\r\n            Name        -> name_of_suspect\r\n            Age_Group   -> Young Adult(Below 30) | Middle-aged Adult(Below 60) | Old Adults(Above 60)\r\n            Gender      -> Male | Female\r\n            Description -> Other Details to identify suspects (eg.Face color, hair color, height... etc)\r\n\r\n        mapping(string => string) suspectInfo;\r\n        */\r\n        bool isSuspectKnown;\r\n        string[] suspectInfoAnswers;\r\n\r\n        /* Details regarding vehicle if any involved in case\r\n            KEY -> VALUE\r\n            License plate state , Number, Vehicle color.. etc.\r\n            mapping(string => string) vehicleInfo;\r\n        */\r\n        bool isVehiclePresent;\r\n        string[] vehicleInfoAnswers;\r\n        \r\n\r\n        /* Victim Details if known\r\n            KEY -> VALUE\r\n            Name, address... etc.\r\n            mapping(string => string) victimInfo;\r\n        */\r\n        bool isVictimKnown;\r\n        string[] victimInfoAnswers;\r\n\r\n        // IPFS Hash If any media files attached.\r\n        string ipfsHash;\r\n\r\n        // input file names\r\n        string[] fileNames;\r\n\r\n        // Feedbacks\r\n        string[] feedbacks;\r\n\r\n        // Case is active or closed [Active = true | Close = false]\r\n        bool isCaseActive; \r\n        \r\n        /*\r\n            KEY = ADMIN | USER\r\n            Value = MESSAGE\r\n        */\r\n\r\n    }\r\n\r\n    // Statistics Model\r\n\r\n    struct Statistics{\r\n        uint16 murderCases;\r\n        uint16 theftCases;\r\n\t    uint16 drugsCases;\r\n\t    uint16 harassmentCases;\r\n    }\r\n\r\n    struct StateCases{\r\n        uint16 maharashtraCases;\r\n        uint16 tamilnaduCases;\r\n        uint16 pondicherryCases;\r\n        uint16 uttarPradeshCases;\r\n    }\r\n\r\n    // mapping(string=>mapping(address=>uint8)) countTipsPerDay;\r\n    mapping(address=>mapping(string=>uint8)) public countTipsPerDay;\r\n\r\n\r\n    StateCases stateCases;\r\n    // active cases counter \r\n    uint16 totalActiveCases;\r\n\r\n    // Crime ID Wise Comversation\r\n    mapping(uint256 => MESSAGE[]) private conversations;\r\n\r\n    // List Of All Crimes that reported\r\n    Crime[] private crimes;\r\n    Statistics private stats;\r\n    // Stores all crimes user wise.\r\n    mapping(address => Crime[]) crimesByUsers;\r\n\r\n    // Store all crimes of city\r\n    mapping(string => Crime[]) crimesOfCity;\r\n\r\n    // Function to submit crime (Storing Crime Details)\r\n    function submitCrime(uint256 _timestamp,\r\n                         string[] memory _location,\r\n                         string memory _crimeType,\r\n                         string[] memory _questionnaireAnswers,\r\n                         string memory _crimeDesc,\r\n                         string[] memory _suspectInfoAnswers,\r\n                         string[] memory _vehicleInfoAnswers,\r\n                         string[] memory _victimInfoAnswers,\r\n                         string memory _ipfsHash,\r\n                         string[] memory _fileNames,\r\n                         string memory _date\r\n                        ) external returns(bool){\r\n\r\n\r\n         Crime memory crime;     \r\n         crime.crimeId = crimes.length;   \r\n         crime.reporterWalletAddress = getReporterWalletAddress();\r\n         crime.timeStamp = _timestamp;   \r\n         crime.location = _location;\r\n         crime.crimeType = _crimeType;     \r\n         crime.questionnaireAnswers = _questionnaireAnswers;\r\n         crime.crimeDesc = _crimeDesc; \r\n         crime.isCaseActive = true;\r\n         \r\n         crime.isSuspectKnown = false;\r\n         if(_suspectInfoAnswers.length>0){\r\n             crime.isSuspectKnown = true;\r\n             crime.suspectInfoAnswers = _suspectInfoAnswers;\r\n         }\r\n\r\n         crime.isVehiclePresent = false;\r\n         if(_vehicleInfoAnswers.length>0){\r\n             crime.isVehiclePresent = true;\r\n             crime.vehicleInfoAnswers = _vehicleInfoAnswers;\r\n         }\r\n\r\n         crime.isVictimKnown = false;\r\n         if(_victimInfoAnswers.length>0){\r\n             crime.isVictimKnown = true;\r\n             crime.victimInfoAnswers = _victimInfoAnswers;\r\n         }\r\n\r\n        crime.ipfsHash = _ipfsHash;\r\n        crime.fileNames = _fileNames;\r\n        string[] memory _feedbacks;\r\n        crime.feedbacks = _feedbacks;\r\n        crimes.push(crime);\r\n\r\n        crimesByUsers[msg.sender].push(crime);\r\n        crimesOfCity[_location[1]].push(crime);\r\n\r\n        if(equal(_crimeType,\"Murder\")){\r\n            stats.murderCases++;\r\n        }else if(equal(_crimeType,\"Theft\")){\r\n            stats.theftCases++;\r\n        }else if(equal(_crimeType,\"Drugs\")){\r\n            stats.drugsCases++;\r\n        }else if(equal(_crimeType,\"Harassment\")){\r\n\t\tstats.harassmentCases++;\r\n        }\r\n\r\n        if(equal(_location[0],\"Maharashtra\")){\r\n            stateCases.maharashtraCases++;\r\n        }else if(equal(_location[0],\"Uttar Pradesh\")){\r\n            stateCases.uttarPradeshCases++;\r\n        }else if(equal(_location[0],\"Pondicherry\")){\r\n            stateCases.pondicherryCases++;\r\n        }else if(equal(_location[0],\"Tamil Nadu\")){\r\n\t\tstateCases.tamilnaduCases++;\r\n\t    }\r\n\r\n    totalActiveCases++;\r\n    countTipsPerDay[msg.sender][_date] = countTipsPerDay[msg.sender][_date] + 1;\r\n\r\n        return true;\r\n    }\r\n\r\n\r\n    // Function to submit Feedbacks\r\n    function submitFeedback(uint256 _crimeId,string memory _feedback) external{\r\n        crimes[_crimeId].feedbacks.push(_feedback);\r\n    }\r\n\r\n    // Return Feedbacks By CrimeID\r\n   function getFeedbacksById(uint256 _crimeId) public view returns(string[] memory){\r\n       return crimes[_crimeId].feedbacks;\r\n   }\r\n\r\n    // Function to return all crime to admin side\r\n    function getCrimes() public view returns (Crime[] memory) {\r\n       return crimes;\r\n   }\r\n\r\n   // Return Crime By CrimeID\r\n   function getCrimeById(uint256 _crimeId) public view returns(Crime memory){\r\n       return crimes[_crimeId];\r\n   }\r\n\r\n    // Returns Total Number Of Crimes\r\n    function totalCrimes() public view returns (uint256) {\r\n       return crimes.length;\r\n   }\r\n\r\n    // Returns Address of wallet who Reporting the crime\r\n    function getReporterWalletAddress() public view returns(address){\r\n        return msg.sender;\r\n    }\r\n\r\n    // Return Crimes Submitted by the current user\r\n   function getCrimeOfCurrentUser() public view returns(Crime[] memory){\r\n        return crimesByUsers[msg.sender];\r\n   }\r\n\r\n    // Return Crimes of city\r\n   function getCrimeOfCity(string memory _city) public view returns(Crime[] memory){\r\n        return crimesOfCity[_city];\r\n   }\r\n\r\n   // Function for admin to close case.\r\n  function closeCase(uint32 _crimeId) public {\r\n    totalActiveCases--;\r\n    crimes[_crimeId].isCaseActive = false;\r\n  }\r\n\r\n  // Conversation of admin to crime reporter.\r\n  function sendMessage(uint256 _crimeId,string memory _message, string memory _from) public{\r\n      MESSAGE memory currMessage;\r\n      currMessage.message = _message;\r\n      currMessage.from = _from;\r\n      conversations[_crimeId].push(currMessage);\r\n  }\r\n\r\n  // Get Conversation of admin & crime reporter.\r\n  function getMessages(uint256 _crimeId)  public view returns(MESSAGE[] memory){\r\n     return conversations[_crimeId];\r\n  }\r\n\r\n  // Get crime Statistics\r\n  function getCrimeStatistics() public view returns(Statistics memory) {\r\n      return (stats);\r\n  }\r\n \r\n // Get get Active Deative Cases \r\n    function getActiveDeativeCases() public view returns(uint16,uint16){\r\n    return (totalActiveCases,uint16(totalCrimes()-totalActiveCases));\r\n }\r\n\r\n  // Get crime Statistics of states\r\n  function getStateStatistics() public view returns(StateCases memory) {\r\n      return (stateCases);\r\n  }\r\n\r\n\r\n  function compare(string memory _a, string memory _b) public pure returns (int) {\r\n        bytes memory a = bytes(_a);\r\n        bytes memory b = bytes(_b);\r\n        uint minLength = a.length;\r\n        if (b.length < minLength) minLength = b.length;\r\n     \r\n        for (uint i = 0; i < minLength; i ++)\r\n            if (a[i] < b[i])\r\n                return -1;\r\n            else if (a[i] > b[i])\r\n                return 1;\r\n        if (a.length < b.length)\r\n            return -1;\r\n        else if (a.length > b.length)\r\n            return 1;\r\n        else\r\n            return 0;\r\n    }\r\n\r\n    function equal(string memory _a, string memory _b) public pure returns (bool) {\r\n        return compare(_a, _b) == 0;\r\n    }\r\n\r\n\r\n    function checkTipsCountOfUser(string memory _date)public view returns(bool){\r\n        if(countTipsPerDay[msg.sender][_date] >=3){\r\n            return false;\r\n        }else{\r\n            return true;\r\n        }\r\n    }\r\n    \r\n}\r\n\r\n\r\n/*\r\n    Parameters For Testing\r\n\r\n    1660627677,[\"Maharashtra\",\"Jalgaon\",\"2.9454465\",\"9.2487554\"],Theft,[\"Bike\"],\"I saw the person stealing bike and going to Shiv Colony side\",[],[],[],\"IFPS_HASH_HERE\"\r\n\r\n*/",
  "sourcePath": "D:\\SIH-PROJECT\\dnetwork\\contracts\\CrimeReport.sol",
  "compiler": {
    "name": "solc",
    "version": "0.8.16+commit.07a7930e.Emscripten.clang"
  },
  "schemaVersion": "3.4.15",
  "updatedAt": "2023-08-09T06:45:06.997Z",
  "networkType": "ethereum",
  "devdoc": {
    "kind": "dev",
    "methods": {},
    "version": 1
  },
  "userdoc": {
    "kind": "user",
    "methods": {},
    "version": 1
  }
}