{
  "contractName": "CrimeReport",
  "abi": [
    {
      "inputs": [
        {
          "internalType": "uint256",
          "name": "_timestamp",
          "type": "uint256"
        },
        {
          "internalType": "string[]",
          "name": "_location",
          "type": "string[]"
        },
        {
          "internalType": "string",
          "name": "_crimeType",
          "type": "string"
        },
        {
          "internalType": "string[]",
          "name": "_questionnaireAnswers",
          "type": "string[]"
        },
        {
          "internalType": "string",
          "name": "_crimeDesc",
          "type": "string"
        },
        {
          "internalType": "string[]",
          "name": "_suspectInfoAnswers",
          "type": "string[]"
        },
        {
          "internalType": "string[]",
          "name": "_vehicleInfoAnswers",
          "type": "string[]"
        },
        {
          "internalType": "string[]",
          "name": "_victimInfoAnswers",
          "type": "string[]"
        },
        {
          "internalType": "string",
          "name": "_ipfsHash",
          "type": "string"
        },
        {
          "internalType": "string[]",
          "name": "_fileNames",
          "type": "string[]"
        }
      ],
      "name": "submitCrime",
      "outputs": [],
      "stateMutability": "nonpayable",
      "type": "function"
    },
    {
      "inputs": [
        {
          "internalType": "uint256",
          "name": "_crimeId",
          "type": "uint256"
        },
        {
          "internalType": "string",
          "name": "_feedback",
          "type": "string"
        }
      ],
      "name": "submitFeedback",
      "outputs": [],
      "stateMutability": "nonpayable",
      "type": "function"
    },
    {
      "inputs": [
        {
          "internalType": "uint256",
          "name": "_crimeId",
          "type": "uint256"
        }
      ],
      "name": "getFeedbacksById",
      "outputs": [
        {
          "internalType": "string[]",
          "name": "",
          "type": "string[]"
        }
      ],
      "stateMutability": "view",
      "type": "function",
      "constant": true
    },
    {
      "inputs": [],
      "name": "getCrimes",
      "outputs": [
        {
          "components": [
            {
              "internalType": "uint256",
              "name": "crimeId",
              "type": "uint256"
            },
            {
              "internalType": "address",
              "name": "reporterWalletAddress",
              "type": "address"
            },
            {
              "internalType": "uint256",
              "name": "timeStamp",
              "type": "uint256"
            },
            {
              "internalType": "string[]",
              "name": "location",
              "type": "string[]"
            },
            {
              "internalType": "string",
              "name": "crimeType",
              "type": "string"
            },
            {
              "internalType": "string[]",
              "name": "questionnaireAnswers",
              "type": "string[]"
            },
            {
              "internalType": "string",
              "name": "crimeDesc",
              "type": "string"
            },
            {
              "internalType": "bool",
              "name": "isSuspectKnown",
              "type": "bool"
            },
            {
              "internalType": "string[]",
              "name": "suspectInfoAnswers",
              "type": "string[]"
            },
            {
              "internalType": "bool",
              "name": "isVehiclePresent",
              "type": "bool"
            },
            {
              "internalType": "string[]",
              "name": "vehicleInfoAnswers",
              "type": "string[]"
            },
            {
              "internalType": "bool",
              "name": "isVictimKnown",
              "type": "bool"
            },
            {
              "internalType": "string[]",
              "name": "victimInfoAnswers",
              "type": "string[]"
            },
            {
              "internalType": "string",
              "name": "ipfsHash",
              "type": "string"
            },
            {
              "internalType": "string[]",
              "name": "fileNames",
              "type": "string[]"
            },
            {
              "internalType": "string[]",
              "name": "feedbacks",
              "type": "string[]"
            },
            {
              "internalType": "bool",
              "name": "isCaseActive",
              "type": "bool"
            }
          ],
          "internalType": "struct CrimeReport.Crime[]",
          "name": "",
          "type": "tuple[]"
        }
      ],
      "stateMutability": "view",
      "type": "function",
      "constant": true
    },
    {
      "inputs": [
        {
          "internalType": "uint256",
          "name": "_crimeId",
          "type": "uint256"
        }
      ],
      "name": "getCrimeById",
      "outputs": [
        {
          "components": [
            {
              "internalType": "uint256",
              "name": "crimeId",
              "type": "uint256"
            },
            {
              "internalType": "address",
              "name": "reporterWalletAddress",
              "type": "address"
            },
            {
              "internalType": "uint256",
              "name": "timeStamp",
              "type": "uint256"
            },
            {
              "internalType": "string[]",
              "name": "location",
              "type": "string[]"
            },
            {
              "internalType": "string",
              "name": "crimeType",
              "type": "string"
            },
            {
              "internalType": "string[]",
              "name": "questionnaireAnswers",
              "type": "string[]"
            },
            {
              "internalType": "string",
              "name": "crimeDesc",
              "type": "string"
            },
            {
              "internalType": "bool",
              "name": "isSuspectKnown",
              "type": "bool"
            },
            {
              "internalType": "string[]",
              "name": "suspectInfoAnswers",
              "type": "string[]"
            },
            {
              "internalType": "bool",
              "name": "isVehiclePresent",
              "type": "bool"
            },
            {
              "internalType": "string[]",
              "name": "vehicleInfoAnswers",
              "type": "string[]"
            },
            {
              "internalType": "bool",
              "name": "isVictimKnown",
              "type": "bool"
            },
            {
              "internalType": "string[]",
              "name": "victimInfoAnswers",
              "type": "string[]"
            },
            {
              "internalType": "string",
              "name": "ipfsHash",
              "type": "string"
            },
            {
              "internalType": "string[]",
              "name": "fileNames",
              "type": "string[]"
            },
            {
              "internalType": "string[]",
              "name": "feedbacks",
              "type": "string[]"
            },
            {
              "internalType": "bool",
              "name": "isCaseActive",
              "type": "bool"
            }
          ],
          "internalType": "struct CrimeReport.Crime",
          "name": "",
          "type": "tuple"
        }
      ],
      "stateMutability": "view",
      "type": "function",
      "constant": true
    },
    {
      "inputs": [],
      "name": "totalCrimes",
      "outputs": [
        {
          "internalType": "uint256",
          "name": "",
          "type": "uint256"
        }
      ],
      "stateMutability": "view",
      "type": "function",
      "constant": true
    },
    {
      "inputs": [],
      "name": "getReporterWalletAddress",
      "outputs": [
        {
          "internalType": "address",
          "name": "",
          "type": "address"
        }
      ],
      "stateMutability": "view",
      "type": "function",
      "constant": true
    },
    {
      "inputs": [],
      "name": "getCrimeOfCurrentUser",
      "outputs": [
        {
          "components": [
            {
              "internalType": "uint256",
              "name": "crimeId",
              "type": "uint256"
            },
            {
              "internalType": "address",
              "name": "reporterWalletAddress",
              "type": "address"
            },
            {
              "internalType": "uint256",
              "name": "timeStamp",
              "type": "uint256"
            },
            {
              "internalType": "string[]",
              "name": "location",
              "type": "string[]"
            },
            {
              "internalType": "string",
              "name": "crimeType",
              "type": "string"
            },
            {
              "internalType": "string[]",
              "name": "questionnaireAnswers",
              "type": "string[]"
            },
            {
              "internalType": "string",
              "name": "crimeDesc",
              "type": "string"
            },
            {
              "internalType": "bool",
              "name": "isSuspectKnown",
              "type": "bool"
            },
            {
              "internalType": "string[]",
              "name": "suspectInfoAnswers",
              "type": "string[]"
            },
            {
              "internalType": "bool",
              "name": "isVehiclePresent",
              "type": "bool"
            },
            {
              "internalType": "string[]",
              "name": "vehicleInfoAnswers",
              "type": "string[]"
            },
            {
              "internalType": "bool",
              "name": "isVictimKnown",
              "type": "bool"
            },
            {
              "internalType": "string[]",
              "name": "victimInfoAnswers",
              "type": "string[]"
            },
            {
              "internalType": "string",
              "name": "ipfsHash",
              "type": "string"
            },
            {
              "internalType": "string[]",
              "name": "fileNames",
              "type": "string[]"
            },
            {
              "internalType": "string[]",
              "name": "feedbacks",
              "type": "string[]"
            },
            {
              "internalType": "bool",
              "name": "isCaseActive",
              "type": "bool"
            }
          ],
          "internalType": "struct CrimeReport.Crime[]",
          "name": "",
          "type": "tuple[]"
        }
      ],
      "stateMutability": "view",
      "type": "function",
      "constant": true
    },
    {
      "inputs": [
        {
          "internalType": "string",
          "name": "_city",
          "type": "string"
        }
      ],
      "name": "getCrimeOfCity",
      "outputs": [
        {
          "components": [
            {
              "internalType": "uint256",
              "name": "crimeId",
              "type": "uint256"
            },
            {
              "internalType": "address",
              "name": "reporterWalletAddress",
              "type": "address"
            },
            {
              "internalType": "uint256",
              "name": "timeStamp",
              "type": "uint256"
            },
            {
              "internalType": "string[]",
              "name": "location",
              "type": "string[]"
            },
            {
              "internalType": "string",
              "name": "crimeType",
              "type": "string"
            },
            {
              "internalType": "string[]",
              "name": "questionnaireAnswers",
              "type": "string[]"
            },
            {
              "internalType": "string",
              "name": "crimeDesc",
              "type": "string"
            },
            {
              "internalType": "bool",
              "name": "isSuspectKnown",
              "type": "bool"
            },
            {
              "internalType": "string[]",
              "name": "suspectInfoAnswers",
              "type": "string[]"
            },
            {
              "internalType": "bool",
              "name": "isVehiclePresent",
              "type": "bool"
            },
            {
              "internalType": "string[]",
              "name": "vehicleInfoAnswers",
              "type": "string[]"
            },
            {
              "internalType": "bool",
              "name": "isVictimKnown",
              "type": "bool"
            },
            {
              "internalType": "string[]",
              "name": "victimInfoAnswers",
              "type": "string[]"
            },
            {
              "internalType": "string",
              "name": "ipfsHash",
              "type": "string"
            },
            {
              "internalType": "string[]",
              "name": "fileNames",
              "type": "string[]"
            },
            {
              "internalType": "string[]",
              "name": "feedbacks",
              "type": "string[]"
            },
            {
              "internalType": "bool",
              "name": "isCaseActive",
              "type": "bool"
            }
          ],
          "internalType": "struct CrimeReport.Crime[]",
          "name": "",
          "type": "tuple[]"
        }
      ],
      "stateMutability": "view",
      "type": "function",
      "constant": true
    },
    {
      "inputs": [
        {
          "internalType": "uint32",
          "name": "_crimeId",
          "type": "uint32"
        }
      ],
      "name": "closeCase",
      "outputs": [],
      "stateMutability": "nonpayable",
      "type": "function"
    },
    {
      "inputs": [
        {
          "internalType": "uint256",
          "name": "_crimeId",
          "type": "uint256"
        },
        {
          "internalType": "string",
          "name": "_message",
          "type": "string"
        },
        {
          "internalType": "string",
          "name": "_from",
          "type": "string"
        }
      ],
      "name": "sendMessage",
      "outputs": [],
      "stateMutability": "nonpayable",
      "type": "function"
    },
    {
      "inputs": [],
      "name": "getCrimeStatistics",
      "outputs": [
        {
          "components": [
            {
              "internalType": "uint16",
              "name": "murderCases",
              "type": "uint16"
            },
            {
              "internalType": "uint16",
              "name": "theftCases",
              "type": "uint16"
            },
            {
              "internalType": "uint16",
              "name": "drugsCases",
              "type": "uint16"
            },
            {
              "internalType": "uint16",
              "name": "harassmentCases",
              "type": "uint16"
            }
          ],
          "internalType": "struct CrimeReport.Statistics",
          "name": "",
          "type": "tuple"
        }
      ],
      "stateMutability": "view",
      "type": "function",
      "constant": true
    },
    {
      "inputs": [],
      "name": "getActiveDeativeCases",
      "outputs": [
        {
          "internalType": "uint16",
          "name": "",
          "type": "uint16"
        },
        {
          "internalType": "uint16",
          "name": "",
          "type": "uint16"
        }
      ],
      "stateMutability": "view",
      "type": "function",
      "constant": true
    },
    {
      "inputs": [
        {
          "internalType": "string",
          "name": "_a",
          "type": "string"
        },
        {
          "internalType": "string",
          "name": "_b",
          "type": "string"
        }
      ],
      "name": "compare",
      "outputs": [
        {
          "internalType": "int256",
          "name": "",
          "type": "int256"
        }
      ],
      "stateMutability": "pure",
      "type": "function",
      "constant": true
    },
    {
      "inputs": [
        {
          "internalType": "string",
          "name": "_a",
          "type": "string"
        },
        {
          "internalType": "string",
          "name": "_b",
          "type": "string"
        }
      ],
      "name": "equal",
      "outputs": [
        {
          "internalType": "bool",
          "name": "",
          "type": "bool"
        }
      ],
      "stateMutability": "pure",
      "type": "function",
      "constant": true
    }
  ],
  "bytecode": "0x608060405234801561001057600080fd5b50614bc8806100206000396000f3fe608060405234801561001057600080fd5b50600436106100f55760003560e01c806368b3275b11610097578063a4881afd11610066578063a4881afd14610284578063b46b6d60146102a2578063c7251143146102c0578063cd5813eb146102f0576100f5565b806368b3275b146101fe5780636b561b2f1461021c578063749b5e5214610238578063a369c8de14610268576100f5565b80633a96fdd7116100d35780633a96fdd71461016457806346bdca9a146101945780634c253551146101c45780635a61e48d146101e0576100f5565b806305608f64146100fa57806314034a741461011857806320b0c9d614610148575b600080fd5b61010261030f565b60405161010f9190613861565b60405180910390f35b610132600480360381019061012d91906139d6565b61031c565b60405161013f9190613e39565b60405180910390f35b610162600480360381019061015d9190613e87565b610c15565b005b61017e60048036038101906101799190613ee3565b610c71565b60405161018b9190613f74565b60405180910390f35b6101ae60048036038101906101a99190613ee3565b610e4d565b6040516101bb9190613f9e565b60405180910390f35b6101de60048036038101906101d99190613ff5565b610e63565b005b6101e8610ee4565b6040516101f59190614094565b60405180910390f35b610206610f7e565b60405161021391906140be565b60405180910390f35b610236600480360381019061023191906140d9565b610f86565b005b610252600480360381019061024d9190614164565b611019565b60405161025f919061433d565b60405180910390f35b610282600480360381019061027d9190614445565b6118d1565b005b61028c612364565b6040516102999190613e39565b60405180910390f35b6102aa612c3f565b6040516102b79190613e39565b60405180910390f35b6102da60048036038101906102d59190614164565b613557565b6040516102e791906146a6565b60405180910390f35b6102f8613655565b6040516103069291906146d7565b60405180910390f35b6000600280549050905090565b606060058260405161032e919061473c565b9081526020016040518091039020805480602002602001604051908101604052809291908181526020016000905b82821015610c0a578382906000526020600020906011020160405180610220016040529081600082015481526020016001820160009054906101000a900473ffffffffffffffffffffffffffffffffffffffff1673ffffffffffffffffffffffffffffffffffffffff1673ffffffffffffffffffffffffffffffffffffffff1681526020016002820154815260200160038201805480602002602001604051908101604052809291908181526020016000905b828210156104bb57838290600052602060002001805461042e90614782565b80601f016020809104026020016040519081016040528092919081815260200182805461045a90614782565b80156104a75780601f1061047c576101008083540402835291602001916104a7565b820191906000526020600020905b81548152906001019060200180831161048a57829003601f168201915b50505050508152602001906001019061040f565b5050505081526020016004820180546104d390614782565b80601f01602080910402602001604051908101604052809291908181526020018280546104ff90614782565b801561054c5780601f106105215761010080835404028352916020019161054c565b820191906000526020600020905b81548152906001019060200180831161052f57829003601f168201915b5050505050815260200160058201805480602002602001604051908101604052809291908181526020016000905b8282101561062657838290600052602060002001805461059990614782565b80601f01602080910402602001604051908101604052809291908181526020018280546105c590614782565b80156106125780601f106105e757610100808354040283529160200191610612565b820191906000526020600020905b8154815290600101906020018083116105f557829003601f168201915b50505050508152602001906001019061057a565b50505050815260200160068201805461063e90614782565b80601f016020809104026020016040519081016040528092919081815260200182805461066a90614782565b80156106b75780601f1061068c576101008083540402835291602001916106b7565b820191906000526020600020905b81548152906001019060200180831161069a57829003601f168201915b505050505081526020016007820160009054906101000a900460ff1615151515815260200160088201805480602002602001604051908101604052809291908181526020016000905b828210156107ac57838290600052602060002001805461071f90614782565b80601f016020809104026020016040519081016040528092919081815260200182805461074b90614782565b80156107985780601f1061076d57610100808354040283529160200191610798565b820191906000526020600020905b81548152906001019060200180831161077b57829003601f168201915b505050505081526020019060010190610700565b5050505081526020016009820160009054906101000a900460ff16151515158152602001600a8201805480602002602001604051908101604052809291908181526020016000905b828210156108a057838290600052602060002001805461081390614782565b80601f016020809104026020016040519081016040528092919081815260200182805461083f90614782565b801561088c5780601f106108615761010080835404028352916020019161088c565b820191906000526020600020905b81548152906001019060200180831161086f57829003601f168201915b5050505050815260200190600101906107f4565b505050508152602001600b820160009054906101000a900460ff16151515158152602001600c8201805480602002602001604051908101604052809291908181526020016000905b8282101561099457838290600052602060002001805461090790614782565b80601f016020809104026020016040519081016040528092919081815260200182805461093390614782565b80156109805780601f1061095557610100808354040283529160200191610980565b820191906000526020600020905b81548152906001019060200180831161096357829003601f168201915b5050505050815260200190600101906108e8565b505050508152602001600d820180546109ac90614782565b80601f01602080910402602001604051908101604052809291908181526020018280546109d890614782565b8015610a255780601f106109fa57610100808354040283529160200191610a25565b820191906000526020600020905b815481529060010190602001808311610a0857829003601f168201915b50505050508152602001600e8201805480602002602001604051908101604052809291908181526020016000905b82821015610aff578382906000526020600020018054610a7290614782565b80601f0160208091040260200160405190810160405280929190818152602001828054610a9e90614782565b8015610aeb5780601f10610ac057610100808354040283529160200191610aeb565b820191906000526020600020905b815481529060010190602001808311610ace57829003601f168201915b505050505081526020019060010190610a53565b505050508152602001600f8201805480602002602001604051908101604052809291908181526020016000905b82821015610bd8578382906000526020600020018054610b4b90614782565b80601f0160208091040260200160405190810160405280929190818152602001828054610b7790614782565b8015610bc45780601f10610b9957610100808354040283529160200191610bc4565b820191906000526020600020905b815481529060010190602001808311610ba757829003601f168201915b505050505081526020019060010190610b2c565b5050505081526020016010820160009054906101000a900460ff1615151515815250508152602001906001019061035c565b505050509050919050565b60028281548110610c2957610c286147b3565b5b9060005260206000209060110201600f0181908060018154018082558091505060019003906000526020600020016000909190919091509081610c6c919061498e565b505050565b60008083905060008390506000825190508082511015610c9057815190505b60005b81811015610df357828181518110610cae57610cad6147b3565b5b602001015160f81c60f81b7effffffffffffffffffffffffffffffffffffffffffffffffffffffffffffff1916848281518110610cee57610ced6147b3565b5b602001015160f81c60f81b7effffffffffffffffffffffffffffffffffffffffffffffffffffffffffffff19161015610d4d577fffffffffffffffffffffffffffffffffffffffffffffffffffffffffffffffff945050505050610e47565b828181518110610d6057610d5f6147b3565b5b602001015160f81c60f81b7effffffffffffffffffffffffffffffffffffffffffffffffffffffffffffff1916848281518110610da057610d9f6147b3565b5b602001015160f81c60f81b7effffffffffffffffffffffffffffffffffffffffffffffffffffffffffffff19161115610de0576001945050505050610e47565b8080610deb90614a8f565b915050610c93565b50815183511015610e29577fffffffffffffffffffffffffffffffffffffffffffffffffffffffffffffffff9350505050610e47565b815183511115610e3f5760019350505050610e47565b600093505050505b92915050565b600080610e5a8484610c71565b14905092915050565b60008081819054906101000a900461ffff1680929190610e8290614ad7565b91906101000a81548161ffff021916908361ffff16021790555050600060028263ffffffff1681548110610eb957610eb86147b3565b5b906000526020600020906011020160100160006101000a81548160ff02191690831515021790555050565b610eec613694565b60036040518060800160405290816000820160009054906101000a900461ffff1661ffff1661ffff1681526020016000820160029054906101000a900461ffff1661ffff1661ffff1681526020016000820160049054906101000a900461ffff1661ffff1661ffff1681526020016000820160069054906101000a900461ffff1661ffff1661ffff1681525050905090565b600033905090565b6000600180600086815260200190815260200160002060000154610faa9190614b00565b905060405180606001604052808281526020018381526020018481525060016000868152602001908152602001600020600082015181600001556020820151816001019081610ff9919061498e565b50604082015181600201908161100f919061498e565b5090505050505050565b6110216136cc565b60028281548110611035576110346147b3565b5b906000526020600020906011020160405180610220016040529081600082015481526020016001820160009054906101000a900473ffffffffffffffffffffffffffffffffffffffff1673ffffffffffffffffffffffffffffffffffffffff1673ffffffffffffffffffffffffffffffffffffffff1681526020016002820154815260200160038201805480602002602001604051908101604052809291908181526020016000905b8282101561118a5783829060005260206000200180546110fd90614782565b80601f016020809104026020016040519081016040528092919081815260200182805461112990614782565b80156111765780601f1061114b57610100808354040283529160200191611176565b820191906000526020600020905b81548152906001019060200180831161115957829003601f168201915b5050505050815260200190600101906110de565b5050505081526020016004820180546111a290614782565b80601f01602080910402602001604051908101604052809291908181526020018280546111ce90614782565b801561121b5780601f106111f05761010080835404028352916020019161121b565b820191906000526020600020905b8154815290600101906020018083116111fe57829003601f168201915b5050505050815260200160058201805480602002602001604051908101604052809291908181526020016000905b828210156112f557838290600052602060002001805461126890614782565b80601f016020809104026020016040519081016040528092919081815260200182805461129490614782565b80156112e15780601f106112b6576101008083540402835291602001916112e1565b820191906000526020600020905b8154815290600101906020018083116112c457829003601f168201915b505050505081526020019060010190611249565b50505050815260200160068201805461130d90614782565b80601f016020809104026020016040519081016040528092919081815260200182805461133990614782565b80156113865780601f1061135b57610100808354040283529160200191611386565b820191906000526020600020905b81548152906001019060200180831161136957829003601f168201915b505050505081526020016007820160009054906101000a900460ff1615151515815260200160088201805480602002602001604051908101604052809291908181526020016000905b8282101561147b5783829060005260206000200180546113ee90614782565b80601f016020809104026020016040519081016040528092919081815260200182805461141a90614782565b80156114675780601f1061143c57610100808354040283529160200191611467565b820191906000526020600020905b81548152906001019060200180831161144a57829003601f168201915b5050505050815260200190600101906113cf565b5050505081526020016009820160009054906101000a900460ff16151515158152602001600a8201805480602002602001604051908101604052809291908181526020016000905b8282101561156f5783829060005260206000200180546114e290614782565b80601f016020809104026020016040519081016040528092919081815260200182805461150e90614782565b801561155b5780601f106115305761010080835404028352916020019161155b565b820191906000526020600020905b81548152906001019060200180831161153e57829003601f168201915b5050505050815260200190600101906114c3565b505050508152602001600b820160009054906101000a900460ff16151515158152602001600c8201805480602002602001604051908101604052809291908181526020016000905b828210156116635783829060005260206000200180546115d690614782565b80601f016020809104026020016040519081016040528092919081815260200182805461160290614782565b801561164f5780601f106116245761010080835404028352916020019161164f565b820191906000526020600020905b81548152906001019060200180831161163257829003601f168201915b5050505050815260200190600101906115b7565b505050508152602001600d8201805461167b90614782565b80601f01602080910402602001604051908101604052809291908181526020018280546116a790614782565b80156116f45780601f106116c9576101008083540402835291602001916116f4565b820191906000526020600020905b8154815290600101906020018083116116d757829003601f168201915b50505050508152602001600e8201805480602002602001604051908101604052809291908181526020016000905b828210156117ce57838290600052602060002001805461174190614782565b80601f016020809104026020016040519081016040528092919081815260200182805461176d90614782565b80156117ba5780601f1061178f576101008083540402835291602001916117ba565b820191906000526020600020905b81548152906001019060200180831161179d57829003601f168201915b505050505081526020019060010190611722565b505050508152602001600f8201805480602002602001604051908101604052809291908181526020016000905b828210156118a757838290600052602060002001805461181a90614782565b80601f016020809104026020016040519081016040528092919081815260200182805461184690614782565b80156118935780601f1061186857610100808354040283529160200191611893565b820191906000526020600020905b81548152906001019060200180831161187657829003601f168201915b5050505050815260200190600101906117fb565b5050505081526020016010820160009054906101000a900460ff1615151515815250509050919050565b6118d96136cc565b6002805490508160000181815250506118f0610f7e565b816020019073ffffffffffffffffffffffffffffffffffffffff16908173ffffffffffffffffffffffffffffffffffffffff16815250508a816040018181525050898160600181905250888160800181905250878160a00181905250868160c0018190525060018161020001901515908115158152505060008160e001901515908115158152505060008651111561199e5760018160e0019015159081151581525050858161010001819052505b6000816101200190151590811515815250506000855111156119d757600181610120019015159081151581525050848161014001819052505b600081610160019015159081151581525050600084511115611a1057600181610160019015159081151581525050838161018001819052505b82816101a0018190525081816101c00181905250606080826101e0018190525060028290806001815401808255809150506001900390600052602060002090601102016000909190919091506000820151816000015560208201518160010160006101000a81548173ffffffffffffffffffffffffffffffffffffffff021916908373ffffffffffffffffffffffffffffffffffffffff160217905550604082015181600201556060820151816003019080519060200190611ad392919061376e565b506080820151816004019081611ae9919061498e565b5060a0820151816005019080519060200190611b0692919061376e565b5060c0820151816006019081611b1c919061498e565b5060e08201518160070160006101000a81548160ff021916908315150217905550610100820151816008019080519060200190611b5a92919061376e565b506101208201518160090160006101000a81548160ff02191690831515021790555061014082015181600a019080519060200190611b9992919061376e565b5061016082015181600b0160006101000a81548160ff02191690831515021790555061018082015181600c019080519060200190611bd892919061376e565b506101a082015181600d019081611bef919061498e565b506101c082015181600e019080519060200190611c0d92919061376e565b506101e082015181600f019080519060200190611c2b92919061376e565b506102008201518160100160006101000a81548160ff0219169083151502179055505050600460003373ffffffffffffffffffffffffffffffffffffffff1673ffffffffffffffffffffffffffffffffffffffff1681526020019081526020016000208290806001815401808255809150506001900390600052602060002090601102016000909190919091506000820151816000015560208201518160010160006101000a81548173ffffffffffffffffffffffffffffffffffffffff021916908373ffffffffffffffffffffffffffffffffffffffff160217905550604082015181600201556060820151816003019080519060200190611d2f92919061376e565b506080820151816004019081611d45919061498e565b5060a0820151816005019080519060200190611d6292919061376e565b5060c0820151816006019081611d78919061498e565b5060e08201518160070160006101000a81548160ff021916908315150217905550610100820151816008019080519060200190611db692919061376e565b506101208201518160090160006101000a81548160ff02191690831515021790555061014082015181600a019080519060200190611df592919061376e565b5061016082015181600b0160006101000a81548160ff02191690831515021790555061018082015181600c019080519060200190611e3492919061376e565b506101a082015181600d019081611e4b919061498e565b506101c082015181600e019080519060200190611e6992919061376e565b506101e082015181600f019080519060200190611e8792919061376e565b506102008201518160100160006101000a81548160ff021916908315150217905550505060058b600181518110611ec157611ec06147b3565b5b6020026020010151604051611ed6919061473c565b90815260200160405180910390208290806001815401808255809150506001900390600052602060002090601102016000909190919091506000820151816000015560208201518160010160006101000a81548173ffffffffffffffffffffffffffffffffffffffff021916908373ffffffffffffffffffffffffffffffffffffffff160217905550604082015181600201556060820151816003019080519060200190611f8592919061376e565b506080820151816004019081611f9b919061498e565b5060a0820151816005019080519060200190611fb892919061376e565b5060c0820151816006019081611fce919061498e565b5060e08201518160070160006101000a81548160ff02191690831515021790555061010082015181600801908051906020019061200c92919061376e565b506101208201518160090160006101000a81548160ff02191690831515021790555061014082015181600a01908051906020019061204b92919061376e565b5061016082015181600b0160006101000a81548160ff02191690831515021790555061018082015181600c01908051906020019061208a92919061376e565b506101a082015181600d0190816120a1919061498e565b506101c082015181600e0190805190602001906120bf92919061376e565b506101e082015181600f0190805190602001906120dd92919061376e565b506102008201518160100160006101000a81548160ff02191690831515021790555050506121408a6040518060400160405280600681526020017f4d75726465720000000000000000000000000000000000000000000000000000815250610e4d565b15612188576003600001600081819054906101000a900461ffff168092919061216890614b34565b91906101000a81548161ffff021916908361ffff1602179055505061231c565b6121c78a6040518060400160405280600581526020017f5468656674000000000000000000000000000000000000000000000000000000815250610e4d565b1561220f576003600001600281819054906101000a900461ffff16809291906121ef90614b34565b91906101000a81548161ffff021916908361ffff1602179055505061231b565b61224e8a6040518060400160405280600581526020017f4472756773000000000000000000000000000000000000000000000000000000815250610e4d565b15612296576003600001600481819054906101000a900461ffff168092919061227690614b34565b91906101000a81548161ffff021916908361ffff1602179055505061231a565b6122d58a6040518060400160405280600a81526020017f4861726173736d656e7400000000000000000000000000000000000000000000815250610e4d565b15612319576003600001600681819054906101000a900461ffff16809291906122fd90614b34565b91906101000a81548161ffff021916908361ffff160217905550505b5b5b5b60008081819054906101000a900461ffff168092919061233b90614b34565b91906101000a81548161ffff021916908361ffff16021790555050505050505050505050505050565b60606002805480602002602001604051908101604052809291908181526020016000905b82821015612c36578382906000526020600020906011020160405180610220016040529081600082015481526020016001820160009054906101000a900473ffffffffffffffffffffffffffffffffffffffff1673ffffffffffffffffffffffffffffffffffffffff1673ffffffffffffffffffffffffffffffffffffffff1681526020016002820154815260200160038201805480602002602001604051908101604052809291908181526020016000905b828210156124e757838290600052602060002001805461245a90614782565b80601f016020809104026020016040519081016040528092919081815260200182805461248690614782565b80156124d35780601f106124a8576101008083540402835291602001916124d3565b820191906000526020600020905b8154815290600101906020018083116124b657829003601f168201915b50505050508152602001906001019061243b565b5050505081526020016004820180546124ff90614782565b80601f016020809104026020016040519081016040528092919081815260200182805461252b90614782565b80156125785780601f1061254d57610100808354040283529160200191612578565b820191906000526020600020905b81548152906001019060200180831161255b57829003601f168201915b5050505050815260200160058201805480602002602001604051908101604052809291908181526020016000905b828210156126525783829060005260206000200180546125c590614782565b80601f01602080910402602001604051908101604052809291908181526020018280546125f190614782565b801561263e5780601f106126135761010080835404028352916020019161263e565b820191906000526020600020905b81548152906001019060200180831161262157829003601f168201915b5050505050815260200190600101906125a6565b50505050815260200160068201805461266a90614782565b80601f016020809104026020016040519081016040528092919081815260200182805461269690614782565b80156126e35780601f106126b8576101008083540402835291602001916126e3565b820191906000526020600020905b8154815290600101906020018083116126c657829003601f168201915b505050505081526020016007820160009054906101000a900460ff1615151515815260200160088201805480602002602001604051908101604052809291908181526020016000905b828210156127d857838290600052602060002001805461274b90614782565b80601f016020809104026020016040519081016040528092919081815260200182805461277790614782565b80156127c45780601f10612799576101008083540402835291602001916127c4565b820191906000526020600020905b8154815290600101906020018083116127a757829003601f168201915b50505050508152602001906001019061272c565b5050505081526020016009820160009054906101000a900460ff16151515158152602001600a8201805480602002602001604051908101604052809291908181526020016000905b828210156128cc57838290600052602060002001805461283f90614782565b80601f016020809104026020016040519081016040528092919081815260200182805461286b90614782565b80156128b85780601f1061288d576101008083540402835291602001916128b8565b820191906000526020600020905b81548152906001019060200180831161289b57829003601f168201915b505050505081526020019060010190612820565b505050508152602001600b820160009054906101000a900460ff16151515158152602001600c8201805480602002602001604051908101604052809291908181526020016000905b828210156129c057838290600052602060002001805461293390614782565b80601f016020809104026020016040519081016040528092919081815260200182805461295f90614782565b80156129ac5780601f10612981576101008083540402835291602001916129ac565b820191906000526020600020905b81548152906001019060200180831161298f57829003601f168201915b505050505081526020019060010190612914565b505050508152602001600d820180546129d890614782565b80601f0160208091040260200160405190810160405280929190818152602001828054612a0490614782565b8015612a515780601f10612a2657610100808354040283529160200191612a51565b820191906000526020600020905b815481529060010190602001808311612a3457829003601f168201915b50505050508152602001600e8201805480602002602001604051908101604052809291908181526020016000905b82821015612b2b578382906000526020600020018054612a9e90614782565b80601f0160208091040260200160405190810160405280929190818152602001828054612aca90614782565b8015612b175780601f10612aec57610100808354040283529160200191612b17565b820191906000526020600020905b815481529060010190602001808311612afa57829003601f168201915b505050505081526020019060010190612a7f565b505050508152602001600f8201805480602002602001604051908101604052809291908181526020016000905b82821015612c04578382906000526020600020018054612b7790614782565b80601f0160208091040260200160405190810160405280929190818152602001828054612ba390614782565b8015612bf05780601f10612bc557610100808354040283529160200191612bf0565b820191906000526020600020905b815481529060010190602001808311612bd357829003601f168201915b505050505081526020019060010190612b58565b5050505081526020016010820160009054906101000a900460ff16151515158152505081526020019060010190612388565b50505050905090565b6060600460003373ffffffffffffffffffffffffffffffffffffffff1673ffffffffffffffffffffffffffffffffffffffff168152602001908152602001600020805480602002602001604051908101604052809291908181526020016000905b8282101561354e578382906000526020600020906011020160405180610220016040529081600082015481526020016001820160009054906101000a900473ffffffffffffffffffffffffffffffffffffffff1673ffffffffffffffffffffffffffffffffffffffff1673ffffffffffffffffffffffffffffffffffffffff1681526020016002820154815260200160038201805480602002602001604051908101604052809291908181526020016000905b82821015612dff578382906000526020600020018054612d7290614782565b80601f0160208091040260200160405190810160405280929190818152602001828054612d9e90614782565b8015612deb5780601f10612dc057610100808354040283529160200191612deb565b820191906000526020600020905b815481529060010190602001808311612dce57829003601f168201915b505050505081526020019060010190612d53565b505050508152602001600482018054612e1790614782565b80601f0160208091040260200160405190810160405280929190818152602001828054612e4390614782565b8015612e905780601f10612e6557610100808354040283529160200191612e90565b820191906000526020600020905b815481529060010190602001808311612e7357829003601f168201915b5050505050815260200160058201805480602002602001604051908101604052809291908181526020016000905b82821015612f6a578382906000526020600020018054612edd90614782565b80601f0160208091040260200160405190810160405280929190818152602001828054612f0990614782565b8015612f565780601f10612f2b57610100808354040283529160200191612f56565b820191906000526020600020905b815481529060010190602001808311612f3957829003601f168201915b505050505081526020019060010190612ebe565b505050508152602001600682018054612f8290614782565b80601f0160208091040260200160405190810160405280929190818152602001828054612fae90614782565b8015612ffb5780601f10612fd057610100808354040283529160200191612ffb565b820191906000526020600020905b815481529060010190602001808311612fde57829003601f168201915b505050505081526020016007820160009054906101000a900460ff1615151515815260200160088201805480602002602001604051908101604052809291908181526020016000905b828210156130f057838290600052602060002001805461306390614782565b80601f016020809104026020016040519081016040528092919081815260200182805461308f90614782565b80156130dc5780601f106130b1576101008083540402835291602001916130dc565b820191906000526020600020905b8154815290600101906020018083116130bf57829003601f168201915b505050505081526020019060010190613044565b5050505081526020016009820160009054906101000a900460ff16151515158152602001600a8201805480602002602001604051908101604052809291908181526020016000905b828210156131e457838290600052602060002001805461315790614782565b80601f016020809104026020016040519081016040528092919081815260200182805461318390614782565b80156131d05780601f106131a5576101008083540402835291602001916131d0565b820191906000526020600020905b8154815290600101906020018083116131b357829003601f168201915b505050505081526020019060010190613138565b505050508152602001600b820160009054906101000a900460ff16151515158152602001600c8201805480602002602001604051908101604052809291908181526020016000905b828210156132d857838290600052602060002001805461324b90614782565b80601f016020809104026020016040519081016040528092919081815260200182805461327790614782565b80156132c45780601f10613299576101008083540402835291602001916132c4565b820191906000526020600020905b8154815290600101906020018083116132a757829003601f168201915b50505050508152602001906001019061322c565b505050508152602001600d820180546132f090614782565b80601f016020809104026020016040519081016040528092919081815260200182805461331c90614782565b80156133695780601f1061333e57610100808354040283529160200191613369565b820191906000526020600020905b81548152906001019060200180831161334c57829003601f168201915b50505050508152602001600e8201805480602002602001604051908101604052809291908181526020016000905b828210156134435783829060005260206000200180546133b690614782565b80601f01602080910402602001604051908101604052809291908181526020018280546133e290614782565b801561342f5780601f106134045761010080835404028352916020019161342f565b820191906000526020600020905b81548152906001019060200180831161341257829003601f168201915b505050505081526020019060010190613397565b505050508152602001600f8201805480602002602001604051908101604052809291908181526020016000905b8282101561351c57838290600052602060002001805461348f90614782565b80601f01602080910402602001604051908101604052809291908181526020018280546134bb90614782565b80156135085780601f106134dd57610100808354040283529160200191613508565b820191906000526020600020905b8154815290600101906020018083116134eb57829003601f168201915b505050505081526020019060010190613470565b5050505081526020016010820160009054906101000a900460ff16151515158152505081526020019060010190612ca0565b50505050905090565b60606002828154811061356d5761356c6147b3565b5b9060005260206000209060110201600f01805480602002602001604051908101604052809291908181526020016000905b8282101561364a5783829060005260206000200180546135bd90614782565b80601f01602080910402602001604051908101604052809291908181526020018280546135e990614782565b80156136365780601f1061360b57610100808354040283529160200191613636565b820191906000526020600020905b81548152906001019060200180831161361957829003601f168201915b50505050508152602001906001019061359e565b505050509050919050565b60008060008054906101000a900461ffff1660008054906101000a900461ffff1661ffff1661368261030f565b61368c9190614b5e565b915091509091565b6040518060800160405280600061ffff168152602001600061ffff168152602001600061ffff168152602001600061ffff1681525090565b60405180610220016040528060008152602001600073ffffffffffffffffffffffffffffffffffffffff16815260200160008152602001606081526020016060815260200160608152602001606081526020016000151581526020016060815260200160001515815260200160608152602001600015158152602001606081526020016060815260200160608152602001606081526020016000151581525090565b8280548282559060005260206000209081019282156137b6579160200282015b828111156137b55782518290816137a5919061498e565b509160200191906001019061378e565b5b5090506137c391906137c7565b5090565b5b808211156137e757600081816137de91906137eb565b506001016137c8565b5090565b5080546137f790614782565b6000825580601f106138095750613828565b601f016020900490600052602060002090810190613827919061382b565b5b50565b5b8082111561384457600081600090555060010161382c565b5090565b6000819050919050565b61385b81613848565b82525050565b60006020820190506138766000830184613852565b92915050565b6000604051905090565b600080fd5b600080fd5b600080fd5b600080fd5b6000601f19601f8301169050919050565b7f4e487b7100000000000000000000000000000000000000000000000000000000600052604160045260246000fd5b6138e38261389a565b810181811067ffffffffffffffff82111715613902576139016138ab565b5b80604052505050565b600061391561387c565b905061392182826138da565b919050565b600067ffffffffffffffff821115613941576139406138ab565b5b61394a8261389a565b9050602081019050919050565b82818337600083830152505050565b600061397961397484613926565b61390b565b90508281526020810184848401111561399557613994613895565b5b6139a0848285613957565b509392505050565b600082601f8301126139bd576139bc613890565b5b81356139cd848260208601613966565b91505092915050565b6000602082840312156139ec576139eb613886565b5b600082013567ffffffffffffffff811115613a0a57613a0961388b565b5b613a16848285016139a8565b91505092915050565b600081519050919050565b600082825260208201905092915050565b6000819050602082019050919050565b613a5481613848565b82525050565b600073ffffffffffffffffffffffffffffffffffffffff82169050919050565b6000613a8582613a5a565b9050919050565b613a9581613a7a565b82525050565b600081519050919050565b600082825260208201905092915050565b6000819050602082019050919050565b600081519050919050565b600082825260208201905092915050565b60005b83811015613b01578082015181840152602081019050613ae6565b60008484015250505050565b6000613b1882613ac7565b613b228185613ad2565b9350613b32818560208601613ae3565b613b3b8161389a565b840191505092915050565b6000613b528383613b0d565b905092915050565b6000602082019050919050565b6000613b7282613a9b565b613b7c8185613aa6565b935083602082028501613b8e85613ab7565b8060005b85811015613bca5784840389528151613bab8582613b46565b9450613bb683613b5a565b925060208a01995050600181019050613b92565b50829750879550505050505092915050565b60008115159050919050565b613bf181613bdc565b82525050565b600061022083016000830151613c106000860182613a4b565b506020830151613c236020860182613a8c565b506040830151613c366040860182613a4b565b5060608301518482036060860152613c4e8282613b67565b91505060808301518482036080860152613c688282613b0d565b91505060a083015184820360a0860152613c828282613b67565b91505060c083015184820360c0860152613c9c8282613b0d565b91505060e0830151613cb160e0860182613be8565b50610100830151848203610100860152613ccb8282613b67565b915050610120830151613ce2610120860182613be8565b50610140830151848203610140860152613cfc8282613b67565b915050610160830151613d13610160860182613be8565b50610180830151848203610180860152613d2d8282613b67565b9150506101a08301518482036101a0860152613d498282613b0d565b9150506101c08301518482036101c0860152613d658282613b67565b9150506101e08301518482036101e0860152613d818282613b67565b915050610200830151613d98610200860182613be8565b508091505092915050565b6000613daf8383613bf7565b905092915050565b6000602082019050919050565b6000613dcf82613a1f565b613dd98185613a2a565b935083602082028501613deb85613a3b565b8060005b85811015613e275784840389528151613e088582613da3565b9450613e1383613db7565b925060208a01995050600181019050613def565b50829750879550505050505092915050565b60006020820190508181036000830152613e538184613dc4565b905092915050565b613e6481613848565b8114613e6f57600080fd5b50565b600081359050613e8181613e5b565b92915050565b60008060408385031215613e9e57613e9d613886565b5b6000613eac85828601613e72565b925050602083013567ffffffffffffffff811115613ecd57613ecc61388b565b5b613ed9858286016139a8565b9150509250929050565b60008060408385031215613efa57613ef9613886565b5b600083013567ffffffffffffffff811115613f1857613f1761388b565b5b613f24858286016139a8565b925050602083013567ffffffffffffffff811115613f4557613f4461388b565b5b613f51858286016139a8565b9150509250929050565b6000819050919050565b613f6e81613f5b565b82525050565b6000602082019050613f896000830184613f65565b92915050565b613f9881613bdc565b82525050565b6000602082019050613fb36000830184613f8f565b92915050565b600063ffffffff82169050919050565b613fd281613fb9565b8114613fdd57600080fd5b50565b600081359050613fef81613fc9565b92915050565b60006020828403121561400b5761400a613886565b5b600061401984828501613fe0565b91505092915050565b600061ffff82169050919050565b61403981614022565b82525050565b6080820160008201516140556000850182614030565b5060208201516140686020850182614030565b50604082015161407b6040850182614030565b50606082015161408e6060850182614030565b50505050565b60006080820190506140a9600083018461403f565b92915050565b6140b881613a7a565b82525050565b60006020820190506140d360008301846140af565b92915050565b6000806000606084860312156140f2576140f1613886565b5b600061410086828701613e72565b935050602084013567ffffffffffffffff8111156141215761412061388b565b5b61412d868287016139a8565b925050604084013567ffffffffffffffff81111561414e5761414d61388b565b5b61415a868287016139a8565b9150509250925092565b60006020828403121561417a57614179613886565b5b600061418884828501613e72565b91505092915050565b6000610220830160008301516141aa6000860182613a4b565b5060208301516141bd6020860182613a8c565b5060408301516141d06040860182613a4b565b50606083015184820360608601526141e88282613b67565b915050608083015184820360808601526142028282613b0d565b91505060a083015184820360a086015261421c8282613b67565b91505060c083015184820360c08601526142368282613b0d565b91505060e083015161424b60e0860182613be8565b506101008301518482036101008601526142658282613b67565b91505061012083015161427c610120860182613be8565b506101408301518482036101408601526142968282613b67565b9150506101608301516142ad610160860182613be8565b506101808301518482036101808601526142c78282613b67565b9150506101a08301518482036101a08601526142e38282613b0d565b9150506101c08301518482036101c08601526142ff8282613b67565b9150506101e08301518482036101e086015261431b8282613b67565b915050610200830151614332610200860182613be8565b508091505092915050565b600060208201905081810360008301526143578184614191565b905092915050565b600067ffffffffffffffff82111561437a576143796138ab565b5b602082029050602081019050919050565b600080fd5b60006143a361439e8461435f565b61390b565b905080838252602082019050602084028301858111156143c6576143c561438b565b5b835b8181101561440d57803567ffffffffffffffff8111156143eb576143ea613890565b5b8086016143f889826139a8565b855260208501945050506020810190506143c8565b5050509392505050565b600082601f83011261442c5761442b613890565b5b813561443c848260208601614390565b91505092915050565b6000806000806000806000806000806101408b8d03121561446957614468613886565b5b60006144778d828e01613e72565b9a505060208b013567ffffffffffffffff8111156144985761449761388b565b5b6144a48d828e01614417565b99505060408b013567ffffffffffffffff8111156144c5576144c461388b565b5b6144d18d828e016139a8565b98505060608b013567ffffffffffffffff8111156144f2576144f161388b565b5b6144fe8d828e01614417565b97505060808b013567ffffffffffffffff81111561451f5761451e61388b565b5b61452b8d828e016139a8565b96505060a08b013567ffffffffffffffff81111561454c5761454b61388b565b5b6145588d828e01614417565b95505060c08b013567ffffffffffffffff8111156145795761457861388b565b5b6145858d828e01614417565b94505060e08b013567ffffffffffffffff8111156145a6576145a561388b565b5b6145b28d828e01614417565b9350506101008b013567ffffffffffffffff8111156145d4576145d361388b565b5b6145e08d828e016139a8565b9250506101208b013567ffffffffffffffff8111156146025761460161388b565b5b61460e8d828e01614417565b9150509295989b9194979a5092959850565b600082825260208201905092915050565b600061463c82613a9b565b6146468185614620565b93508360208202850161465885613ab7565b8060005b8581101561469457848403895281516146758582613b46565b945061468083613b5a565b925060208a0199505060018101905061465c565b50829750879550505050505092915050565b600060208201905081810360008301526146c08184614631565b905092915050565b6146d181614022565b82525050565b60006040820190506146ec60008301856146c8565b6146f960208301846146c8565b9392505050565b600081905092915050565b600061471682613ac7565b6147208185614700565b9350614730818560208601613ae3565b80840191505092915050565b6000614748828461470b565b915081905092915050565b7f4e487b7100000000000000000000000000000000000000000000000000000000600052602260045260246000fd5b6000600282049050600182168061479a57607f821691505b6020821081036147ad576147ac614753565b5b50919050565b7f4e487b7100000000000000000000000000000000000000000000000000000000600052603260045260246000fd5b60008190508160005260206000209050919050565b60006020601f8301049050919050565b600082821b905092915050565b6000600883026148447fffffffffffffffffffffffffffffffffffffffffffffffffffffffffffffffff82614807565b61484e8683614807565b95508019841693508086168417925050509392505050565b6000819050919050565b600061488b61488661488184613848565b614866565b613848565b9050919050565b6000819050919050565b6148a583614870565b6148b96148b182614892565b848454614814565b825550505050565b600090565b6148ce6148c1565b6148d981848461489c565b505050565b5b818110156148fd576148f26000826148c6565b6001810190506148df565b5050565b601f82111561494257614913816147e2565b61491c846147f7565b8101602085101561492b578190505b61493f614937856147f7565b8301826148de565b50505b505050565b600082821c905092915050565b600061496560001984600802614947565b1980831691505092915050565b600061497e8383614954565b9150826002028217905092915050565b61499782613ac7565b67ffffffffffffffff8111156149b0576149af6138ab565b5b6149ba8254614782565b6149c5828285614901565b600060209050601f8311600181146149f857600084156149e6578287015190505b6149f08582614972565b865550614a58565b601f198416614a06866147e2565b60005b82811015614a2e57848901518255600182019150602085019450602081019050614a09565b86831015614a4b5784890151614a47601f891682614954565b8355505b6001600288020188555050505b505050505050565b7f4e487b7100000000000000000000000000000000000000000000000000000000600052601160045260246000fd5b6000614a9a82613848565b91507fffffffffffffffffffffffffffffffffffffffffffffffffffffffffffffffff8203614acc57614acb614a60565b5b600182019050919050565b6000614ae282614022565b915060008203614af557614af4614a60565b5b600182039050919050565b6000614b0b82613848565b9150614b1683613848565b9250828201905080821115614b2e57614b2d614a60565b5b92915050565b6000614b3f82614022565b915061ffff8203614b5357614b52614a60565b5b600182019050919050565b6000614b6982613848565b9150614b7483613848565b9250828203905081811115614b8c57614b8b614a60565b5b9291505056fea264697066735822122087a4075ee23746534d25d8a24b43fba790d1704cd6be6a5fd4b6fa99608b2d3464736f6c63430008100033",
  "immutableReferences": {},
  "source": "pragma solidity >= 0.7.0 < 0.9.0;\r\n\r\n\r\ncontract CrimeReport{\r\n\r\n/* Array Of Feedback in another stuct not supported yet.\r\n    struct Feedback{\r\n\r\n        // Wallet Address who submitted Feedback\r\n         address feebdbackFrom;\r\n\r\n        // Feedback\r\n        string feedback;\r\n\r\n        // Feedback Time\r\n        // uint256 timestamp;\r\n    }\r\n\r\n    */\r\n\r\n    // Conversation Model\r\n    struct MESSAGE{\r\n        uint256 id;\r\n        string from;\r\n        string message;\r\n    }\r\n\r\n    struct Crime{\r\n\r\n        // Unique Id Number for each crime\r\n        uint256 crimeId;\r\n\r\n        // Wallet Address who submitted crime details\r\n        address reporterWalletAddress;\r\n\r\n        // TimeStamp in Unix / Epoch\r\n        uint256 timeStamp;\r\n\r\n        /*\r\n        // State Name Where Crime Occured\r\n        string state; \r\n\r\n        // City Name Where Crime Occured\r\n        string city; \r\n\r\n        // Geographical Coordinates\r\n        string latitude; \r\n        string longitude; \r\n        */\r\n\r\n        string[] location;\r\n\r\n        // Crime Type -> Murder/Theft/Robbery...etc\r\n        string crimeType;\r\n\r\n        /* Questionnaire regarding crime type and mapping it to answer.\r\n           Question_Number -> Answer\r\n           mapping(uint32 => string) questionnaires;\r\n        */\r\n        \r\n        /*  Use This if Above Mapping doesn't work \r\n\r\n        // Questionnaire regarding crime type */\r\n        //string[] questionnaires;\r\n\r\n        // Answers of Questionnaire.\r\n        string[] questionnaireAnswers;\r\n\r\n        \r\n\r\n        // Crime Description in detail\r\n        string crimeDesc; \r\n\r\n        /* Details regarding suspect\r\n            KEY         -> VALUE\r\n            Name        -> name_of_suspect\r\n            Age_Group   -> Young Adult(Below 30) | Middle-aged Adult(Below 60) | Old Adults(Above 60)\r\n            Gender      -> Male | Female\r\n            Description -> Other Details to identify suspects (eg.Face color, hair color, height... etc)\r\n\r\n        mapping(string => string) suspectInfo;\r\n        */\r\n        bool isSuspectKnown;\r\n        string[] suspectInfoAnswers;\r\n\r\n        /* Details regarding vehicle if any involved in case\r\n            KEY -> VALUE\r\n            License plate state , Number, Vehicle color.. etc.\r\n            mapping(string => string) vehicleInfo;\r\n        */\r\n        bool isVehiclePresent;\r\n        string[] vehicleInfoAnswers;\r\n        \r\n\r\n        /* Victim Details if known\r\n            KEY -> VALUE\r\n            Name, address... etc.\r\n            mapping(string => string) victimInfo;\r\n        */\r\n        bool isVictimKnown;\r\n        string[] victimInfoAnswers;\r\n\r\n        // IPFS Hash If any media files attached.\r\n        string ipfsHash;\r\n\r\n        // input file names\r\n        string[] fileNames;\r\n\r\n        // Feedbacks\r\n        string[] feedbacks;\r\n\r\n        // Case is active or closed [Active = true | Close = false]\r\n        bool isCaseActive; \r\n        \r\n        /*\r\n            KEY = ADMIN | USER\r\n            Value = MESSAGE\r\n        */\r\n\r\n    }\r\n\r\n    // Statistics Model\r\n\r\n    struct Statistics{\r\n        uint16 murderCases;\r\n        uint16 theftCases;\r\n\tuint16 drugsCases;\r\n\tuint16 harassmentCases;\r\n    }\r\n\r\n    // active cases counter \r\n    uint16 totalActiveCases;\r\n\r\n    // Crime ID Wise Comversation\r\n    mapping(uint256 => MESSAGE) private conversations;\r\n\r\n    // List Of All Crimes that reported\r\n    Crime[] private crimes;\r\n    Statistics private stats;\r\n    // Stores all crimes user wise.\r\n    mapping(address => Crime[]) crimesByUsers;\r\n\r\n    // Store all crimes of city\r\n    mapping(string => Crime[]) crimesOfCity;\r\n\r\n    // Function to submit crime (Storing Crime Details)\r\n    function submitCrime(uint256 _timestamp,\r\n                         string[] memory _location,\r\n                         string memory _crimeType,\r\n                         string[] memory _questionnaireAnswers,\r\n                         string memory _crimeDesc,\r\n                         string[] memory _suspectInfoAnswers,\r\n                         string[] memory _vehicleInfoAnswers,\r\n                         string[] memory _victimInfoAnswers,\r\n                         string memory _ipfsHash,\r\n                         string[] memory _fileNames\r\n                        ) external {\r\n                            \r\n\r\n         Crime memory crime;     \r\n         crime.crimeId = crimes.length;   \r\n         crime.reporterWalletAddress = getReporterWalletAddress();\r\n         crime.timeStamp = _timestamp;   \r\n         crime.location = _location;\r\n         crime.crimeType = _crimeType;     \r\n         crime.questionnaireAnswers = _questionnaireAnswers;\r\n         crime.crimeDesc = _crimeDesc; \r\n         crime.isCaseActive = true;\r\n         \r\n         crime.isSuspectKnown = false;\r\n         if(_suspectInfoAnswers.length>0){\r\n             crime.isSuspectKnown = true;\r\n             crime.suspectInfoAnswers = _suspectInfoAnswers;\r\n         }\r\n\r\n         crime.isVehiclePresent = false;\r\n         if(_vehicleInfoAnswers.length>0){\r\n             crime.isVehiclePresent = true;\r\n             crime.vehicleInfoAnswers = _vehicleInfoAnswers;\r\n         }\r\n\r\n         crime.isVictimKnown = false;\r\n         if(_victimInfoAnswers.length>0){\r\n             crime.isVictimKnown = true;\r\n             crime.victimInfoAnswers = _victimInfoAnswers;\r\n         }\r\n\r\n        crime.ipfsHash = _ipfsHash;\r\n        crime.fileNames = _fileNames;\r\n        string[] memory _feedbacks;\r\n        crime.feedbacks = _feedbacks;\r\n        crimes.push(crime);\r\n\r\n        crimesByUsers[msg.sender].push(crime);\r\n        crimesOfCity[_location[1]].push(crime);\r\n\r\n        if(equal(_crimeType,\"Murder\")){\r\n            stats.murderCases++;\r\n        }else if(equal(_crimeType,\"Theft\")){\r\n            stats.theftCases++;\r\n        }else if(equal(_crimeType,\"Drugs\")){\r\n            stats.drugsCases++;\r\n        }else if(equal(_crimeType,\"Harassment\")){\r\n\t\tstats.harassmentCases++;\r\n\t}\r\n\r\n    totalActiveCases++;\r\n\r\n    }\r\n\r\n\r\n    // Function to submit Feedbacks\r\n    function submitFeedback(uint256 _crimeId,string memory _feedback) external{\r\n        crimes[_crimeId].feedbacks.push(_feedback);\r\n    }\r\n\r\n    // Return Feedbacks By CrimeID\r\n   function getFeedbacksById(uint256 _crimeId) public view returns(string[] memory){\r\n       return crimes[_crimeId].feedbacks;\r\n   }\r\n\r\n    // Function to return all crime to admin side\r\n    function getCrimes() public view returns (Crime[] memory) {\r\n       return crimes;\r\n   }\r\n\r\n   // Return Crime By CrimeID\r\n   function getCrimeById(uint256 _crimeId) public view returns(Crime memory){\r\n       return crimes[_crimeId];\r\n   }\r\n\r\n    // Returns Total Number Of Crimes\r\n    function totalCrimes() public view returns (uint256) {\r\n       return crimes.length;\r\n   }\r\n\r\n    // Returns Address of wallet who Reporting the crime\r\n    function getReporterWalletAddress() public view returns(address){\r\n        return msg.sender;\r\n    }\r\n\r\n    // Return Crimes Submitted by the current user\r\n   function getCrimeOfCurrentUser() public view returns(Crime[] memory){\r\n        return crimesByUsers[msg.sender];\r\n   }\r\n\r\n    // Return Crimes of city\r\n   function getCrimeOfCity(string memory _city) public view returns(Crime[] memory){\r\n        return crimesOfCity[_city];\r\n   }\r\n\r\n   // Function for admin to close case.\r\n  function closeCase(uint32 _crimeId) public {\r\n    totalActiveCases--;\r\n    crimes[_crimeId].isCaseActive = false;\r\n  }\r\n\r\n  // Conversation of admin to crime reporter.\r\n  function sendMessage(uint256 _crimeId,string memory _message, string memory _from) public{\r\n      uint256 id = conversations[_crimeId].id + 1;\r\n      conversations[_crimeId] =  MESSAGE(id,_from,_message);\r\n  }\r\n\r\n  // Get crime Statistics\r\n  function getCrimeStatistics() public view returns(Statistics memory) {\r\n      return (stats);\r\n  }\r\n \r\n // Get get Active Deative Cases \r\n    function getActiveDeativeCases() public view returns(uint16,uint16){\r\n    return (totalActiveCases,uint16(totalCrimes()-totalActiveCases));\r\n }\r\n\r\n  function compare(string memory _a, string memory _b) public pure returns (int) {\r\n        bytes memory a = bytes(_a);\r\n        bytes memory b = bytes(_b);\r\n        uint minLength = a.length;\r\n        if (b.length < minLength) minLength = b.length;\r\n     \r\n        for (uint i = 0; i < minLength; i ++)\r\n            if (a[i] < b[i])\r\n                return -1;\r\n            else if (a[i] > b[i])\r\n                return 1;\r\n        if (a.length < b.length)\r\n            return -1;\r\n        else if (a.length > b.length)\r\n            return 1;\r\n        else\r\n            return 0;\r\n    }\r\n\r\n    function equal(string memory _a, string memory _b) public pure returns (bool) {\r\n        return compare(_a, _b) == 0;\r\n    }\r\n\r\n    \r\n\r\n    \r\n\r\n}\r\n\r\n\r\n/*\r\n    Parameters For Testing\r\n\r\n    1660627677,[\"Maharashtra\",\"Jalgaon\",\"2.9454465\",\"9.2487554\"],Theft,[\"Bike\"],\"I saw the person stealing bike and going to Shiv Colony side\",[],[],[],\"IFPS_HASH_HERE\"\r\n\r\n*/",
  "sourcePath": "C:\\Users\\aadit\\OneDrive\\Desktop\\SIH-PROJECT\\dnetwork\\contracts\\CrimeReport.sol",
  "compiler": {
    "name": "solc",
    "version": "0.8.16+commit.07a7930e.Emscripten.clang"
  },
  "schemaVersion": "3.4.9",
  "updatedAt": "2022-08-25T07:22:44.193Z",
  "networkType": "ethereum",
  "devdoc": {
    "kind": "dev",
    "methods": {},
    "version": 1
  },
  "userdoc": {
    "kind": "user",
    "methods": {},
    "version": 1
  }
}