{
  "contractName": "CrimeReport",
  "abi": [
    {
      "inputs": [
        {
          "internalType": "uint256",
          "name": "_timestamp",
          "type": "uint256"
        },
        {
          "internalType": "string[]",
          "name": "_location",
          "type": "string[]"
        },
        {
          "internalType": "string",
          "name": "_crimeType",
          "type": "string"
        },
        {
          "internalType": "string[]",
          "name": "_questionnaireAnswers",
          "type": "string[]"
        },
        {
          "internalType": "string",
          "name": "_crimeDesc",
          "type": "string"
        },
        {
          "internalType": "string[]",
          "name": "_suspectInfoAnswers",
          "type": "string[]"
        },
        {
          "internalType": "string[]",
          "name": "_vehicleInfoAnswers",
          "type": "string[]"
        },
        {
          "internalType": "string[]",
          "name": "_victimInfoAnswers",
          "type": "string[]"
        },
        {
          "internalType": "string",
          "name": "_ipfsHash",
          "type": "string"
        }
      ],
      "name": "submitCrime",
      "outputs": [],
      "stateMutability": "nonpayable",
      "type": "function"
    },
    {
      "inputs": [
        {
          "internalType": "uint256",
          "name": "_crimeId",
          "type": "uint256"
        },
        {
          "internalType": "string",
          "name": "_feedback",
          "type": "string"
        }
      ],
      "name": "submitFeedback",
      "outputs": [],
      "stateMutability": "nonpayable",
      "type": "function"
    },
    {
      "inputs": [
        {
          "internalType": "uint256",
          "name": "_crimeId",
          "type": "uint256"
        }
      ],
      "name": "getFeedbacksById",
      "outputs": [
        {
          "internalType": "string[]",
          "name": "",
          "type": "string[]"
        }
      ],
      "stateMutability": "view",
      "type": "function",
      "constant": true
    },
    {
      "inputs": [],
      "name": "getCrimes",
      "outputs": [
        {
          "components": [
            {
              "internalType": "uint256",
              "name": "crimeId",
              "type": "uint256"
            },
            {
              "internalType": "address",
              "name": "reporterWalletAddress",
              "type": "address"
            },
            {
              "internalType": "uint256",
              "name": "timeStamp",
              "type": "uint256"
            },
            {
              "internalType": "string[]",
              "name": "location",
              "type": "string[]"
            },
            {
              "internalType": "string",
              "name": "crimeType",
              "type": "string"
            },
            {
              "internalType": "string[]",
              "name": "questionnaireAnswers",
              "type": "string[]"
            },
            {
              "internalType": "string",
              "name": "crimeDesc",
              "type": "string"
            },
            {
              "internalType": "bool",
              "name": "isSuspectKnown",
              "type": "bool"
            },
            {
              "internalType": "string[]",
              "name": "suspectInfoAnswers",
              "type": "string[]"
            },
            {
              "internalType": "bool",
              "name": "isVehiclePresent",
              "type": "bool"
            },
            {
              "internalType": "string[]",
              "name": "vehicleInfoAnswers",
              "type": "string[]"
            },
            {
              "internalType": "bool",
              "name": "isVictimKnown",
              "type": "bool"
            },
            {
              "internalType": "string[]",
              "name": "victimInfoAnswers",
              "type": "string[]"
            },
            {
              "internalType": "string",
              "name": "ipfsHash",
              "type": "string"
            },
            {
              "internalType": "string[]",
              "name": "feedbacks",
              "type": "string[]"
            },
            {
              "internalType": "bool",
              "name": "isCaseActive",
              "type": "bool"
            }
          ],
          "internalType": "struct CrimeReport.Crime[]",
          "name": "",
          "type": "tuple[]"
        }
      ],
      "stateMutability": "view",
      "type": "function",
      "constant": true
    },
    {
      "inputs": [
        {
          "internalType": "uint256",
          "name": "_crimeId",
          "type": "uint256"
        }
      ],
      "name": "getCrimeById",
      "outputs": [
        {
          "components": [
            {
              "internalType": "uint256",
              "name": "crimeId",
              "type": "uint256"
            },
            {
              "internalType": "address",
              "name": "reporterWalletAddress",
              "type": "address"
            },
            {
              "internalType": "uint256",
              "name": "timeStamp",
              "type": "uint256"
            },
            {
              "internalType": "string[]",
              "name": "location",
              "type": "string[]"
            },
            {
              "internalType": "string",
              "name": "crimeType",
              "type": "string"
            },
            {
              "internalType": "string[]",
              "name": "questionnaireAnswers",
              "type": "string[]"
            },
            {
              "internalType": "string",
              "name": "crimeDesc",
              "type": "string"
            },
            {
              "internalType": "bool",
              "name": "isSuspectKnown",
              "type": "bool"
            },
            {
              "internalType": "string[]",
              "name": "suspectInfoAnswers",
              "type": "string[]"
            },
            {
              "internalType": "bool",
              "name": "isVehiclePresent",
              "type": "bool"
            },
            {
              "internalType": "string[]",
              "name": "vehicleInfoAnswers",
              "type": "string[]"
            },
            {
              "internalType": "bool",
              "name": "isVictimKnown",
              "type": "bool"
            },
            {
              "internalType": "string[]",
              "name": "victimInfoAnswers",
              "type": "string[]"
            },
            {
              "internalType": "string",
              "name": "ipfsHash",
              "type": "string"
            },
            {
              "internalType": "string[]",
              "name": "feedbacks",
              "type": "string[]"
            },
            {
              "internalType": "bool",
              "name": "isCaseActive",
              "type": "bool"
            }
          ],
          "internalType": "struct CrimeReport.Crime",
          "name": "",
          "type": "tuple"
        }
      ],
      "stateMutability": "view",
      "type": "function",
      "constant": true
    },
    {
      "inputs": [],
      "name": "totalCrimes",
      "outputs": [
        {
          "internalType": "uint256",
          "name": "",
          "type": "uint256"
        }
      ],
      "stateMutability": "view",
      "type": "function",
      "constant": true
    },
    {
      "inputs": [],
      "name": "getReporterWalletAddress",
      "outputs": [
        {
          "internalType": "address",
          "name": "",
          "type": "address"
        }
      ],
      "stateMutability": "view",
      "type": "function",
      "constant": true
    },
    {
      "inputs": [],
      "name": "getCrimeOfCurrentUser",
      "outputs": [
        {
          "components": [
            {
              "internalType": "uint256",
              "name": "crimeId",
              "type": "uint256"
            },
            {
              "internalType": "address",
              "name": "reporterWalletAddress",
              "type": "address"
            },
            {
              "internalType": "uint256",
              "name": "timeStamp",
              "type": "uint256"
            },
            {
              "internalType": "string[]",
              "name": "location",
              "type": "string[]"
            },
            {
              "internalType": "string",
              "name": "crimeType",
              "type": "string"
            },
            {
              "internalType": "string[]",
              "name": "questionnaireAnswers",
              "type": "string[]"
            },
            {
              "internalType": "string",
              "name": "crimeDesc",
              "type": "string"
            },
            {
              "internalType": "bool",
              "name": "isSuspectKnown",
              "type": "bool"
            },
            {
              "internalType": "string[]",
              "name": "suspectInfoAnswers",
              "type": "string[]"
            },
            {
              "internalType": "bool",
              "name": "isVehiclePresent",
              "type": "bool"
            },
            {
              "internalType": "string[]",
              "name": "vehicleInfoAnswers",
              "type": "string[]"
            },
            {
              "internalType": "bool",
              "name": "isVictimKnown",
              "type": "bool"
            },
            {
              "internalType": "string[]",
              "name": "victimInfoAnswers",
              "type": "string[]"
            },
            {
              "internalType": "string",
              "name": "ipfsHash",
              "type": "string"
            },
            {
              "internalType": "string[]",
              "name": "feedbacks",
              "type": "string[]"
            },
            {
              "internalType": "bool",
              "name": "isCaseActive",
              "type": "bool"
            }
          ],
          "internalType": "struct CrimeReport.Crime[]",
          "name": "",
          "type": "tuple[]"
        }
      ],
      "stateMutability": "view",
      "type": "function",
      "constant": true
    },
    {
      "inputs": [
        {
          "internalType": "string",
          "name": "_city",
          "type": "string"
        }
      ],
      "name": "getCrimeOfCity",
      "outputs": [
        {
          "components": [
            {
              "internalType": "uint256",
              "name": "crimeId",
              "type": "uint256"
            },
            {
              "internalType": "address",
              "name": "reporterWalletAddress",
              "type": "address"
            },
            {
              "internalType": "uint256",
              "name": "timeStamp",
              "type": "uint256"
            },
            {
              "internalType": "string[]",
              "name": "location",
              "type": "string[]"
            },
            {
              "internalType": "string",
              "name": "crimeType",
              "type": "string"
            },
            {
              "internalType": "string[]",
              "name": "questionnaireAnswers",
              "type": "string[]"
            },
            {
              "internalType": "string",
              "name": "crimeDesc",
              "type": "string"
            },
            {
              "internalType": "bool",
              "name": "isSuspectKnown",
              "type": "bool"
            },
            {
              "internalType": "string[]",
              "name": "suspectInfoAnswers",
              "type": "string[]"
            },
            {
              "internalType": "bool",
              "name": "isVehiclePresent",
              "type": "bool"
            },
            {
              "internalType": "string[]",
              "name": "vehicleInfoAnswers",
              "type": "string[]"
            },
            {
              "internalType": "bool",
              "name": "isVictimKnown",
              "type": "bool"
            },
            {
              "internalType": "string[]",
              "name": "victimInfoAnswers",
              "type": "string[]"
            },
            {
              "internalType": "string",
              "name": "ipfsHash",
              "type": "string"
            },
            {
              "internalType": "string[]",
              "name": "feedbacks",
              "type": "string[]"
            },
            {
              "internalType": "bool",
              "name": "isCaseActive",
              "type": "bool"
            }
          ],
          "internalType": "struct CrimeReport.Crime[]",
          "name": "",
          "type": "tuple[]"
        }
      ],
      "stateMutability": "view",
      "type": "function",
      "constant": true
    },
    {
      "inputs": [
        {
          "internalType": "uint32",
          "name": "_crimeId",
          "type": "uint32"
        }
      ],
      "name": "closeCase",
      "outputs": [],
      "stateMutability": "nonpayable",
      "type": "function"
    },
    {
      "inputs": [
        {
          "internalType": "uint256",
          "name": "_crimeId",
          "type": "uint256"
        },
        {
          "internalType": "string",
          "name": "_message",
          "type": "string"
        },
        {
          "internalType": "string",
          "name": "_from",
          "type": "string"
        }
      ],
      "name": "sendMessage",
      "outputs": [],
      "stateMutability": "nonpayable",
      "type": "function"
    },
    {
      "inputs": [],
      "name": "getCrimeStatistics",
      "outputs": [
        {
          "components": [
            {
              "internalType": "uint256",
              "name": "murderCases",
              "type": "uint256"
            },
            {
              "internalType": "uint256",
              "name": "theftCases",
              "type": "uint256"
            },
            {
              "internalType": "uint256",
              "name": "drugsCases",
              "type": "uint256"
            },
            {
              "internalType": "uint256",
              "name": "harassmentCases",
              "type": "uint256"
            }
          ],
          "internalType": "struct CrimeReport.Statistics",
          "name": "",
          "type": "tuple"
        }
      ],
      "stateMutability": "view",
      "type": "function",
      "constant": true
    },
    {
      "inputs": [
        {
          "internalType": "string",
          "name": "_a",
          "type": "string"
        },
        {
          "internalType": "string",
          "name": "_b",
          "type": "string"
        }
      ],
      "name": "compare",
      "outputs": [
        {
          "internalType": "int256",
          "name": "",
          "type": "int256"
        }
      ],
      "stateMutability": "pure",
      "type": "function",
      "constant": true
    },
    {
      "inputs": [
        {
          "internalType": "string",
          "name": "_a",
          "type": "string"
        },
        {
          "internalType": "string",
          "name": "_b",
          "type": "string"
        }
      ],
      "name": "equal",
      "outputs": [
        {
          "internalType": "bool",
          "name": "",
          "type": "bool"
        }
      ],
      "stateMutability": "pure",
      "type": "function",
      "constant": true
    }
  ],
  "bytecode": "0x608060405234801561001057600080fd5b506144e0806100206000396000f3fe608060405234801561001057600080fd5b50600436106100ea5760003560e01c806368b3275b1161008c5780638e7361ba116100665780638e7361ba1461025d578063a4881afd14610279578063b46b6d6014610297578063c7251143146102b5576100ea565b806368b3275b146101f35780636b561b2f14610211578063749b5e521461022d576100ea565b80633a96fdd7116100c85780633a96fdd71461015957806346bdca9a146101895780634c253551146101b95780635a61e48d146101d5576100ea565b806305608f64146100ef57806314034a741461010d57806320b0c9d61461013d575b600080fd5b6100f76102e5565b60405161010491906132be565b60405180910390f35b61012760048036038101906101229190613433565b6102f2565b604051610134919061387a565b60405180910390f35b610157600480360381019061015291906138c8565b610b12565b005b610173600480360381019061016e9190613924565b610b6e565b60405161018091906139b5565b60405180910390f35b6101a3600480360381019061019e9190613924565b610d4a565b6040516101b091906139df565b60405180910390f35b6101d360048036038101906101ce9190613a36565b610d60565b005b6101dd610da7565b6040516101ea9190613ab8565b60405180910390f35b6101fb610de9565b6040516102089190613ae2565b60405180910390f35b61022b60048036038101906102269190613afd565b610df1565b005b61024760048036038101906102429190613b88565b610e83565b6040516102549190613d45565b60405180910390f35b61027760048036038101906102729190613e4d565b611662565b005b610281611fc9565b60405161028e919061387a565b60405180910390f35b61029f6127cb565b6040516102ac919061387a565b60405180910390f35b6102cf60048036038101906102ca9190613b88565b61300a565b6040516102dc919061407d565b60405180910390f35b6000600180549050905090565b606060078260405161030491906140db565b9081526020016040518091039020805480602002602001604051908101604052809291908181526020016000905b82821015610b07578382906000526020600020906010020160405180610200016040529081600082015481526020016001820160009054906101000a900473ffffffffffffffffffffffffffffffffffffffff1673ffffffffffffffffffffffffffffffffffffffff1673ffffffffffffffffffffffffffffffffffffffff1681526020016002820154815260200160038201805480602002602001604051908101604052809291908181526020016000905b8282101561049157838290600052602060002001805461040490614121565b80601f016020809104026020016040519081016040528092919081815260200182805461043090614121565b801561047d5780601f106104525761010080835404028352916020019161047d565b820191906000526020600020905b81548152906001019060200180831161046057829003601f168201915b5050505050815260200190600101906103e5565b5050505081526020016004820180546104a990614121565b80601f01602080910402602001604051908101604052809291908181526020018280546104d590614121565b80156105225780601f106104f757610100808354040283529160200191610522565b820191906000526020600020905b81548152906001019060200180831161050557829003601f168201915b5050505050815260200160058201805480602002602001604051908101604052809291908181526020016000905b828210156105fc57838290600052602060002001805461056f90614121565b80601f016020809104026020016040519081016040528092919081815260200182805461059b90614121565b80156105e85780601f106105bd576101008083540402835291602001916105e8565b820191906000526020600020905b8154815290600101906020018083116105cb57829003601f168201915b505050505081526020019060010190610550565b50505050815260200160068201805461061490614121565b80601f016020809104026020016040519081016040528092919081815260200182805461064090614121565b801561068d5780601f106106625761010080835404028352916020019161068d565b820191906000526020600020905b81548152906001019060200180831161067057829003601f168201915b505050505081526020016007820160009054906101000a900460ff1615151515815260200160088201805480602002602001604051908101604052809291908181526020016000905b828210156107825783829060005260206000200180546106f590614121565b80601f016020809104026020016040519081016040528092919081815260200182805461072190614121565b801561076e5780601f106107435761010080835404028352916020019161076e565b820191906000526020600020905b81548152906001019060200180831161075157829003601f168201915b5050505050815260200190600101906106d6565b5050505081526020016009820160009054906101000a900460ff16151515158152602001600a8201805480602002602001604051908101604052809291908181526020016000905b828210156108765783829060005260206000200180546107e990614121565b80601f016020809104026020016040519081016040528092919081815260200182805461081590614121565b80156108625780601f1061083757610100808354040283529160200191610862565b820191906000526020600020905b81548152906001019060200180831161084557829003601f168201915b5050505050815260200190600101906107ca565b505050508152602001600b820160009054906101000a900460ff16151515158152602001600c8201805480602002602001604051908101604052809291908181526020016000905b8282101561096a5783829060005260206000200180546108dd90614121565b80601f016020809104026020016040519081016040528092919081815260200182805461090990614121565b80156109565780601f1061092b57610100808354040283529160200191610956565b820191906000526020600020905b81548152906001019060200180831161093957829003601f168201915b5050505050815260200190600101906108be565b505050508152602001600d8201805461098290614121565b80601f01602080910402602001604051908101604052809291908181526020018280546109ae90614121565b80156109fb5780601f106109d0576101008083540402835291602001916109fb565b820191906000526020600020905b8154815290600101906020018083116109de57829003601f168201915b50505050508152602001600e8201805480602002602001604051908101604052809291908181526020016000905b82821015610ad5578382906000526020600020018054610a4890614121565b80601f0160208091040260200160405190810160405280929190818152602001828054610a7490614121565b8015610ac15780601f10610a9657610100808354040283529160200191610ac1565b820191906000526020600020905b815481529060010190602001808311610aa457829003601f168201915b505050505081526020019060010190610a29565b505050508152602001600f820160009054906101000a900460ff16151515158152505081526020019060010190610332565b505050509050919050565b60018281548110610b2657610b25614152565b5b9060005260206000209060100201600e0181908060018154018082558091505060019003906000526020600020016000909190919091509081610b69919061432d565b505050565b60008083905060008390506000825190508082511015610b8d57815190505b60005b81811015610cf057828181518110610bab57610baa614152565b5b602001015160f81c60f81b7effffffffffffffffffffffffffffffffffffffffffffffffffffffffffffff1916848281518110610beb57610bea614152565b5b602001015160f81c60f81b7effffffffffffffffffffffffffffffffffffffffffffffffffffffffffffff19161015610c4a577fffffffffffffffffffffffffffffffffffffffffffffffffffffffffffffffff945050505050610d44565b828181518110610c5d57610c5c614152565b5b602001015160f81c60f81b7effffffffffffffffffffffffffffffffffffffffffffffffffffffffffffff1916848281518110610c9d57610c9c614152565b5b602001015160f81c60f81b7effffffffffffffffffffffffffffffffffffffffffffffffffffffffffffff19161115610cdd576001945050505050610d44565b8080610ce89061442e565b915050610b90565b50815183511015610d26577fffffffffffffffffffffffffffffffffffffffffffffffffffffffffffffffff9350505050610d44565b815183511115610d3c5760019350505050610d44565b600093505050505b92915050565b600080610d578484610b6e565b14905092915050565b600060018263ffffffff1681548110610d7c57610d7b614152565b5b9060005260206000209060100201600f0160006101000a81548160ff02191690831515021790555050565b610daf613108565b6002604051806080016040529081600082015481526020016001820154815260200160028201548152602001600382015481525050905090565b600033905090565b6000600160008086815260200190815260200160002060000154610e159190614476565b9050604051806060016040528082815260200183815260200184815250600080868152602001908152602001600020600082015181600001556020820151816001019081610e63919061432d565b506040820151816002019081610e79919061432d565b5090505050505050565b610e8b613130565b60018281548110610e9f57610e9e614152565b5b906000526020600020906010020160405180610200016040529081600082015481526020016001820160009054906101000a900473ffffffffffffffffffffffffffffffffffffffff1673ffffffffffffffffffffffffffffffffffffffff1673ffffffffffffffffffffffffffffffffffffffff1681526020016002820154815260200160038201805480602002602001604051908101604052809291908181526020016000905b82821015610ff4578382906000526020600020018054610f6790614121565b80601f0160208091040260200160405190810160405280929190818152602001828054610f9390614121565b8015610fe05780601f10610fb557610100808354040283529160200191610fe0565b820191906000526020600020905b815481529060010190602001808311610fc357829003601f168201915b505050505081526020019060010190610f48565b50505050815260200160048201805461100c90614121565b80601f016020809104026020016040519081016040528092919081815260200182805461103890614121565b80156110855780601f1061105a57610100808354040283529160200191611085565b820191906000526020600020905b81548152906001019060200180831161106857829003601f168201915b5050505050815260200160058201805480602002602001604051908101604052809291908181526020016000905b8282101561115f5783829060005260206000200180546110d290614121565b80601f01602080910402602001604051908101604052809291908181526020018280546110fe90614121565b801561114b5780601f106111205761010080835404028352916020019161114b565b820191906000526020600020905b81548152906001019060200180831161112e57829003601f168201915b5050505050815260200190600101906110b3565b50505050815260200160068201805461117790614121565b80601f01602080910402602001604051908101604052809291908181526020018280546111a390614121565b80156111f05780601f106111c5576101008083540402835291602001916111f0565b820191906000526020600020905b8154815290600101906020018083116111d357829003601f168201915b505050505081526020016007820160009054906101000a900460ff1615151515815260200160088201805480602002602001604051908101604052809291908181526020016000905b828210156112e557838290600052602060002001805461125890614121565b80601f016020809104026020016040519081016040528092919081815260200182805461128490614121565b80156112d15780601f106112a6576101008083540402835291602001916112d1565b820191906000526020600020905b8154815290600101906020018083116112b457829003601f168201915b505050505081526020019060010190611239565b5050505081526020016009820160009054906101000a900460ff16151515158152602001600a8201805480602002602001604051908101604052809291908181526020016000905b828210156113d957838290600052602060002001805461134c90614121565b80601f016020809104026020016040519081016040528092919081815260200182805461137890614121565b80156113c55780601f1061139a576101008083540402835291602001916113c5565b820191906000526020600020905b8154815290600101906020018083116113a857829003601f168201915b50505050508152602001906001019061132d565b505050508152602001600b820160009054906101000a900460ff16151515158152602001600c8201805480602002602001604051908101604052809291908181526020016000905b828210156114cd57838290600052602060002001805461144090614121565b80601f016020809104026020016040519081016040528092919081815260200182805461146c90614121565b80156114b95780601f1061148e576101008083540402835291602001916114b9565b820191906000526020600020905b81548152906001019060200180831161149c57829003601f168201915b505050505081526020019060010190611421565b505050508152602001600d820180546114e590614121565b80601f016020809104026020016040519081016040528092919081815260200182805461151190614121565b801561155e5780601f106115335761010080835404028352916020019161155e565b820191906000526020600020905b81548152906001019060200180831161154157829003601f168201915b50505050508152602001600e8201805480602002602001604051908101604052809291908181526020016000905b828210156116385783829060005260206000200180546115ab90614121565b80601f01602080910402602001604051908101604052809291908181526020018280546115d790614121565b80156116245780601f106115f957610100808354040283529160200191611624565b820191906000526020600020905b81548152906001019060200180831161160757829003601f168201915b50505050508152602001906001019061158c565b505050508152602001600f820160009054906101000a900460ff1615151515815250509050919050565b61166a613130565b600180549050816000018181525050611681610de9565b816020019073ffffffffffffffffffffffffffffffffffffffff16908173ffffffffffffffffffffffffffffffffffffffff168152505089816040018181525050888160600181905250878160800181905250868160a00181905250858160c001819052506001816101e001901515908115158152505060008160e001901515908115158152505060008551111561172f5760018160e0019015159081151581525050848161010001819052505b60008161012001901515908115158152505060008451111561176857600181610120019015159081151581525050838161014001819052505b6000816101600190151590811515815250506000835111156117a157600181610160019015159081151581525050828161018001819052505b81816101a00181905250606080826101c0018190525060018290806001815401808255809150506001900390600052602060002090601002016000909190919091506000820151816000015560208201518160010160006101000a81548173ffffffffffffffffffffffffffffffffffffffff021916908373ffffffffffffffffffffffffffffffffffffffff16021790555060408201518160020155606082015181600301908051906020019061185a9291906131cb565b506080820151816004019081611870919061432d565b5060a082015181600501908051906020019061188d9291906131cb565b5060c08201518160060190816118a3919061432d565b5060e08201518160070160006101000a81548160ff0219169083151502179055506101008201518160080190805190602001906118e19291906131cb565b506101208201518160090160006101000a81548160ff02191690831515021790555061014082015181600a0190805190602001906119209291906131cb565b5061016082015181600b0160006101000a81548160ff02191690831515021790555061018082015181600c01908051906020019061195f9291906131cb565b506101a082015181600d019081611976919061432d565b506101c082015181600e0190805190602001906119949291906131cb565b506101e082015181600f0160006101000a81548160ff0219169083151502179055505050600660003373ffffffffffffffffffffffffffffffffffffffff1673ffffffffffffffffffffffffffffffffffffffff1681526020019081526020016000208290806001815401808255809150506001900390600052602060002090601002016000909190919091506000820151816000015560208201518160010160006101000a81548173ffffffffffffffffffffffffffffffffffffffff021916908373ffffffffffffffffffffffffffffffffffffffff160217905550604082015181600201556060820151816003019080519060200190611a989291906131cb565b506080820151816004019081611aae919061432d565b5060a0820151816005019080519060200190611acb9291906131cb565b5060c0820151816006019081611ae1919061432d565b5060e08201518160070160006101000a81548160ff021916908315150217905550610100820151816008019080519060200190611b1f9291906131cb565b506101208201518160090160006101000a81548160ff02191690831515021790555061014082015181600a019080519060200190611b5e9291906131cb565b5061016082015181600b0160006101000a81548160ff02191690831515021790555061018082015181600c019080519060200190611b9d9291906131cb565b506101a082015181600d019081611bb4919061432d565b506101c082015181600e019080519060200190611bd29291906131cb565b506101e082015181600f0160006101000a81548160ff021916908315150217905550505060078a600181518110611c0c57611c0b614152565b5b6020026020010151604051611c2191906140db565b90815260200160405180910390208290806001815401808255809150506001900390600052602060002090601002016000909190919091506000820151816000015560208201518160010160006101000a81548173ffffffffffffffffffffffffffffffffffffffff021916908373ffffffffffffffffffffffffffffffffffffffff160217905550604082015181600201556060820151816003019080519060200190611cd09291906131cb565b506080820151816004019081611ce6919061432d565b5060a0820151816005019080519060200190611d039291906131cb565b5060c0820151816006019081611d19919061432d565b5060e08201518160070160006101000a81548160ff021916908315150217905550610100820151816008019080519060200190611d579291906131cb565b506101208201518160090160006101000a81548160ff02191690831515021790555061014082015181600a019080519060200190611d969291906131cb565b5061016082015181600b0160006101000a81548160ff02191690831515021790555061018082015181600c019080519060200190611dd59291906131cb565b506101a082015181600d019081611dec919061432d565b506101c082015181600e019080519060200190611e0a9291906131cb565b506101e082015181600f0160006101000a81548160ff0219169083151502179055505050611e6d896040518060400160405280600681526020017f4d75726465720000000000000000000000000000000000000000000000000000815250610d4a565b15611e925760026000016000815480929190611e889061442e565b9190505550611fbc565b611ed1896040518060400160405280600581526020017f5468656674000000000000000000000000000000000000000000000000000000815250610d4a565b15611ef65760026001016000815480929190611eec9061442e565b9190505550611fbb565b611f35896040518060400160405280600581526020017f4472756773000000000000000000000000000000000000000000000000000000815250610d4a565b15611f5957600280016000815480929190611f4f9061442e565b9190505550611fba565b611f98896040518060400160405280600f81526020017f4861726173736d656e7443617365730000000000000000000000000000000000815250610d4a565b15611fb95760026003016000815480929190611fb39061442e565b91905055505b5b5b5b5050505050505050505050565b60606001805480602002602001604051908101604052809291908181526020016000905b828210156127c2578382906000526020600020906010020160405180610200016040529081600082015481526020016001820160009054906101000a900473ffffffffffffffffffffffffffffffffffffffff1673ffffffffffffffffffffffffffffffffffffffff1673ffffffffffffffffffffffffffffffffffffffff1681526020016002820154815260200160038201805480602002602001604051908101604052809291908181526020016000905b8282101561214c5783829060005260206000200180546120bf90614121565b80601f01602080910402602001604051908101604052809291908181526020018280546120eb90614121565b80156121385780601f1061210d57610100808354040283529160200191612138565b820191906000526020600020905b81548152906001019060200180831161211b57829003601f168201915b5050505050815260200190600101906120a0565b50505050815260200160048201805461216490614121565b80601f016020809104026020016040519081016040528092919081815260200182805461219090614121565b80156121dd5780601f106121b2576101008083540402835291602001916121dd565b820191906000526020600020905b8154815290600101906020018083116121c057829003601f168201915b5050505050815260200160058201805480602002602001604051908101604052809291908181526020016000905b828210156122b757838290600052602060002001805461222a90614121565b80601f016020809104026020016040519081016040528092919081815260200182805461225690614121565b80156122a35780601f10612278576101008083540402835291602001916122a3565b820191906000526020600020905b81548152906001019060200180831161228657829003601f168201915b50505050508152602001906001019061220b565b5050505081526020016006820180546122cf90614121565b80601f01602080910402602001604051908101604052809291908181526020018280546122fb90614121565b80156123485780601f1061231d57610100808354040283529160200191612348565b820191906000526020600020905b81548152906001019060200180831161232b57829003601f168201915b505050505081526020016007820160009054906101000a900460ff1615151515815260200160088201805480602002602001604051908101604052809291908181526020016000905b8282101561243d5783829060005260206000200180546123b090614121565b80601f01602080910402602001604051908101604052809291908181526020018280546123dc90614121565b80156124295780601f106123fe57610100808354040283529160200191612429565b820191906000526020600020905b81548152906001019060200180831161240c57829003601f168201915b505050505081526020019060010190612391565b5050505081526020016009820160009054906101000a900460ff16151515158152602001600a8201805480602002602001604051908101604052809291908181526020016000905b828210156125315783829060005260206000200180546124a490614121565b80601f01602080910402602001604051908101604052809291908181526020018280546124d090614121565b801561251d5780601f106124f25761010080835404028352916020019161251d565b820191906000526020600020905b81548152906001019060200180831161250057829003601f168201915b505050505081526020019060010190612485565b505050508152602001600b820160009054906101000a900460ff16151515158152602001600c8201805480602002602001604051908101604052809291908181526020016000905b8282101561262557838290600052602060002001805461259890614121565b80601f01602080910402602001604051908101604052809291908181526020018280546125c490614121565b80156126115780601f106125e657610100808354040283529160200191612611565b820191906000526020600020905b8154815290600101906020018083116125f457829003601f168201915b505050505081526020019060010190612579565b505050508152602001600d8201805461263d90614121565b80601f016020809104026020016040519081016040528092919081815260200182805461266990614121565b80156126b65780601f1061268b576101008083540402835291602001916126b6565b820191906000526020600020905b81548152906001019060200180831161269957829003601f168201915b50505050508152602001600e8201805480602002602001604051908101604052809291908181526020016000905b8282101561279057838290600052602060002001805461270390614121565b80601f016020809104026020016040519081016040528092919081815260200182805461272f90614121565b801561277c5780601f106127515761010080835404028352916020019161277c565b820191906000526020600020905b81548152906001019060200180831161275f57829003601f168201915b5050505050815260200190600101906126e4565b505050508152602001600f820160009054906101000a900460ff16151515158152505081526020019060010190611fed565b50505050905090565b6060600660003373ffffffffffffffffffffffffffffffffffffffff1673ffffffffffffffffffffffffffffffffffffffff168152602001908152602001600020805480602002602001604051908101604052809291908181526020016000905b82821015613001578382906000526020600020906010020160405180610200016040529081600082015481526020016001820160009054906101000a900473ffffffffffffffffffffffffffffffffffffffff1673ffffffffffffffffffffffffffffffffffffffff1673ffffffffffffffffffffffffffffffffffffffff1681526020016002820154815260200160038201805480602002602001604051908101604052809291908181526020016000905b8282101561298b5783829060005260206000200180546128fe90614121565b80601f016020809104026020016040519081016040528092919081815260200182805461292a90614121565b80156129775780601f1061294c57610100808354040283529160200191612977565b820191906000526020600020905b81548152906001019060200180831161295a57829003601f168201915b5050505050815260200190600101906128df565b5050505081526020016004820180546129a390614121565b80601f01602080910402602001604051908101604052809291908181526020018280546129cf90614121565b8015612a1c5780601f106129f157610100808354040283529160200191612a1c565b820191906000526020600020905b8154815290600101906020018083116129ff57829003601f168201915b5050505050815260200160058201805480602002602001604051908101604052809291908181526020016000905b82821015612af6578382906000526020600020018054612a6990614121565b80601f0160208091040260200160405190810160405280929190818152602001828054612a9590614121565b8015612ae25780601f10612ab757610100808354040283529160200191612ae2565b820191906000526020600020905b815481529060010190602001808311612ac557829003601f168201915b505050505081526020019060010190612a4a565b505050508152602001600682018054612b0e90614121565b80601f0160208091040260200160405190810160405280929190818152602001828054612b3a90614121565b8015612b875780601f10612b5c57610100808354040283529160200191612b87565b820191906000526020600020905b815481529060010190602001808311612b6a57829003601f168201915b505050505081526020016007820160009054906101000a900460ff1615151515815260200160088201805480602002602001604051908101604052809291908181526020016000905b82821015612c7c578382906000526020600020018054612bef90614121565b80601f0160208091040260200160405190810160405280929190818152602001828054612c1b90614121565b8015612c685780601f10612c3d57610100808354040283529160200191612c68565b820191906000526020600020905b815481529060010190602001808311612c4b57829003601f168201915b505050505081526020019060010190612bd0565b5050505081526020016009820160009054906101000a900460ff16151515158152602001600a8201805480602002602001604051908101604052809291908181526020016000905b82821015612d70578382906000526020600020018054612ce390614121565b80601f0160208091040260200160405190810160405280929190818152602001828054612d0f90614121565b8015612d5c5780601f10612d3157610100808354040283529160200191612d5c565b820191906000526020600020905b815481529060010190602001808311612d3f57829003601f168201915b505050505081526020019060010190612cc4565b505050508152602001600b820160009054906101000a900460ff16151515158152602001600c8201805480602002602001604051908101604052809291908181526020016000905b82821015612e64578382906000526020600020018054612dd790614121565b80601f0160208091040260200160405190810160405280929190818152602001828054612e0390614121565b8015612e505780601f10612e2557610100808354040283529160200191612e50565b820191906000526020600020905b815481529060010190602001808311612e3357829003601f168201915b505050505081526020019060010190612db8565b505050508152602001600d82018054612e7c90614121565b80601f0160208091040260200160405190810160405280929190818152602001828054612ea890614121565b8015612ef55780601f10612eca57610100808354040283529160200191612ef5565b820191906000526020600020905b815481529060010190602001808311612ed857829003601f168201915b50505050508152602001600e8201805480602002602001604051908101604052809291908181526020016000905b82821015612fcf578382906000526020600020018054612f4290614121565b80601f0160208091040260200160405190810160405280929190818152602001828054612f6e90614121565b8015612fbb5780601f10612f9057610100808354040283529160200191612fbb565b820191906000526020600020905b815481529060010190602001808311612f9e57829003601f168201915b505050505081526020019060010190612f23565b505050508152602001600f820160009054906101000a900460ff1615151515815250508152602001906001019061282c565b50505050905090565b6060600182815481106130205761301f614152565b5b9060005260206000209060100201600e01805480602002602001604051908101604052809291908181526020016000905b828210156130fd57838290600052602060002001805461307090614121565b80601f016020809104026020016040519081016040528092919081815260200182805461309c90614121565b80156130e95780601f106130be576101008083540402835291602001916130e9565b820191906000526020600020905b8154815290600101906020018083116130cc57829003601f168201915b505050505081526020019060010190613051565b505050509050919050565b6040518060800160405280600081526020016000815260200160008152602001600081525090565b60405180610200016040528060008152602001600073ffffffffffffffffffffffffffffffffffffffff168152602001600081526020016060815260200160608152602001606081526020016060815260200160001515815260200160608152602001600015158152602001606081526020016000151581526020016060815260200160608152602001606081526020016000151581525090565b828054828255906000526020600020908101928215613213579160200282015b82811115613212578251829081613202919061432d565b50916020019190600101906131eb565b5b5090506132209190613224565b5090565b5b80821115613244576000818161323b9190613248565b50600101613225565b5090565b50805461325490614121565b6000825580601f106132665750613285565b601f0160209004906000526020600020908101906132849190613288565b5b50565b5b808211156132a1576000816000905550600101613289565b5090565b6000819050919050565b6132b8816132a5565b82525050565b60006020820190506132d360008301846132af565b92915050565b6000604051905090565b600080fd5b600080fd5b600080fd5b600080fd5b6000601f19601f8301169050919050565b7f4e487b7100000000000000000000000000000000000000000000000000000000600052604160045260246000fd5b613340826132f7565b810181811067ffffffffffffffff8211171561335f5761335e613308565b5b80604052505050565b60006133726132d9565b905061337e8282613337565b919050565b600067ffffffffffffffff82111561339e5761339d613308565b5b6133a7826132f7565b9050602081019050919050565b82818337600083830152505050565b60006133d66133d184613383565b613368565b9050828152602081018484840111156133f2576133f16132f2565b5b6133fd8482856133b4565b509392505050565b600082601f83011261341a576134196132ed565b5b813561342a8482602086016133c3565b91505092915050565b600060208284031215613449576134486132e3565b5b600082013567ffffffffffffffff811115613467576134666132e8565b5b61347384828501613405565b91505092915050565b600081519050919050565b600082825260208201905092915050565b6000819050602082019050919050565b6134b1816132a5565b82525050565b600073ffffffffffffffffffffffffffffffffffffffff82169050919050565b60006134e2826134b7565b9050919050565b6134f2816134d7565b82525050565b600081519050919050565b600082825260208201905092915050565b6000819050602082019050919050565b600081519050919050565b600082825260208201905092915050565b60005b8381101561355e578082015181840152602081019050613543565b60008484015250505050565b600061357582613524565b61357f818561352f565b935061358f818560208601613540565b613598816132f7565b840191505092915050565b60006135af838361356a565b905092915050565b6000602082019050919050565b60006135cf826134f8565b6135d98185613503565b9350836020820285016135eb85613514565b8060005b85811015613627578484038952815161360885826135a3565b9450613613836135b7565b925060208a019950506001810190506135ef565b50829750879550505050505092915050565b60008115159050919050565b61364e81613639565b82525050565b60006102008301600083015161366d60008601826134a8565b50602083015161368060208601826134e9565b50604083015161369360408601826134a8565b50606083015184820360608601526136ab82826135c4565b915050608083015184820360808601526136c5828261356a565b91505060a083015184820360a08601526136df82826135c4565b91505060c083015184820360c08601526136f9828261356a565b91505060e083015161370e60e0860182613645565b5061010083015184820361010086015261372882826135c4565b91505061012083015161373f610120860182613645565b5061014083015184820361014086015261375982826135c4565b915050610160830151613770610160860182613645565b5061018083015184820361018086015261378a82826135c4565b9150506101a08301518482036101a08601526137a6828261356a565b9150506101c08301518482036101c08601526137c282826135c4565b9150506101e08301516137d96101e0860182613645565b508091505092915050565b60006137f08383613654565b905092915050565b6000602082019050919050565b60006138108261347c565b61381a8185613487565b93508360208202850161382c85613498565b8060005b85811015613868578484038952815161384985826137e4565b9450613854836137f8565b925060208a01995050600181019050613830565b50829750879550505050505092915050565b600060208201905081810360008301526138948184613805565b905092915050565b6138a5816132a5565b81146138b057600080fd5b50565b6000813590506138c28161389c565b92915050565b600080604083850312156138df576138de6132e3565b5b60006138ed858286016138b3565b925050602083013567ffffffffffffffff81111561390e5761390d6132e8565b5b61391a85828601613405565b9150509250929050565b6000806040838503121561393b5761393a6132e3565b5b600083013567ffffffffffffffff811115613959576139586132e8565b5b61396585828601613405565b925050602083013567ffffffffffffffff811115613986576139856132e8565b5b61399285828601613405565b9150509250929050565b6000819050919050565b6139af8161399c565b82525050565b60006020820190506139ca60008301846139a6565b92915050565b6139d981613639565b82525050565b60006020820190506139f460008301846139d0565b92915050565b600063ffffffff82169050919050565b613a13816139fa565b8114613a1e57600080fd5b50565b600081359050613a3081613a0a565b92915050565b600060208284031215613a4c57613a4b6132e3565b5b6000613a5a84828501613a21565b91505092915050565b608082016000820151613a7960008501826134a8565b506020820151613a8c60208501826134a8565b506040820151613a9f60408501826134a8565b506060820151613ab260608501826134a8565b50505050565b6000608082019050613acd6000830184613a63565b92915050565b613adc816134d7565b82525050565b6000602082019050613af76000830184613ad3565b92915050565b600080600060608486031215613b1657613b156132e3565b5b6000613b24868287016138b3565b935050602084013567ffffffffffffffff811115613b4557613b446132e8565b5b613b5186828701613405565b925050604084013567ffffffffffffffff811115613b7257613b716132e8565b5b613b7e86828701613405565b9150509250925092565b600060208284031215613b9e57613b9d6132e3565b5b6000613bac848285016138b3565b91505092915050565b600061020083016000830151613bce60008601826134a8565b506020830151613be160208601826134e9565b506040830151613bf460408601826134a8565b5060608301518482036060860152613c0c82826135c4565b91505060808301518482036080860152613c26828261356a565b91505060a083015184820360a0860152613c4082826135c4565b91505060c083015184820360c0860152613c5a828261356a565b91505060e0830151613c6f60e0860182613645565b50610100830151848203610100860152613c8982826135c4565b915050610120830151613ca0610120860182613645565b50610140830151848203610140860152613cba82826135c4565b915050610160830151613cd1610160860182613645565b50610180830151848203610180860152613ceb82826135c4565b9150506101a08301518482036101a0860152613d07828261356a565b9150506101c08301518482036101c0860152613d2382826135c4565b9150506101e0830151613d3a6101e0860182613645565b508091505092915050565b60006020820190508181036000830152613d5f8184613bb5565b905092915050565b600067ffffffffffffffff821115613d8257613d81613308565b5b602082029050602081019050919050565b600080fd5b6000613dab613da684613d67565b613368565b90508083825260208201905060208402830185811115613dce57613dcd613d93565b5b835b81811015613e1557803567ffffffffffffffff811115613df357613df26132ed565b5b808601613e008982613405565b85526020850194505050602081019050613dd0565b5050509392505050565b600082601f830112613e3457613e336132ed565b5b8135613e44848260208601613d98565b91505092915050565b60008060008060008060008060006101208a8c031215613e7057613e6f6132e3565b5b6000613e7e8c828d016138b3565b99505060208a013567ffffffffffffffff811115613e9f57613e9e6132e8565b5b613eab8c828d01613e1f565b98505060408a013567ffffffffffffffff811115613ecc57613ecb6132e8565b5b613ed88c828d01613405565b97505060608a013567ffffffffffffffff811115613ef957613ef86132e8565b5b613f058c828d01613e1f565b96505060808a013567ffffffffffffffff811115613f2657613f256132e8565b5b613f328c828d01613405565b95505060a08a013567ffffffffffffffff811115613f5357613f526132e8565b5b613f5f8c828d01613e1f565b94505060c08a013567ffffffffffffffff811115613f8057613f7f6132e8565b5b613f8c8c828d01613e1f565b93505060e08a013567ffffffffffffffff811115613fad57613fac6132e8565b5b613fb98c828d01613e1f565b9250506101008a013567ffffffffffffffff811115613fdb57613fda6132e8565b5b613fe78c828d01613405565b9150509295985092959850929598565b600082825260208201905092915050565b6000614013826134f8565b61401d8185613ff7565b93508360208202850161402f85613514565b8060005b8581101561406b578484038952815161404c85826135a3565b9450614057836135b7565b925060208a01995050600181019050614033565b50829750879550505050505092915050565b600060208201905081810360008301526140978184614008565b905092915050565b600081905092915050565b60006140b582613524565b6140bf818561409f565b93506140cf818560208601613540565b80840191505092915050565b60006140e782846140aa565b915081905092915050565b7f4e487b7100000000000000000000000000000000000000000000000000000000600052602260045260246000fd5b6000600282049050600182168061413957607f821691505b60208210810361414c5761414b6140f2565b5b50919050565b7f4e487b7100000000000000000000000000000000000000000000000000000000600052603260045260246000fd5b60008190508160005260206000209050919050565b60006020601f8301049050919050565b600082821b905092915050565b6000600883026141e37fffffffffffffffffffffffffffffffffffffffffffffffffffffffffffffffff826141a6565b6141ed86836141a6565b95508019841693508086168417925050509392505050565b6000819050919050565b600061422a614225614220846132a5565b614205565b6132a5565b9050919050565b6000819050919050565b6142448361420f565b61425861425082614231565b8484546141b3565b825550505050565b600090565b61426d614260565b61427881848461423b565b505050565b5b8181101561429c57614291600082614265565b60018101905061427e565b5050565b601f8211156142e1576142b281614181565b6142bb84614196565b810160208510156142ca578190505b6142de6142d685614196565b83018261427d565b50505b505050565b600082821c905092915050565b6000614304600019846008026142e6565b1980831691505092915050565b600061431d83836142f3565b9150826002028217905092915050565b61433682613524565b67ffffffffffffffff81111561434f5761434e613308565b5b6143598254614121565b6143648282856142a0565b600060209050601f8311600181146143975760008415614385578287015190505b61438f8582614311565b8655506143f7565b601f1984166143a586614181565b60005b828110156143cd578489015182556001820191506020850194506020810190506143a8565b868310156143ea57848901516143e6601f8916826142f3565b8355505b6001600288020188555050505b505050505050565b7f4e487b7100000000000000000000000000000000000000000000000000000000600052601160045260246000fd5b6000614439826132a5565b91507fffffffffffffffffffffffffffffffffffffffffffffffffffffffffffffffff820361446b5761446a6143ff565b5b600182019050919050565b6000614481826132a5565b915061448c836132a5565b92508282019050808211156144a4576144a36143ff565b5b9291505056fea26469706673582212204cf20e009769d7f650a719c8e04d0dff9bff7f8757e75ae2a11f2a839f7e9f8764736f6c63430008100033",
  "immutableReferences": {},
  "source": "pragma solidity >= 0.7.0 < 0.9.0;\r\n\r\n\r\ncontract CrimeReport{\r\n\r\n/* Array Of Feedback in another stuct not supported yet.\r\n    struct Feedback{\r\n\r\n        // Wallet Address who submitted Feedback\r\n         address feebdbackFrom;\r\n\r\n        // Feedback\r\n        string feedback;\r\n\r\n        // Feedback Time\r\n        // uint256 timestamp;\r\n    }\r\n\r\n    */\r\n\r\n    // Conversation Model\r\n    struct MESSAGE{\r\n        uint256 id;\r\n        string from;\r\n        string message;\r\n    }\r\n\r\n    struct Crime{\r\n\r\n        // Unique Id Number for each crime\r\n        uint256 crimeId;\r\n\r\n        // Wallet Address who submitted crime details\r\n        address reporterWalletAddress;\r\n\r\n        // TimeStamp in Unix / Epoch\r\n        uint256 timeStamp;\r\n\r\n        /*\r\n        // State Name Where Crime Occured\r\n        string state; \r\n\r\n        // City Name Where Crime Occured\r\n        string city; \r\n\r\n        // Geographical Coordinates\r\n        string latitude; \r\n        string longitude; \r\n        */\r\n\r\n        string[] location;\r\n\r\n        // Crime Type -> Murder/Theft/Robbery...etc\r\n        string crimeType;\r\n\r\n        /* Questionnaire regarding crime type and mapping it to answer.\r\n           Question_Number -> Answer\r\n           mapping(uint32 => string) questionnaires;\r\n        */\r\n        \r\n        /*  Use This if Above Mapping doesn't work \r\n\r\n        // Questionnaire regarding crime type */\r\n        //string[] questionnaires;\r\n\r\n        // Answers of Questionnaire.\r\n        string[] questionnaireAnswers;\r\n\r\n        \r\n\r\n        // Crime Description in detail\r\n        string crimeDesc; \r\n\r\n        /* Details regarding suspect\r\n            KEY         -> VALUE\r\n            Name        -> name_of_suspect\r\n            Age_Group   -> Young Adult(Below 30) | Middle-aged Adult(Below 60) | Old Adults(Above 60)\r\n            Gender      -> Male | Female\r\n            Description -> Other Details to identify suspects (eg.Face color, hair color, height... etc)\r\n\r\n        mapping(string => string) suspectInfo;\r\n        */\r\n        bool isSuspectKnown;\r\n        string[] suspectInfoAnswers;\r\n\r\n        /* Details regarding vehicle if any involved in case\r\n            KEY -> VALUE\r\n            License plate state , Number, Vehicle color.. etc.\r\n            mapping(string => string) vehicleInfo;\r\n        */\r\n        bool isVehiclePresent;\r\n        string[] vehicleInfoAnswers;\r\n        \r\n\r\n        /* Victim Details if known\r\n            KEY -> VALUE\r\n            Name, address... etc.\r\n            mapping(string => string) victimInfo;\r\n        */\r\n        bool isVictimKnown;\r\n        string[] victimInfoAnswers;\r\n\r\n        // IPFS Hash If any media files attached.\r\n        string ipfsHash;\r\n\r\n        // Feedbacks\r\n        string[] feedbacks;\r\n\r\n        // Case is active or closed [Active = true | Close = false]\r\n        bool isCaseActive; \r\n        \r\n        /*\r\n            KEY = ADMIN | USER\r\n            Value = MESSAGE\r\n        */\r\n\r\n    }\r\n\r\n    // Statistics Model\r\n\r\n    struct Statistics{\r\n        uint murderCases;\r\n        uint theftCases;\r\n\tuint drugsCases;\r\n\tuint harassmentCases;\r\n    }\r\n\r\n    // Crime ID Wise Comversation\r\n    mapping(uint256 => MESSAGE) private conversations;\r\n\r\n    // List Of All Crimes that reported\r\n    Crime[] private crimes;\r\n    Statistics private stats;\r\n    // Stores all crimes user wise.\r\n    mapping(address => Crime[]) crimesByUsers;\r\n\r\n    // Store all crimes of city\r\n    mapping(string => Crime[]) crimesOfCity;\r\n\r\n    // Function to submit crime (Storing Crime Details)\r\n    function submitCrime(uint256 _timestamp,\r\n                         string[] memory _location,\r\n                         string memory _crimeType,\r\n                         string[] memory _questionnaireAnswers,\r\n                         string memory _crimeDesc,\r\n                         string[] memory _suspectInfoAnswers,\r\n                         string[] memory _vehicleInfoAnswers,\r\n                         string[] memory _victimInfoAnswers,\r\n                         string memory _ipfsHash\r\n                        ) external {\r\n\r\n         Crime memory crime;     \r\n         crime.crimeId = crimes.length;   \r\n         crime.reporterWalletAddress = getReporterWalletAddress();\r\n         crime.timeStamp = _timestamp;   \r\n         crime.location = _location;\r\n         crime.crimeType = _crimeType;     \r\n         crime.questionnaireAnswers = _questionnaireAnswers;\r\n         crime.crimeDesc = _crimeDesc; \r\n         crime.isCaseActive = true;\r\n         \r\n         crime.isSuspectKnown = false;\r\n         if(_suspectInfoAnswers.length>0){\r\n             crime.isSuspectKnown = true;\r\n             crime.suspectInfoAnswers = _suspectInfoAnswers;\r\n         }\r\n\r\n         crime.isVehiclePresent = false;\r\n         if(_vehicleInfoAnswers.length>0){\r\n             crime.isVehiclePresent = true;\r\n             crime.vehicleInfoAnswers = _vehicleInfoAnswers;\r\n         }\r\n\r\n         crime.isVictimKnown = false;\r\n         if(_victimInfoAnswers.length>0){\r\n             crime.isVictimKnown = true;\r\n             crime.victimInfoAnswers = _victimInfoAnswers;\r\n         }\r\n\r\n        crime.ipfsHash = _ipfsHash;\r\n        string[] memory _feedbacks;\r\n        crime.feedbacks = _feedbacks;\r\n        crimes.push(crime);\r\n\r\n        crimesByUsers[msg.sender].push(crime);\r\n        crimesOfCity[_location[1]].push(crime);\r\n\r\n        if(equal(_crimeType,\"Murder\")){\r\n            stats.murderCases++;\r\n        }else if(equal(_crimeType,\"Theft\")){\r\n            stats.theftCases++;\r\n        }else if(equal(_crimeType,\"Drugs\")){\r\n            stats.drugsCases++;\r\n        }else if(equal(_crimeType,\"HarassmentCases\")){\r\n\t\tstats.harassmentCases++;\r\n\t}\r\n\r\n    }\r\n\r\n\r\n    // Function to submit Feedbacks\r\n    function submitFeedback(uint256 _crimeId,string memory _feedback) external{\r\n        crimes[_crimeId].feedbacks.push(_feedback);\r\n    }\r\n\r\n    // Return Feedbacks By CrimeID\r\n   function getFeedbacksById(uint256 _crimeId) public view returns(string[] memory){\r\n       return crimes[_crimeId].feedbacks;\r\n   }\r\n\r\n    // Function to return all crime to admin side\r\n    function getCrimes() public view returns (Crime[] memory) {\r\n       return crimes;\r\n   }\r\n\r\n   // Return Crime By CrimeID\r\n   function getCrimeById(uint256 _crimeId) public view returns(Crime memory){\r\n       return crimes[_crimeId];\r\n   }\r\n\r\n    // Returns Total Number Of Crimes\r\n    function totalCrimes() public view returns (uint256) {\r\n       return crimes.length;\r\n   }\r\n\r\n    // Returns Address of wallet who Reporting the crime\r\n    function getReporterWalletAddress() public view returns(address){\r\n        return msg.sender;\r\n    }\r\n\r\n    // Return Crimes Submitted by the current user\r\n   function getCrimeOfCurrentUser() public view returns(Crime[] memory){\r\n        return crimesByUsers[msg.sender];\r\n   }\r\n\r\n    // Return Crimes of city\r\n   function getCrimeOfCity(string memory _city) public view returns(Crime[] memory){\r\n        return crimesOfCity[_city];\r\n   }\r\n\r\n   // Function for admin to close case.\r\n  function closeCase(uint32 _crimeId) public {\r\n    crimes[_crimeId].isCaseActive = false;\r\n  }\r\n\r\n  // Conversation of admin to crime reporter.\r\n  function sendMessage(uint256 _crimeId,string memory _message, string memory _from) public{\r\n      uint256 id = conversations[_crimeId].id + 1;\r\n      conversations[_crimeId] =  MESSAGE(id,_from,_message);\r\n  }\r\n\r\n  // Get crime Statistics\r\n  function getCrimeStatistics() public view returns(Statistics memory) {\r\n      return stats;\r\n  }\r\n \r\n\r\n  function compare(string memory _a, string memory _b) public pure returns (int) {\r\n        bytes memory a = bytes(_a);\r\n        bytes memory b = bytes(_b);\r\n        uint minLength = a.length;\r\n        if (b.length < minLength) minLength = b.length;\r\n     \r\n        for (uint i = 0; i < minLength; i ++)\r\n            if (a[i] < b[i])\r\n                return -1;\r\n            else if (a[i] > b[i])\r\n                return 1;\r\n        if (a.length < b.length)\r\n            return -1;\r\n        else if (a.length > b.length)\r\n            return 1;\r\n        else\r\n            return 0;\r\n    }\r\n\r\n    function equal(string memory _a, string memory _b) public pure returns (bool) {\r\n        return compare(_a, _b) == 0;\r\n    }\r\n\r\n}\r\n\r\n\r\n/*\r\n    Parameters For Testing\r\n\r\n    1660627677,[\"Maharashtra\",\"Jalgaon\",\"2.9454465\",\"9.2487554\"],Theft,[\"Bike\"],\"I saw the person stealing bike and going to Shiv Colony side\",[],[],[],\"IFPS_HASH_HERE\"\r\n\r\n*/",
  "sourcePath": "D:\\SIH-PROJECT\\dnetwork\\contracts\\CrimeReport.sol",
  "compiler": {
    "name": "solc",
    "version": "0.8.16+commit.07a7930e.Emscripten.clang"
  },
  "schemaVersion": "3.4.9",
  "updatedAt": "2022-08-23T15:21:33.071Z",
  "networkType": "ethereum",
  "devdoc": {
    "kind": "dev",
    "methods": {},
    "version": 1
  },
  "userdoc": {
    "kind": "user",
    "methods": {},
    "version": 1
  }
}