{
  "contractName": "Crimes",
  "abi": [
    {
      "inputs": [
        {
          "internalType": "uint256",
          "name": "_timeStamp",
          "type": "uint256"
        },
        {
          "internalType": "string",
          "name": "_city",
          "type": "string"
        },
        {
          "internalType": "uint256",
          "name": "_latitude",
          "type": "uint256"
        },
        {
          "internalType": "uint256",
          "name": "_longitude",
          "type": "uint256"
        },
        {
          "internalType": "string",
          "name": "_crimeType",
          "type": "string"
        },
        {
          "internalType": "uint8",
          "name": "_numberOfSuspects",
          "type": "uint8"
        },
        {
          "internalType": "string",
          "name": "_crimeDesc",
          "type": "string"
        },
        {
          "internalType": "bool",
          "name": "_isVictimKnown",
          "type": "bool"
        },
        {
          "internalType": "string",
          "name": "_aboutVictim",
          "type": "string"
        },
        {
          "internalType": "bool",
          "name": "_isSuspectKnown",
          "type": "bool"
        },
        {
          "internalType": "string",
          "name": "_aboutSuspect",
          "type": "string"
        }
      ],
      "name": "submitCrime",
      "outputs": [],
      "stateMutability": "nonpayable",
      "type": "function"
    },
    {
      "inputs": [
        {
          "internalType": "uint256",
          "name": "currRating",
          "type": "uint256"
        },
        {
          "internalType": "uint256",
          "name": "ratingFromCurrUser",
          "type": "uint256"
        },
        {
          "internalType": "uint256",
          "name": "totalUsers",
          "type": "uint256"
        }
      ],
      "name": "calculateGenuineness",
      "outputs": [
        {
          "internalType": "uint256[]",
          "name": "",
          "type": "uint256[]"
        }
      ],
      "stateMutability": "pure",
      "type": "function",
      "constant": true
    },
    {
      "inputs": [
        {
          "internalType": "uint32",
          "name": "_crimeId",
          "type": "uint32"
        }
      ],
      "name": "closeCase",
      "outputs": [],
      "stateMutability": "nonpayable",
      "type": "function"
    },
    {
      "inputs": [],
      "name": "getCrimes",
      "outputs": [
        {
          "components": [
            {
              "internalType": "uint256",
              "name": "crimeId",
              "type": "uint256"
            },
            {
              "internalType": "uint256",
              "name": "timeStamp",
              "type": "uint256"
            },
            {
              "internalType": "string",
              "name": "crimeType",
              "type": "string"
            },
            {
              "internalType": "string",
              "name": "crimeDesc",
              "type": "string"
            },
            {
              "internalType": "uint8",
              "name": "numberOfSuspects",
              "type": "uint8"
            },
            {
              "internalType": "string",
              "name": "state",
              "type": "string"
            },
            {
              "internalType": "string",
              "name": "city",
              "type": "string"
            },
            {
              "internalType": "uint256",
              "name": "latitude",
              "type": "uint256"
            },
            {
              "internalType": "uint256",
              "name": "longitude",
              "type": "uint256"
            },
            {
              "internalType": "bool",
              "name": "isVictimKnown",
              "type": "bool"
            },
            {
              "internalType": "string",
              "name": "aboutVictim",
              "type": "string"
            },
            {
              "internalType": "bool",
              "name": "isSuspectKnown",
              "type": "bool"
            },
            {
              "internalType": "string",
              "name": "aboutSuspect",
              "type": "string"
            },
            {
              "internalType": "bool",
              "name": "isCaseActive",
              "type": "bool"
            },
            {
              "internalType": "uint32",
              "name": "crimeGenuinenessRating",
              "type": "uint32"
            },
            {
              "internalType": "uint32",
              "name": "nUsersWhoDidRating",
              "type": "uint32"
            }
          ],
          "internalType": "struct Crimes.Crime[]",
          "name": "",
          "type": "tuple[]"
        }
      ],
      "stateMutability": "view",
      "type": "function",
      "constant": true
    }
  ],
  "bytecode": "0x608060405234801561001057600080fd5b5061157d806100206000396000f3fe608060405234801561001057600080fd5b506004361061004c5760003560e01c80633fc71665146100515780634c2535511461006d578063a4881afd14610089578063ec4f4ede146100a7575b600080fd5b61006b60048036038101906100669190610bb0565b6100d7565b005b61008760048036038101906100829190610d6c565b610375565b005b6100916103bb565b60405161009e9190611091565b60405180910390f35b6100c160048036038101906100bc91906110b3565b610869565b6040516100ce91906111b5565b60405180910390f35b6100df61091d565b6000805490508160000181815250508b81602001818152505087816040018190525085816060018190525086816080019060ff16908160ff16815250508a8160c00181905250898160e001818152505088816101000181815250508481610120019015159081151581525050838161014001819052508281610160019015159081151581525050818161018001819052506001816101a00190151590811515815250506000816101c0019063ffffffff16908163ffffffff16815250506000816101e0019063ffffffff16908163ffffffff168152505060008190806001815401808255809150506001900390600052602060002090600e02016000909190919091506000820151816000015560208201518160010155604082015181600201908161020b91906113e3565b50606082015181600301908161022191906113e3565b5060808201518160040160006101000a81548160ff021916908360ff16021790555060a082015181600501908161025891906113e3565b5060c082015181600601908161026e91906113e3565b5060e0820151816007015561010082015181600801556101208201518160090160006101000a81548160ff02191690831515021790555061014082015181600a0190816102bb91906113e3565b5061016082015181600b0160006101000a81548160ff02191690831515021790555061018082015181600c0190816102f391906113e3565b506101a082015181600d0160006101000a81548160ff0219169083151502179055506101c082015181600d0160016101000a81548163ffffffff021916908363ffffffff1602179055506101e082015181600d0160056101000a81548163ffffffff021916908363ffffffff1602179055505050505050505050505050505050565b6000808263ffffffff16815481106103905761038f6114b5565b5b90600052602060002090600e0201600d0160006101000a81548160ff02191690831515021790555050565b60606000805480602002602001604051908101604052809291908181526020016000905b8282101561086057838290600052602060002090600e020160405180610200016040529081600082015481526020016001820154815260200160028201805461042790611206565b80601f016020809104026020016040519081016040528092919081815260200182805461045390611206565b80156104a05780601f10610475576101008083540402835291602001916104a0565b820191906000526020600020905b81548152906001019060200180831161048357829003601f168201915b505050505081526020016003820180546104b990611206565b80601f01602080910402602001604051908101604052809291908181526020018280546104e590611206565b80156105325780601f1061050757610100808354040283529160200191610532565b820191906000526020600020905b81548152906001019060200180831161051557829003601f168201915b505050505081526020016004820160009054906101000a900460ff1660ff1660ff16815260200160058201805461056890611206565b80601f016020809104026020016040519081016040528092919081815260200182805461059490611206565b80156105e15780601f106105b6576101008083540402835291602001916105e1565b820191906000526020600020905b8154815290600101906020018083116105c457829003601f168201915b505050505081526020016006820180546105fa90611206565b80601f016020809104026020016040519081016040528092919081815260200182805461062690611206565b80156106735780601f1061064857610100808354040283529160200191610673565b820191906000526020600020905b81548152906001019060200180831161065657829003601f168201915b5050505050815260200160078201548152602001600882015481526020016009820160009054906101000a900460ff16151515158152602001600a820180546106bb90611206565b80601f01602080910402602001604051908101604052809291908181526020018280546106e790611206565b80156107345780601f1061070957610100808354040283529160200191610734565b820191906000526020600020905b81548152906001019060200180831161071757829003601f168201915b50505050508152602001600b820160009054906101000a900460ff16151515158152602001600c8201805461076890611206565b80601f016020809104026020016040519081016040528092919081815260200182805461079490611206565b80156107e15780601f106107b6576101008083540402835291602001916107e1565b820191906000526020600020905b8154815290600101906020018083116107c457829003601f168201915b50505050508152602001600d820160009054906101000a900460ff16151515158152602001600d820160019054906101000a900463ffffffff1663ffffffff1663ffffffff168152602001600d820160059054906101000a900463ffffffff1663ffffffff1663ffffffff1681525050815260200190600101906103df565b50505050905090565b60606000600267ffffffffffffffff81111561088857610887610a14565b5b6040519080825280602002602001820160405280156108b65781602001602082028036833780820191505090505b50905083856108c59190611513565b816000815181106108d9576108d86114b5565b5b6020026020010181815250506001836108f29190611513565b81600181518110610906576109056114b5565b5b602002602001018181525050809150509392505050565b60405180610200016040528060008152602001600081526020016060815260200160608152602001600060ff168152602001606081526020016060815260200160008152602001600081526020016000151581526020016060815260200160001515815260200160608152602001600015158152602001600063ffffffff168152602001600063ffffffff1681525090565b6000604051905090565b600080fd5b600080fd5b6000819050919050565b6109d6816109c3565b81146109e157600080fd5b50565b6000813590506109f3816109cd565b92915050565b600080fd5b600080fd5b6000601f19601f8301169050919050565b7f4e487b7100000000000000000000000000000000000000000000000000000000600052604160045260246000fd5b610a4c82610a03565b810181811067ffffffffffffffff82111715610a6b57610a6a610a14565b5b80604052505050565b6000610a7e6109af565b9050610a8a8282610a43565b919050565b600067ffffffffffffffff821115610aaa57610aa9610a14565b5b610ab382610a03565b9050602081019050919050565b82818337600083830152505050565b6000610ae2610add84610a8f565b610a74565b905082815260208101848484011115610afe57610afd6109fe565b5b610b09848285610ac0565b509392505050565b600082601f830112610b2657610b256109f9565b5b8135610b36848260208601610acf565b91505092915050565b600060ff82169050919050565b610b5581610b3f565b8114610b6057600080fd5b50565b600081359050610b7281610b4c565b92915050565b60008115159050919050565b610b8d81610b78565b8114610b9857600080fd5b50565b600081359050610baa81610b84565b92915050565b60008060008060008060008060008060006101608c8e031215610bd657610bd56109b9565b5b6000610be48e828f016109e4565b9b505060208c013567ffffffffffffffff811115610c0557610c046109be565b5b610c118e828f01610b11565b9a50506040610c228e828f016109e4565b9950506060610c338e828f016109e4565b98505060808c013567ffffffffffffffff811115610c5457610c536109be565b5b610c608e828f01610b11565b97505060a0610c718e828f01610b63565b96505060c08c013567ffffffffffffffff811115610c9257610c916109be565b5b610c9e8e828f01610b11565b95505060e0610caf8e828f01610b9b565b9450506101008c013567ffffffffffffffff811115610cd157610cd06109be565b5b610cdd8e828f01610b11565b935050610120610cef8e828f01610b9b565b9250506101408c013567ffffffffffffffff811115610d1157610d106109be565b5b610d1d8e828f01610b11565b9150509295989b509295989b9093969950565b600063ffffffff82169050919050565b610d4981610d30565b8114610d5457600080fd5b50565b600081359050610d6681610d40565b92915050565b600060208284031215610d8257610d816109b9565b5b6000610d9084828501610d57565b91505092915050565b600081519050919050565b600082825260208201905092915050565b6000819050602082019050919050565b610dce816109c3565b82525050565b600081519050919050565b600082825260208201905092915050565b60005b83811015610e0e578082015181840152602081019050610df3565b60008484015250505050565b6000610e2582610dd4565b610e2f8185610ddf565b9350610e3f818560208601610df0565b610e4881610a03565b840191505092915050565b610e5c81610b3f565b82525050565b610e6b81610b78565b82525050565b610e7a81610d30565b82525050565b600061020083016000830151610e996000860182610dc5565b506020830151610eac6020860182610dc5565b5060408301518482036040860152610ec48282610e1a565b91505060608301518482036060860152610ede8282610e1a565b9150506080830151610ef36080860182610e53565b5060a083015184820360a0860152610f0b8282610e1a565b91505060c083015184820360c0860152610f258282610e1a565b91505060e0830151610f3a60e0860182610dc5565b50610100830151610f4f610100860182610dc5565b50610120830151610f64610120860182610e62565b50610140830151848203610140860152610f7e8282610e1a565b915050610160830151610f95610160860182610e62565b50610180830151848203610180860152610faf8282610e1a565b9150506101a0830151610fc66101a0860182610e62565b506101c0830151610fdb6101c0860182610e71565b506101e0830151610ff06101e0860182610e71565b508091505092915050565b60006110078383610e80565b905092915050565b6000602082019050919050565b600061102782610d99565b6110318185610da4565b93508360208202850161104385610db5565b8060005b8581101561107f57848403895281516110608582610ffb565b945061106b8361100f565b925060208a01995050600181019050611047565b50829750879550505050505092915050565b600060208201905081810360008301526110ab818461101c565b905092915050565b6000806000606084860312156110cc576110cb6109b9565b5b60006110da868287016109e4565b93505060206110eb868287016109e4565b92505060406110fc868287016109e4565b9150509250925092565b600081519050919050565b600082825260208201905092915050565b6000819050602082019050919050565b600061113e8383610dc5565b60208301905092915050565b6000602082019050919050565b600061116282611106565b61116c8185611111565b935061117783611122565b8060005b838110156111a857815161118f8882611132565b975061119a8361114a565b92505060018101905061117b565b5085935050505092915050565b600060208201905081810360008301526111cf8184611157565b905092915050565b7f4e487b7100000000000000000000000000000000000000000000000000000000600052602260045260246000fd5b6000600282049050600182168061121e57607f821691505b602082108103611231576112306111d7565b5b50919050565b60008190508160005260206000209050919050565b60006020601f8301049050919050565b600082821b905092915050565b6000600883026112997fffffffffffffffffffffffffffffffffffffffffffffffffffffffffffffffff8261125c565b6112a3868361125c565b95508019841693508086168417925050509392505050565b6000819050919050565b60006112e06112db6112d6846109c3565b6112bb565b6109c3565b9050919050565b6000819050919050565b6112fa836112c5565b61130e611306826112e7565b848454611269565b825550505050565b600090565b611323611316565b61132e8184846112f1565b505050565b5b818110156113525761134760008261131b565b600181019050611334565b5050565b601f8211156113975761136881611237565b6113718461124c565b81016020851015611380578190505b61139461138c8561124c565b830182611333565b50505b505050565b600082821c905092915050565b60006113ba6000198460080261139c565b1980831691505092915050565b60006113d383836113a9565b9150826002028217905092915050565b6113ec82610dd4565b67ffffffffffffffff81111561140557611404610a14565b5b61140f8254611206565b61141a828285611356565b600060209050601f83116001811461144d576000841561143b578287015190505b61144585826113c7565b8655506114ad565b601f19841661145b86611237565b60005b828110156114835784890151825560018201915060208501945060208101905061145e565b868310156114a0578489015161149c601f8916826113a9565b8355505b6001600288020188555050505b505050505050565b7f4e487b7100000000000000000000000000000000000000000000000000000000600052603260045260246000fd5b7f4e487b7100000000000000000000000000000000000000000000000000000000600052601160045260246000fd5b600061151e826109c3565b9150611529836109c3565b9250828201905080821115611541576115406114e4565b5b9291505056fea2646970667358221220aae69a821abe9ea4f247a750190ea7bd0468078c4df48679ce6245c6051003c664736f6c63430008100033",
  "immutableReferences": {},
  "source": "// SPDX-License-Identifier: MIT\r\npragma solidity >= 0.7.0 < 0.9.0;\r\n\r\ncontract Crimes{\r\n\r\n  struct Crime{\r\n    uint256 crimeId; // Unique Id Number for each crime\r\n    uint256 timeStamp; // TimeStamp in Unix / Epoch\r\n\r\n    string crimeType; // Crime Type -> Murder/Theft/Robbery...etc\r\n    string crimeDesc; // Crime Description in detail\r\n    uint8 numberOfSuspects; // Number Of Suspects Seen\r\n\r\n     string state; // State Name Where Crime Occured\r\n    string city; // City Name Where Crime Occured\r\n\r\n    // Geographical Coordinates\r\n    uint256 latitude; \r\n    uint256 longitude; \r\n\r\n    // Is person known about whom the crime has been committed?\r\n    bool isVictimKnown;\r\n    string aboutVictim; // Information Of Victim\r\n    \r\n    bool isSuspectKnown; // Do you know who did the crime?\r\n    string aboutSuspect; // Information Of Suspect\r\n\r\n    // Case is active or closed [Active = true | Close = false]\r\n    bool isCaseActive;\r\n\r\n    uint32 crimeGenuinenessRating; // Genuineness Rating From Feedback Form By Users\r\n    uint32 nUsersWhoDidRating; // Number of users who did rating\r\n    \r\n    /*\r\n      For now mapping it seperatly.    \r\n      address addressOfUserAc; // Wallet Address of who reporting the crime\r\n    */\r\n\r\n  }\r\n\r\n  Crime[] private crimes; // List Of All Crimes that reported\r\n  \r\n  /* To Show the list of each user's reported crime to their account\r\n     Key   -> crimeId\r\n     Value -> users's Address\r\n  */\r\n  //mapping(uint256 => address) reportedCrimeByUser;\r\n\r\n  // Function to submit crime (Storing Crime Details)\r\n  function submitCrime(uint256 _timeStamp,\r\n                       string memory _city,\r\n                       uint256 _latitude,\r\n                       uint256 _longitude,\r\n                       string memory _crimeType,\r\n                       uint8 _numberOfSuspects,\r\n                       string memory _crimeDesc,\r\n                       bool _isVictimKnown,\r\n                       string memory _aboutVictim,\r\n                       bool _isSuspectKnown,\r\n                       string memory _aboutSuspect\r\n                      ) external\r\n  {\r\n\r\n    // Mapping unique Crime Id With reporter Account\r\n   // reportedCrimeByUser[crimes.length] = msg.sender;\r\n\r\n    Crime memory crime;\r\n    crime.crimeId = crimes.length;\r\n    crime.timeStamp = _timeStamp;\r\n\r\n    // Crime Details\r\n    crime.crimeType = _crimeType;\r\n    crime.crimeDesc = _crimeDesc;\r\n    crime.numberOfSuspects = _numberOfSuspects;\r\n\r\n    // Crime Location\r\n    crime.city = _city;\r\n    crime.latitude = _latitude;\r\n    crime.longitude = _longitude;\r\n\r\n    crime.isVictimKnown = _isVictimKnown;\r\n    crime.aboutVictim = _aboutVictim;\r\n    crime.isSuspectKnown = _isSuspectKnown;\r\n    crime.aboutSuspect = _aboutSuspect;\r\n    crime.isCaseActive = true;\r\n    crime.crimeGenuinenessRating = 0;\r\n    crime.nUsersWhoDidRating = 0;\r\n\r\n    // Adding New Crime Report \r\n    crimes.push(crime);\r\n  }\r\n\r\n  // Function to add feedback of reported case.\r\n//   function addFeedback(uint32 _crimeId, string memory _feedback, uint32 _crimeGenuinenessRating) external {\r\n\r\n//     uint32 _feedbackId = uint32(crimes[_crimeId].crimeFeedbacks.length);\r\n//     crimes[_crimeId].crimeFeedbacks.push(CrimeFeedback(_feedbackId,_feedback));\r\n//     crimes[_crimeId].crimeGenuinenessRating += _crimeGenuinenessRating;\r\n//     crimes[_crimeId].nUsersWhoDidRating += 1;\r\n\r\n//   }\r\n\r\n// Function to calculate Crime Genuineness\r\nfunction calculateGenuineness(uint currRating, uint ratingFromCurrUser, uint totalUsers) external pure returns(uint[] memory){\r\n\r\n    uint[] memory ratings = new uint[](2);\r\n    ratings[0] = currRating+ratingFromCurrUser;\r\n    ratings[1] = totalUsers+1;\r\n\r\n    return ratings;\r\n    // return ((currRating+ratingFromCurrUser)/(totalUsers+1)) * 5;\r\n}\r\n\r\n// TODO: Function To Show Crimes By City\r\n\r\n\r\n// TODO: Function To Show Nearest Crimes By Latitude & Longitude\r\n\r\n\r\n// Function for admin to close case.\r\n  function closeCase(uint32 _crimeId) external {\r\n    crimes[_crimeId].isCaseActive = false;\r\n  }\r\n\r\n  function getCrimes() public view returns (Crime[] memory) {\r\n       return crimes;\r\n   }\r\n\r\n}",
  "sourcePath": "D:\\SIH-PROJECT\\backend\\contracts\\Crimes.sol",
  "compiler": {
    "name": "solc",
    "version": "0.8.16+commit.07a7930e.Emscripten.clang"
  },
  "schemaVersion": "3.4.9",
  "updatedAt": "2022-08-15T10:55:12.789Z",
  "networkType": "ethereum",
  "devdoc": {
    "kind": "dev",
    "methods": {},
    "version": 1
  },
  "userdoc": {
    "kind": "user",
    "methods": {},
    "version": 1
  }
}