{
  "contractName": "CrimeReport",
  "abi": [
    {
      "inputs": [
        {
          "internalType": "uint256",
          "name": "_timestamp",
          "type": "uint256"
        },
        {
          "internalType": "string[]",
          "name": "_location",
          "type": "string[]"
        },
        {
          "internalType": "string",
          "name": "_crimeType",
          "type": "string"
        },
        {
          "internalType": "string[]",
          "name": "_questionnaireAnswers",
          "type": "string[]"
        },
        {
          "internalType": "string",
          "name": "_crimeDesc",
          "type": "string"
        },
        {
          "internalType": "string[]",
          "name": "_suspectInfoAnswers",
          "type": "string[]"
        },
        {
          "internalType": "string[]",
          "name": "_vehicleInfoAnswers",
          "type": "string[]"
        },
        {
          "internalType": "string[]",
          "name": "_victimInfoAnswers",
          "type": "string[]"
        },
        {
          "internalType": "string",
          "name": "_ipfsHash",
          "type": "string"
        }
      ],
      "name": "submitCrime",
      "outputs": [],
      "stateMutability": "nonpayable",
      "type": "function"
    },
    {
      "inputs": [
        {
          "internalType": "uint256",
          "name": "_crimeId",
          "type": "uint256"
        },
        {
          "internalType": "string",
          "name": "_feedback",
          "type": "string"
        }
      ],
      "name": "submitFeedback",
      "outputs": [],
      "stateMutability": "nonpayable",
      "type": "function"
    },
    {
      "inputs": [
        {
          "internalType": "uint256",
          "name": "_crimeId",
          "type": "uint256"
        }
      ],
      "name": "getFeedbacksById",
      "outputs": [
        {
          "internalType": "string[]",
          "name": "",
          "type": "string[]"
        }
      ],
      "stateMutability": "view",
      "type": "function",
      "constant": true
    },
    {
      "inputs": [],
      "name": "getCrimes",
      "outputs": [
        {
          "components": [
            {
              "internalType": "uint256",
              "name": "crimeId",
              "type": "uint256"
            },
            {
              "internalType": "address",
              "name": "reporterWalletAddress",
              "type": "address"
            },
            {
              "internalType": "uint256",
              "name": "timeStamp",
              "type": "uint256"
            },
            {
              "internalType": "string[]",
              "name": "location",
              "type": "string[]"
            },
            {
              "internalType": "string",
              "name": "crimeType",
              "type": "string"
            },
            {
              "internalType": "string[]",
              "name": "questionnaireAnswers",
              "type": "string[]"
            },
            {
              "internalType": "string",
              "name": "crimeDesc",
              "type": "string"
            },
            {
              "internalType": "bool",
              "name": "isSuspectKnown",
              "type": "bool"
            },
            {
              "internalType": "string[]",
              "name": "suspectInfoAnswers",
              "type": "string[]"
            },
            {
              "internalType": "bool",
              "name": "isVehiclePresent",
              "type": "bool"
            },
            {
              "internalType": "string[]",
              "name": "vehicleInfoAnswers",
              "type": "string[]"
            },
            {
              "internalType": "bool",
              "name": "isVictimKnown",
              "type": "bool"
            },
            {
              "internalType": "string[]",
              "name": "victimInfoAnswers",
              "type": "string[]"
            },
            {
              "internalType": "string",
              "name": "ipfsHash",
              "type": "string"
            },
            {
              "internalType": "string[]",
              "name": "feedbacks",
              "type": "string[]"
            },
            {
              "internalType": "bool",
              "name": "isCaseActive",
              "type": "bool"
            }
          ],
          "internalType": "struct CrimeReport.Crime[]",
          "name": "",
          "type": "tuple[]"
        }
      ],
      "stateMutability": "view",
      "type": "function",
      "constant": true
    },
    {
      "inputs": [
        {
          "internalType": "uint256",
          "name": "_crimeId",
          "type": "uint256"
        }
      ],
      "name": "getCrimeById",
      "outputs": [
        {
          "components": [
            {
              "internalType": "uint256",
              "name": "crimeId",
              "type": "uint256"
            },
            {
              "internalType": "address",
              "name": "reporterWalletAddress",
              "type": "address"
            },
            {
              "internalType": "uint256",
              "name": "timeStamp",
              "type": "uint256"
            },
            {
              "internalType": "string[]",
              "name": "location",
              "type": "string[]"
            },
            {
              "internalType": "string",
              "name": "crimeType",
              "type": "string"
            },
            {
              "internalType": "string[]",
              "name": "questionnaireAnswers",
              "type": "string[]"
            },
            {
              "internalType": "string",
              "name": "crimeDesc",
              "type": "string"
            },
            {
              "internalType": "bool",
              "name": "isSuspectKnown",
              "type": "bool"
            },
            {
              "internalType": "string[]",
              "name": "suspectInfoAnswers",
              "type": "string[]"
            },
            {
              "internalType": "bool",
              "name": "isVehiclePresent",
              "type": "bool"
            },
            {
              "internalType": "string[]",
              "name": "vehicleInfoAnswers",
              "type": "string[]"
            },
            {
              "internalType": "bool",
              "name": "isVictimKnown",
              "type": "bool"
            },
            {
              "internalType": "string[]",
              "name": "victimInfoAnswers",
              "type": "string[]"
            },
            {
              "internalType": "string",
              "name": "ipfsHash",
              "type": "string"
            },
            {
              "internalType": "string[]",
              "name": "feedbacks",
              "type": "string[]"
            },
            {
              "internalType": "bool",
              "name": "isCaseActive",
              "type": "bool"
            }
          ],
          "internalType": "struct CrimeReport.Crime",
          "name": "",
          "type": "tuple"
        }
      ],
      "stateMutability": "view",
      "type": "function",
      "constant": true
    },
    {
      "inputs": [],
      "name": "totalCrimes",
      "outputs": [
        {
          "internalType": "uint256",
          "name": "",
          "type": "uint256"
        }
      ],
      "stateMutability": "view",
      "type": "function",
      "constant": true
    },
    {
      "inputs": [],
      "name": "getReporterWalletAddress",
      "outputs": [
        {
          "internalType": "address",
          "name": "",
          "type": "address"
        }
      ],
      "stateMutability": "view",
      "type": "function",
      "constant": true
    },
    {
      "inputs": [],
      "name": "getCrimeOfCurrentUser",
      "outputs": [
        {
          "components": [
            {
              "internalType": "uint256",
              "name": "crimeId",
              "type": "uint256"
            },
            {
              "internalType": "address",
              "name": "reporterWalletAddress",
              "type": "address"
            },
            {
              "internalType": "uint256",
              "name": "timeStamp",
              "type": "uint256"
            },
            {
              "internalType": "string[]",
              "name": "location",
              "type": "string[]"
            },
            {
              "internalType": "string",
              "name": "crimeType",
              "type": "string"
            },
            {
              "internalType": "string[]",
              "name": "questionnaireAnswers",
              "type": "string[]"
            },
            {
              "internalType": "string",
              "name": "crimeDesc",
              "type": "string"
            },
            {
              "internalType": "bool",
              "name": "isSuspectKnown",
              "type": "bool"
            },
            {
              "internalType": "string[]",
              "name": "suspectInfoAnswers",
              "type": "string[]"
            },
            {
              "internalType": "bool",
              "name": "isVehiclePresent",
              "type": "bool"
            },
            {
              "internalType": "string[]",
              "name": "vehicleInfoAnswers",
              "type": "string[]"
            },
            {
              "internalType": "bool",
              "name": "isVictimKnown",
              "type": "bool"
            },
            {
              "internalType": "string[]",
              "name": "victimInfoAnswers",
              "type": "string[]"
            },
            {
              "internalType": "string",
              "name": "ipfsHash",
              "type": "string"
            },
            {
              "internalType": "string[]",
              "name": "feedbacks",
              "type": "string[]"
            },
            {
              "internalType": "bool",
              "name": "isCaseActive",
              "type": "bool"
            }
          ],
          "internalType": "struct CrimeReport.Crime[]",
          "name": "",
          "type": "tuple[]"
        }
      ],
      "stateMutability": "view",
      "type": "function",
      "constant": true
    },
    {
      "inputs": [
        {
          "internalType": "string",
          "name": "_city",
          "type": "string"
        }
      ],
      "name": "getCrimeOfCity",
      "outputs": [
        {
          "components": [
            {
              "internalType": "uint256",
              "name": "crimeId",
              "type": "uint256"
            },
            {
              "internalType": "address",
              "name": "reporterWalletAddress",
              "type": "address"
            },
            {
              "internalType": "uint256",
              "name": "timeStamp",
              "type": "uint256"
            },
            {
              "internalType": "string[]",
              "name": "location",
              "type": "string[]"
            },
            {
              "internalType": "string",
              "name": "crimeType",
              "type": "string"
            },
            {
              "internalType": "string[]",
              "name": "questionnaireAnswers",
              "type": "string[]"
            },
            {
              "internalType": "string",
              "name": "crimeDesc",
              "type": "string"
            },
            {
              "internalType": "bool",
              "name": "isSuspectKnown",
              "type": "bool"
            },
            {
              "internalType": "string[]",
              "name": "suspectInfoAnswers",
              "type": "string[]"
            },
            {
              "internalType": "bool",
              "name": "isVehiclePresent",
              "type": "bool"
            },
            {
              "internalType": "string[]",
              "name": "vehicleInfoAnswers",
              "type": "string[]"
            },
            {
              "internalType": "bool",
              "name": "isVictimKnown",
              "type": "bool"
            },
            {
              "internalType": "string[]",
              "name": "victimInfoAnswers",
              "type": "string[]"
            },
            {
              "internalType": "string",
              "name": "ipfsHash",
              "type": "string"
            },
            {
              "internalType": "string[]",
              "name": "feedbacks",
              "type": "string[]"
            },
            {
              "internalType": "bool",
              "name": "isCaseActive",
              "type": "bool"
            }
          ],
          "internalType": "struct CrimeReport.Crime[]",
          "name": "",
          "type": "tuple[]"
        }
      ],
      "stateMutability": "view",
      "type": "function",
      "constant": true
    },
    {
      "inputs": [
        {
          "internalType": "uint32",
          "name": "_crimeId",
          "type": "uint32"
        }
      ],
      "name": "closeCase",
      "outputs": [],
      "stateMutability": "nonpayable",
      "type": "function"
    },
    {
      "inputs": [
        {
          "internalType": "uint256",
          "name": "_crimeId",
          "type": "uint256"
        },
        {
          "internalType": "string",
          "name": "_message",
          "type": "string"
        },
        {
          "internalType": "string",
          "name": "_from",
          "type": "string"
        }
      ],
      "name": "sendMessage",
      "outputs": [],
      "stateMutability": "nonpayable",
      "type": "function"
    }
  ],
  "bytecode": "0x608060405234801561001057600080fd5b50613ea9806100206000396000f3fe608060405234801561001057600080fd5b50600436106100a95760003560e01c80636b561b2f116100715780636b561b2f14610152578063749b5e521461016e5780638e7361ba1461019e578063a4881afd146101ba578063b46b6d60146101d8578063c7251143146101f6576100a9565b806305608f64146100ae57806314034a74146100cc57806320b0c9d6146100fc5780634c2535511461011857806368b3275b14610134575b600080fd5b6100b6610226565b6040516100c39190612e15565b60405180910390f35b6100e660048036038101906100e19190612f8a565b610233565b6040516100f391906133d1565b60405180910390f35b6101166004803603810190610111919061341f565b610a53565b005b610132600480360381019061012d91906134b7565b610aaf565b005b61013c610af6565b60405161014991906134f3565b60405180910390f35b61016c6004803603810190610167919061350e565b610afe565b005b61018860048036038101906101839190613599565b610b90565b6040516101959190613756565b60405180910390f35b6101b860048036038101906101b3919061385e565b61136f565b005b6101c2611b48565b6040516101cf91906133d1565b60405180910390f35b6101e061234a565b6040516101ed91906133d1565b60405180910390f35b610210600480360381019061020b9190613599565b612b89565b60405161021d9190613a8e565b60405180910390f35b6000600180549050905090565b60606003826040516102459190613aec565b9081526020016040518091039020805480602002602001604051908101604052809291908181526020016000905b82821015610a48578382906000526020600020906010020160405180610200016040529081600082015481526020016001820160009054906101000a900473ffffffffffffffffffffffffffffffffffffffff1673ffffffffffffffffffffffffffffffffffffffff1673ffffffffffffffffffffffffffffffffffffffff1681526020016002820154815260200160038201805480602002602001604051908101604052809291908181526020016000905b828210156103d257838290600052602060002001805461034590613b32565b80601f016020809104026020016040519081016040528092919081815260200182805461037190613b32565b80156103be5780601f10610393576101008083540402835291602001916103be565b820191906000526020600020905b8154815290600101906020018083116103a157829003601f168201915b505050505081526020019060010190610326565b5050505081526020016004820180546103ea90613b32565b80601f016020809104026020016040519081016040528092919081815260200182805461041690613b32565b80156104635780601f1061043857610100808354040283529160200191610463565b820191906000526020600020905b81548152906001019060200180831161044657829003601f168201915b5050505050815260200160058201805480602002602001604051908101604052809291908181526020016000905b8282101561053d5783829060005260206000200180546104b090613b32565b80601f01602080910402602001604051908101604052809291908181526020018280546104dc90613b32565b80156105295780601f106104fe57610100808354040283529160200191610529565b820191906000526020600020905b81548152906001019060200180831161050c57829003601f168201915b505050505081526020019060010190610491565b50505050815260200160068201805461055590613b32565b80601f016020809104026020016040519081016040528092919081815260200182805461058190613b32565b80156105ce5780601f106105a3576101008083540402835291602001916105ce565b820191906000526020600020905b8154815290600101906020018083116105b157829003601f168201915b505050505081526020016007820160009054906101000a900460ff1615151515815260200160088201805480602002602001604051908101604052809291908181526020016000905b828210156106c357838290600052602060002001805461063690613b32565b80601f016020809104026020016040519081016040528092919081815260200182805461066290613b32565b80156106af5780601f10610684576101008083540402835291602001916106af565b820191906000526020600020905b81548152906001019060200180831161069257829003601f168201915b505050505081526020019060010190610617565b5050505081526020016009820160009054906101000a900460ff16151515158152602001600a8201805480602002602001604051908101604052809291908181526020016000905b828210156107b757838290600052602060002001805461072a90613b32565b80601f016020809104026020016040519081016040528092919081815260200182805461075690613b32565b80156107a35780601f10610778576101008083540402835291602001916107a3565b820191906000526020600020905b81548152906001019060200180831161078657829003601f168201915b50505050508152602001906001019061070b565b505050508152602001600b820160009054906101000a900460ff16151515158152602001600c8201805480602002602001604051908101604052809291908181526020016000905b828210156108ab57838290600052602060002001805461081e90613b32565b80601f016020809104026020016040519081016040528092919081815260200182805461084a90613b32565b80156108975780601f1061086c57610100808354040283529160200191610897565b820191906000526020600020905b81548152906001019060200180831161087a57829003601f168201915b5050505050815260200190600101906107ff565b505050508152602001600d820180546108c390613b32565b80601f01602080910402602001604051908101604052809291908181526020018280546108ef90613b32565b801561093c5780601f106109115761010080835404028352916020019161093c565b820191906000526020600020905b81548152906001019060200180831161091f57829003601f168201915b50505050508152602001600e8201805480602002602001604051908101604052809291908181526020016000905b82821015610a1657838290600052602060002001805461098990613b32565b80601f01602080910402602001604051908101604052809291908181526020018280546109b590613b32565b8015610a025780601f106109d757610100808354040283529160200191610a02565b820191906000526020600020905b8154815290600101906020018083116109e557829003601f168201915b50505050508152602001906001019061096a565b505050508152602001600f820160009054906101000a900460ff16151515158152505081526020019060010190610273565b505050509050919050565b60018281548110610a6757610a66613b63565b5b9060005260206000209060100201600e0181908060018154018082558091505060019003906000526020600020016000909190919091509081610aaa9190613d3e565b505050565b600060018263ffffffff1681548110610acb57610aca613b63565b5b9060005260206000209060100201600f0160006101000a81548160ff02191690831515021790555050565b600033905090565b6000600160008086815260200190815260200160002060000154610b229190613e3f565b9050604051806060016040528082815260200183815260200184815250600080868152602001908152602001600020600082015181600001556020820151816001019081610b709190613d3e565b506040820151816002019081610b869190613d3e565b5090505050505050565b610b98612c87565b60018281548110610bac57610bab613b63565b5b906000526020600020906010020160405180610200016040529081600082015481526020016001820160009054906101000a900473ffffffffffffffffffffffffffffffffffffffff1673ffffffffffffffffffffffffffffffffffffffff1673ffffffffffffffffffffffffffffffffffffffff1681526020016002820154815260200160038201805480602002602001604051908101604052809291908181526020016000905b82821015610d01578382906000526020600020018054610c7490613b32565b80601f0160208091040260200160405190810160405280929190818152602001828054610ca090613b32565b8015610ced5780601f10610cc257610100808354040283529160200191610ced565b820191906000526020600020905b815481529060010190602001808311610cd057829003601f168201915b505050505081526020019060010190610c55565b505050508152602001600482018054610d1990613b32565b80601f0160208091040260200160405190810160405280929190818152602001828054610d4590613b32565b8015610d925780601f10610d6757610100808354040283529160200191610d92565b820191906000526020600020905b815481529060010190602001808311610d7557829003601f168201915b5050505050815260200160058201805480602002602001604051908101604052809291908181526020016000905b82821015610e6c578382906000526020600020018054610ddf90613b32565b80601f0160208091040260200160405190810160405280929190818152602001828054610e0b90613b32565b8015610e585780601f10610e2d57610100808354040283529160200191610e58565b820191906000526020600020905b815481529060010190602001808311610e3b57829003601f168201915b505050505081526020019060010190610dc0565b505050508152602001600682018054610e8490613b32565b80601f0160208091040260200160405190810160405280929190818152602001828054610eb090613b32565b8015610efd5780601f10610ed257610100808354040283529160200191610efd565b820191906000526020600020905b815481529060010190602001808311610ee057829003601f168201915b505050505081526020016007820160009054906101000a900460ff1615151515815260200160088201805480602002602001604051908101604052809291908181526020016000905b82821015610ff2578382906000526020600020018054610f6590613b32565b80601f0160208091040260200160405190810160405280929190818152602001828054610f9190613b32565b8015610fde5780601f10610fb357610100808354040283529160200191610fde565b820191906000526020600020905b815481529060010190602001808311610fc157829003601f168201915b505050505081526020019060010190610f46565b5050505081526020016009820160009054906101000a900460ff16151515158152602001600a8201805480602002602001604051908101604052809291908181526020016000905b828210156110e657838290600052602060002001805461105990613b32565b80601f016020809104026020016040519081016040528092919081815260200182805461108590613b32565b80156110d25780601f106110a7576101008083540402835291602001916110d2565b820191906000526020600020905b8154815290600101906020018083116110b557829003601f168201915b50505050508152602001906001019061103a565b505050508152602001600b820160009054906101000a900460ff16151515158152602001600c8201805480602002602001604051908101604052809291908181526020016000905b828210156111da57838290600052602060002001805461114d90613b32565b80601f016020809104026020016040519081016040528092919081815260200182805461117990613b32565b80156111c65780601f1061119b576101008083540402835291602001916111c6565b820191906000526020600020905b8154815290600101906020018083116111a957829003601f168201915b50505050508152602001906001019061112e565b505050508152602001600d820180546111f290613b32565b80601f016020809104026020016040519081016040528092919081815260200182805461121e90613b32565b801561126b5780601f106112405761010080835404028352916020019161126b565b820191906000526020600020905b81548152906001019060200180831161124e57829003601f168201915b50505050508152602001600e8201805480602002602001604051908101604052809291908181526020016000905b828210156113455783829060005260206000200180546112b890613b32565b80601f01602080910402602001604051908101604052809291908181526020018280546112e490613b32565b80156113315780601f1061130657610100808354040283529160200191611331565b820191906000526020600020905b81548152906001019060200180831161131457829003601f168201915b505050505081526020019060010190611299565b505050508152602001600f820160009054906101000a900460ff1615151515815250509050919050565b611377612c87565b60018054905081600001818152505061138e610af6565b816020019073ffffffffffffffffffffffffffffffffffffffff16908173ffffffffffffffffffffffffffffffffffffffff168152505089816040018181525050888160600181905250878160800181905250868160a00181905250858160c001819052506001816101e001901515908115158152505060008160e001901515908115158152505060008551111561143c5760018160e0019015159081151581525050848161010001819052505b60008161012001901515908115158152505060008451111561147557600181610120019015159081151581525050838161014001819052505b6000816101600190151590811515815250506000835111156114ae57600181610160019015159081151581525050828161018001819052505b81816101a00181905250606080826101c0018190525060018290806001815401808255809150506001900390600052602060002090601002016000909190919091506000820151816000015560208201518160010160006101000a81548173ffffffffffffffffffffffffffffffffffffffff021916908373ffffffffffffffffffffffffffffffffffffffff160217905550604082015181600201556060820151816003019080519060200190611567929190612d22565b50608082015181600401908161157d9190613d3e565b5060a082015181600501908051906020019061159a929190612d22565b5060c08201518160060190816115b09190613d3e565b5060e08201518160070160006101000a81548160ff0219169083151502179055506101008201518160080190805190602001906115ee929190612d22565b506101208201518160090160006101000a81548160ff02191690831515021790555061014082015181600a01908051906020019061162d929190612d22565b5061016082015181600b0160006101000a81548160ff02191690831515021790555061018082015181600c01908051906020019061166c929190612d22565b506101a082015181600d0190816116839190613d3e565b506101c082015181600e0190805190602001906116a1929190612d22565b506101e082015181600f0160006101000a81548160ff0219169083151502179055505050600260003373ffffffffffffffffffffffffffffffffffffffff1673ffffffffffffffffffffffffffffffffffffffff1681526020019081526020016000208290806001815401808255809150506001900390600052602060002090601002016000909190919091506000820151816000015560208201518160010160006101000a81548173ffffffffffffffffffffffffffffffffffffffff021916908373ffffffffffffffffffffffffffffffffffffffff1602179055506040820151816002015560608201518160030190805190602001906117a5929190612d22565b5060808201518160040190816117bb9190613d3e565b5060a08201518160050190805190602001906117d8929190612d22565b5060c08201518160060190816117ee9190613d3e565b5060e08201518160070160006101000a81548160ff02191690831515021790555061010082015181600801908051906020019061182c929190612d22565b506101208201518160090160006101000a81548160ff02191690831515021790555061014082015181600a01908051906020019061186b929190612d22565b5061016082015181600b0160006101000a81548160ff02191690831515021790555061018082015181600c0190805190602001906118aa929190612d22565b506101a082015181600d0190816118c19190613d3e565b506101c082015181600e0190805190602001906118df929190612d22565b506101e082015181600f0160006101000a81548160ff021916908315150217905550505060038a60018151811061191957611918613b63565b5b602002602001015160405161192e9190613aec565b90815260200160405180910390208290806001815401808255809150506001900390600052602060002090601002016000909190919091506000820151816000015560208201518160010160006101000a81548173ffffffffffffffffffffffffffffffffffffffff021916908373ffffffffffffffffffffffffffffffffffffffff1602179055506040820151816002015560608201518160030190805190602001906119dd929190612d22565b5060808201518160040190816119f39190613d3e565b5060a0820151816005019080519060200190611a10929190612d22565b5060c0820151816006019081611a269190613d3e565b5060e08201518160070160006101000a81548160ff021916908315150217905550610100820151816008019080519060200190611a64929190612d22565b506101208201518160090160006101000a81548160ff02191690831515021790555061014082015181600a019080519060200190611aa3929190612d22565b5061016082015181600b0160006101000a81548160ff02191690831515021790555061018082015181600c019080519060200190611ae2929190612d22565b506101a082015181600d019081611af99190613d3e565b506101c082015181600e019080519060200190611b17929190612d22565b506101e082015181600f0160006101000a81548160ff02191690831515021790555050505050505050505050505050565b60606001805480602002602001604051908101604052809291908181526020016000905b82821015612341578382906000526020600020906010020160405180610200016040529081600082015481526020016001820160009054906101000a900473ffffffffffffffffffffffffffffffffffffffff1673ffffffffffffffffffffffffffffffffffffffff1673ffffffffffffffffffffffffffffffffffffffff1681526020016002820154815260200160038201805480602002602001604051908101604052809291908181526020016000905b82821015611ccb578382906000526020600020018054611c3e90613b32565b80601f0160208091040260200160405190810160405280929190818152602001828054611c6a90613b32565b8015611cb75780601f10611c8c57610100808354040283529160200191611cb7565b820191906000526020600020905b815481529060010190602001808311611c9a57829003601f168201915b505050505081526020019060010190611c1f565b505050508152602001600482018054611ce390613b32565b80601f0160208091040260200160405190810160405280929190818152602001828054611d0f90613b32565b8015611d5c5780601f10611d3157610100808354040283529160200191611d5c565b820191906000526020600020905b815481529060010190602001808311611d3f57829003601f168201915b5050505050815260200160058201805480602002602001604051908101604052809291908181526020016000905b82821015611e36578382906000526020600020018054611da990613b32565b80601f0160208091040260200160405190810160405280929190818152602001828054611dd590613b32565b8015611e225780601f10611df757610100808354040283529160200191611e22565b820191906000526020600020905b815481529060010190602001808311611e0557829003601f168201915b505050505081526020019060010190611d8a565b505050508152602001600682018054611e4e90613b32565b80601f0160208091040260200160405190810160405280929190818152602001828054611e7a90613b32565b8015611ec75780601f10611e9c57610100808354040283529160200191611ec7565b820191906000526020600020905b815481529060010190602001808311611eaa57829003601f168201915b505050505081526020016007820160009054906101000a900460ff1615151515815260200160088201805480602002602001604051908101604052809291908181526020016000905b82821015611fbc578382906000526020600020018054611f2f90613b32565b80601f0160208091040260200160405190810160405280929190818152602001828054611f5b90613b32565b8015611fa85780601f10611f7d57610100808354040283529160200191611fa8565b820191906000526020600020905b815481529060010190602001808311611f8b57829003601f168201915b505050505081526020019060010190611f10565b5050505081526020016009820160009054906101000a900460ff16151515158152602001600a8201805480602002602001604051908101604052809291908181526020016000905b828210156120b057838290600052602060002001805461202390613b32565b80601f016020809104026020016040519081016040528092919081815260200182805461204f90613b32565b801561209c5780601f106120715761010080835404028352916020019161209c565b820191906000526020600020905b81548152906001019060200180831161207f57829003601f168201915b505050505081526020019060010190612004565b505050508152602001600b820160009054906101000a900460ff16151515158152602001600c8201805480602002602001604051908101604052809291908181526020016000905b828210156121a457838290600052602060002001805461211790613b32565b80601f016020809104026020016040519081016040528092919081815260200182805461214390613b32565b80156121905780601f1061216557610100808354040283529160200191612190565b820191906000526020600020905b81548152906001019060200180831161217357829003601f168201915b5050505050815260200190600101906120f8565b505050508152602001600d820180546121bc90613b32565b80601f01602080910402602001604051908101604052809291908181526020018280546121e890613b32565b80156122355780601f1061220a57610100808354040283529160200191612235565b820191906000526020600020905b81548152906001019060200180831161221857829003601f168201915b50505050508152602001600e8201805480602002602001604051908101604052809291908181526020016000905b8282101561230f57838290600052602060002001805461228290613b32565b80601f01602080910402602001604051908101604052809291908181526020018280546122ae90613b32565b80156122fb5780601f106122d0576101008083540402835291602001916122fb565b820191906000526020600020905b8154815290600101906020018083116122de57829003601f168201915b505050505081526020019060010190612263565b505050508152602001600f820160009054906101000a900460ff16151515158152505081526020019060010190611b6c565b50505050905090565b6060600260003373ffffffffffffffffffffffffffffffffffffffff1673ffffffffffffffffffffffffffffffffffffffff168152602001908152602001600020805480602002602001604051908101604052809291908181526020016000905b82821015612b80578382906000526020600020906010020160405180610200016040529081600082015481526020016001820160009054906101000a900473ffffffffffffffffffffffffffffffffffffffff1673ffffffffffffffffffffffffffffffffffffffff1673ffffffffffffffffffffffffffffffffffffffff1681526020016002820154815260200160038201805480602002602001604051908101604052809291908181526020016000905b8282101561250a57838290600052602060002001805461247d90613b32565b80601f01602080910402602001604051908101604052809291908181526020018280546124a990613b32565b80156124f65780601f106124cb576101008083540402835291602001916124f6565b820191906000526020600020905b8154815290600101906020018083116124d957829003601f168201915b50505050508152602001906001019061245e565b50505050815260200160048201805461252290613b32565b80601f016020809104026020016040519081016040528092919081815260200182805461254e90613b32565b801561259b5780601f106125705761010080835404028352916020019161259b565b820191906000526020600020905b81548152906001019060200180831161257e57829003601f168201915b5050505050815260200160058201805480602002602001604051908101604052809291908181526020016000905b828210156126755783829060005260206000200180546125e890613b32565b80601f016020809104026020016040519081016040528092919081815260200182805461261490613b32565b80156126615780601f1061263657610100808354040283529160200191612661565b820191906000526020600020905b81548152906001019060200180831161264457829003601f168201915b5050505050815260200190600101906125c9565b50505050815260200160068201805461268d90613b32565b80601f01602080910402602001604051908101604052809291908181526020018280546126b990613b32565b80156127065780601f106126db57610100808354040283529160200191612706565b820191906000526020600020905b8154815290600101906020018083116126e957829003601f168201915b505050505081526020016007820160009054906101000a900460ff1615151515815260200160088201805480602002602001604051908101604052809291908181526020016000905b828210156127fb57838290600052602060002001805461276e90613b32565b80601f016020809104026020016040519081016040528092919081815260200182805461279a90613b32565b80156127e75780601f106127bc576101008083540402835291602001916127e7565b820191906000526020600020905b8154815290600101906020018083116127ca57829003601f168201915b50505050508152602001906001019061274f565b5050505081526020016009820160009054906101000a900460ff16151515158152602001600a8201805480602002602001604051908101604052809291908181526020016000905b828210156128ef57838290600052602060002001805461286290613b32565b80601f016020809104026020016040519081016040528092919081815260200182805461288e90613b32565b80156128db5780601f106128b0576101008083540402835291602001916128db565b820191906000526020600020905b8154815290600101906020018083116128be57829003601f168201915b505050505081526020019060010190612843565b505050508152602001600b820160009054906101000a900460ff16151515158152602001600c8201805480602002602001604051908101604052809291908181526020016000905b828210156129e357838290600052602060002001805461295690613b32565b80601f016020809104026020016040519081016040528092919081815260200182805461298290613b32565b80156129cf5780601f106129a4576101008083540402835291602001916129cf565b820191906000526020600020905b8154815290600101906020018083116129b257829003601f168201915b505050505081526020019060010190612937565b505050508152602001600d820180546129fb90613b32565b80601f0160208091040260200160405190810160405280929190818152602001828054612a2790613b32565b8015612a745780601f10612a4957610100808354040283529160200191612a74565b820191906000526020600020905b815481529060010190602001808311612a5757829003601f168201915b50505050508152602001600e8201805480602002602001604051908101604052809291908181526020016000905b82821015612b4e578382906000526020600020018054612ac190613b32565b80601f0160208091040260200160405190810160405280929190818152602001828054612aed90613b32565b8015612b3a5780601f10612b0f57610100808354040283529160200191612b3a565b820191906000526020600020905b815481529060010190602001808311612b1d57829003601f168201915b505050505081526020019060010190612aa2565b505050508152602001600f820160009054906101000a900460ff161515151581525050815260200190600101906123ab565b50505050905090565b606060018281548110612b9f57612b9e613b63565b5b9060005260206000209060100201600e01805480602002602001604051908101604052809291908181526020016000905b82821015612c7c578382906000526020600020018054612bef90613b32565b80601f0160208091040260200160405190810160405280929190818152602001828054612c1b90613b32565b8015612c685780601f10612c3d57610100808354040283529160200191612c68565b820191906000526020600020905b815481529060010190602001808311612c4b57829003601f168201915b505050505081526020019060010190612bd0565b505050509050919050565b60405180610200016040528060008152602001600073ffffffffffffffffffffffffffffffffffffffff168152602001600081526020016060815260200160608152602001606081526020016060815260200160001515815260200160608152602001600015158152602001606081526020016000151581526020016060815260200160608152602001606081526020016000151581525090565b828054828255906000526020600020908101928215612d6a579160200282015b82811115612d69578251829081612d599190613d3e565b5091602001919060010190612d42565b5b509050612d779190612d7b565b5090565b5b80821115612d9b5760008181612d929190612d9f565b50600101612d7c565b5090565b508054612dab90613b32565b6000825580601f10612dbd5750612ddc565b601f016020900490600052602060002090810190612ddb9190612ddf565b5b50565b5b80821115612df8576000816000905550600101612de0565b5090565b6000819050919050565b612e0f81612dfc565b82525050565b6000602082019050612e2a6000830184612e06565b92915050565b6000604051905090565b600080fd5b600080fd5b600080fd5b600080fd5b6000601f19601f8301169050919050565b7f4e487b7100000000000000000000000000000000000000000000000000000000600052604160045260246000fd5b612e9782612e4e565b810181811067ffffffffffffffff82111715612eb657612eb5612e5f565b5b80604052505050565b6000612ec9612e30565b9050612ed58282612e8e565b919050565b600067ffffffffffffffff821115612ef557612ef4612e5f565b5b612efe82612e4e565b9050602081019050919050565b82818337600083830152505050565b6000612f2d612f2884612eda565b612ebf565b905082815260208101848484011115612f4957612f48612e49565b5b612f54848285612f0b565b509392505050565b600082601f830112612f7157612f70612e44565b5b8135612f81848260208601612f1a565b91505092915050565b600060208284031215612fa057612f9f612e3a565b5b600082013567ffffffffffffffff811115612fbe57612fbd612e3f565b5b612fca84828501612f5c565b91505092915050565b600081519050919050565b600082825260208201905092915050565b6000819050602082019050919050565b61300881612dfc565b82525050565b600073ffffffffffffffffffffffffffffffffffffffff82169050919050565b60006130398261300e565b9050919050565b6130498161302e565b82525050565b600081519050919050565b600082825260208201905092915050565b6000819050602082019050919050565b600081519050919050565b600082825260208201905092915050565b60005b838110156130b557808201518184015260208101905061309a565b60008484015250505050565b60006130cc8261307b565b6130d68185613086565b93506130e6818560208601613097565b6130ef81612e4e565b840191505092915050565b600061310683836130c1565b905092915050565b6000602082019050919050565b60006131268261304f565b613130818561305a565b9350836020820285016131428561306b565b8060005b8581101561317e578484038952815161315f85826130fa565b945061316a8361310e565b925060208a01995050600181019050613146565b50829750879550505050505092915050565b60008115159050919050565b6131a581613190565b82525050565b6000610200830160008301516131c46000860182612fff565b5060208301516131d76020860182613040565b5060408301516131ea6040860182612fff565b5060608301518482036060860152613202828261311b565b9150506080830151848203608086015261321c82826130c1565b91505060a083015184820360a0860152613236828261311b565b91505060c083015184820360c086015261325082826130c1565b91505060e083015161326560e086018261319c565b5061010083015184820361010086015261327f828261311b565b91505061012083015161329661012086018261319c565b506101408301518482036101408601526132b0828261311b565b9150506101608301516132c761016086018261319c565b506101808301518482036101808601526132e1828261311b565b9150506101a08301518482036101a08601526132fd82826130c1565b9150506101c08301518482036101c0860152613319828261311b565b9150506101e08301516133306101e086018261319c565b508091505092915050565b600061334783836131ab565b905092915050565b6000602082019050919050565b600061336782612fd3565b6133718185612fde565b93508360208202850161338385612fef565b8060005b858110156133bf57848403895281516133a0858261333b565b94506133ab8361334f565b925060208a01995050600181019050613387565b50829750879550505050505092915050565b600060208201905081810360008301526133eb818461335c565b905092915050565b6133fc81612dfc565b811461340757600080fd5b50565b600081359050613419816133f3565b92915050565b6000806040838503121561343657613435612e3a565b5b60006134448582860161340a565b925050602083013567ffffffffffffffff81111561346557613464612e3f565b5b61347185828601612f5c565b9150509250929050565b600063ffffffff82169050919050565b6134948161347b565b811461349f57600080fd5b50565b6000813590506134b18161348b565b92915050565b6000602082840312156134cd576134cc612e3a565b5b60006134db848285016134a2565b91505092915050565b6134ed8161302e565b82525050565b600060208201905061350860008301846134e4565b92915050565b60008060006060848603121561352757613526612e3a565b5b60006135358682870161340a565b935050602084013567ffffffffffffffff81111561355657613555612e3f565b5b61356286828701612f5c565b925050604084013567ffffffffffffffff81111561358357613582612e3f565b5b61358f86828701612f5c565b9150509250925092565b6000602082840312156135af576135ae612e3a565b5b60006135bd8482850161340a565b91505092915050565b6000610200830160008301516135df6000860182612fff565b5060208301516135f26020860182613040565b5060408301516136056040860182612fff565b506060830151848203606086015261361d828261311b565b9150506080830151848203608086015261363782826130c1565b91505060a083015184820360a0860152613651828261311b565b91505060c083015184820360c086015261366b82826130c1565b91505060e083015161368060e086018261319c565b5061010083015184820361010086015261369a828261311b565b9150506101208301516136b161012086018261319c565b506101408301518482036101408601526136cb828261311b565b9150506101608301516136e261016086018261319c565b506101808301518482036101808601526136fc828261311b565b9150506101a08301518482036101a086015261371882826130c1565b9150506101c08301518482036101c0860152613734828261311b565b9150506101e083015161374b6101e086018261319c565b508091505092915050565b6000602082019050818103600083015261377081846135c6565b905092915050565b600067ffffffffffffffff82111561379357613792612e5f565b5b602082029050602081019050919050565b600080fd5b60006137bc6137b784613778565b612ebf565b905080838252602082019050602084028301858111156137df576137de6137a4565b5b835b8181101561382657803567ffffffffffffffff81111561380457613803612e44565b5b8086016138118982612f5c565b855260208501945050506020810190506137e1565b5050509392505050565b600082601f83011261384557613844612e44565b5b81356138558482602086016137a9565b91505092915050565b60008060008060008060008060006101208a8c03121561388157613880612e3a565b5b600061388f8c828d0161340a565b99505060208a013567ffffffffffffffff8111156138b0576138af612e3f565b5b6138bc8c828d01613830565b98505060408a013567ffffffffffffffff8111156138dd576138dc612e3f565b5b6138e98c828d01612f5c565b97505060608a013567ffffffffffffffff81111561390a57613909612e3f565b5b6139168c828d01613830565b96505060808a013567ffffffffffffffff81111561393757613936612e3f565b5b6139438c828d01612f5c565b95505060a08a013567ffffffffffffffff81111561396457613963612e3f565b5b6139708c828d01613830565b94505060c08a013567ffffffffffffffff81111561399157613990612e3f565b5b61399d8c828d01613830565b93505060e08a013567ffffffffffffffff8111156139be576139bd612e3f565b5b6139ca8c828d01613830565b9250506101008a013567ffffffffffffffff8111156139ec576139eb612e3f565b5b6139f88c828d01612f5c565b9150509295985092959850929598565b600082825260208201905092915050565b6000613a248261304f565b613a2e8185613a08565b935083602082028501613a408561306b565b8060005b85811015613a7c5784840389528151613a5d85826130fa565b9450613a688361310e565b925060208a01995050600181019050613a44565b50829750879550505050505092915050565b60006020820190508181036000830152613aa88184613a19565b905092915050565b600081905092915050565b6000613ac68261307b565b613ad08185613ab0565b9350613ae0818560208601613097565b80840191505092915050565b6000613af88284613abb565b915081905092915050565b7f4e487b7100000000000000000000000000000000000000000000000000000000600052602260045260246000fd5b60006002820490506001821680613b4a57607f821691505b602082108103613b5d57613b5c613b03565b5b50919050565b7f4e487b7100000000000000000000000000000000000000000000000000000000600052603260045260246000fd5b60008190508160005260206000209050919050565b60006020601f8301049050919050565b600082821b905092915050565b600060088302613bf47fffffffffffffffffffffffffffffffffffffffffffffffffffffffffffffffff82613bb7565b613bfe8683613bb7565b95508019841693508086168417925050509392505050565b6000819050919050565b6000613c3b613c36613c3184612dfc565b613c16565b612dfc565b9050919050565b6000819050919050565b613c5583613c20565b613c69613c6182613c42565b848454613bc4565b825550505050565b600090565b613c7e613c71565b613c89818484613c4c565b505050565b5b81811015613cad57613ca2600082613c76565b600181019050613c8f565b5050565b601f821115613cf257613cc381613b92565b613ccc84613ba7565b81016020851015613cdb578190505b613cef613ce785613ba7565b830182613c8e565b50505b505050565b600082821c905092915050565b6000613d1560001984600802613cf7565b1980831691505092915050565b6000613d2e8383613d04565b9150826002028217905092915050565b613d478261307b565b67ffffffffffffffff811115613d6057613d5f612e5f565b5b613d6a8254613b32565b613d75828285613cb1565b600060209050601f831160018114613da85760008415613d96578287015190505b613da08582613d22565b865550613e08565b601f198416613db686613b92565b60005b82811015613dde57848901518255600182019150602085019450602081019050613db9565b86831015613dfb5784890151613df7601f891682613d04565b8355505b6001600288020188555050505b505050505050565b7f4e487b7100000000000000000000000000000000000000000000000000000000600052601160045260246000fd5b6000613e4a82612dfc565b9150613e5583612dfc565b9250828201905080821115613e6d57613e6c613e10565b5b9291505056fea2646970667358221220263cb80277dc34b78d12842313e332f24413ab6e5e99882f99104fe13656d3d564736f6c63430008100033",
  "immutableReferences": {},
  "source": "\r\n\r\npragma solidity >= 0.7.0 < 0.9.0;\r\n\r\ncontract CrimeReport{\r\n\r\n/* Array Of Feedback in another stuct not supported yet.\r\n    struct Feedback{\r\n\r\n        // Wallet Address who submitted Feedback\r\n         address feebdbackFrom;\r\n\r\n        // Feedback\r\n        string feedback;\r\n\r\n        // Feedback Time\r\n        // uint256 timestamp;\r\n    }\r\n\r\n    */\r\n\r\n    struct MESSAGE{\r\n        uint256 id;\r\n        string from;\r\n        string message;\r\n    }\r\n\r\n    struct Crime{\r\n\r\n        // Unique Id Number for each crime\r\n        uint256 crimeId;\r\n\r\n        // Wallet Address who submitted crime details\r\n        address reporterWalletAddress;\r\n\r\n        // TimeStamp in Unix / Epoch\r\n        uint256 timeStamp;\r\n\r\n        /*\r\n        // State Name Where Crime Occured\r\n        string state; \r\n\r\n        // City Name Where Crime Occured\r\n        string city; \r\n\r\n        // Geographical Coordinates\r\n        string latitude; \r\n        string longitude; \r\n        */\r\n\r\n        string[] location;\r\n\r\n        // Crime Type -> Murder/Theft/Robbery...etc\r\n        string crimeType;\r\n\r\n        /* Questionnaire regarding crime type and mapping it to answer.\r\n           Question_Number -> Answer\r\n           mapping(uint32 => string) questionnaires;\r\n        */\r\n        \r\n        /*  Use This if Above Mapping doesn't work \r\n\r\n        // Questionnaire regarding crime type */\r\n        //string[] questionnaires;\r\n\r\n        // Answers of Questionnaire.\r\n        string[] questionnaireAnswers;\r\n\r\n        \r\n\r\n        // Crime Description in detail\r\n        string crimeDesc; \r\n\r\n        /* Details regarding suspect\r\n            KEY         -> VALUE\r\n            Name        -> name_of_suspect\r\n            Age_Group   -> Young Adult(Below 30) | Middle-aged Adult(Below 60) | Old Adults(Above 60)\r\n            Gender      -> Male | Female\r\n            Description -> Other Details to identify suspects (eg.Face color, hair color, height... etc)\r\n\r\n        mapping(string => string) suspectInfo;\r\n        */\r\n        bool isSuspectKnown;\r\n        string[] suspectInfoAnswers;\r\n\r\n        /* Details regarding vehicle if any involved in case\r\n            KEY -> VALUE\r\n            License plate state , Number, Vehicle color.. etc.\r\n            mapping(string => string) vehicleInfo;\r\n        */\r\n        bool isVehiclePresent;\r\n        string[] vehicleInfoAnswers;\r\n        \r\n\r\n        /* Victim Details if known\r\n            KEY -> VALUE\r\n            Name, address... etc.\r\n            mapping(string => string) victimInfo;\r\n        */\r\n        bool isVictimKnown;\r\n        string[] victimInfoAnswers;\r\n\r\n        // IPFS Hash If any media files attached.\r\n        string ipfsHash;\r\n\r\n        // Feedbacks\r\n        string[] feedbacks;\r\n\r\n        // Case is active or closed [Active = true | Close = false]\r\n        bool isCaseActive;\r\n        \r\n        /*\r\n            KEY = ADMIN | USER\r\n            Value = MESSAGE\r\n        */\r\n\r\n    }\r\n\r\n    // Crime ID Wise Comversation\r\n    mapping(uint256 => MESSAGE) private conversations;\r\n\r\n    // List Of All Crimes that reported\r\n    Crime[] private crimes;\r\n\r\n    // Stores all crimes user wise.\r\n    mapping(address => Crime[]) crimesByUsers;\r\n\r\n    // Store all crimes of city\r\n    mapping(string => Crime[]) crimesOfCity;\r\n\r\n    // Function to submit crime (Storing Crime Details)\r\n    function submitCrime(uint256 _timestamp,\r\n                         string[] memory _location,\r\n                         string memory _crimeType,\r\n                         string[] memory _questionnaireAnswers,\r\n                         string memory _crimeDesc,\r\n                         string[] memory _suspectInfoAnswers,\r\n                         string[] memory _vehicleInfoAnswers,\r\n                         string[] memory _victimInfoAnswers,\r\n                         string memory _ipfsHash\r\n                        ) external {\r\n\r\n         Crime memory crime;     \r\n         crime.crimeId = crimes.length;   \r\n         crime.reporterWalletAddress = getReporterWalletAddress();\r\n         crime.timeStamp = _timestamp;   \r\n         crime.location = _location;\r\n         crime.crimeType = _crimeType;     \r\n         crime.questionnaireAnswers = _questionnaireAnswers;\r\n         crime.crimeDesc = _crimeDesc; \r\n         crime.isCaseActive = true;\r\n         \r\n         crime.isSuspectKnown = false;\r\n         if(_suspectInfoAnswers.length>0){\r\n             crime.isSuspectKnown = true;\r\n             crime.suspectInfoAnswers = _suspectInfoAnswers;\r\n         }\r\n\r\n         crime.isVehiclePresent = false;\r\n         if(_vehicleInfoAnswers.length>0){\r\n             crime.isVehiclePresent = true;\r\n             crime.vehicleInfoAnswers = _vehicleInfoAnswers;\r\n         }\r\n\r\n         crime.isVictimKnown = false;\r\n         if(_victimInfoAnswers.length>0){\r\n             crime.isVictimKnown = true;\r\n             crime.victimInfoAnswers = _victimInfoAnswers;\r\n         }\r\n\r\n        crime.ipfsHash = _ipfsHash;\r\n        string[] memory _feedbacks;\r\n        crime.feedbacks = _feedbacks;\r\n        crimes.push(crime);\r\n\r\n        crimesByUsers[msg.sender].push(crime);\r\n        crimesOfCity[_location[1]].push(crime);\r\n\r\n    }\r\n\r\n\r\n    // Function to submit Feedbacks\r\n    function submitFeedback(uint256 _crimeId,string memory _feedback) external{\r\n        crimes[_crimeId].feedbacks.push(_feedback);\r\n    }\r\n\r\n    // Return Feedbacks By CrimeID\r\n   function getFeedbacksById(uint256 _crimeId) public view returns(string[] memory){\r\n       return crimes[_crimeId].feedbacks;\r\n   }\r\n\r\n    // Function to return all crime to admin side\r\n    function getCrimes() public view returns (Crime[] memory) {\r\n       return crimes;\r\n   }\r\n\r\n   // Return Crime By CrimeID\r\n   function getCrimeById(uint256 _crimeId) public view returns(Crime memory){\r\n       return crimes[_crimeId];\r\n   }\r\n\r\n    // Returns Total Number Of Crimes\r\n    function totalCrimes() public view returns (uint256) {\r\n       return crimes.length;\r\n   }\r\n\r\n    // Returns Address of wallet who Reporting the crime\r\n    function getReporterWalletAddress() public view returns(address){\r\n        return msg.sender;\r\n    }\r\n\r\n    // Return Crimes Submitted by the current user\r\n   function getCrimeOfCurrentUser() public view returns(Crime[] memory){\r\n        return crimesByUsers[msg.sender];\r\n   }\r\n\r\n    // Return Crimes of city\r\n   function getCrimeOfCity(string memory _city) public view returns(Crime[] memory){\r\n        return crimesOfCity[_city];\r\n   }\r\n\r\n   // Function for admin to close case.\r\n  function closeCase(uint32 _crimeId) external {\r\n    crimes[_crimeId].isCaseActive = false;\r\n  }\r\n\r\n  // Conversation of admin to crime reporter.\r\n  function sendMessage(uint256 _crimeId,string memory _message, string memory _from) public{\r\n      \r\n      uint256 id = conversations[_crimeId].id + 1;\r\n\r\n      conversations[_crimeId] =  MESSAGE(id,_from,_message);\r\n\r\n\r\n  }\r\n\r\n}\r\n\r\n\r\n/*\r\n    Parameters For Testing\r\n\r\n    1660627677,[\"Maharashtra\",\"Jalgaon\",\"2.9454465\",\"9.2487554\"],Theft,[\"Bike\"],\"I saw the person stealing bike and going to Shiv Colony side\",[],[],[],\"IFPS_HASH_HERE\"\r\n\r\n*/",
  "sourcePath": "D:\\SIH-PROJECT\\dnetwork\\contracts\\CrimeReport.sol",
  "compiler": {
    "name": "solc",
    "version": "0.8.16+commit.07a7930e.Emscripten.clang"
  },
  "schemaVersion": "3.4.9",
  "updatedAt": "2022-08-18T12:32:09.515Z",
  "networkType": "ethereum",
  "devdoc": {
    "kind": "dev",
    "methods": {},
    "version": 1
  },
  "userdoc": {
    "kind": "user",
    "methods": {},
    "version": 1
  }
}