{
  "contractName": "CrimeReport",
  "abi": [
    {
      "inputs": [
        {
          "internalType": "uint256",
          "name": "_timestamp",
          "type": "uint256"
        },
        {
          "internalType": "string[]",
          "name": "_location",
          "type": "string[]"
        },
        {
          "internalType": "string",
          "name": "_crimeType",
          "type": "string"
        },
        {
          "internalType": "string[]",
          "name": "_questionnaireAnswers",
          "type": "string[]"
        },
        {
          "internalType": "string",
          "name": "_crimeDesc",
          "type": "string"
        },
        {
          "internalType": "string[]",
          "name": "_suspectInfoAnswers",
          "type": "string[]"
        },
        {
          "internalType": "string[]",
          "name": "_vehicleInfoAnswers",
          "type": "string[]"
        },
        {
          "internalType": "string[]",
          "name": "_victimInfoAnswers",
          "type": "string[]"
        },
        {
          "internalType": "string",
          "name": "_ipfsHash",
          "type": "string"
        }
      ],
      "name": "submitCrime",
      "outputs": [],
      "stateMutability": "nonpayable",
      "type": "function"
    },
    {
      "inputs": [
        {
          "internalType": "uint256",
          "name": "_crimeId",
          "type": "uint256"
        },
        {
          "internalType": "string",
          "name": "_feedback",
          "type": "string"
        }
      ],
      "name": "submitFeedback",
      "outputs": [],
      "stateMutability": "nonpayable",
      "type": "function"
    },
    {
      "inputs": [
        {
          "internalType": "uint256",
          "name": "_crimeId",
          "type": "uint256"
        }
      ],
      "name": "getFeedbacksById",
      "outputs": [
        {
          "internalType": "string[]",
          "name": "",
          "type": "string[]"
        }
      ],
      "stateMutability": "view",
      "type": "function",
      "constant": true
    },
    {
      "inputs": [],
      "name": "getCrimes",
      "outputs": [
        {
          "components": [
            {
              "internalType": "uint256",
              "name": "crimeId",
              "type": "uint256"
            },
            {
              "internalType": "address",
              "name": "reporterWalletAddress",
              "type": "address"
            },
            {
              "internalType": "uint256",
              "name": "timeStamp",
              "type": "uint256"
            },
            {
              "internalType": "string[]",
              "name": "location",
              "type": "string[]"
            },
            {
              "internalType": "string",
              "name": "crimeType",
              "type": "string"
            },
            {
              "internalType": "string[]",
              "name": "questionnaireAnswers",
              "type": "string[]"
            },
            {
              "internalType": "string",
              "name": "crimeDesc",
              "type": "string"
            },
            {
              "internalType": "bool",
              "name": "isSuspectKnown",
              "type": "bool"
            },
            {
              "internalType": "string[]",
              "name": "suspectInfoAnswers",
              "type": "string[]"
            },
            {
              "internalType": "bool",
              "name": "isVehiclePresent",
              "type": "bool"
            },
            {
              "internalType": "string[]",
              "name": "vehicleInfoAnswers",
              "type": "string[]"
            },
            {
              "internalType": "bool",
              "name": "isVictimKnown",
              "type": "bool"
            },
            {
              "internalType": "string[]",
              "name": "victimInfoAnswers",
              "type": "string[]"
            },
            {
              "internalType": "string",
              "name": "ipfsHash",
              "type": "string"
            },
            {
              "internalType": "string[]",
              "name": "feedbacks",
              "type": "string[]"
            }
          ],
          "internalType": "struct CrimeReport.Crime[]",
          "name": "",
          "type": "tuple[]"
        }
      ],
      "stateMutability": "view",
      "type": "function",
      "constant": true
    },
    {
      "inputs": [
        {
          "internalType": "uint256",
          "name": "_crimeId",
          "type": "uint256"
        }
      ],
      "name": "getCrimeById",
      "outputs": [
        {
          "components": [
            {
              "internalType": "uint256",
              "name": "crimeId",
              "type": "uint256"
            },
            {
              "internalType": "address",
              "name": "reporterWalletAddress",
              "type": "address"
            },
            {
              "internalType": "uint256",
              "name": "timeStamp",
              "type": "uint256"
            },
            {
              "internalType": "string[]",
              "name": "location",
              "type": "string[]"
            },
            {
              "internalType": "string",
              "name": "crimeType",
              "type": "string"
            },
            {
              "internalType": "string[]",
              "name": "questionnaireAnswers",
              "type": "string[]"
            },
            {
              "internalType": "string",
              "name": "crimeDesc",
              "type": "string"
            },
            {
              "internalType": "bool",
              "name": "isSuspectKnown",
              "type": "bool"
            },
            {
              "internalType": "string[]",
              "name": "suspectInfoAnswers",
              "type": "string[]"
            },
            {
              "internalType": "bool",
              "name": "isVehiclePresent",
              "type": "bool"
            },
            {
              "internalType": "string[]",
              "name": "vehicleInfoAnswers",
              "type": "string[]"
            },
            {
              "internalType": "bool",
              "name": "isVictimKnown",
              "type": "bool"
            },
            {
              "internalType": "string[]",
              "name": "victimInfoAnswers",
              "type": "string[]"
            },
            {
              "internalType": "string",
              "name": "ipfsHash",
              "type": "string"
            },
            {
              "internalType": "string[]",
              "name": "feedbacks",
              "type": "string[]"
            }
          ],
          "internalType": "struct CrimeReport.Crime",
          "name": "",
          "type": "tuple"
        }
      ],
      "stateMutability": "view",
      "type": "function",
      "constant": true
    },
    {
      "inputs": [],
      "name": "totalCrimes",
      "outputs": [
        {
          "internalType": "uint256",
          "name": "",
          "type": "uint256"
        }
      ],
      "stateMutability": "view",
      "type": "function",
      "constant": true
    },
    {
      "inputs": [],
      "name": "getReporterWalletAddress",
      "outputs": [
        {
          "internalType": "address",
          "name": "",
          "type": "address"
        }
      ],
      "stateMutability": "view",
      "type": "function",
      "constant": true
    },
    {
      "inputs": [],
      "name": "getCrimeOfCurrentUser",
      "outputs": [
        {
          "components": [
            {
              "internalType": "uint256",
              "name": "crimeId",
              "type": "uint256"
            },
            {
              "internalType": "address",
              "name": "reporterWalletAddress",
              "type": "address"
            },
            {
              "internalType": "uint256",
              "name": "timeStamp",
              "type": "uint256"
            },
            {
              "internalType": "string[]",
              "name": "location",
              "type": "string[]"
            },
            {
              "internalType": "string",
              "name": "crimeType",
              "type": "string"
            },
            {
              "internalType": "string[]",
              "name": "questionnaireAnswers",
              "type": "string[]"
            },
            {
              "internalType": "string",
              "name": "crimeDesc",
              "type": "string"
            },
            {
              "internalType": "bool",
              "name": "isSuspectKnown",
              "type": "bool"
            },
            {
              "internalType": "string[]",
              "name": "suspectInfoAnswers",
              "type": "string[]"
            },
            {
              "internalType": "bool",
              "name": "isVehiclePresent",
              "type": "bool"
            },
            {
              "internalType": "string[]",
              "name": "vehicleInfoAnswers",
              "type": "string[]"
            },
            {
              "internalType": "bool",
              "name": "isVictimKnown",
              "type": "bool"
            },
            {
              "internalType": "string[]",
              "name": "victimInfoAnswers",
              "type": "string[]"
            },
            {
              "internalType": "string",
              "name": "ipfsHash",
              "type": "string"
            },
            {
              "internalType": "string[]",
              "name": "feedbacks",
              "type": "string[]"
            }
          ],
          "internalType": "struct CrimeReport.Crime[]",
          "name": "",
          "type": "tuple[]"
        }
      ],
      "stateMutability": "view",
      "type": "function",
      "constant": true
    },
    {
      "inputs": [
        {
          "internalType": "string",
          "name": "_city",
          "type": "string"
        }
      ],
      "name": "getCrimeOfCity",
      "outputs": [
        {
          "components": [
            {
              "internalType": "uint256",
              "name": "crimeId",
              "type": "uint256"
            },
            {
              "internalType": "address",
              "name": "reporterWalletAddress",
              "type": "address"
            },
            {
              "internalType": "uint256",
              "name": "timeStamp",
              "type": "uint256"
            },
            {
              "internalType": "string[]",
              "name": "location",
              "type": "string[]"
            },
            {
              "internalType": "string",
              "name": "crimeType",
              "type": "string"
            },
            {
              "internalType": "string[]",
              "name": "questionnaireAnswers",
              "type": "string[]"
            },
            {
              "internalType": "string",
              "name": "crimeDesc",
              "type": "string"
            },
            {
              "internalType": "bool",
              "name": "isSuspectKnown",
              "type": "bool"
            },
            {
              "internalType": "string[]",
              "name": "suspectInfoAnswers",
              "type": "string[]"
            },
            {
              "internalType": "bool",
              "name": "isVehiclePresent",
              "type": "bool"
            },
            {
              "internalType": "string[]",
              "name": "vehicleInfoAnswers",
              "type": "string[]"
            },
            {
              "internalType": "bool",
              "name": "isVictimKnown",
              "type": "bool"
            },
            {
              "internalType": "string[]",
              "name": "victimInfoAnswers",
              "type": "string[]"
            },
            {
              "internalType": "string",
              "name": "ipfsHash",
              "type": "string"
            },
            {
              "internalType": "string[]",
              "name": "feedbacks",
              "type": "string[]"
            }
          ],
          "internalType": "struct CrimeReport.Crime[]",
          "name": "",
          "type": "tuple[]"
        }
      ],
      "stateMutability": "view",
      "type": "function",
      "constant": true
    }
  ],
  "bytecode": "0x608060405234801561001057600080fd5b50613b16806100206000396000f3fe608060405234801561001057600080fd5b50600436106100935760003560e01c8063749b5e5211610066578063749b5e52146101205780638e7361ba14610150578063a4881afd1461016c578063b46b6d601461018a578063c7251143146101a857610093565b806305608f641461009857806314034a74146100b657806320b0c9d6146100e657806368b3275b14610102575b600080fd5b6100a06101d8565b6040516100ad9190612c03565b60405180910390f35b6100d060048036038101906100cb9190612d78565b6101e4565b6040516100dd91906131aa565b60405180910390f35b61010060048036038101906100fb91906131f8565b6109e9565b005b61010a610a45565b6040516101179190613263565b60405180910390f35b61013a6004803603810190610135919061327e565b610a4d565b6040516101479190613426565b60405180910390f35b61016a6004803603810190610165919061352e565b611211565b005b610174611975565b60405161018191906131aa565b60405180910390f35b61019261215c565b60405161019f91906131aa565b60405180910390f35b6101c260048036038101906101bd919061327e565b612980565b6040516101cf919061375e565b60405180910390f35b60008080549050905090565b60606002826040516101f691906137bc565b9081526020016040518091039020805480602002602001604051908101604052809291908181526020016000905b828210156109de57838290600052602060002090600f0201604051806101e0016040529081600082015481526020016001820160009054906101000a900473ffffffffffffffffffffffffffffffffffffffff1673ffffffffffffffffffffffffffffffffffffffff1673ffffffffffffffffffffffffffffffffffffffff1681526020016002820154815260200160038201805480602002602001604051908101604052809291908181526020016000905b828210156103835783829060005260206000200180546102f690613802565b80601f016020809104026020016040519081016040528092919081815260200182805461032290613802565b801561036f5780601f106103445761010080835404028352916020019161036f565b820191906000526020600020905b81548152906001019060200180831161035257829003601f168201915b5050505050815260200190600101906102d7565b50505050815260200160048201805461039b90613802565b80601f01602080910402602001604051908101604052809291908181526020018280546103c790613802565b80156104145780601f106103e957610100808354040283529160200191610414565b820191906000526020600020905b8154815290600101906020018083116103f757829003601f168201915b5050505050815260200160058201805480602002602001604051908101604052809291908181526020016000905b828210156104ee57838290600052602060002001805461046190613802565b80601f016020809104026020016040519081016040528092919081815260200182805461048d90613802565b80156104da5780601f106104af576101008083540402835291602001916104da565b820191906000526020600020905b8154815290600101906020018083116104bd57829003601f168201915b505050505081526020019060010190610442565b50505050815260200160068201805461050690613802565b80601f016020809104026020016040519081016040528092919081815260200182805461053290613802565b801561057f5780601f106105545761010080835404028352916020019161057f565b820191906000526020600020905b81548152906001019060200180831161056257829003601f168201915b505050505081526020016007820160009054906101000a900460ff1615151515815260200160088201805480602002602001604051908101604052809291908181526020016000905b828210156106745783829060005260206000200180546105e790613802565b80601f016020809104026020016040519081016040528092919081815260200182805461061390613802565b80156106605780601f1061063557610100808354040283529160200191610660565b820191906000526020600020905b81548152906001019060200180831161064357829003601f168201915b5050505050815260200190600101906105c8565b5050505081526020016009820160009054906101000a900460ff16151515158152602001600a8201805480602002602001604051908101604052809291908181526020016000905b828210156107685783829060005260206000200180546106db90613802565b80601f016020809104026020016040519081016040528092919081815260200182805461070790613802565b80156107545780601f1061072957610100808354040283529160200191610754565b820191906000526020600020905b81548152906001019060200180831161073757829003601f168201915b5050505050815260200190600101906106bc565b505050508152602001600b820160009054906101000a900460ff16151515158152602001600c8201805480602002602001604051908101604052809291908181526020016000905b8282101561085c5783829060005260206000200180546107cf90613802565b80601f01602080910402602001604051908101604052809291908181526020018280546107fb90613802565b80156108485780601f1061081d57610100808354040283529160200191610848565b820191906000526020600020905b81548152906001019060200180831161082b57829003601f168201915b5050505050815260200190600101906107b0565b505050508152602001600d8201805461087490613802565b80601f01602080910402602001604051908101604052809291908181526020018280546108a090613802565b80156108ed5780601f106108c2576101008083540402835291602001916108ed565b820191906000526020600020905b8154815290600101906020018083116108d057829003601f168201915b50505050508152602001600e8201805480602002602001604051908101604052809291908181526020016000905b828210156109c757838290600052602060002001805461093a90613802565b80601f016020809104026020016040519081016040528092919081815260200182805461096690613802565b80156109b35780601f10610988576101008083540402835291602001916109b3565b820191906000526020600020905b81548152906001019060200180831161099657829003601f168201915b50505050508152602001906001019061091b565b505050508152505081526020019060010190610224565b505050509050919050565b600082815481106109fd576109fc613833565b5b90600052602060002090600f0201600e0181908060018154018082558091505060019003906000526020600020016000909190919091509081610a409190613a0e565b505050565b600033905090565b610a55612a7e565b60008281548110610a6957610a68613833565b5b90600052602060002090600f0201604051806101e0016040529081600082015481526020016001820160009054906101000a900473ffffffffffffffffffffffffffffffffffffffff1673ffffffffffffffffffffffffffffffffffffffff1673ffffffffffffffffffffffffffffffffffffffff1681526020016002820154815260200160038201805480602002602001604051908101604052809291908181526020016000905b82821015610bbe578382906000526020600020018054610b3190613802565b80601f0160208091040260200160405190810160405280929190818152602001828054610b5d90613802565b8015610baa5780601f10610b7f57610100808354040283529160200191610baa565b820191906000526020600020905b815481529060010190602001808311610b8d57829003601f168201915b505050505081526020019060010190610b12565b505050508152602001600482018054610bd690613802565b80601f0160208091040260200160405190810160405280929190818152602001828054610c0290613802565b8015610c4f5780601f10610c2457610100808354040283529160200191610c4f565b820191906000526020600020905b815481529060010190602001808311610c3257829003601f168201915b5050505050815260200160058201805480602002602001604051908101604052809291908181526020016000905b82821015610d29578382906000526020600020018054610c9c90613802565b80601f0160208091040260200160405190810160405280929190818152602001828054610cc890613802565b8015610d155780601f10610cea57610100808354040283529160200191610d15565b820191906000526020600020905b815481529060010190602001808311610cf857829003601f168201915b505050505081526020019060010190610c7d565b505050508152602001600682018054610d4190613802565b80601f0160208091040260200160405190810160405280929190818152602001828054610d6d90613802565b8015610dba5780601f10610d8f57610100808354040283529160200191610dba565b820191906000526020600020905b815481529060010190602001808311610d9d57829003601f168201915b505050505081526020016007820160009054906101000a900460ff1615151515815260200160088201805480602002602001604051908101604052809291908181526020016000905b82821015610eaf578382906000526020600020018054610e2290613802565b80601f0160208091040260200160405190810160405280929190818152602001828054610e4e90613802565b8015610e9b5780601f10610e7057610100808354040283529160200191610e9b565b820191906000526020600020905b815481529060010190602001808311610e7e57829003601f168201915b505050505081526020019060010190610e03565b5050505081526020016009820160009054906101000a900460ff16151515158152602001600a8201805480602002602001604051908101604052809291908181526020016000905b82821015610fa3578382906000526020600020018054610f1690613802565b80601f0160208091040260200160405190810160405280929190818152602001828054610f4290613802565b8015610f8f5780601f10610f6457610100808354040283529160200191610f8f565b820191906000526020600020905b815481529060010190602001808311610f7257829003601f168201915b505050505081526020019060010190610ef7565b505050508152602001600b820160009054906101000a900460ff16151515158152602001600c8201805480602002602001604051908101604052809291908181526020016000905b8282101561109757838290600052602060002001805461100a90613802565b80601f016020809104026020016040519081016040528092919081815260200182805461103690613802565b80156110835780601f1061105857610100808354040283529160200191611083565b820191906000526020600020905b81548152906001019060200180831161106657829003601f168201915b505050505081526020019060010190610feb565b505050508152602001600d820180546110af90613802565b80601f01602080910402602001604051908101604052809291908181526020018280546110db90613802565b80156111285780601f106110fd57610100808354040283529160200191611128565b820191906000526020600020905b81548152906001019060200180831161110b57829003601f168201915b50505050508152602001600e8201805480602002602001604051908101604052809291908181526020016000905b8282101561120257838290600052602060002001805461117590613802565b80601f01602080910402602001604051908101604052809291908181526020018280546111a190613802565b80156111ee5780601f106111c3576101008083540402835291602001916111ee565b820191906000526020600020905b8154815290600101906020018083116111d157829003601f168201915b505050505081526020019060010190611156565b50505050815250509050919050565b611219612a7e565b600080549050816000018181525050611230610a45565b816020019073ffffffffffffffffffffffffffffffffffffffff16908173ffffffffffffffffffffffffffffffffffffffff168152505089816040018181525050888160600181905250878160800181905250868160a00181905250858160c0018190525060008160e00190151590811515815250506000855111156112cc5760018160e0019015159081151581525050848161010001819052505b60008161012001901515908115158152505060008451111561130557600181610120019015159081151581525050838161014001819052505b60008161016001901515908115158152505060008351111561133e57600181610160019015159081151581525050828161018001819052505b81816101a00181905250606080826101c0018190525060008290806001815401808255809150506001900390600052602060002090600f02016000909190919091506000820151816000015560208201518160010160006101000a81548173ffffffffffffffffffffffffffffffffffffffff021916908373ffffffffffffffffffffffffffffffffffffffff1602179055506040820151816002015560608201518160030190805190602001906113f7929190612b10565b50608082015181600401908161140d9190613a0e565b5060a082015181600501908051906020019061142a929190612b10565b5060c08201518160060190816114409190613a0e565b5060e08201518160070160006101000a81548160ff02191690831515021790555061010082015181600801908051906020019061147e929190612b10565b506101208201518160090160006101000a81548160ff02191690831515021790555061014082015181600a0190805190602001906114bd929190612b10565b5061016082015181600b0160006101000a81548160ff02191690831515021790555061018082015181600c0190805190602001906114fc929190612b10565b506101a082015181600d0190816115139190613a0e565b506101c082015181600e019080519060200190611531929190612b10565b505050600160003373ffffffffffffffffffffffffffffffffffffffff1673ffffffffffffffffffffffffffffffffffffffff1681526020019081526020016000208290806001815401808255809150506001900390600052602060002090600f02016000909190919091506000820151816000015560208201518160010160006101000a81548173ffffffffffffffffffffffffffffffffffffffff021916908373ffffffffffffffffffffffffffffffffffffffff160217905550604082015181600201556060820151816003019080519060200190611614929190612b10565b50608082015181600401908161162a9190613a0e565b5060a0820151816005019080519060200190611647929190612b10565b5060c082015181600601908161165d9190613a0e565b5060e08201518160070160006101000a81548160ff02191690831515021790555061010082015181600801908051906020019061169b929190612b10565b506101208201518160090160006101000a81548160ff02191690831515021790555061014082015181600a0190805190602001906116da929190612b10565b5061016082015181600b0160006101000a81548160ff02191690831515021790555061018082015181600c019080519060200190611719929190612b10565b506101a082015181600d0190816117309190613a0e565b506101c082015181600e01908051906020019061174e929190612b10565b50505060028a60018151811061176757611766613833565b5b602002602001015160405161177c91906137bc565b90815260200160405180910390208290806001815401808255809150506001900390600052602060002090600f02016000909190919091506000820151816000015560208201518160010160006101000a81548173ffffffffffffffffffffffffffffffffffffffff021916908373ffffffffffffffffffffffffffffffffffffffff16021790555060408201518160020155606082015181600301908051906020019061182b929190612b10565b5060808201518160040190816118419190613a0e565b5060a082015181600501908051906020019061185e929190612b10565b5060c08201518160060190816118749190613a0e565b5060e08201518160070160006101000a81548160ff0219169083151502179055506101008201518160080190805190602001906118b2929190612b10565b506101208201518160090160006101000a81548160ff02191690831515021790555061014082015181600a0190805190602001906118f1929190612b10565b5061016082015181600b0160006101000a81548160ff02191690831515021790555061018082015181600c019080519060200190611930929190612b10565b506101a082015181600d0190816119479190613a0e565b506101c082015181600e019080519060200190611965929190612b10565b5050505050505050505050505050565b60606000805480602002602001604051908101604052809291908181526020016000905b8282101561215357838290600052602060002090600f0201604051806101e0016040529081600082015481526020016001820160009054906101000a900473ffffffffffffffffffffffffffffffffffffffff1673ffffffffffffffffffffffffffffffffffffffff1673ffffffffffffffffffffffffffffffffffffffff1681526020016002820154815260200160038201805480602002602001604051908101604052809291908181526020016000905b82821015611af8578382906000526020600020018054611a6b90613802565b80601f0160208091040260200160405190810160405280929190818152602001828054611a9790613802565b8015611ae45780601f10611ab957610100808354040283529160200191611ae4565b820191906000526020600020905b815481529060010190602001808311611ac757829003601f168201915b505050505081526020019060010190611a4c565b505050508152602001600482018054611b1090613802565b80601f0160208091040260200160405190810160405280929190818152602001828054611b3c90613802565b8015611b895780601f10611b5e57610100808354040283529160200191611b89565b820191906000526020600020905b815481529060010190602001808311611b6c57829003601f168201915b5050505050815260200160058201805480602002602001604051908101604052809291908181526020016000905b82821015611c63578382906000526020600020018054611bd690613802565b80601f0160208091040260200160405190810160405280929190818152602001828054611c0290613802565b8015611c4f5780601f10611c2457610100808354040283529160200191611c4f565b820191906000526020600020905b815481529060010190602001808311611c3257829003601f168201915b505050505081526020019060010190611bb7565b505050508152602001600682018054611c7b90613802565b80601f0160208091040260200160405190810160405280929190818152602001828054611ca790613802565b8015611cf45780601f10611cc957610100808354040283529160200191611cf4565b820191906000526020600020905b815481529060010190602001808311611cd757829003601f168201915b505050505081526020016007820160009054906101000a900460ff1615151515815260200160088201805480602002602001604051908101604052809291908181526020016000905b82821015611de9578382906000526020600020018054611d5c90613802565b80601f0160208091040260200160405190810160405280929190818152602001828054611d8890613802565b8015611dd55780601f10611daa57610100808354040283529160200191611dd5565b820191906000526020600020905b815481529060010190602001808311611db857829003601f168201915b505050505081526020019060010190611d3d565b5050505081526020016009820160009054906101000a900460ff16151515158152602001600a8201805480602002602001604051908101604052809291908181526020016000905b82821015611edd578382906000526020600020018054611e5090613802565b80601f0160208091040260200160405190810160405280929190818152602001828054611e7c90613802565b8015611ec95780601f10611e9e57610100808354040283529160200191611ec9565b820191906000526020600020905b815481529060010190602001808311611eac57829003601f168201915b505050505081526020019060010190611e31565b505050508152602001600b820160009054906101000a900460ff16151515158152602001600c8201805480602002602001604051908101604052809291908181526020016000905b82821015611fd1578382906000526020600020018054611f4490613802565b80601f0160208091040260200160405190810160405280929190818152602001828054611f7090613802565b8015611fbd5780601f10611f9257610100808354040283529160200191611fbd565b820191906000526020600020905b815481529060010190602001808311611fa057829003601f168201915b505050505081526020019060010190611f25565b505050508152602001600d82018054611fe990613802565b80601f016020809104026020016040519081016040528092919081815260200182805461201590613802565b80156120625780601f1061203757610100808354040283529160200191612062565b820191906000526020600020905b81548152906001019060200180831161204557829003601f168201915b50505050508152602001600e8201805480602002602001604051908101604052809291908181526020016000905b8282101561213c5783829060005260206000200180546120af90613802565b80601f01602080910402602001604051908101604052809291908181526020018280546120db90613802565b80156121285780601f106120fd57610100808354040283529160200191612128565b820191906000526020600020905b81548152906001019060200180831161210b57829003601f168201915b505050505081526020019060010190612090565b505050508152505081526020019060010190611999565b50505050905090565b6060600160003373ffffffffffffffffffffffffffffffffffffffff1673ffffffffffffffffffffffffffffffffffffffff168152602001908152602001600020805480602002602001604051908101604052809291908181526020016000905b8282101561297757838290600052602060002090600f0201604051806101e0016040529081600082015481526020016001820160009054906101000a900473ffffffffffffffffffffffffffffffffffffffff1673ffffffffffffffffffffffffffffffffffffffff1673ffffffffffffffffffffffffffffffffffffffff1681526020016002820154815260200160038201805480602002602001604051908101604052809291908181526020016000905b8282101561231c57838290600052602060002001805461228f90613802565b80601f01602080910402602001604051908101604052809291908181526020018280546122bb90613802565b80156123085780601f106122dd57610100808354040283529160200191612308565b820191906000526020600020905b8154815290600101906020018083116122eb57829003601f168201915b505050505081526020019060010190612270565b50505050815260200160048201805461233490613802565b80601f016020809104026020016040519081016040528092919081815260200182805461236090613802565b80156123ad5780601f10612382576101008083540402835291602001916123ad565b820191906000526020600020905b81548152906001019060200180831161239057829003601f168201915b5050505050815260200160058201805480602002602001604051908101604052809291908181526020016000905b828210156124875783829060005260206000200180546123fa90613802565b80601f016020809104026020016040519081016040528092919081815260200182805461242690613802565b80156124735780601f1061244857610100808354040283529160200191612473565b820191906000526020600020905b81548152906001019060200180831161245657829003601f168201915b5050505050815260200190600101906123db565b50505050815260200160068201805461249f90613802565b80601f01602080910402602001604051908101604052809291908181526020018280546124cb90613802565b80156125185780601f106124ed57610100808354040283529160200191612518565b820191906000526020600020905b8154815290600101906020018083116124fb57829003601f168201915b505050505081526020016007820160009054906101000a900460ff1615151515815260200160088201805480602002602001604051908101604052809291908181526020016000905b8282101561260d57838290600052602060002001805461258090613802565b80601f01602080910402602001604051908101604052809291908181526020018280546125ac90613802565b80156125f95780601f106125ce576101008083540402835291602001916125f9565b820191906000526020600020905b8154815290600101906020018083116125dc57829003601f168201915b505050505081526020019060010190612561565b5050505081526020016009820160009054906101000a900460ff16151515158152602001600a8201805480602002602001604051908101604052809291908181526020016000905b8282101561270157838290600052602060002001805461267490613802565b80601f01602080910402602001604051908101604052809291908181526020018280546126a090613802565b80156126ed5780601f106126c2576101008083540402835291602001916126ed565b820191906000526020600020905b8154815290600101906020018083116126d057829003601f168201915b505050505081526020019060010190612655565b505050508152602001600b820160009054906101000a900460ff16151515158152602001600c8201805480602002602001604051908101604052809291908181526020016000905b828210156127f557838290600052602060002001805461276890613802565b80601f016020809104026020016040519081016040528092919081815260200182805461279490613802565b80156127e15780601f106127b6576101008083540402835291602001916127e1565b820191906000526020600020905b8154815290600101906020018083116127c457829003601f168201915b505050505081526020019060010190612749565b505050508152602001600d8201805461280d90613802565b80601f016020809104026020016040519081016040528092919081815260200182805461283990613802565b80156128865780601f1061285b57610100808354040283529160200191612886565b820191906000526020600020905b81548152906001019060200180831161286957829003601f168201915b50505050508152602001600e8201805480602002602001604051908101604052809291908181526020016000905b828210156129605783829060005260206000200180546128d390613802565b80601f01602080910402602001604051908101604052809291908181526020018280546128ff90613802565b801561294c5780601f106129215761010080835404028352916020019161294c565b820191906000526020600020905b81548152906001019060200180831161292f57829003601f168201915b5050505050815260200190600101906128b4565b5050505081525050815260200190600101906121bd565b50505050905090565b60606000828154811061299657612995613833565b5b90600052602060002090600f0201600e01805480602002602001604051908101604052809291908181526020016000905b82821015612a735783829060005260206000200180546129e690613802565b80601f0160208091040260200160405190810160405280929190818152602001828054612a1290613802565b8015612a5f5780601f10612a3457610100808354040283529160200191612a5f565b820191906000526020600020905b815481529060010190602001808311612a4257829003601f168201915b5050505050815260200190600101906129c7565b505050509050919050565b604051806101e0016040528060008152602001600073ffffffffffffffffffffffffffffffffffffffff168152602001600081526020016060815260200160608152602001606081526020016060815260200160001515815260200160608152602001600015158152602001606081526020016000151581526020016060815260200160608152602001606081525090565b828054828255906000526020600020908101928215612b58579160200282015b82811115612b57578251829081612b479190613a0e565b5091602001919060010190612b30565b5b509050612b659190612b69565b5090565b5b80821115612b895760008181612b809190612b8d565b50600101612b6a565b5090565b508054612b9990613802565b6000825580601f10612bab5750612bca565b601f016020900490600052602060002090810190612bc99190612bcd565b5b50565b5b80821115612be6576000816000905550600101612bce565b5090565b6000819050919050565b612bfd81612bea565b82525050565b6000602082019050612c186000830184612bf4565b92915050565b6000604051905090565b600080fd5b600080fd5b600080fd5b600080fd5b6000601f19601f8301169050919050565b7f4e487b7100000000000000000000000000000000000000000000000000000000600052604160045260246000fd5b612c8582612c3c565b810181811067ffffffffffffffff82111715612ca457612ca3612c4d565b5b80604052505050565b6000612cb7612c1e565b9050612cc38282612c7c565b919050565b600067ffffffffffffffff821115612ce357612ce2612c4d565b5b612cec82612c3c565b9050602081019050919050565b82818337600083830152505050565b6000612d1b612d1684612cc8565b612cad565b905082815260208101848484011115612d3757612d36612c37565b5b612d42848285612cf9565b509392505050565b600082601f830112612d5f57612d5e612c32565b5b8135612d6f848260208601612d08565b91505092915050565b600060208284031215612d8e57612d8d612c28565b5b600082013567ffffffffffffffff811115612dac57612dab612c2d565b5b612db884828501612d4a565b91505092915050565b600081519050919050565b600082825260208201905092915050565b6000819050602082019050919050565b612df681612bea565b82525050565b600073ffffffffffffffffffffffffffffffffffffffff82169050919050565b6000612e2782612dfc565b9050919050565b612e3781612e1c565b82525050565b600081519050919050565b600082825260208201905092915050565b6000819050602082019050919050565b600081519050919050565b600082825260208201905092915050565b60005b83811015612ea3578082015181840152602081019050612e88565b60008484015250505050565b6000612eba82612e69565b612ec48185612e74565b9350612ed4818560208601612e85565b612edd81612c3c565b840191505092915050565b6000612ef48383612eaf565b905092915050565b6000602082019050919050565b6000612f1482612e3d565b612f1e8185612e48565b935083602082028501612f3085612e59565b8060005b85811015612f6c5784840389528151612f4d8582612ee8565b9450612f5883612efc565b925060208a01995050600181019050612f34565b50829750879550505050505092915050565b60008115159050919050565b612f9381612f7e565b82525050565b60006101e083016000830151612fb26000860182612ded565b506020830151612fc56020860182612e2e565b506040830151612fd86040860182612ded565b5060608301518482036060860152612ff08282612f09565b9150506080830151848203608086015261300a8282612eaf565b91505060a083015184820360a08601526130248282612f09565b91505060c083015184820360c086015261303e8282612eaf565b91505060e083015161305360e0860182612f8a565b5061010083015184820361010086015261306d8282612f09565b915050610120830151613084610120860182612f8a565b5061014083015184820361014086015261309e8282612f09565b9150506101608301516130b5610160860182612f8a565b506101808301518482036101808601526130cf8282612f09565b9150506101a08301518482036101a08601526130eb8282612eaf565b9150506101c08301518482036101c08601526131078282612f09565b9150508091505092915050565b60006131208383612f99565b905092915050565b6000602082019050919050565b600061314082612dc1565b61314a8185612dcc565b93508360208202850161315c85612ddd565b8060005b8581101561319857848403895281516131798582613114565b945061318483613128565b925060208a01995050600181019050613160565b50829750879550505050505092915050565b600060208201905081810360008301526131c48184613135565b905092915050565b6131d581612bea565b81146131e057600080fd5b50565b6000813590506131f2816131cc565b92915050565b6000806040838503121561320f5761320e612c28565b5b600061321d858286016131e3565b925050602083013567ffffffffffffffff81111561323e5761323d612c2d565b5b61324a85828601612d4a565b9150509250929050565b61325d81612e1c565b82525050565b60006020820190506132786000830184613254565b92915050565b60006020828403121561329457613293612c28565b5b60006132a2848285016131e3565b91505092915050565b60006101e0830160008301516132c46000860182612ded565b5060208301516132d76020860182612e2e565b5060408301516132ea6040860182612ded565b50606083015184820360608601526133028282612f09565b9150506080830151848203608086015261331c8282612eaf565b91505060a083015184820360a08601526133368282612f09565b91505060c083015184820360c08601526133508282612eaf565b91505060e083015161336560e0860182612f8a565b5061010083015184820361010086015261337f8282612f09565b915050610120830151613396610120860182612f8a565b506101408301518482036101408601526133b08282612f09565b9150506101608301516133c7610160860182612f8a565b506101808301518482036101808601526133e18282612f09565b9150506101a08301518482036101a08601526133fd8282612eaf565b9150506101c08301518482036101c08601526134198282612f09565b9150508091505092915050565b6000602082019050818103600083015261344081846132ab565b905092915050565b600067ffffffffffffffff82111561346357613462612c4d565b5b602082029050602081019050919050565b600080fd5b600061348c61348784613448565b612cad565b905080838252602082019050602084028301858111156134af576134ae613474565b5b835b818110156134f657803567ffffffffffffffff8111156134d4576134d3612c32565b5b8086016134e18982612d4a565b855260208501945050506020810190506134b1565b5050509392505050565b600082601f83011261351557613514612c32565b5b8135613525848260208601613479565b91505092915050565b60008060008060008060008060006101208a8c03121561355157613550612c28565b5b600061355f8c828d016131e3565b99505060208a013567ffffffffffffffff8111156135805761357f612c2d565b5b61358c8c828d01613500565b98505060408a013567ffffffffffffffff8111156135ad576135ac612c2d565b5b6135b98c828d01612d4a565b97505060608a013567ffffffffffffffff8111156135da576135d9612c2d565b5b6135e68c828d01613500565b96505060808a013567ffffffffffffffff81111561360757613606612c2d565b5b6136138c828d01612d4a565b95505060a08a013567ffffffffffffffff81111561363457613633612c2d565b5b6136408c828d01613500565b94505060c08a013567ffffffffffffffff81111561366157613660612c2d565b5b61366d8c828d01613500565b93505060e08a013567ffffffffffffffff81111561368e5761368d612c2d565b5b61369a8c828d01613500565b9250506101008a013567ffffffffffffffff8111156136bc576136bb612c2d565b5b6136c88c828d01612d4a565b9150509295985092959850929598565b600082825260208201905092915050565b60006136f482612e3d565b6136fe81856136d8565b93508360208202850161371085612e59565b8060005b8581101561374c578484038952815161372d8582612ee8565b945061373883612efc565b925060208a01995050600181019050613714565b50829750879550505050505092915050565b6000602082019050818103600083015261377881846136e9565b905092915050565b600081905092915050565b600061379682612e69565b6137a08185613780565b93506137b0818560208601612e85565b80840191505092915050565b60006137c8828461378b565b915081905092915050565b7f4e487b7100000000000000000000000000000000000000000000000000000000600052602260045260246000fd5b6000600282049050600182168061381a57607f821691505b60208210810361382d5761382c6137d3565b5b50919050565b7f4e487b7100000000000000000000000000000000000000000000000000000000600052603260045260246000fd5b60008190508160005260206000209050919050565b60006020601f8301049050919050565b600082821b905092915050565b6000600883026138c47fffffffffffffffffffffffffffffffffffffffffffffffffffffffffffffffff82613887565b6138ce8683613887565b95508019841693508086168417925050509392505050565b6000819050919050565b600061390b61390661390184612bea565b6138e6565b612bea565b9050919050565b6000819050919050565b613925836138f0565b61393961393182613912565b848454613894565b825550505050565b600090565b61394e613941565b61395981848461391c565b505050565b5b8181101561397d57613972600082613946565b60018101905061395f565b5050565b601f8211156139c25761399381613862565b61399c84613877565b810160208510156139ab578190505b6139bf6139b785613877565b83018261395e565b50505b505050565b600082821c905092915050565b60006139e5600019846008026139c7565b1980831691505092915050565b60006139fe83836139d4565b9150826002028217905092915050565b613a1782612e69565b67ffffffffffffffff811115613a3057613a2f612c4d565b5b613a3a8254613802565b613a45828285613981565b600060209050601f831160018114613a785760008415613a66578287015190505b613a7085826139f2565b865550613ad8565b601f198416613a8686613862565b60005b82811015613aae57848901518255600182019150602085019450602081019050613a89565b86831015613acb5784890151613ac7601f8916826139d4565b8355505b6001600288020188555050505b50505050505056fea26469706673582212208f453c0ce7561159467c1d295be6c3a831980ae4f184e28f8846dab51f88844464736f6c63430008100033",
  "immutableReferences": {},
  "source": "// SPDX-License-Identifier: MIT\r\npragma solidity >= 0.7.0 < 0.9.0;\r\n\r\ncontract CrimeReport{\r\n\r\n/* Array Of Feedback in another stuct not supported yet.\r\n    struct Feedback{\r\n\r\n        // Wallet Address who submitted Feedback\r\n         address feebdbackFrom;\r\n\r\n        // Feedback\r\n        string feedback;\r\n\r\n        // Feedback Time\r\n        // uint256 timestamp;\r\n    }\r\n\r\n    */\r\n\r\n    struct Crime{\r\n\r\n        // Unique Id Number for each crime\r\n        uint256 crimeId; \r\n\r\n        // Wallet Address who submitted crime details\r\n        address reporterWalletAddress;\r\n\r\n        // TimeStamp in Unix / Epoch\r\n        uint256 timeStamp;\r\n\r\n        /*\r\n        // State Name Where Crime Occured\r\n        string state; \r\n\r\n        // City Name Where Crime Occured\r\n        string city; \r\n\r\n        // Geographical Coordinates\r\n        string latitude; \r\n        string longitude; \r\n        */\r\n\r\n        string[] location;\r\n\r\n        // Crime Type -> Murder/Theft/Robbery...etc\r\n        string crimeType;\r\n\r\n        /* Questionnaire regarding crime type and mapping it to answer.\r\n           Question_Number -> Answer\r\n           mapping(uint32 => string) questionnaires;\r\n        */\r\n        \r\n        /*  Use This if Above Mapping doesn't work \r\n\r\n        // Questionnaire regarding crime type */\r\n        //string[] questionnaires;\r\n\r\n        // Answers of Questionnaire.\r\n        string[] questionnaireAnswers;\r\n\r\n        \r\n\r\n        // Crime Description in detail\r\n        string crimeDesc; \r\n\r\n        /* Details regarding suspect\r\n            KEY         -> VALUE\r\n            Name        -> name_of_suspect\r\n            Age_Group   -> Young Adult(Below 30) | Middle-aged Adult(Below 60) | Old Adults(Above 60)\r\n            Gender      -> Male | Female\r\n            Description -> Other Details to identify suspects (eg.Face color, hair color, height... etc)\r\n\r\n        mapping(string => string) suspectInfo;\r\n        */\r\n        bool isSuspectKnown;\r\n        string[] suspectInfoAnswers;\r\n\r\n        /* Details regarding vehicle if any involved in case\r\n            KEY -> VALUE\r\n            License plate state , Number, Vehicle color.. etc.\r\n            mapping(string => string) vehicleInfo;\r\n        */\r\n        bool isVehiclePresent;\r\n        string[] vehicleInfoAnswers;\r\n        \r\n\r\n        /* Victim Details if known\r\n            KEY -> VALUE\r\n            Name, address... etc.\r\n            mapping(string => string) victimInfo;\r\n        */\r\n        bool isVictimKnown;\r\n        string[] victimInfoAnswers;\r\n\r\n        // IPFS Hash If any media files attached.\r\n        string ipfsHash;\r\n\r\n        // Feedbacks\r\n        string[] feedbacks;\r\n\r\n    }\r\n\r\n    // List Of All Crimes that reported\r\n    Crime[] private crimes;\r\n\r\n    // Stores all crimes user wise.\r\n    mapping(address => Crime[]) crimesByUsers;\r\n\r\n    // Store all crimes of city\r\n    mapping(string => Crime[]) crimesOfCity;\r\n\r\n    // Function to submit crime (Storing Crime Details)\r\n    function submitCrime(uint256 _timestamp,\r\n                         string[] memory _location,\r\n                         string memory _crimeType,\r\n                         string[] memory _questionnaireAnswers,\r\n                         string memory _crimeDesc,\r\n                         string[] memory _suspectInfoAnswers,\r\n                         string[] memory _vehicleInfoAnswers,\r\n                         string[] memory _victimInfoAnswers,\r\n                         string memory _ipfsHash\r\n                        ) external {\r\n\r\n         Crime memory crime;     \r\n         crime.crimeId = crimes.length;   \r\n         crime.reporterWalletAddress = getReporterWalletAddress();\r\n         crime.timeStamp = _timestamp;   \r\n         crime.location = _location;\r\n         crime.crimeType = _crimeType;     \r\n         crime.questionnaireAnswers = _questionnaireAnswers;\r\n         crime.crimeDesc = _crimeDesc; \r\n         \r\n         crime.isSuspectKnown = false;\r\n         if(_suspectInfoAnswers.length>0){\r\n             crime.isSuspectKnown = true;\r\n             crime.suspectInfoAnswers = _suspectInfoAnswers;\r\n         }\r\n\r\n         crime.isVehiclePresent = false;\r\n         if(_vehicleInfoAnswers.length>0){\r\n             crime.isVehiclePresent = true;\r\n             crime.vehicleInfoAnswers = _vehicleInfoAnswers;\r\n         }\r\n\r\n         crime.isVictimKnown = false;\r\n         if(_victimInfoAnswers.length>0){\r\n             crime.isVictimKnown = true;\r\n             crime.victimInfoAnswers = _victimInfoAnswers;\r\n         }\r\n\r\n        crime.ipfsHash = _ipfsHash;\r\n        string[] memory _feedbacks;\r\n        crime.feedbacks = _feedbacks;\r\n        crimes.push(crime);\r\n\r\n        crimesByUsers[msg.sender].push(crime);\r\n        crimesOfCity[_location[1]].push(crime);\r\n\r\n    }\r\n\r\n\r\n    // Function to submit Feedbacks\r\n    function submitFeedback(uint256 _crimeId,string memory _feedback) external{\r\n        crimes[_crimeId].feedbacks.push(_feedback);\r\n    }\r\n\r\n    // Return Feedbacks By CrimeID\r\n   function getFeedbacksById(uint256 _crimeId) public view returns(string[] memory){\r\n       return crimes[_crimeId].feedbacks;\r\n   }\r\n\r\n    // Function to return all crime to admin side\r\n    function getCrimes() public view returns (Crime[] memory) {\r\n       return crimes;\r\n   }\r\n\r\n   // Return Crime By CrimeID\r\n   function getCrimeById(uint256 _crimeId) public view returns(Crime memory){\r\n       return crimes[_crimeId];\r\n   }\r\n\r\n    // Returns Total Number Of Crimes\r\n    function totalCrimes() public view returns (uint256) {\r\n       return crimes.length;\r\n   }\r\n\r\n    // Returns Address of wallet who Reporting the crime\r\n    function getReporterWalletAddress() public view returns(address){\r\n        return msg.sender;\r\n    }\r\n\r\n    // Return Crimes Submitted by the current user\r\n   function getCrimeOfCurrentUser() public view returns(Crime[] memory){\r\n        return crimesByUsers[msg.sender];\r\n   }\r\n\r\n    // Return Crimes of city\r\n   function getCrimeOfCity(string memory _city) public view returns(Crime[] memory){\r\n        return crimesOfCity[_city];\r\n   }\r\n\r\n}\r\n\r\n\r\n/*\r\n    Parameters For Testing\r\n\r\n    1660627677,[\"Maharashtra\",\"Jalgaon\",\"2.9454465\",\"9.2487554\"],Theft,[\"Bike\"],\"I saw the person stealing bike and going to Shiv Colony side\",[],[],[],\"IFPS_HASH_HERE\"\r\n\r\n*/",
  "sourcePath": "D:\\myproject\\dnetwork\\contracts\\CrimeReport.sol",
  "compiler": {
    "name": "solc",
    "version": "0.8.16+commit.07a7930e.Emscripten.clang"
  },
  "schemaVersion": "3.4.9",
  "updatedAt": "2022-08-18T01:40:25.549Z",
  "networkType": "ethereum",
  "devdoc": {
    "kind": "dev",
    "methods": {},
    "version": 1
  },
  "userdoc": {
    "kind": "user",
    "methods": {},
    "version": 1
  }
}