{
  "contractName": "CrimeReport",
  "abi": [
    {
      "inputs": [
        {
          "internalType": "uint256",
          "name": "_timestamp",
          "type": "uint256"
        },
        {
          "internalType": "string[]",
          "name": "_location",
          "type": "string[]"
        },
        {
          "internalType": "string",
          "name": "_crimeType",
          "type": "string"
        },
        {
          "internalType": "string[]",
          "name": "_questionnaireAnswers",
          "type": "string[]"
        },
        {
          "internalType": "string",
          "name": "_crimeDesc",
          "type": "string"
        },
        {
          "internalType": "string[]",
          "name": "_suspectInfoAnswers",
          "type": "string[]"
        },
        {
          "internalType": "string[]",
          "name": "_vehicleInfoAnswers",
          "type": "string[]"
        },
        {
          "internalType": "string[]",
          "name": "_victimInfoAnswers",
          "type": "string[]"
        },
        {
          "internalType": "string",
          "name": "_ipfsHash",
          "type": "string"
        },
        {
          "internalType": "string[]",
          "name": "_fileNames",
          "type": "string[]"
        },
        {
          "internalType": "string",
          "name": "_date",
          "type": "string"
        }
      ],
      "name": "submitCrime",
      "outputs": [
        {
          "internalType": "bool",
          "name": "",
          "type": "bool"
        }
      ],
      "stateMutability": "nonpayable",
      "type": "function"
    },
    {
      "inputs": [
        {
          "internalType": "uint256",
          "name": "_crimeId",
          "type": "uint256"
        },
        {
          "internalType": "string",
          "name": "_feedback",
          "type": "string"
        }
      ],
      "name": "submitFeedback",
      "outputs": [],
      "stateMutability": "nonpayable",
      "type": "function"
    },
    {
      "inputs": [
        {
          "internalType": "uint256",
          "name": "_crimeId",
          "type": "uint256"
        }
      ],
      "name": "getFeedbacksById",
      "outputs": [
        {
          "internalType": "string[]",
          "name": "",
          "type": "string[]"
        }
      ],
      "stateMutability": "view",
      "type": "function",
      "constant": true
    },
    {
      "inputs": [],
      "name": "getCrimes",
      "outputs": [
        {
          "components": [
            {
              "internalType": "uint256",
              "name": "crimeId",
              "type": "uint256"
            },
            {
              "internalType": "address",
              "name": "reporterWalletAddress",
              "type": "address"
            },
            {
              "internalType": "uint256",
              "name": "timeStamp",
              "type": "uint256"
            },
            {
              "internalType": "string[]",
              "name": "location",
              "type": "string[]"
            },
            {
              "internalType": "string",
              "name": "crimeType",
              "type": "string"
            },
            {
              "internalType": "string[]",
              "name": "questionnaireAnswers",
              "type": "string[]"
            },
            {
              "internalType": "string",
              "name": "crimeDesc",
              "type": "string"
            },
            {
              "internalType": "bool",
              "name": "isSuspectKnown",
              "type": "bool"
            },
            {
              "internalType": "string[]",
              "name": "suspectInfoAnswers",
              "type": "string[]"
            },
            {
              "internalType": "bool",
              "name": "isVehiclePresent",
              "type": "bool"
            },
            {
              "internalType": "string[]",
              "name": "vehicleInfoAnswers",
              "type": "string[]"
            },
            {
              "internalType": "bool",
              "name": "isVictimKnown",
              "type": "bool"
            },
            {
              "internalType": "string[]",
              "name": "victimInfoAnswers",
              "type": "string[]"
            },
            {
              "internalType": "string",
              "name": "ipfsHash",
              "type": "string"
            },
            {
              "internalType": "string[]",
              "name": "fileNames",
              "type": "string[]"
            },
            {
              "internalType": "string[]",
              "name": "feedbacks",
              "type": "string[]"
            },
            {
              "internalType": "bool",
              "name": "isCaseActive",
              "type": "bool"
            }
          ],
          "internalType": "struct CrimeReport.Crime[]",
          "name": "",
          "type": "tuple[]"
        }
      ],
      "stateMutability": "view",
      "type": "function",
      "constant": true
    },
    {
      "inputs": [
        {
          "internalType": "uint256",
          "name": "_crimeId",
          "type": "uint256"
        }
      ],
      "name": "getCrimeById",
      "outputs": [
        {
          "components": [
            {
              "internalType": "uint256",
              "name": "crimeId",
              "type": "uint256"
            },
            {
              "internalType": "address",
              "name": "reporterWalletAddress",
              "type": "address"
            },
            {
              "internalType": "uint256",
              "name": "timeStamp",
              "type": "uint256"
            },
            {
              "internalType": "string[]",
              "name": "location",
              "type": "string[]"
            },
            {
              "internalType": "string",
              "name": "crimeType",
              "type": "string"
            },
            {
              "internalType": "string[]",
              "name": "questionnaireAnswers",
              "type": "string[]"
            },
            {
              "internalType": "string",
              "name": "crimeDesc",
              "type": "string"
            },
            {
              "internalType": "bool",
              "name": "isSuspectKnown",
              "type": "bool"
            },
            {
              "internalType": "string[]",
              "name": "suspectInfoAnswers",
              "type": "string[]"
            },
            {
              "internalType": "bool",
              "name": "isVehiclePresent",
              "type": "bool"
            },
            {
              "internalType": "string[]",
              "name": "vehicleInfoAnswers",
              "type": "string[]"
            },
            {
              "internalType": "bool",
              "name": "isVictimKnown",
              "type": "bool"
            },
            {
              "internalType": "string[]",
              "name": "victimInfoAnswers",
              "type": "string[]"
            },
            {
              "internalType": "string",
              "name": "ipfsHash",
              "type": "string"
            },
            {
              "internalType": "string[]",
              "name": "fileNames",
              "type": "string[]"
            },
            {
              "internalType": "string[]",
              "name": "feedbacks",
              "type": "string[]"
            },
            {
              "internalType": "bool",
              "name": "isCaseActive",
              "type": "bool"
            }
          ],
          "internalType": "struct CrimeReport.Crime",
          "name": "",
          "type": "tuple"
        }
      ],
      "stateMutability": "view",
      "type": "function",
      "constant": true
    },
    {
      "inputs": [],
      "name": "totalCrimes",
      "outputs": [
        {
          "internalType": "uint256",
          "name": "",
          "type": "uint256"
        }
      ],
      "stateMutability": "view",
      "type": "function",
      "constant": true
    },
    {
      "inputs": [],
      "name": "getReporterWalletAddress",
      "outputs": [
        {
          "internalType": "address",
          "name": "",
          "type": "address"
        }
      ],
      "stateMutability": "view",
      "type": "function",
      "constant": true
    },
    {
      "inputs": [],
      "name": "getCrimeOfCurrentUser",
      "outputs": [
        {
          "components": [
            {
              "internalType": "uint256",
              "name": "crimeId",
              "type": "uint256"
            },
            {
              "internalType": "address",
              "name": "reporterWalletAddress",
              "type": "address"
            },
            {
              "internalType": "uint256",
              "name": "timeStamp",
              "type": "uint256"
            },
            {
              "internalType": "string[]",
              "name": "location",
              "type": "string[]"
            },
            {
              "internalType": "string",
              "name": "crimeType",
              "type": "string"
            },
            {
              "internalType": "string[]",
              "name": "questionnaireAnswers",
              "type": "string[]"
            },
            {
              "internalType": "string",
              "name": "crimeDesc",
              "type": "string"
            },
            {
              "internalType": "bool",
              "name": "isSuspectKnown",
              "type": "bool"
            },
            {
              "internalType": "string[]",
              "name": "suspectInfoAnswers",
              "type": "string[]"
            },
            {
              "internalType": "bool",
              "name": "isVehiclePresent",
              "type": "bool"
            },
            {
              "internalType": "string[]",
              "name": "vehicleInfoAnswers",
              "type": "string[]"
            },
            {
              "internalType": "bool",
              "name": "isVictimKnown",
              "type": "bool"
            },
            {
              "internalType": "string[]",
              "name": "victimInfoAnswers",
              "type": "string[]"
            },
            {
              "internalType": "string",
              "name": "ipfsHash",
              "type": "string"
            },
            {
              "internalType": "string[]",
              "name": "fileNames",
              "type": "string[]"
            },
            {
              "internalType": "string[]",
              "name": "feedbacks",
              "type": "string[]"
            },
            {
              "internalType": "bool",
              "name": "isCaseActive",
              "type": "bool"
            }
          ],
          "internalType": "struct CrimeReport.Crime[]",
          "name": "",
          "type": "tuple[]"
        }
      ],
      "stateMutability": "view",
      "type": "function",
      "constant": true
    },
    {
      "inputs": [
        {
          "internalType": "string",
          "name": "_city",
          "type": "string"
        }
      ],
      "name": "getCrimeOfCity",
      "outputs": [
        {
          "components": [
            {
              "internalType": "uint256",
              "name": "crimeId",
              "type": "uint256"
            },
            {
              "internalType": "address",
              "name": "reporterWalletAddress",
              "type": "address"
            },
            {
              "internalType": "uint256",
              "name": "timeStamp",
              "type": "uint256"
            },
            {
              "internalType": "string[]",
              "name": "location",
              "type": "string[]"
            },
            {
              "internalType": "string",
              "name": "crimeType",
              "type": "string"
            },
            {
              "internalType": "string[]",
              "name": "questionnaireAnswers",
              "type": "string[]"
            },
            {
              "internalType": "string",
              "name": "crimeDesc",
              "type": "string"
            },
            {
              "internalType": "bool",
              "name": "isSuspectKnown",
              "type": "bool"
            },
            {
              "internalType": "string[]",
              "name": "suspectInfoAnswers",
              "type": "string[]"
            },
            {
              "internalType": "bool",
              "name": "isVehiclePresent",
              "type": "bool"
            },
            {
              "internalType": "string[]",
              "name": "vehicleInfoAnswers",
              "type": "string[]"
            },
            {
              "internalType": "bool",
              "name": "isVictimKnown",
              "type": "bool"
            },
            {
              "internalType": "string[]",
              "name": "victimInfoAnswers",
              "type": "string[]"
            },
            {
              "internalType": "string",
              "name": "ipfsHash",
              "type": "string"
            },
            {
              "internalType": "string[]",
              "name": "fileNames",
              "type": "string[]"
            },
            {
              "internalType": "string[]",
              "name": "feedbacks",
              "type": "string[]"
            },
            {
              "internalType": "bool",
              "name": "isCaseActive",
              "type": "bool"
            }
          ],
          "internalType": "struct CrimeReport.Crime[]",
          "name": "",
          "type": "tuple[]"
        }
      ],
      "stateMutability": "view",
      "type": "function",
      "constant": true
    },
    {
      "inputs": [
        {
          "internalType": "uint32",
          "name": "_crimeId",
          "type": "uint32"
        }
      ],
      "name": "closeCase",
      "outputs": [],
      "stateMutability": "nonpayable",
      "type": "function"
    },
    {
      "inputs": [
        {
          "internalType": "uint256",
          "name": "_crimeId",
          "type": "uint256"
        },
        {
          "internalType": "string",
          "name": "_message",
          "type": "string"
        },
        {
          "internalType": "string",
          "name": "_from",
          "type": "string"
        }
      ],
      "name": "sendMessage",
      "outputs": [],
      "stateMutability": "nonpayable",
      "type": "function"
    },
    {
      "inputs": [
        {
          "internalType": "uint256",
          "name": "_crimeId",
          "type": "uint256"
        }
      ],
      "name": "getMessages",
      "outputs": [
        {
          "components": [
            {
              "internalType": "string",
              "name": "from",
              "type": "string"
            },
            {
              "internalType": "string",
              "name": "message",
              "type": "string"
            }
          ],
          "internalType": "struct CrimeReport.MESSAGE[]",
          "name": "",
          "type": "tuple[]"
        }
      ],
      "stateMutability": "view",
      "type": "function",
      "constant": true
    },
    {
      "inputs": [],
      "name": "getCrimeStatistics",
      "outputs": [
        {
          "components": [
            {
              "internalType": "uint16",
              "name": "murderCases",
              "type": "uint16"
            },
            {
              "internalType": "uint16",
              "name": "theftCases",
              "type": "uint16"
            },
            {
              "internalType": "uint16",
              "name": "drugsCases",
              "type": "uint16"
            },
            {
              "internalType": "uint16",
              "name": "harassmentCases",
              "type": "uint16"
            }
          ],
          "internalType": "struct CrimeReport.Statistics",
          "name": "",
          "type": "tuple"
        }
      ],
      "stateMutability": "view",
      "type": "function",
      "constant": true
    },
    {
      "inputs": [],
      "name": "getActiveDeativeCases",
      "outputs": [
        {
          "internalType": "uint16",
          "name": "",
          "type": "uint16"
        },
        {
          "internalType": "uint16",
          "name": "",
          "type": "uint16"
        }
      ],
      "stateMutability": "view",
      "type": "function",
      "constant": true
    },
    {
      "inputs": [],
      "name": "getStateStatistics",
      "outputs": [
        {
          "components": [
            {
              "internalType": "uint16",
              "name": "maharashtraCases",
              "type": "uint16"
            },
            {
              "internalType": "uint16",
              "name": "tamilnaduCases",
              "type": "uint16"
            },
            {
              "internalType": "uint16",
              "name": "pondicherryCases",
              "type": "uint16"
            },
            {
              "internalType": "uint16",
              "name": "uttarPradeshCases",
              "type": "uint16"
            }
          ],
          "internalType": "struct CrimeReport.StateCases",
          "name": "",
          "type": "tuple"
        }
      ],
      "stateMutability": "view",
      "type": "function",
      "constant": true
    },
    {
      "inputs": [
        {
          "internalType": "string",
          "name": "_a",
          "type": "string"
        },
        {
          "internalType": "string",
          "name": "_b",
          "type": "string"
        }
      ],
      "name": "compare",
      "outputs": [
        {
          "internalType": "int256",
          "name": "",
          "type": "int256"
        }
      ],
      "stateMutability": "pure",
      "type": "function",
      "constant": true
    },
    {
      "inputs": [
        {
          "internalType": "string",
          "name": "_a",
          "type": "string"
        },
        {
          "internalType": "string",
          "name": "_b",
          "type": "string"
        }
      ],
      "name": "equal",
      "outputs": [
        {
          "internalType": "bool",
          "name": "",
          "type": "bool"
        }
      ],
      "stateMutability": "pure",
      "type": "function",
      "constant": true
    },
    {
      "inputs": [
        {
          "internalType": "string",
          "name": "_date",
          "type": "string"
        }
      ],
      "name": "countTipsOfUsers",
      "outputs": [
        {
          "internalType": "bool",
          "name": "",
          "type": "bool"
        }
      ],
      "stateMutability": "nonpayable",
      "type": "function"
    }
  ],
  "bytecode": "0x608060405234801561001057600080fd5b50615482806100206000396000f3fe608060405234801561001057600080fd5b50600436106101165760003560e01c8063749b5e52116100a2578063c725114311610071578063c7251143146102f5578063cc8a9d7e14610325578063cd5813eb14610343578063f359061d14610362578063f63fcf381461039257610116565b8063749b5e5214610259578063a4881afd14610289578063ae36853d146102a7578063b46b6d60146102d757610116565b806346bdca9a116100e957806346bdca9a146101b55780634c253551146101e55780635a61e48d1461020157806368b3275b1461021f5780636b561b2f1461023d57610116565b806305608f641461011b57806314034a741461013957806320b0c9d6146101695780633a96fdd714610185575b600080fd5b6101236103c2565b6040516101309190613f50565b60405180910390f35b610153600480360381019061014e91906140c5565b6103cf565b6040516101609190614528565b60405180910390f35b610183600480360381019061017e9190614576565b610cc8565b005b61019f600480360381019061019a91906145d2565b610d24565b6040516101ac9190614663565b60405180910390f35b6101cf60048036038101906101ca91906145d2565b610f00565b6040516101dc919061468d565b60405180910390f35b6101ff60048036038101906101fa91906146e4565b610f16565b005b610209610f98565b6040516102169190614783565b60405180910390f35b610227611032565b60405161023491906147ad565b60405180910390f35b610257600480360381019061025291906147c8565b61103a565b005b610273600480360381019061026e9190614853565b6110c5565b6040516102809190614a2c565b60405180910390f35b61029161197d565b60405161029e9190614528565b60405180910390f35b6102c160048036038101906102bc9190614853565b612258565b6040516102ce9190614b54565b60405180910390f35b6102df6123ee565b6040516102ec9190614528565b60405180910390f35b61030f600480360381019061030a9190614853565b612d06565b60405161031c9190614bfc565b60405180910390f35b61032d612e04565b60405161033a9190614c73565b60405180910390f35b61034b612e9e565b604051610359929190614c9d565b60405180910390f35b61037c600480360381019061037791906140c5565b612ee1565b604051610389919061468d565b60405180910390f35b6103ac60048036038101906103a79190614dac565b612ffa565b6040516103b9919061468d565b60405180910390f35b6000600380549050905090565b60606006826040516103e19190614ff4565b9081526020016040518091039020805480602002602001604051908101604052809291908181526020016000905b82821015610cbd578382906000526020600020906011020160405180610220016040529081600082015481526020016001820160009054906101000a900473ffffffffffffffffffffffffffffffffffffffff1673ffffffffffffffffffffffffffffffffffffffff1673ffffffffffffffffffffffffffffffffffffffff1681526020016002820154815260200160038201805480602002602001604051908101604052809291908181526020016000905b8282101561056e5783829060005260206000200180546104e19061503a565b80601f016020809104026020016040519081016040528092919081815260200182805461050d9061503a565b801561055a5780601f1061052f5761010080835404028352916020019161055a565b820191906000526020600020905b81548152906001019060200180831161053d57829003601f168201915b5050505050815260200190600101906104c2565b5050505081526020016004820180546105869061503a565b80601f01602080910402602001604051908101604052809291908181526020018280546105b29061503a565b80156105ff5780601f106105d4576101008083540402835291602001916105ff565b820191906000526020600020905b8154815290600101906020018083116105e257829003601f168201915b5050505050815260200160058201805480602002602001604051908101604052809291908181526020016000905b828210156106d957838290600052602060002001805461064c9061503a565b80601f01602080910402602001604051908101604052809291908181526020018280546106789061503a565b80156106c55780601f1061069a576101008083540402835291602001916106c5565b820191906000526020600020905b8154815290600101906020018083116106a857829003601f168201915b50505050508152602001906001019061062d565b5050505081526020016006820180546106f19061503a565b80601f016020809104026020016040519081016040528092919081815260200182805461071d9061503a565b801561076a5780601f1061073f5761010080835404028352916020019161076a565b820191906000526020600020905b81548152906001019060200180831161074d57829003601f168201915b505050505081526020016007820160009054906101000a900460ff1615151515815260200160088201805480602002602001604051908101604052809291908181526020016000905b8282101561085f5783829060005260206000200180546107d29061503a565b80601f01602080910402602001604051908101604052809291908181526020018280546107fe9061503a565b801561084b5780601f106108205761010080835404028352916020019161084b565b820191906000526020600020905b81548152906001019060200180831161082e57829003601f168201915b5050505050815260200190600101906107b3565b5050505081526020016009820160009054906101000a900460ff16151515158152602001600a8201805480602002602001604051908101604052809291908181526020016000905b828210156109535783829060005260206000200180546108c69061503a565b80601f01602080910402602001604051908101604052809291908181526020018280546108f29061503a565b801561093f5780601f106109145761010080835404028352916020019161093f565b820191906000526020600020905b81548152906001019060200180831161092257829003601f168201915b5050505050815260200190600101906108a7565b505050508152602001600b820160009054906101000a900460ff16151515158152602001600c8201805480602002602001604051908101604052809291908181526020016000905b82821015610a475783829060005260206000200180546109ba9061503a565b80601f01602080910402602001604051908101604052809291908181526020018280546109e69061503a565b8015610a335780601f10610a0857610100808354040283529160200191610a33565b820191906000526020600020905b815481529060010190602001808311610a1657829003601f168201915b50505050508152602001906001019061099b565b505050508152602001600d82018054610a5f9061503a565b80601f0160208091040260200160405190810160405280929190818152602001828054610a8b9061503a565b8015610ad85780601f10610aad57610100808354040283529160200191610ad8565b820191906000526020600020905b815481529060010190602001808311610abb57829003601f168201915b50505050508152602001600e8201805480602002602001604051908101604052809291908181526020016000905b82821015610bb2578382906000526020600020018054610b259061503a565b80601f0160208091040260200160405190810160405280929190818152602001828054610b519061503a565b8015610b9e5780601f10610b7357610100808354040283529160200191610b9e565b820191906000526020600020905b815481529060010190602001808311610b8157829003601f168201915b505050505081526020019060010190610b06565b505050508152602001600f8201805480602002602001604051908101604052809291908181526020016000905b82821015610c8b578382906000526020600020018054610bfe9061503a565b80601f0160208091040260200160405190810160405280929190818152602001828054610c2a9061503a565b8015610c775780601f10610c4c57610100808354040283529160200191610c77565b820191906000526020600020905b815481529060010190602001808311610c5a57829003601f168201915b505050505081526020019060010190610bdf565b5050505081526020016010820160009054906101000a900460ff1615151515815250508152602001906001019061040f565b505050509050919050565b60038281548110610cdc57610cdb61506b565b5b9060005260206000209060110201600f0181908060018154018082558091505060019003906000526020600020016000909190919091509081610d1f9190615246565b505050565b60008083905060008390506000825190508082511015610d4357815190505b60005b81811015610ea657828181518110610d6157610d6061506b565b5b602001015160f81c60f81b7effffffffffffffffffffffffffffffffffffffffffffffffffffffffffffff1916848281518110610da157610da061506b565b5b602001015160f81c60f81b7effffffffffffffffffffffffffffffffffffffffffffffffffffffffffffff19161015610e00577fffffffffffffffffffffffffffffffffffffffffffffffffffffffffffffffff945050505050610efa565b828181518110610e1357610e1261506b565b5b602001015160f81c60f81b7effffffffffffffffffffffffffffffffffffffffffffffffffffffffffffff1916848281518110610e5357610e5261506b565b5b602001015160f81c60f81b7effffffffffffffffffffffffffffffffffffffffffffffffffffffffffffff19161115610e93576001945050505050610efa565b8080610e9e90615347565b915050610d46565b50815183511015610edc577fffffffffffffffffffffffffffffffffffffffffffffffffffffffffffffffff9350505050610efa565b815183511115610ef25760019350505050610efa565b600093505050505b92915050565b600080610f0d8484610d24565b14905092915050565b6001600081819054906101000a900461ffff1680929190610f369061538f565b91906101000a81548161ffff021916908361ffff16021790555050600060038263ffffffff1681548110610f6d57610f6c61506b565b5b906000526020600020906011020160100160006101000a81548160ff02191690831515021790555050565b610fa0613d31565b60046040518060800160405290816000820160009054906101000a900461ffff1661ffff1661ffff1681526020016000820160029054906101000a900461ffff1661ffff1661ffff1681526020016000820160049054906101000a900461ffff1661ffff1661ffff1681526020016000820160069054906101000a900461ffff1661ffff1661ffff1681525050905090565b600033905090565b611042613d69565b8281602001819052508181600001819052506002600085815260200190815260200160002081908060018154018082558091505060019003906000526020600020906002020160009091909190915060008201518160000190816110a69190615246565b5060208201518160010190816110bc9190615246565b50505050505050565b6110cd613d83565b600382815481106110e1576110e061506b565b5b906000526020600020906011020160405180610220016040529081600082015481526020016001820160009054906101000a900473ffffffffffffffffffffffffffffffffffffffff1673ffffffffffffffffffffffffffffffffffffffff1673ffffffffffffffffffffffffffffffffffffffff1681526020016002820154815260200160038201805480602002602001604051908101604052809291908181526020016000905b828210156112365783829060005260206000200180546111a99061503a565b80601f01602080910402602001604051908101604052809291908181526020018280546111d59061503a565b80156112225780601f106111f757610100808354040283529160200191611222565b820191906000526020600020905b81548152906001019060200180831161120557829003601f168201915b50505050508152602001906001019061118a565b50505050815260200160048201805461124e9061503a565b80601f016020809104026020016040519081016040528092919081815260200182805461127a9061503a565b80156112c75780601f1061129c576101008083540402835291602001916112c7565b820191906000526020600020905b8154815290600101906020018083116112aa57829003601f168201915b5050505050815260200160058201805480602002602001604051908101604052809291908181526020016000905b828210156113a15783829060005260206000200180546113149061503a565b80601f01602080910402602001604051908101604052809291908181526020018280546113409061503a565b801561138d5780601f106113625761010080835404028352916020019161138d565b820191906000526020600020905b81548152906001019060200180831161137057829003601f168201915b5050505050815260200190600101906112f5565b5050505081526020016006820180546113b99061503a565b80601f01602080910402602001604051908101604052809291908181526020018280546113e59061503a565b80156114325780601f1061140757610100808354040283529160200191611432565b820191906000526020600020905b81548152906001019060200180831161141557829003601f168201915b505050505081526020016007820160009054906101000a900460ff1615151515815260200160088201805480602002602001604051908101604052809291908181526020016000905b8282101561152757838290600052602060002001805461149a9061503a565b80601f01602080910402602001604051908101604052809291908181526020018280546114c69061503a565b80156115135780601f106114e857610100808354040283529160200191611513565b820191906000526020600020905b8154815290600101906020018083116114f657829003601f168201915b50505050508152602001906001019061147b565b5050505081526020016009820160009054906101000a900460ff16151515158152602001600a8201805480602002602001604051908101604052809291908181526020016000905b8282101561161b57838290600052602060002001805461158e9061503a565b80601f01602080910402602001604051908101604052809291908181526020018280546115ba9061503a565b80156116075780601f106115dc57610100808354040283529160200191611607565b820191906000526020600020905b8154815290600101906020018083116115ea57829003601f168201915b50505050508152602001906001019061156f565b505050508152602001600b820160009054906101000a900460ff16151515158152602001600c8201805480602002602001604051908101604052809291908181526020016000905b8282101561170f5783829060005260206000200180546116829061503a565b80601f01602080910402602001604051908101604052809291908181526020018280546116ae9061503a565b80156116fb5780601f106116d0576101008083540402835291602001916116fb565b820191906000526020600020905b8154815290600101906020018083116116de57829003601f168201915b505050505081526020019060010190611663565b505050508152602001600d820180546117279061503a565b80601f01602080910402602001604051908101604052809291908181526020018280546117539061503a565b80156117a05780601f10611775576101008083540402835291602001916117a0565b820191906000526020600020905b81548152906001019060200180831161178357829003601f168201915b50505050508152602001600e8201805480602002602001604051908101604052809291908181526020016000905b8282101561187a5783829060005260206000200180546117ed9061503a565b80601f01602080910402602001604051908101604052809291908181526020018280546118199061503a565b80156118665780601f1061183b57610100808354040283529160200191611866565b820191906000526020600020905b81548152906001019060200180831161184957829003601f168201915b5050505050815260200190600101906117ce565b505050508152602001600f8201805480602002602001604051908101604052809291908181526020016000905b828210156119535783829060005260206000200180546118c69061503a565b80601f01602080910402602001604051908101604052809291908181526020018280546118f29061503a565b801561193f5780601f106119145761010080835404028352916020019161193f565b820191906000526020600020905b81548152906001019060200180831161192257829003601f168201915b5050505050815260200190600101906118a7565b5050505081526020016010820160009054906101000a900460ff1615151515815250509050919050565b60606003805480602002602001604051908101604052809291908181526020016000905b8282101561224f578382906000526020600020906011020160405180610220016040529081600082015481526020016001820160009054906101000a900473ffffffffffffffffffffffffffffffffffffffff1673ffffffffffffffffffffffffffffffffffffffff1673ffffffffffffffffffffffffffffffffffffffff1681526020016002820154815260200160038201805480602002602001604051908101604052809291908181526020016000905b82821015611b00578382906000526020600020018054611a739061503a565b80601f0160208091040260200160405190810160405280929190818152602001828054611a9f9061503a565b8015611aec5780601f10611ac157610100808354040283529160200191611aec565b820191906000526020600020905b815481529060010190602001808311611acf57829003601f168201915b505050505081526020019060010190611a54565b505050508152602001600482018054611b189061503a565b80601f0160208091040260200160405190810160405280929190818152602001828054611b449061503a565b8015611b915780601f10611b6657610100808354040283529160200191611b91565b820191906000526020600020905b815481529060010190602001808311611b7457829003601f168201915b5050505050815260200160058201805480602002602001604051908101604052809291908181526020016000905b82821015611c6b578382906000526020600020018054611bde9061503a565b80601f0160208091040260200160405190810160405280929190818152602001828054611c0a9061503a565b8015611c575780601f10611c2c57610100808354040283529160200191611c57565b820191906000526020600020905b815481529060010190602001808311611c3a57829003601f168201915b505050505081526020019060010190611bbf565b505050508152602001600682018054611c839061503a565b80601f0160208091040260200160405190810160405280929190818152602001828054611caf9061503a565b8015611cfc5780601f10611cd157610100808354040283529160200191611cfc565b820191906000526020600020905b815481529060010190602001808311611cdf57829003601f168201915b505050505081526020016007820160009054906101000a900460ff1615151515815260200160088201805480602002602001604051908101604052809291908181526020016000905b82821015611df1578382906000526020600020018054611d649061503a565b80601f0160208091040260200160405190810160405280929190818152602001828054611d909061503a565b8015611ddd5780601f10611db257610100808354040283529160200191611ddd565b820191906000526020600020905b815481529060010190602001808311611dc057829003601f168201915b505050505081526020019060010190611d45565b5050505081526020016009820160009054906101000a900460ff16151515158152602001600a8201805480602002602001604051908101604052809291908181526020016000905b82821015611ee5578382906000526020600020018054611e589061503a565b80601f0160208091040260200160405190810160405280929190818152602001828054611e849061503a565b8015611ed15780601f10611ea657610100808354040283529160200191611ed1565b820191906000526020600020905b815481529060010190602001808311611eb457829003601f168201915b505050505081526020019060010190611e39565b505050508152602001600b820160009054906101000a900460ff16151515158152602001600c8201805480602002602001604051908101604052809291908181526020016000905b82821015611fd9578382906000526020600020018054611f4c9061503a565b80601f0160208091040260200160405190810160405280929190818152602001828054611f789061503a565b8015611fc55780601f10611f9a57610100808354040283529160200191611fc5565b820191906000526020600020905b815481529060010190602001808311611fa857829003601f168201915b505050505081526020019060010190611f2d565b505050508152602001600d82018054611ff19061503a565b80601f016020809104026020016040519081016040528092919081815260200182805461201d9061503a565b801561206a5780601f1061203f5761010080835404028352916020019161206a565b820191906000526020600020905b81548152906001019060200180831161204d57829003601f168201915b50505050508152602001600e8201805480602002602001604051908101604052809291908181526020016000905b828210156121445783829060005260206000200180546120b79061503a565b80601f01602080910402602001604051908101604052809291908181526020018280546120e39061503a565b80156121305780601f1061210557610100808354040283529160200191612130565b820191906000526020600020905b81548152906001019060200180831161211357829003601f168201915b505050505081526020019060010190612098565b505050508152602001600f8201805480602002602001604051908101604052809291908181526020016000905b8282101561221d5783829060005260206000200180546121909061503a565b80601f01602080910402602001604051908101604052809291908181526020018280546121bc9061503a565b80156122095780601f106121de57610100808354040283529160200191612209565b820191906000526020600020905b8154815290600101906020018083116121ec57829003601f168201915b505050505081526020019060010190612171565b5050505081526020016010820160009054906101000a900460ff161515151581525050815260200190600101906119a1565b50505050905090565b606060026000838152602001908152602001600020805480602002602001604051908101604052809291908181526020016000905b828210156123e357838290600052602060002090600202016040518060400160405290816000820180546122c09061503a565b80601f01602080910402602001604051908101604052809291908181526020018280546122ec9061503a565b80156123395780601f1061230e57610100808354040283529160200191612339565b820191906000526020600020905b81548152906001019060200180831161231c57829003601f168201915b505050505081526020016001820180546123529061503a565b80601f016020809104026020016040519081016040528092919081815260200182805461237e9061503a565b80156123cb5780601f106123a0576101008083540402835291602001916123cb565b820191906000526020600020905b8154815290600101906020018083116123ae57829003601f168201915b5050505050815250508152602001906001019061228d565b505050509050919050565b6060600560003373ffffffffffffffffffffffffffffffffffffffff1673ffffffffffffffffffffffffffffffffffffffff168152602001908152602001600020805480602002602001604051908101604052809291908181526020016000905b82821015612cfd578382906000526020600020906011020160405180610220016040529081600082015481526020016001820160009054906101000a900473ffffffffffffffffffffffffffffffffffffffff1673ffffffffffffffffffffffffffffffffffffffff1673ffffffffffffffffffffffffffffffffffffffff1681526020016002820154815260200160038201805480602002602001604051908101604052809291908181526020016000905b828210156125ae5783829060005260206000200180546125219061503a565b80601f016020809104026020016040519081016040528092919081815260200182805461254d9061503a565b801561259a5780601f1061256f5761010080835404028352916020019161259a565b820191906000526020600020905b81548152906001019060200180831161257d57829003601f168201915b505050505081526020019060010190612502565b5050505081526020016004820180546125c69061503a565b80601f01602080910402602001604051908101604052809291908181526020018280546125f29061503a565b801561263f5780601f106126145761010080835404028352916020019161263f565b820191906000526020600020905b81548152906001019060200180831161262257829003601f168201915b5050505050815260200160058201805480602002602001604051908101604052809291908181526020016000905b8282101561271957838290600052602060002001805461268c9061503a565b80601f01602080910402602001604051908101604052809291908181526020018280546126b89061503a565b80156127055780601f106126da57610100808354040283529160200191612705565b820191906000526020600020905b8154815290600101906020018083116126e857829003601f168201915b50505050508152602001906001019061266d565b5050505081526020016006820180546127319061503a565b80601f016020809104026020016040519081016040528092919081815260200182805461275d9061503a565b80156127aa5780601f1061277f576101008083540402835291602001916127aa565b820191906000526020600020905b81548152906001019060200180831161278d57829003601f168201915b505050505081526020016007820160009054906101000a900460ff1615151515815260200160088201805480602002602001604051908101604052809291908181526020016000905b8282101561289f5783829060005260206000200180546128129061503a565b80601f016020809104026020016040519081016040528092919081815260200182805461283e9061503a565b801561288b5780601f106128605761010080835404028352916020019161288b565b820191906000526020600020905b81548152906001019060200180831161286e57829003601f168201915b5050505050815260200190600101906127f3565b5050505081526020016009820160009054906101000a900460ff16151515158152602001600a8201805480602002602001604051908101604052809291908181526020016000905b828210156129935783829060005260206000200180546129069061503a565b80601f01602080910402602001604051908101604052809291908181526020018280546129329061503a565b801561297f5780601f106129545761010080835404028352916020019161297f565b820191906000526020600020905b81548152906001019060200180831161296257829003601f168201915b5050505050815260200190600101906128e7565b505050508152602001600b820160009054906101000a900460ff16151515158152602001600c8201805480602002602001604051908101604052809291908181526020016000905b82821015612a875783829060005260206000200180546129fa9061503a565b80601f0160208091040260200160405190810160405280929190818152602001828054612a269061503a565b8015612a735780601f10612a4857610100808354040283529160200191612a73565b820191906000526020600020905b815481529060010190602001808311612a5657829003601f168201915b5050505050815260200190600101906129db565b505050508152602001600d82018054612a9f9061503a565b80601f0160208091040260200160405190810160405280929190818152602001828054612acb9061503a565b8015612b185780601f10612aed57610100808354040283529160200191612b18565b820191906000526020600020905b815481529060010190602001808311612afb57829003601f168201915b50505050508152602001600e8201805480602002602001604051908101604052809291908181526020016000905b82821015612bf2578382906000526020600020018054612b659061503a565b80601f0160208091040260200160405190810160405280929190818152602001828054612b919061503a565b8015612bde5780601f10612bb357610100808354040283529160200191612bde565b820191906000526020600020905b815481529060010190602001808311612bc157829003601f168201915b505050505081526020019060010190612b46565b505050508152602001600f8201805480602002602001604051908101604052809291908181526020016000905b82821015612ccb578382906000526020600020018054612c3e9061503a565b80601f0160208091040260200160405190810160405280929190818152602001828054612c6a9061503a565b8015612cb75780601f10612c8c57610100808354040283529160200191612cb7565b820191906000526020600020905b815481529060010190602001808311612c9a57829003601f168201915b505050505081526020019060010190612c1f565b5050505081526020016010820160009054906101000a900460ff1615151515815250508152602001906001019061244f565b50505050905090565b606060038281548110612d1c57612d1b61506b565b5b9060005260206000209060110201600f01805480602002602001604051908101604052809291908181526020016000905b82821015612df9578382906000526020600020018054612d6c9061503a565b80601f0160208091040260200160405190810160405280929190818152602001828054612d989061503a565b8015612de55780601f10612dba57610100808354040283529160200191612de5565b820191906000526020600020905b815481529060010190602001808311612dc857829003601f168201915b505050505081526020019060010190612d4d565b505050509050919050565b612e0c613e25565b60006040518060800160405290816000820160009054906101000a900461ffff1661ffff1661ffff1681526020016000820160029054906101000a900461ffff1661ffff1661ffff1681526020016000820160049054906101000a900461ffff1661ffff1661ffff1681526020016000820160069054906101000a900461ffff1661ffff1661ffff1681525050905090565b600080600160009054906101000a900461ffff16600160009054906101000a900461ffff1661ffff16612ecf6103c2565b612ed991906153b8565b915091509091565b60006003600783604051612ef59190614ff4565b908152602001604051809103902060003373ffffffffffffffffffffffffffffffffffffffff1673ffffffffffffffffffffffffffffffffffffffff16815260200190815260200160002060009054906101000a900460ff1660ff1610612f5f5760009050612ff5565b600782604051612f6f9190614ff4565b908152602001604051809103902060003373ffffffffffffffffffffffffffffffffffffffff1673ffffffffffffffffffffffffffffffffffffffff168152602001908152602001600020600081819054906101000a900460ff1680929190612fd7906153f9565b91906101000a81548160ff021916908360ff16021790555050600190505b919050565b600061300582612ee1565b6130125760009050613d22565b61301a613d83565b600380549050816000018181525050613031611032565b816020019073ffffffffffffffffffffffffffffffffffffffff16908173ffffffffffffffffffffffffffffffffffffffff16815250508c8160400181815250508b81606001819052508a8160800181905250898160a00181905250888160c0018190525060018161020001901515908115158152505060008160e00190151590811515815250506000885111156130df5760018160e0019015159081151581525050878161010001819052505b60008161012001901515908115158152505060008751111561311857600181610120019015159081151581525050868161014001819052505b60008161016001901515908115158152505060008651111561315157600181610160019015159081151581525050858161018001819052505b84816101a0018190525083816101c00181905250606080826101e0018190525060038290806001815401808255809150506001900390600052602060002090601102016000909190919091506000820151816000015560208201518160010160006101000a81548173ffffffffffffffffffffffffffffffffffffffff021916908373ffffffffffffffffffffffffffffffffffffffff160217905550604082015181600201556060820151816003019080519060200190613214929190613e5d565b50608082015181600401908161322a9190615246565b5060a0820151816005019080519060200190613247929190613e5d565b5060c082015181600601908161325d9190615246565b5060e08201518160070160006101000a81548160ff02191690831515021790555061010082015181600801908051906020019061329b929190613e5d565b506101208201518160090160006101000a81548160ff02191690831515021790555061014082015181600a0190805190602001906132da929190613e5d565b5061016082015181600b0160006101000a81548160ff02191690831515021790555061018082015181600c019080519060200190613319929190613e5d565b506101a082015181600d0190816133309190615246565b506101c082015181600e01908051906020019061334e929190613e5d565b506101e082015181600f01908051906020019061336c929190613e5d565b506102008201518160100160006101000a81548160ff0219169083151502179055505050600560003373ffffffffffffffffffffffffffffffffffffffff1673ffffffffffffffffffffffffffffffffffffffff1681526020019081526020016000208290806001815401808255809150506001900390600052602060002090601102016000909190919091506000820151816000015560208201518160010160006101000a81548173ffffffffffffffffffffffffffffffffffffffff021916908373ffffffffffffffffffffffffffffffffffffffff160217905550604082015181600201556060820151816003019080519060200190613470929190613e5d565b5060808201518160040190816134869190615246565b5060a08201518160050190805190602001906134a3929190613e5d565b5060c08201518160060190816134b99190615246565b5060e08201518160070160006101000a81548160ff0219169083151502179055506101008201518160080190805190602001906134f7929190613e5d565b506101208201518160090160006101000a81548160ff02191690831515021790555061014082015181600a019080519060200190613536929190613e5d565b5061016082015181600b0160006101000a81548160ff02191690831515021790555061018082015181600c019080519060200190613575929190613e5d565b506101a082015181600d01908161358c9190615246565b506101c082015181600e0190805190602001906135aa929190613e5d565b506101e082015181600f0190805190602001906135c8929190613e5d565b506102008201518160100160006101000a81548160ff021916908315150217905550505060068d6001815181106136025761360161506b565b5b60200260200101516040516136179190614ff4565b90815260200160405180910390208290806001815401808255809150506001900390600052602060002090601102016000909190919091506000820151816000015560208201518160010160006101000a81548173ffffffffffffffffffffffffffffffffffffffff021916908373ffffffffffffffffffffffffffffffffffffffff1602179055506040820151816002015560608201518160030190805190602001906136c6929190613e5d565b5060808201518160040190816136dc9190615246565b5060a08201518160050190805190602001906136f9929190613e5d565b5060c082015181600601908161370f9190615246565b5060e08201518160070160006101000a81548160ff02191690831515021790555061010082015181600801908051906020019061374d929190613e5d565b506101208201518160090160006101000a81548160ff02191690831515021790555061014082015181600a01908051906020019061378c929190613e5d565b5061016082015181600b0160006101000a81548160ff02191690831515021790555061018082015181600c0190805190602001906137cb929190613e5d565b506101a082015181600d0190816137e29190615246565b506101c082015181600e019080519060200190613800929190613e5d565b506101e082015181600f01908051906020019061381e929190613e5d565b506102008201518160100160006101000a81548160ff02191690831515021790555050506138818c6040518060400160405280600681526020017f4d75726465720000000000000000000000000000000000000000000000000000815250610f00565b156138c9576004600001600081819054906101000a900461ffff16809291906138a990615422565b91906101000a81548161ffff021916908361ffff16021790555050613a5d565b6139088c6040518060400160405280600581526020017f5468656674000000000000000000000000000000000000000000000000000000815250610f00565b15613950576004600001600281819054906101000a900461ffff168092919061393090615422565b91906101000a81548161ffff021916908361ffff16021790555050613a5c565b61398f8c6040518060400160405280600581526020017f4472756773000000000000000000000000000000000000000000000000000000815250610f00565b156139d7576004600001600481819054906101000a900461ffff16809291906139b790615422565b91906101000a81548161ffff021916908361ffff16021790555050613a5b565b613a168c6040518060400160405280600a81526020017f4861726173736d656e7400000000000000000000000000000000000000000000815250610f00565b15613a5a576004600001600681819054906101000a900461ffff1680929190613a3e90615422565b91906101000a81548161ffff021916908361ffff160217905550505b5b5b5b613ab78d600081518110613a7457613a7361506b565b5b60200260200101516040518060400160405280600b81526020017f4d61686172617368747261000000000000000000000000000000000000000000815250610f00565b15613afe5760008001600081819054906101000a900461ffff1680929190613ade90615422565b91906101000a81548161ffff021916908361ffff16021790555050613ce0565b613b588d600081518110613b1557613b1461506b565b5b60200260200101516040518060400160405280600d81526020017f5574746172205072616465736800000000000000000000000000000000000000815250610f00565b15613b9f5760008001600681819054906101000a900461ffff1680929190613b7f90615422565b91906101000a81548161ffff021916908361ffff16021790555050613cdf565b613bf98d600081518110613bb657613bb561506b565b5b60200260200101516040518060400160405280600b81526020017f506f6e6469636865727279000000000000000000000000000000000000000000815250610f00565b15613c405760008001600481819054906101000a900461ffff1680929190613c2090615422565b91906101000a81548161ffff021916908361ffff16021790555050613cde565b613c9a8d600081518110613c5757613c5661506b565b5b60200260200101516040518060400160405280600a81526020017f54616d696c204e61647500000000000000000000000000000000000000000000815250610f00565b15613cdd5760008001600281819054906101000a900461ffff1680929190613cc190615422565b91906101000a81548161ffff021916908361ffff160217905550505b5b5b5b6001600081819054906101000a900461ffff1680929190613d0090615422565b91906101000a81548161ffff021916908361ffff160217905550506001925050505b9b9a5050505050505050505050565b6040518060800160405280600061ffff168152602001600061ffff168152602001600061ffff168152602001600061ffff1681525090565b604051806040016040528060608152602001606081525090565b60405180610220016040528060008152602001600073ffffffffffffffffffffffffffffffffffffffff16815260200160008152602001606081526020016060815260200160608152602001606081526020016000151581526020016060815260200160001515815260200160608152602001600015158152602001606081526020016060815260200160608152602001606081526020016000151581525090565b6040518060800160405280600061ffff168152602001600061ffff168152602001600061ffff168152602001600061ffff1681525090565b828054828255906000526020600020908101928215613ea5579160200282015b82811115613ea4578251829081613e949190615246565b5091602001919060010190613e7d565b5b509050613eb29190613eb6565b5090565b5b80821115613ed65760008181613ecd9190613eda565b50600101613eb7565b5090565b508054613ee69061503a565b6000825580601f10613ef85750613f17565b601f016020900490600052602060002090810190613f169190613f1a565b5b50565b5b80821115613f33576000816000905550600101613f1b565b5090565b6000819050919050565b613f4a81613f37565b82525050565b6000602082019050613f656000830184613f41565b92915050565b6000604051905090565b600080fd5b600080fd5b600080fd5b600080fd5b6000601f19601f8301169050919050565b7f4e487b7100000000000000000000000000000000000000000000000000000000600052604160045260246000fd5b613fd282613f89565b810181811067ffffffffffffffff82111715613ff157613ff0613f9a565b5b80604052505050565b6000614004613f6b565b90506140108282613fc9565b919050565b600067ffffffffffffffff8211156140305761402f613f9a565b5b61403982613f89565b9050602081019050919050565b82818337600083830152505050565b600061406861406384614015565b613ffa565b90508281526020810184848401111561408457614083613f84565b5b61408f848285614046565b509392505050565b600082601f8301126140ac576140ab613f7f565b5b81356140bc848260208601614055565b91505092915050565b6000602082840312156140db576140da613f75565b5b600082013567ffffffffffffffff8111156140f9576140f8613f7a565b5b61410584828501614097565b91505092915050565b600081519050919050565b600082825260208201905092915050565b6000819050602082019050919050565b61414381613f37565b82525050565b600073ffffffffffffffffffffffffffffffffffffffff82169050919050565b600061417482614149565b9050919050565b61418481614169565b82525050565b600081519050919050565b600082825260208201905092915050565b6000819050602082019050919050565b600081519050919050565b600082825260208201905092915050565b60005b838110156141f05780820151818401526020810190506141d5565b60008484015250505050565b6000614207826141b6565b61421181856141c1565b93506142218185602086016141d2565b61422a81613f89565b840191505092915050565b600061424183836141fc565b905092915050565b6000602082019050919050565b60006142618261418a565b61426b8185614195565b93508360208202850161427d856141a6565b8060005b858110156142b9578484038952815161429a8582614235565b94506142a583614249565b925060208a01995050600181019050614281565b50829750879550505050505092915050565b60008115159050919050565b6142e0816142cb565b82525050565b6000610220830160008301516142ff600086018261413a565b506020830151614312602086018261417b565b506040830151614325604086018261413a565b506060830151848203606086015261433d8282614256565b9150506080830151848203608086015261435782826141fc565b91505060a083015184820360a08601526143718282614256565b91505060c083015184820360c086015261438b82826141fc565b91505060e08301516143a060e08601826142d7565b506101008301518482036101008601526143ba8282614256565b9150506101208301516143d16101208601826142d7565b506101408301518482036101408601526143eb8282614256565b9150506101608301516144026101608601826142d7565b5061018083015184820361018086015261441c8282614256565b9150506101a08301518482036101a086015261443882826141fc565b9150506101c08301518482036101c08601526144548282614256565b9150506101e08301518482036101e08601526144708282614256565b9150506102008301516144876102008601826142d7565b508091505092915050565b600061449e83836142e6565b905092915050565b6000602082019050919050565b60006144be8261410e565b6144c88185614119565b9350836020820285016144da8561412a565b8060005b8581101561451657848403895281516144f78582614492565b9450614502836144a6565b925060208a019950506001810190506144de565b50829750879550505050505092915050565b6000602082019050818103600083015261454281846144b3565b905092915050565b61455381613f37565b811461455e57600080fd5b50565b6000813590506145708161454a565b92915050565b6000806040838503121561458d5761458c613f75565b5b600061459b85828601614561565b925050602083013567ffffffffffffffff8111156145bc576145bb613f7a565b5b6145c885828601614097565b9150509250929050565b600080604083850312156145e9576145e8613f75565b5b600083013567ffffffffffffffff81111561460757614606613f7a565b5b61461385828601614097565b925050602083013567ffffffffffffffff81111561463457614633613f7a565b5b61464085828601614097565b9150509250929050565b6000819050919050565b61465d8161464a565b82525050565b60006020820190506146786000830184614654565b92915050565b614687816142cb565b82525050565b60006020820190506146a2600083018461467e565b92915050565b600063ffffffff82169050919050565b6146c1816146a8565b81146146cc57600080fd5b50565b6000813590506146de816146b8565b92915050565b6000602082840312156146fa576146f9613f75565b5b6000614708848285016146cf565b91505092915050565b600061ffff82169050919050565b61472881614711565b82525050565b608082016000820151614744600085018261471f565b506020820151614757602085018261471f565b50604082015161476a604085018261471f565b50606082015161477d606085018261471f565b50505050565b6000608082019050614798600083018461472e565b92915050565b6147a781614169565b82525050565b60006020820190506147c2600083018461479e565b92915050565b6000806000606084860312156147e1576147e0613f75565b5b60006147ef86828701614561565b935050602084013567ffffffffffffffff8111156148105761480f613f7a565b5b61481c86828701614097565b925050604084013567ffffffffffffffff81111561483d5761483c613f7a565b5b61484986828701614097565b9150509250925092565b60006020828403121561486957614868613f75565b5b600061487784828501614561565b91505092915050565b600061022083016000830151614899600086018261413a565b5060208301516148ac602086018261417b565b5060408301516148bf604086018261413a565b50606083015184820360608601526148d78282614256565b915050608083015184820360808601526148f182826141fc565b91505060a083015184820360a086015261490b8282614256565b91505060c083015184820360c086015261492582826141fc565b91505060e083015161493a60e08601826142d7565b506101008301518482036101008601526149548282614256565b91505061012083015161496b6101208601826142d7565b506101408301518482036101408601526149858282614256565b91505061016083015161499c6101608601826142d7565b506101808301518482036101808601526149b68282614256565b9150506101a08301518482036101a08601526149d282826141fc565b9150506101c08301518482036101c08601526149ee8282614256565b9150506101e08301518482036101e0860152614a0a8282614256565b915050610200830151614a216102008601826142d7565b508091505092915050565b60006020820190508181036000830152614a468184614880565b905092915050565b600081519050919050565b600082825260208201905092915050565b6000819050602082019050919050565b60006040830160008301518482036000860152614a9782826141fc565b91505060208301518482036020860152614ab182826141fc565b9150508091505092915050565b6000614aca8383614a7a565b905092915050565b6000602082019050919050565b6000614aea82614a4e565b614af48185614a59565b935083602082028501614b0685614a6a565b8060005b85811015614b425784840389528151614b238582614abe565b9450614b2e83614ad2565b925060208a01995050600181019050614b0a565b50829750879550505050505092915050565b60006020820190508181036000830152614b6e8184614adf565b905092915050565b600082825260208201905092915050565b6000614b928261418a565b614b9c8185614b76565b935083602082028501614bae856141a6565b8060005b85811015614bea5784840389528151614bcb8582614235565b9450614bd683614249565b925060208a01995050600181019050614bb2565b50829750879550505050505092915050565b60006020820190508181036000830152614c168184614b87565b905092915050565b608082016000820151614c34600085018261471f565b506020820151614c47602085018261471f565b506040820151614c5a604085018261471f565b506060820151614c6d606085018261471f565b50505050565b6000608082019050614c886000830184614c1e565b92915050565b614c9781614711565b82525050565b6000604082019050614cb26000830185614c8e565b614cbf6020830184614c8e565b9392505050565b600067ffffffffffffffff821115614ce157614ce0613f9a565b5b602082029050602081019050919050565b600080fd5b6000614d0a614d0584614cc6565b613ffa565b90508083825260208201905060208402830185811115614d2d57614d2c614cf2565b5b835b81811015614d7457803567ffffffffffffffff811115614d5257614d51613f7f565b5b808601614d5f8982614097565b85526020850194505050602081019050614d2f565b5050509392505050565b600082601f830112614d9357614d92613f7f565b5b8135614da3848260208601614cf7565b91505092915050565b60008060008060008060008060008060006101608c8e031215614dd257614dd1613f75565b5b6000614de08e828f01614561565b9b505060208c013567ffffffffffffffff811115614e0157614e00613f7a565b5b614e0d8e828f01614d7e565b9a505060408c013567ffffffffffffffff811115614e2e57614e2d613f7a565b5b614e3a8e828f01614097565b99505060608c013567ffffffffffffffff811115614e5b57614e5a613f7a565b5b614e678e828f01614d7e565b98505060808c013567ffffffffffffffff811115614e8857614e87613f7a565b5b614e948e828f01614097565b97505060a08c013567ffffffffffffffff811115614eb557614eb4613f7a565b5b614ec18e828f01614d7e565b96505060c08c013567ffffffffffffffff811115614ee257614ee1613f7a565b5b614eee8e828f01614d7e565b95505060e08c013567ffffffffffffffff811115614f0f57614f0e613f7a565b5b614f1b8e828f01614d7e565b9450506101008c013567ffffffffffffffff811115614f3d57614f3c613f7a565b5b614f498e828f01614097565b9350506101208c013567ffffffffffffffff811115614f6b57614f6a613f7a565b5b614f778e828f01614d7e565b9250506101408c013567ffffffffffffffff811115614f9957614f98613f7a565b5b614fa58e828f01614097565b9150509295989b509295989b9093969950565b600081905092915050565b6000614fce826141b6565b614fd88185614fb8565b9350614fe88185602086016141d2565b80840191505092915050565b60006150008284614fc3565b915081905092915050565b7f4e487b7100000000000000000000000000000000000000000000000000000000600052602260045260246000fd5b6000600282049050600182168061505257607f821691505b6020821081036150655761506461500b565b5b50919050565b7f4e487b7100000000000000000000000000000000000000000000000000000000600052603260045260246000fd5b60008190508160005260206000209050919050565b60006020601f8301049050919050565b600082821b905092915050565b6000600883026150fc7fffffffffffffffffffffffffffffffffffffffffffffffffffffffffffffffff826150bf565b61510686836150bf565b95508019841693508086168417925050509392505050565b6000819050919050565b600061514361513e61513984613f37565b61511e565b613f37565b9050919050565b6000819050919050565b61515d83615128565b6151716151698261514a565b8484546150cc565b825550505050565b600090565b615186615179565b615191818484615154565b505050565b5b818110156151b5576151aa60008261517e565b600181019050615197565b5050565b601f8211156151fa576151cb8161509a565b6151d4846150af565b810160208510156151e3578190505b6151f76151ef856150af565b830182615196565b50505b505050565b600082821c905092915050565b600061521d600019846008026151ff565b1980831691505092915050565b6000615236838361520c565b9150826002028217905092915050565b61524f826141b6565b67ffffffffffffffff81111561526857615267613f9a565b5b615272825461503a565b61527d8282856151b9565b600060209050601f8311600181146152b0576000841561529e578287015190505b6152a8858261522a565b865550615310565b601f1984166152be8661509a565b60005b828110156152e6578489015182556001820191506020850194506020810190506152c1565b8683101561530357848901516152ff601f89168261520c565b8355505b6001600288020188555050505b505050505050565b7f4e487b7100000000000000000000000000000000000000000000000000000000600052601160045260246000fd5b600061535282613f37565b91507fffffffffffffffffffffffffffffffffffffffffffffffffffffffffffffffff820361538457615383615318565b5b600182019050919050565b600061539a82614711565b9150600082036153ad576153ac615318565b5b600182039050919050565b60006153c382613f37565b91506153ce83613f37565b92508282039050818111156153e6576153e5615318565b5b92915050565b600060ff82169050919050565b6000615404826153ec565b915060ff820361541757615416615318565b5b600182019050919050565b600061542d82614711565b915061ffff820361544157615440615318565b5b60018201905091905056fea26469706673582212204f97eeb0d2536a4bd5d881e6929499b7441af47ef26885970215f83accbf4ccb64736f6c63430008100033",
  "immutableReferences": {},
  "source": "pragma solidity >= 0.7.0 < 0.9.0;\r\n\r\n\r\ncontract CrimeReport{\r\n\r\n/* Array Of Feedback in another stuct not supported yet.\r\n    struct Feedback{\r\n\r\n        // Wallet Address who submitted Feedback\r\n         address feebdbackFrom;\r\n\r\n        // Feedback\r\n        string feedback;\r\n\r\n        // Feedback Time\r\n        // uint256 timestamp;\r\n    }\r\n\r\n    */\r\n\r\n    // Conversation Model\r\n    struct MESSAGE{\r\n        // uint256 id;\r\n        string from;\r\n        string message;\r\n    }\r\n\r\n    struct Crime{\r\n\r\n        // Unique Id Number for each crime\r\n        uint256 crimeId;\r\n\r\n        // Wallet Address who submitted crime details\r\n        address reporterWalletAddress;\r\n\r\n        // TimeStamp in Unix / Epoch\r\n        uint256 timeStamp;\r\n\r\n        /*\r\n        // State Name Where Crime Occured\r\n        string state; \r\n\r\n        // City Name Where Crime Occured\r\n        string city; \r\n\r\n        // Geographical Coordinates\r\n        string latitude; \r\n        string longitude; \r\n        */\r\n\r\n        string[] location;\r\n\r\n        // Crime Type -> Murder/Theft/Robbery...etc\r\n        string crimeType;\r\n\r\n        /* Questionnaire regarding crime type and mapping it to answer.\r\n           Question_Number -> Answer\r\n           mapping(uint32 => string) questionnaires;\r\n        */\r\n        \r\n        /*  Use This if Above Mapping doesn't work \r\n\r\n        // Questionnaire regarding crime type */\r\n        //string[] questionnaires;\r\n\r\n        // Answers of Questionnaire.\r\n        string[] questionnaireAnswers;\r\n\r\n        \r\n\r\n        // Crime Description in detail\r\n        string crimeDesc; \r\n\r\n        /* Details regarding suspect\r\n            KEY         -> VALUE\r\n            Name        -> name_of_suspect\r\n            Age_Group   -> Young Adult(Below 30) | Middle-aged Adult(Below 60) | Old Adults(Above 60)\r\n            Gender      -> Male | Female\r\n            Description -> Other Details to identify suspects (eg.Face color, hair color, height... etc)\r\n\r\n        mapping(string => string) suspectInfo;\r\n        */\r\n        bool isSuspectKnown;\r\n        string[] suspectInfoAnswers;\r\n\r\n        /* Details regarding vehicle if any involved in case\r\n            KEY -> VALUE\r\n            License plate state , Number, Vehicle color.. etc.\r\n            mapping(string => string) vehicleInfo;\r\n        */\r\n        bool isVehiclePresent;\r\n        string[] vehicleInfoAnswers;\r\n        \r\n\r\n        /* Victim Details if known\r\n            KEY -> VALUE\r\n            Name, address... etc.\r\n            mapping(string => string) victimInfo;\r\n        */\r\n        bool isVictimKnown;\r\n        string[] victimInfoAnswers;\r\n\r\n        // IPFS Hash If any media files attached.\r\n        string ipfsHash;\r\n\r\n        // input file names\r\n        string[] fileNames;\r\n\r\n        // Feedbacks\r\n        string[] feedbacks;\r\n\r\n        // Case is active or closed [Active = true | Close = false]\r\n        bool isCaseActive; \r\n        \r\n        /*\r\n            KEY = ADMIN | USER\r\n            Value = MESSAGE\r\n        */\r\n\r\n    }\r\n\r\n    // Statistics Model\r\n\r\n    struct Statistics{\r\n        uint16 murderCases;\r\n        uint16 theftCases;\r\n\t    uint16 drugsCases;\r\n\t    uint16 harassmentCases;\r\n    }\r\n\r\n    struct StateCases{\r\n        uint16 maharashtraCases;\r\n        uint16 tamilnaduCases;\r\n        uint16 pondicherryCases;\r\n        uint16 uttarPradeshCases;\r\n    }\r\n    StateCases stateCases;\r\n    // active cases counter \r\n    uint16 totalActiveCases;\r\n\r\n    // Crime ID Wise Comversation\r\n    mapping(uint256 => MESSAGE[]) private conversations;\r\n\r\n    // List Of All Crimes that reported\r\n    Crime[] private crimes;\r\n    Statistics private stats;\r\n    // Stores all crimes user wise.\r\n    mapping(address => Crime[]) crimesByUsers;\r\n\r\n    // Store all crimes of city\r\n    mapping(string => Crime[]) crimesOfCity;\r\n\r\n    // Function to submit crime (Storing Crime Details)\r\n    function submitCrime(uint256 _timestamp,\r\n                         string[] memory _location,\r\n                         string memory _crimeType,\r\n                         string[] memory _questionnaireAnswers,\r\n                         string memory _crimeDesc,\r\n                         string[] memory _suspectInfoAnswers,\r\n                         string[] memory _vehicleInfoAnswers,\r\n                         string[] memory _victimInfoAnswers,\r\n                         string memory _ipfsHash,\r\n                         string[] memory _fileNames,\r\n                         string memory _date\r\n                        ) external returns(bool){\r\n\r\n                        if(!countTipsOfUsers(_date)) return false; \r\n\r\n         Crime memory crime;     \r\n         crime.crimeId = crimes.length;   \r\n         crime.reporterWalletAddress = getReporterWalletAddress();\r\n         crime.timeStamp = _timestamp;   \r\n         crime.location = _location;\r\n         crime.crimeType = _crimeType;     \r\n         crime.questionnaireAnswers = _questionnaireAnswers;\r\n         crime.crimeDesc = _crimeDesc; \r\n         crime.isCaseActive = true;\r\n         \r\n         crime.isSuspectKnown = false;\r\n         if(_suspectInfoAnswers.length>0){\r\n             crime.isSuspectKnown = true;\r\n             crime.suspectInfoAnswers = _suspectInfoAnswers;\r\n         }\r\n\r\n         crime.isVehiclePresent = false;\r\n         if(_vehicleInfoAnswers.length>0){\r\n             crime.isVehiclePresent = true;\r\n             crime.vehicleInfoAnswers = _vehicleInfoAnswers;\r\n         }\r\n\r\n         crime.isVictimKnown = false;\r\n         if(_victimInfoAnswers.length>0){\r\n             crime.isVictimKnown = true;\r\n             crime.victimInfoAnswers = _victimInfoAnswers;\r\n         }\r\n\r\n        crime.ipfsHash = _ipfsHash;\r\n        crime.fileNames = _fileNames;\r\n        string[] memory _feedbacks;\r\n        crime.feedbacks = _feedbacks;\r\n        crimes.push(crime);\r\n\r\n        crimesByUsers[msg.sender].push(crime);\r\n        crimesOfCity[_location[1]].push(crime);\r\n\r\n        if(equal(_crimeType,\"Murder\")){\r\n            stats.murderCases++;\r\n        }else if(equal(_crimeType,\"Theft\")){\r\n            stats.theftCases++;\r\n        }else if(equal(_crimeType,\"Drugs\")){\r\n            stats.drugsCases++;\r\n        }else if(equal(_crimeType,\"Harassment\")){\r\n\t\tstats.harassmentCases++;\r\n        }\r\n\r\n        if(equal(_location[0],\"Maharashtra\")){\r\n            stateCases.maharashtraCases++;\r\n        }else if(equal(_location[0],\"Uttar Pradesh\")){\r\n            stateCases.uttarPradeshCases++;\r\n        }else if(equal(_location[0],\"Pondicherry\")){\r\n            stateCases.pondicherryCases++;\r\n        }else if(equal(_location[0],\"Tamil Nadu\")){\r\n\t\tstateCases.tamilnaduCases++;\r\n\t    }\r\n\r\n    totalActiveCases++;\r\n\r\n        return true;\r\n    }\r\n\r\n\r\n    // Function to submit Feedbacks\r\n    function submitFeedback(uint256 _crimeId,string memory _feedback) external{\r\n        crimes[_crimeId].feedbacks.push(_feedback);\r\n    }\r\n\r\n    // Return Feedbacks By CrimeID\r\n   function getFeedbacksById(uint256 _crimeId) public view returns(string[] memory){\r\n       return crimes[_crimeId].feedbacks;\r\n   }\r\n\r\n    // Function to return all crime to admin side\r\n    function getCrimes() public view returns (Crime[] memory) {\r\n       return crimes;\r\n   }\r\n\r\n   // Return Crime By CrimeID\r\n   function getCrimeById(uint256 _crimeId) public view returns(Crime memory){\r\n       return crimes[_crimeId];\r\n   }\r\n\r\n    // Returns Total Number Of Crimes\r\n    function totalCrimes() public view returns (uint256) {\r\n       return crimes.length;\r\n   }\r\n\r\n    // Returns Address of wallet who Reporting the crime\r\n    function getReporterWalletAddress() public view returns(address){\r\n        return msg.sender;\r\n    }\r\n\r\n    // Return Crimes Submitted by the current user\r\n   function getCrimeOfCurrentUser() public view returns(Crime[] memory){\r\n        return crimesByUsers[msg.sender];\r\n   }\r\n\r\n    // Return Crimes of city\r\n   function getCrimeOfCity(string memory _city) public view returns(Crime[] memory){\r\n        return crimesOfCity[_city];\r\n   }\r\n\r\n   // Function for admin to close case.\r\n  function closeCase(uint32 _crimeId) public {\r\n    totalActiveCases--;\r\n    crimes[_crimeId].isCaseActive = false;\r\n  }\r\n\r\n  // Conversation of admin to crime reporter.\r\n  function sendMessage(uint256 _crimeId,string memory _message, string memory _from) public{\r\n      MESSAGE memory currMessage;\r\n      currMessage.message = _message;\r\n      currMessage.from = _from;\r\n      conversations[_crimeId].push(currMessage);\r\n  }\r\n\r\n  // Get Conversation of admin & crime reporter.\r\n  function getMessages(uint256 _crimeId)  public view returns(MESSAGE[] memory){\r\n     return conversations[_crimeId];\r\n  }\r\n\r\n  // Get crime Statistics\r\n  function getCrimeStatistics() public view returns(Statistics memory) {\r\n      return (stats);\r\n  }\r\n \r\n // Get get Active Deative Cases \r\n    function getActiveDeativeCases() public view returns(uint16,uint16){\r\n    return (totalActiveCases,uint16(totalCrimes()-totalActiveCases));\r\n }\r\n\r\n  // Get crime Statistics of states\r\n  function getStateStatistics() public view returns(StateCases memory) {\r\n      return (stateCases);\r\n  }\r\n\r\n\r\n  function compare(string memory _a, string memory _b) public pure returns (int) {\r\n        bytes memory a = bytes(_a);\r\n        bytes memory b = bytes(_b);\r\n        uint minLength = a.length;\r\n        if (b.length < minLength) minLength = b.length;\r\n     \r\n        for (uint i = 0; i < minLength; i ++)\r\n            if (a[i] < b[i])\r\n                return -1;\r\n            else if (a[i] > b[i])\r\n                return 1;\r\n        if (a.length < b.length)\r\n            return -1;\r\n        else if (a.length > b.length)\r\n            return 1;\r\n        else\r\n            return 0;\r\n    }\r\n\r\n    function equal(string memory _a, string memory _b) public pure returns (bool) {\r\n        return compare(_a, _b) == 0;\r\n    }\r\n\r\n    mapping(string=>mapping(address=>uint8)) countTipsPerDay;\r\n\r\n    function countTipsOfUsers(string memory _date)public returns(bool){\r\n        if(countTipsPerDay[_date][msg.sender] >=3) return false;\r\n\r\n        countTipsPerDay[_date][msg.sender]++;\r\n\r\n        return true;\r\n    }\r\n\r\n}\r\n\r\n\r\n/*\r\n    Parameters For Testing\r\n\r\n    1660627677,[\"Maharashtra\",\"Jalgaon\",\"2.9454465\",\"9.2487554\"],Theft,[\"Bike\"],\"I saw the person stealing bike and going to Shiv Colony side\",[],[],[],\"IFPS_HASH_HERE\"\r\n\r\n*/",
  "sourcePath": "C:\\Users\\harsh\\OneDrive\\Desktop\\SIH-PROJECT\\dnetwork\\contracts\\CrimeReport.sol",
  "compiler": {
    "name": "solc",
    "version": "0.8.16+commit.07a7930e.Emscripten.clang"
  },
  "schemaVersion": "3.4.9",
  "updatedAt": "2022-08-26T04:31:20.088Z",
  "networkType": "ethereum",
  "devdoc": {
    "kind": "dev",
    "methods": {},
    "version": 1
  },
  "userdoc": {
    "kind": "user",
    "methods": {},
    "version": 1
  }
}