{
  "contractName": "CrimeReport",
  "abi": [
    {
      "inputs": [
        {
          "internalType": "uint256",
          "name": "_timestamp",
          "type": "uint256"
        },
        {
          "internalType": "string[]",
          "name": "_location",
          "type": "string[]"
        },
        {
          "internalType": "string",
          "name": "_crimeType",
          "type": "string"
        },
        {
          "internalType": "string[]",
          "name": "_questionnaireAnswers",
          "type": "string[]"
        },
        {
          "internalType": "string",
          "name": "_crimeDesc",
          "type": "string"
        },
        {
          "internalType": "string[]",
          "name": "_suspectInfoAnswers",
          "type": "string[]"
        },
        {
          "internalType": "string[]",
          "name": "_vehicleInfoAnswers",
          "type": "string[]"
        },
        {
          "internalType": "string[]",
          "name": "_victimInfoAnswers",
          "type": "string[]"
        },
        {
          "internalType": "string",
          "name": "_ipfsHash",
          "type": "string"
        },
        {
          "internalType": "string[]",
          "name": "_fileNames",
          "type": "string[]"
        }
      ],
      "name": "submitCrime",
      "outputs": [],
      "stateMutability": "nonpayable",
      "type": "function"
    },
    {
      "inputs": [
        {
          "internalType": "uint256",
          "name": "_crimeId",
          "type": "uint256"
        },
        {
          "internalType": "string",
          "name": "_feedback",
          "type": "string"
        }
      ],
      "name": "submitFeedback",
      "outputs": [],
      "stateMutability": "nonpayable",
      "type": "function"
    },
    {
      "inputs": [
        {
          "internalType": "uint256",
          "name": "_crimeId",
          "type": "uint256"
        }
      ],
      "name": "getFeedbacksById",
      "outputs": [
        {
          "internalType": "string[]",
          "name": "",
          "type": "string[]"
        }
      ],
      "stateMutability": "view",
      "type": "function",
      "constant": true
    },
    {
      "inputs": [],
      "name": "getCrimes",
      "outputs": [
        {
          "components": [
            {
              "internalType": "uint256",
              "name": "crimeId",
              "type": "uint256"
            },
            {
              "internalType": "address",
              "name": "reporterWalletAddress",
              "type": "address"
            },
            {
              "internalType": "uint256",
              "name": "timeStamp",
              "type": "uint256"
            },
            {
              "internalType": "string[]",
              "name": "location",
              "type": "string[]"
            },
            {
              "internalType": "string",
              "name": "crimeType",
              "type": "string"
            },
            {
              "internalType": "string[]",
              "name": "questionnaireAnswers",
              "type": "string[]"
            },
            {
              "internalType": "string",
              "name": "crimeDesc",
              "type": "string"
            },
            {
              "internalType": "bool",
              "name": "isSuspectKnown",
              "type": "bool"
            },
            {
              "internalType": "string[]",
              "name": "suspectInfoAnswers",
              "type": "string[]"
            },
            {
              "internalType": "bool",
              "name": "isVehiclePresent",
              "type": "bool"
            },
            {
              "internalType": "string[]",
              "name": "vehicleInfoAnswers",
              "type": "string[]"
            },
            {
              "internalType": "bool",
              "name": "isVictimKnown",
              "type": "bool"
            },
            {
              "internalType": "string[]",
              "name": "victimInfoAnswers",
              "type": "string[]"
            },
            {
              "internalType": "string",
              "name": "ipfsHash",
              "type": "string"
            },
            {
              "internalType": "string[]",
              "name": "fileNames",
              "type": "string[]"
            },
            {
              "internalType": "string[]",
              "name": "feedbacks",
              "type": "string[]"
            },
            {
              "internalType": "bool",
              "name": "isCaseActive",
              "type": "bool"
            }
          ],
          "internalType": "struct CrimeReport.Crime[]",
          "name": "",
          "type": "tuple[]"
        }
      ],
      "stateMutability": "view",
      "type": "function",
      "constant": true
    },
    {
      "inputs": [
        {
          "internalType": "uint256",
          "name": "_crimeId",
          "type": "uint256"
        }
      ],
      "name": "getCrimeById",
      "outputs": [
        {
          "components": [
            {
              "internalType": "uint256",
              "name": "crimeId",
              "type": "uint256"
            },
            {
              "internalType": "address",
              "name": "reporterWalletAddress",
              "type": "address"
            },
            {
              "internalType": "uint256",
              "name": "timeStamp",
              "type": "uint256"
            },
            {
              "internalType": "string[]",
              "name": "location",
              "type": "string[]"
            },
            {
              "internalType": "string",
              "name": "crimeType",
              "type": "string"
            },
            {
              "internalType": "string[]",
              "name": "questionnaireAnswers",
              "type": "string[]"
            },
            {
              "internalType": "string",
              "name": "crimeDesc",
              "type": "string"
            },
            {
              "internalType": "bool",
              "name": "isSuspectKnown",
              "type": "bool"
            },
            {
              "internalType": "string[]",
              "name": "suspectInfoAnswers",
              "type": "string[]"
            },
            {
              "internalType": "bool",
              "name": "isVehiclePresent",
              "type": "bool"
            },
            {
              "internalType": "string[]",
              "name": "vehicleInfoAnswers",
              "type": "string[]"
            },
            {
              "internalType": "bool",
              "name": "isVictimKnown",
              "type": "bool"
            },
            {
              "internalType": "string[]",
              "name": "victimInfoAnswers",
              "type": "string[]"
            },
            {
              "internalType": "string",
              "name": "ipfsHash",
              "type": "string"
            },
            {
              "internalType": "string[]",
              "name": "fileNames",
              "type": "string[]"
            },
            {
              "internalType": "string[]",
              "name": "feedbacks",
              "type": "string[]"
            },
            {
              "internalType": "bool",
              "name": "isCaseActive",
              "type": "bool"
            }
          ],
          "internalType": "struct CrimeReport.Crime",
          "name": "",
          "type": "tuple"
        }
      ],
      "stateMutability": "view",
      "type": "function",
      "constant": true
    },
    {
      "inputs": [],
      "name": "totalCrimes",
      "outputs": [
        {
          "internalType": "uint256",
          "name": "",
          "type": "uint256"
        }
      ],
      "stateMutability": "view",
      "type": "function",
      "constant": true
    },
    {
      "inputs": [],
      "name": "getReporterWalletAddress",
      "outputs": [
        {
          "internalType": "address",
          "name": "",
          "type": "address"
        }
      ],
      "stateMutability": "view",
      "type": "function",
      "constant": true
    },
    {
      "inputs": [],
      "name": "getCrimeOfCurrentUser",
      "outputs": [
        {
          "components": [
            {
              "internalType": "uint256",
              "name": "crimeId",
              "type": "uint256"
            },
            {
              "internalType": "address",
              "name": "reporterWalletAddress",
              "type": "address"
            },
            {
              "internalType": "uint256",
              "name": "timeStamp",
              "type": "uint256"
            },
            {
              "internalType": "string[]",
              "name": "location",
              "type": "string[]"
            },
            {
              "internalType": "string",
              "name": "crimeType",
              "type": "string"
            },
            {
              "internalType": "string[]",
              "name": "questionnaireAnswers",
              "type": "string[]"
            },
            {
              "internalType": "string",
              "name": "crimeDesc",
              "type": "string"
            },
            {
              "internalType": "bool",
              "name": "isSuspectKnown",
              "type": "bool"
            },
            {
              "internalType": "string[]",
              "name": "suspectInfoAnswers",
              "type": "string[]"
            },
            {
              "internalType": "bool",
              "name": "isVehiclePresent",
              "type": "bool"
            },
            {
              "internalType": "string[]",
              "name": "vehicleInfoAnswers",
              "type": "string[]"
            },
            {
              "internalType": "bool",
              "name": "isVictimKnown",
              "type": "bool"
            },
            {
              "internalType": "string[]",
              "name": "victimInfoAnswers",
              "type": "string[]"
            },
            {
              "internalType": "string",
              "name": "ipfsHash",
              "type": "string"
            },
            {
              "internalType": "string[]",
              "name": "fileNames",
              "type": "string[]"
            },
            {
              "internalType": "string[]",
              "name": "feedbacks",
              "type": "string[]"
            },
            {
              "internalType": "bool",
              "name": "isCaseActive",
              "type": "bool"
            }
          ],
          "internalType": "struct CrimeReport.Crime[]",
          "name": "",
          "type": "tuple[]"
        }
      ],
      "stateMutability": "view",
      "type": "function",
      "constant": true
    },
    {
      "inputs": [
        {
          "internalType": "string",
          "name": "_city",
          "type": "string"
        }
      ],
      "name": "getCrimeOfCity",
      "outputs": [
        {
          "components": [
            {
              "internalType": "uint256",
              "name": "crimeId",
              "type": "uint256"
            },
            {
              "internalType": "address",
              "name": "reporterWalletAddress",
              "type": "address"
            },
            {
              "internalType": "uint256",
              "name": "timeStamp",
              "type": "uint256"
            },
            {
              "internalType": "string[]",
              "name": "location",
              "type": "string[]"
            },
            {
              "internalType": "string",
              "name": "crimeType",
              "type": "string"
            },
            {
              "internalType": "string[]",
              "name": "questionnaireAnswers",
              "type": "string[]"
            },
            {
              "internalType": "string",
              "name": "crimeDesc",
              "type": "string"
            },
            {
              "internalType": "bool",
              "name": "isSuspectKnown",
              "type": "bool"
            },
            {
              "internalType": "string[]",
              "name": "suspectInfoAnswers",
              "type": "string[]"
            },
            {
              "internalType": "bool",
              "name": "isVehiclePresent",
              "type": "bool"
            },
            {
              "internalType": "string[]",
              "name": "vehicleInfoAnswers",
              "type": "string[]"
            },
            {
              "internalType": "bool",
              "name": "isVictimKnown",
              "type": "bool"
            },
            {
              "internalType": "string[]",
              "name": "victimInfoAnswers",
              "type": "string[]"
            },
            {
              "internalType": "string",
              "name": "ipfsHash",
              "type": "string"
            },
            {
              "internalType": "string[]",
              "name": "fileNames",
              "type": "string[]"
            },
            {
              "internalType": "string[]",
              "name": "feedbacks",
              "type": "string[]"
            },
            {
              "internalType": "bool",
              "name": "isCaseActive",
              "type": "bool"
            }
          ],
          "internalType": "struct CrimeReport.Crime[]",
          "name": "",
          "type": "tuple[]"
        }
      ],
      "stateMutability": "view",
      "type": "function",
      "constant": true
    },
    {
      "inputs": [
        {
          "internalType": "uint32",
          "name": "_crimeId",
          "type": "uint32"
        }
      ],
      "name": "closeCase",
      "outputs": [],
      "stateMutability": "nonpayable",
      "type": "function"
    },
    {
      "inputs": [
        {
          "internalType": "uint256",
          "name": "_crimeId",
          "type": "uint256"
        },
        {
          "internalType": "string",
          "name": "_message",
          "type": "string"
        },
        {
          "internalType": "string",
          "name": "_from",
          "type": "string"
        }
      ],
      "name": "sendMessage",
      "outputs": [],
      "stateMutability": "nonpayable",
      "type": "function"
    },
    {
      "inputs": [],
      "name": "getCrimeStatistics",
      "outputs": [
        {
          "components": [
            {
              "internalType": "uint256",
              "name": "murderCases",
              "type": "uint256"
            },
            {
              "internalType": "uint256",
              "name": "theftCases",
              "type": "uint256"
            },
            {
              "internalType": "uint256",
              "name": "drugsCases",
              "type": "uint256"
            },
            {
              "internalType": "uint256",
              "name": "harassmentCases",
              "type": "uint256"
            }
          ],
          "internalType": "struct CrimeReport.Statistics",
          "name": "",
          "type": "tuple"
        }
      ],
      "stateMutability": "view",
      "type": "function",
      "constant": true
    },
    {
      "inputs": [
        {
          "internalType": "string",
          "name": "_a",
          "type": "string"
        },
        {
          "internalType": "string",
          "name": "_b",
          "type": "string"
        }
      ],
      "name": "compare",
      "outputs": [
        {
          "internalType": "int256",
          "name": "",
          "type": "int256"
        }
      ],
      "stateMutability": "pure",
      "type": "function",
      "constant": true
    },
    {
      "inputs": [
        {
          "internalType": "string",
          "name": "_a",
          "type": "string"
        },
        {
          "internalType": "string",
          "name": "_b",
          "type": "string"
        }
      ],
      "name": "equal",
      "outputs": [
        {
          "internalType": "bool",
          "name": "",
          "type": "bool"
        }
      ],
      "stateMutability": "pure",
      "type": "function",
      "constant": true
    }
  ],
  "bytecode": "0x608060405234801561001057600080fd5b50614919806100206000396000f3fe608060405234801561001057600080fd5b50600436106100ea5760003560e01c806368b3275b1161008c578063a369c8de11610066578063a369c8de1461025d578063a4881afd14610279578063b46b6d6014610297578063c7251143146102b5576100ea565b806368b3275b146101f35780636b561b2f14610211578063749b5e521461022d576100ea565b80633a96fdd7116100c85780633a96fdd71461015957806346bdca9a146101895780634c253551146101b95780635a61e48d146101d5576100ea565b806305608f64146100ef57806314034a741461010d57806320b0c9d61461013d575b600080fd5b6100f76102e5565b604051610104919061368e565b60405180910390f35b61012760048036038101906101229190613803565b6102f2565b6040516101349190613c66565b60405180910390f35b61015760048036038101906101529190613cb4565b610beb565b005b610173600480360381019061016e9190613d10565b610c47565b6040516101809190613da1565b60405180910390f35b6101a3600480360381019061019e9190613d10565b610e23565b6040516101b09190613dcb565b60405180910390f35b6101d360048036038101906101ce9190613e22565b610e39565b005b6101dd610e80565b6040516101ea9190613ea4565b60405180910390f35b6101fb610ec2565b6040516102089190613ece565b60405180910390f35b61022b60048036038101906102269190613ee9565b610eca565b005b61024760048036038101906102429190613f74565b610f5c565b604051610254919061414d565b60405180910390f35b61027760048036038101906102729190614255565b611814565b005b6102816121e0565b60405161028e9190613c66565b60405180910390f35b61029f612abb565b6040516102ac9190613c66565b60405180910390f35b6102cf60048036038101906102ca9190613f74565b6133d3565b6040516102dc91906144b6565b60405180910390f35b6000600180549050905090565b60606007826040516103049190614514565b9081526020016040518091039020805480602002602001604051908101604052809291908181526020016000905b82821015610be0578382906000526020600020906011020160405180610220016040529081600082015481526020016001820160009054906101000a900473ffffffffffffffffffffffffffffffffffffffff1673ffffffffffffffffffffffffffffffffffffffff1673ffffffffffffffffffffffffffffffffffffffff1681526020016002820154815260200160038201805480602002602001604051908101604052809291908181526020016000905b828210156104915783829060005260206000200180546104049061455a565b80601f01602080910402602001604051908101604052809291908181526020018280546104309061455a565b801561047d5780601f106104525761010080835404028352916020019161047d565b820191906000526020600020905b81548152906001019060200180831161046057829003601f168201915b5050505050815260200190600101906103e5565b5050505081526020016004820180546104a99061455a565b80601f01602080910402602001604051908101604052809291908181526020018280546104d59061455a565b80156105225780601f106104f757610100808354040283529160200191610522565b820191906000526020600020905b81548152906001019060200180831161050557829003601f168201915b5050505050815260200160058201805480602002602001604051908101604052809291908181526020016000905b828210156105fc57838290600052602060002001805461056f9061455a565b80601f016020809104026020016040519081016040528092919081815260200182805461059b9061455a565b80156105e85780601f106105bd576101008083540402835291602001916105e8565b820191906000526020600020905b8154815290600101906020018083116105cb57829003601f168201915b505050505081526020019060010190610550565b5050505081526020016006820180546106149061455a565b80601f01602080910402602001604051908101604052809291908181526020018280546106409061455a565b801561068d5780601f106106625761010080835404028352916020019161068d565b820191906000526020600020905b81548152906001019060200180831161067057829003601f168201915b505050505081526020016007820160009054906101000a900460ff1615151515815260200160088201805480602002602001604051908101604052809291908181526020016000905b828210156107825783829060005260206000200180546106f59061455a565b80601f01602080910402602001604051908101604052809291908181526020018280546107219061455a565b801561076e5780601f106107435761010080835404028352916020019161076e565b820191906000526020600020905b81548152906001019060200180831161075157829003601f168201915b5050505050815260200190600101906106d6565b5050505081526020016009820160009054906101000a900460ff16151515158152602001600a8201805480602002602001604051908101604052809291908181526020016000905b828210156108765783829060005260206000200180546107e99061455a565b80601f01602080910402602001604051908101604052809291908181526020018280546108159061455a565b80156108625780601f1061083757610100808354040283529160200191610862565b820191906000526020600020905b81548152906001019060200180831161084557829003601f168201915b5050505050815260200190600101906107ca565b505050508152602001600b820160009054906101000a900460ff16151515158152602001600c8201805480602002602001604051908101604052809291908181526020016000905b8282101561096a5783829060005260206000200180546108dd9061455a565b80601f01602080910402602001604051908101604052809291908181526020018280546109099061455a565b80156109565780601f1061092b57610100808354040283529160200191610956565b820191906000526020600020905b81548152906001019060200180831161093957829003601f168201915b5050505050815260200190600101906108be565b505050508152602001600d820180546109829061455a565b80601f01602080910402602001604051908101604052809291908181526020018280546109ae9061455a565b80156109fb5780601f106109d0576101008083540402835291602001916109fb565b820191906000526020600020905b8154815290600101906020018083116109de57829003601f168201915b50505050508152602001600e8201805480602002602001604051908101604052809291908181526020016000905b82821015610ad5578382906000526020600020018054610a489061455a565b80601f0160208091040260200160405190810160405280929190818152602001828054610a749061455a565b8015610ac15780601f10610a9657610100808354040283529160200191610ac1565b820191906000526020600020905b815481529060010190602001808311610aa457829003601f168201915b505050505081526020019060010190610a29565b505050508152602001600f8201805480602002602001604051908101604052809291908181526020016000905b82821015610bae578382906000526020600020018054610b219061455a565b80601f0160208091040260200160405190810160405280929190818152602001828054610b4d9061455a565b8015610b9a5780601f10610b6f57610100808354040283529160200191610b9a565b820191906000526020600020905b815481529060010190602001808311610b7d57829003601f168201915b505050505081526020019060010190610b02565b5050505081526020016010820160009054906101000a900460ff16151515158152505081526020019060010190610332565b505050509050919050565b60018281548110610bff57610bfe61458b565b5b9060005260206000209060110201600f0181908060018154018082558091505060019003906000526020600020016000909190919091509081610c429190614766565b505050565b60008083905060008390506000825190508082511015610c6657815190505b60005b81811015610dc957828181518110610c8457610c8361458b565b5b602001015160f81c60f81b7effffffffffffffffffffffffffffffffffffffffffffffffffffffffffffff1916848281518110610cc457610cc361458b565b5b602001015160f81c60f81b7effffffffffffffffffffffffffffffffffffffffffffffffffffffffffffff19161015610d23577fffffffffffffffffffffffffffffffffffffffffffffffffffffffffffffffff945050505050610e1d565b828181518110610d3657610d3561458b565b5b602001015160f81c60f81b7effffffffffffffffffffffffffffffffffffffffffffffffffffffffffffff1916848281518110610d7657610d7561458b565b5b602001015160f81c60f81b7effffffffffffffffffffffffffffffffffffffffffffffffffffffffffffff19161115610db6576001945050505050610e1d565b8080610dc190614867565b915050610c69565b50815183511015610dff577fffffffffffffffffffffffffffffffffffffffffffffffffffffffffffffffff9350505050610e1d565b815183511115610e155760019350505050610e1d565b600093505050505b92915050565b600080610e308484610c47565b14905092915050565b600060018263ffffffff1681548110610e5557610e5461458b565b5b906000526020600020906011020160100160006101000a81548160ff02191690831515021790555050565b610e886134d1565b6002604051806080016040529081600082015481526020016001820154815260200160028201548152602001600382015481525050905090565b600033905090565b6000600160008086815260200190815260200160002060000154610eee91906148af565b9050604051806060016040528082815260200183815260200184815250600080868152602001908152602001600020600082015181600001556020820151816001019081610f3c9190614766565b506040820151816002019081610f529190614766565b5090505050505050565b610f646134f9565b60018281548110610f7857610f7761458b565b5b906000526020600020906011020160405180610220016040529081600082015481526020016001820160009054906101000a900473ffffffffffffffffffffffffffffffffffffffff1673ffffffffffffffffffffffffffffffffffffffff1673ffffffffffffffffffffffffffffffffffffffff1681526020016002820154815260200160038201805480602002602001604051908101604052809291908181526020016000905b828210156110cd5783829060005260206000200180546110409061455a565b80601f016020809104026020016040519081016040528092919081815260200182805461106c9061455a565b80156110b95780601f1061108e576101008083540402835291602001916110b9565b820191906000526020600020905b81548152906001019060200180831161109c57829003601f168201915b505050505081526020019060010190611021565b5050505081526020016004820180546110e59061455a565b80601f01602080910402602001604051908101604052809291908181526020018280546111119061455a565b801561115e5780601f106111335761010080835404028352916020019161115e565b820191906000526020600020905b81548152906001019060200180831161114157829003601f168201915b5050505050815260200160058201805480602002602001604051908101604052809291908181526020016000905b828210156112385783829060005260206000200180546111ab9061455a565b80601f01602080910402602001604051908101604052809291908181526020018280546111d79061455a565b80156112245780601f106111f957610100808354040283529160200191611224565b820191906000526020600020905b81548152906001019060200180831161120757829003601f168201915b50505050508152602001906001019061118c565b5050505081526020016006820180546112509061455a565b80601f016020809104026020016040519081016040528092919081815260200182805461127c9061455a565b80156112c95780601f1061129e576101008083540402835291602001916112c9565b820191906000526020600020905b8154815290600101906020018083116112ac57829003601f168201915b505050505081526020016007820160009054906101000a900460ff1615151515815260200160088201805480602002602001604051908101604052809291908181526020016000905b828210156113be5783829060005260206000200180546113319061455a565b80601f016020809104026020016040519081016040528092919081815260200182805461135d9061455a565b80156113aa5780601f1061137f576101008083540402835291602001916113aa565b820191906000526020600020905b81548152906001019060200180831161138d57829003601f168201915b505050505081526020019060010190611312565b5050505081526020016009820160009054906101000a900460ff16151515158152602001600a8201805480602002602001604051908101604052809291908181526020016000905b828210156114b25783829060005260206000200180546114259061455a565b80601f01602080910402602001604051908101604052809291908181526020018280546114519061455a565b801561149e5780601f106114735761010080835404028352916020019161149e565b820191906000526020600020905b81548152906001019060200180831161148157829003601f168201915b505050505081526020019060010190611406565b505050508152602001600b820160009054906101000a900460ff16151515158152602001600c8201805480602002602001604051908101604052809291908181526020016000905b828210156115a65783829060005260206000200180546115199061455a565b80601f01602080910402602001604051908101604052809291908181526020018280546115459061455a565b80156115925780601f1061156757610100808354040283529160200191611592565b820191906000526020600020905b81548152906001019060200180831161157557829003601f168201915b5050505050815260200190600101906114fa565b505050508152602001600d820180546115be9061455a565b80601f01602080910402602001604051908101604052809291908181526020018280546115ea9061455a565b80156116375780601f1061160c57610100808354040283529160200191611637565b820191906000526020600020905b81548152906001019060200180831161161a57829003601f168201915b50505050508152602001600e8201805480602002602001604051908101604052809291908181526020016000905b828210156117115783829060005260206000200180546116849061455a565b80601f01602080910402602001604051908101604052809291908181526020018280546116b09061455a565b80156116fd5780601f106116d2576101008083540402835291602001916116fd565b820191906000526020600020905b8154815290600101906020018083116116e057829003601f168201915b505050505081526020019060010190611665565b505050508152602001600f8201805480602002602001604051908101604052809291908181526020016000905b828210156117ea57838290600052602060002001805461175d9061455a565b80601f01602080910402602001604051908101604052809291908181526020018280546117899061455a565b80156117d65780601f106117ab576101008083540402835291602001916117d6565b820191906000526020600020905b8154815290600101906020018083116117b957829003601f168201915b50505050508152602001906001019061173e565b5050505081526020016010820160009054906101000a900460ff1615151515815250509050919050565b61181c6134f9565b600180549050816000018181525050611833610ec2565b816020019073ffffffffffffffffffffffffffffffffffffffff16908173ffffffffffffffffffffffffffffffffffffffff16815250508a816040018181525050898160600181905250888160800181905250878160a00181905250868160c0018190525060018161020001901515908115158152505060008160e00190151590811515815250506000865111156118e15760018160e0019015159081151581525050858161010001819052505b60008161012001901515908115158152505060008551111561191a57600181610120019015159081151581525050848161014001819052505b60008161016001901515908115158152505060008451111561195357600181610160019015159081151581525050838161018001819052505b82816101a0018190525081816101c00181905250606080826101e0018190525060018290806001815401808255809150506001900390600052602060002090601102016000909190919091506000820151816000015560208201518160010160006101000a81548173ffffffffffffffffffffffffffffffffffffffff021916908373ffffffffffffffffffffffffffffffffffffffff160217905550604082015181600201556060820151816003019080519060200190611a1692919061359b565b506080820151816004019081611a2c9190614766565b5060a0820151816005019080519060200190611a4992919061359b565b5060c0820151816006019081611a5f9190614766565b5060e08201518160070160006101000a81548160ff021916908315150217905550610100820151816008019080519060200190611a9d92919061359b565b506101208201518160090160006101000a81548160ff02191690831515021790555061014082015181600a019080519060200190611adc92919061359b565b5061016082015181600b0160006101000a81548160ff02191690831515021790555061018082015181600c019080519060200190611b1b92919061359b565b506101a082015181600d019081611b329190614766565b506101c082015181600e019080519060200190611b5092919061359b565b506101e082015181600f019080519060200190611b6e92919061359b565b506102008201518160100160006101000a81548160ff0219169083151502179055505050600660003373ffffffffffffffffffffffffffffffffffffffff1673ffffffffffffffffffffffffffffffffffffffff1681526020019081526020016000208290806001815401808255809150506001900390600052602060002090601102016000909190919091506000820151816000015560208201518160010160006101000a81548173ffffffffffffffffffffffffffffffffffffffff021916908373ffffffffffffffffffffffffffffffffffffffff160217905550604082015181600201556060820151816003019080519060200190611c7292919061359b565b506080820151816004019081611c889190614766565b5060a0820151816005019080519060200190611ca592919061359b565b5060c0820151816006019081611cbb9190614766565b5060e08201518160070160006101000a81548160ff021916908315150217905550610100820151816008019080519060200190611cf992919061359b565b506101208201518160090160006101000a81548160ff02191690831515021790555061014082015181600a019080519060200190611d3892919061359b565b5061016082015181600b0160006101000a81548160ff02191690831515021790555061018082015181600c019080519060200190611d7792919061359b565b506101a082015181600d019081611d8e9190614766565b506101c082015181600e019080519060200190611dac92919061359b565b506101e082015181600f019080519060200190611dca92919061359b565b506102008201518160100160006101000a81548160ff021916908315150217905550505060078b600181518110611e0457611e0361458b565b5b6020026020010151604051611e199190614514565b90815260200160405180910390208290806001815401808255809150506001900390600052602060002090601102016000909190919091506000820151816000015560208201518160010160006101000a81548173ffffffffffffffffffffffffffffffffffffffff021916908373ffffffffffffffffffffffffffffffffffffffff160217905550604082015181600201556060820151816003019080519060200190611ec892919061359b565b506080820151816004019081611ede9190614766565b5060a0820151816005019080519060200190611efb92919061359b565b5060c0820151816006019081611f119190614766565b5060e08201518160070160006101000a81548160ff021916908315150217905550610100820151816008019080519060200190611f4f92919061359b565b506101208201518160090160006101000a81548160ff02191690831515021790555061014082015181600a019080519060200190611f8e92919061359b565b5061016082015181600b0160006101000a81548160ff02191690831515021790555061018082015181600c019080519060200190611fcd92919061359b565b506101a082015181600d019081611fe49190614766565b506101c082015181600e01908051906020019061200292919061359b565b506101e082015181600f01908051906020019061202092919061359b565b506102008201518160100160006101000a81548160ff02191690831515021790555050506120838a6040518060400160405280600681526020017f4d75726465720000000000000000000000000000000000000000000000000000815250610e23565b156120a8576002600001600081548092919061209e90614867565b91905055506121d2565b6120e78a6040518060400160405280600581526020017f5468656674000000000000000000000000000000000000000000000000000000815250610e23565b1561210c576002600101600081548092919061210290614867565b91905055506121d1565b61214b8a6040518060400160405280600581526020017f4472756773000000000000000000000000000000000000000000000000000000815250610e23565b1561216f5760028001600081548092919061216590614867565b91905055506121d0565b6121ae8a6040518060400160405280600f81526020017f4861726173736d656e7443617365730000000000000000000000000000000000815250610e23565b156121cf57600260030160008154809291906121c990614867565b91905055505b5b5b5b505050505050505050505050565b60606001805480602002602001604051908101604052809291908181526020016000905b82821015612ab2578382906000526020600020906011020160405180610220016040529081600082015481526020016001820160009054906101000a900473ffffffffffffffffffffffffffffffffffffffff1673ffffffffffffffffffffffffffffffffffffffff1673ffffffffffffffffffffffffffffffffffffffff1681526020016002820154815260200160038201805480602002602001604051908101604052809291908181526020016000905b828210156123635783829060005260206000200180546122d69061455a565b80601f01602080910402602001604051908101604052809291908181526020018280546123029061455a565b801561234f5780601f106123245761010080835404028352916020019161234f565b820191906000526020600020905b81548152906001019060200180831161233257829003601f168201915b5050505050815260200190600101906122b7565b50505050815260200160048201805461237b9061455a565b80601f01602080910402602001604051908101604052809291908181526020018280546123a79061455a565b80156123f45780601f106123c9576101008083540402835291602001916123f4565b820191906000526020600020905b8154815290600101906020018083116123d757829003601f168201915b5050505050815260200160058201805480602002602001604051908101604052809291908181526020016000905b828210156124ce5783829060005260206000200180546124419061455a565b80601f016020809104026020016040519081016040528092919081815260200182805461246d9061455a565b80156124ba5780601f1061248f576101008083540402835291602001916124ba565b820191906000526020600020905b81548152906001019060200180831161249d57829003601f168201915b505050505081526020019060010190612422565b5050505081526020016006820180546124e69061455a565b80601f01602080910402602001604051908101604052809291908181526020018280546125129061455a565b801561255f5780601f106125345761010080835404028352916020019161255f565b820191906000526020600020905b81548152906001019060200180831161254257829003601f168201915b505050505081526020016007820160009054906101000a900460ff1615151515815260200160088201805480602002602001604051908101604052809291908181526020016000905b828210156126545783829060005260206000200180546125c79061455a565b80601f01602080910402602001604051908101604052809291908181526020018280546125f39061455a565b80156126405780601f1061261557610100808354040283529160200191612640565b820191906000526020600020905b81548152906001019060200180831161262357829003601f168201915b5050505050815260200190600101906125a8565b5050505081526020016009820160009054906101000a900460ff16151515158152602001600a8201805480602002602001604051908101604052809291908181526020016000905b828210156127485783829060005260206000200180546126bb9061455a565b80601f01602080910402602001604051908101604052809291908181526020018280546126e79061455a565b80156127345780601f1061270957610100808354040283529160200191612734565b820191906000526020600020905b81548152906001019060200180831161271757829003601f168201915b50505050508152602001906001019061269c565b505050508152602001600b820160009054906101000a900460ff16151515158152602001600c8201805480602002602001604051908101604052809291908181526020016000905b8282101561283c5783829060005260206000200180546127af9061455a565b80601f01602080910402602001604051908101604052809291908181526020018280546127db9061455a565b80156128285780601f106127fd57610100808354040283529160200191612828565b820191906000526020600020905b81548152906001019060200180831161280b57829003601f168201915b505050505081526020019060010190612790565b505050508152602001600d820180546128549061455a565b80601f01602080910402602001604051908101604052809291908181526020018280546128809061455a565b80156128cd5780601f106128a2576101008083540402835291602001916128cd565b820191906000526020600020905b8154815290600101906020018083116128b057829003601f168201915b50505050508152602001600e8201805480602002602001604051908101604052809291908181526020016000905b828210156129a757838290600052602060002001805461291a9061455a565b80601f01602080910402602001604051908101604052809291908181526020018280546129469061455a565b80156129935780601f1061296857610100808354040283529160200191612993565b820191906000526020600020905b81548152906001019060200180831161297657829003601f168201915b5050505050815260200190600101906128fb565b505050508152602001600f8201805480602002602001604051908101604052809291908181526020016000905b82821015612a805783829060005260206000200180546129f39061455a565b80601f0160208091040260200160405190810160405280929190818152602001828054612a1f9061455a565b8015612a6c5780601f10612a4157610100808354040283529160200191612a6c565b820191906000526020600020905b815481529060010190602001808311612a4f57829003601f168201915b5050505050815260200190600101906129d4565b5050505081526020016010820160009054906101000a900460ff16151515158152505081526020019060010190612204565b50505050905090565b6060600660003373ffffffffffffffffffffffffffffffffffffffff1673ffffffffffffffffffffffffffffffffffffffff168152602001908152602001600020805480602002602001604051908101604052809291908181526020016000905b828210156133ca578382906000526020600020906011020160405180610220016040529081600082015481526020016001820160009054906101000a900473ffffffffffffffffffffffffffffffffffffffff1673ffffffffffffffffffffffffffffffffffffffff1673ffffffffffffffffffffffffffffffffffffffff1681526020016002820154815260200160038201805480602002602001604051908101604052809291908181526020016000905b82821015612c7b578382906000526020600020018054612bee9061455a565b80601f0160208091040260200160405190810160405280929190818152602001828054612c1a9061455a565b8015612c675780601f10612c3c57610100808354040283529160200191612c67565b820191906000526020600020905b815481529060010190602001808311612c4a57829003601f168201915b505050505081526020019060010190612bcf565b505050508152602001600482018054612c939061455a565b80601f0160208091040260200160405190810160405280929190818152602001828054612cbf9061455a565b8015612d0c5780601f10612ce157610100808354040283529160200191612d0c565b820191906000526020600020905b815481529060010190602001808311612cef57829003601f168201915b5050505050815260200160058201805480602002602001604051908101604052809291908181526020016000905b82821015612de6578382906000526020600020018054612d599061455a565b80601f0160208091040260200160405190810160405280929190818152602001828054612d859061455a565b8015612dd25780601f10612da757610100808354040283529160200191612dd2565b820191906000526020600020905b815481529060010190602001808311612db557829003601f168201915b505050505081526020019060010190612d3a565b505050508152602001600682018054612dfe9061455a565b80601f0160208091040260200160405190810160405280929190818152602001828054612e2a9061455a565b8015612e775780601f10612e4c57610100808354040283529160200191612e77565b820191906000526020600020905b815481529060010190602001808311612e5a57829003601f168201915b505050505081526020016007820160009054906101000a900460ff1615151515815260200160088201805480602002602001604051908101604052809291908181526020016000905b82821015612f6c578382906000526020600020018054612edf9061455a565b80601f0160208091040260200160405190810160405280929190818152602001828054612f0b9061455a565b8015612f585780601f10612f2d57610100808354040283529160200191612f58565b820191906000526020600020905b815481529060010190602001808311612f3b57829003601f168201915b505050505081526020019060010190612ec0565b5050505081526020016009820160009054906101000a900460ff16151515158152602001600a8201805480602002602001604051908101604052809291908181526020016000905b82821015613060578382906000526020600020018054612fd39061455a565b80601f0160208091040260200160405190810160405280929190818152602001828054612fff9061455a565b801561304c5780601f106130215761010080835404028352916020019161304c565b820191906000526020600020905b81548152906001019060200180831161302f57829003601f168201915b505050505081526020019060010190612fb4565b505050508152602001600b820160009054906101000a900460ff16151515158152602001600c8201805480602002602001604051908101604052809291908181526020016000905b828210156131545783829060005260206000200180546130c79061455a565b80601f01602080910402602001604051908101604052809291908181526020018280546130f39061455a565b80156131405780601f1061311557610100808354040283529160200191613140565b820191906000526020600020905b81548152906001019060200180831161312357829003601f168201915b5050505050815260200190600101906130a8565b505050508152602001600d8201805461316c9061455a565b80601f01602080910402602001604051908101604052809291908181526020018280546131989061455a565b80156131e55780601f106131ba576101008083540402835291602001916131e5565b820191906000526020600020905b8154815290600101906020018083116131c857829003601f168201915b50505050508152602001600e8201805480602002602001604051908101604052809291908181526020016000905b828210156132bf5783829060005260206000200180546132329061455a565b80601f016020809104026020016040519081016040528092919081815260200182805461325e9061455a565b80156132ab5780601f10613280576101008083540402835291602001916132ab565b820191906000526020600020905b81548152906001019060200180831161328e57829003601f168201915b505050505081526020019060010190613213565b505050508152602001600f8201805480602002602001604051908101604052809291908181526020016000905b8282101561339857838290600052602060002001805461330b9061455a565b80601f01602080910402602001604051908101604052809291908181526020018280546133379061455a565b80156133845780601f1061335957610100808354040283529160200191613384565b820191906000526020600020905b81548152906001019060200180831161336757829003601f168201915b5050505050815260200190600101906132ec565b5050505081526020016010820160009054906101000a900460ff16151515158152505081526020019060010190612b1c565b50505050905090565b6060600182815481106133e9576133e861458b565b5b9060005260206000209060110201600f01805480602002602001604051908101604052809291908181526020016000905b828210156134c65783829060005260206000200180546134399061455a565b80601f01602080910402602001604051908101604052809291908181526020018280546134659061455a565b80156134b25780601f10613487576101008083540402835291602001916134b2565b820191906000526020600020905b81548152906001019060200180831161349557829003601f168201915b50505050508152602001906001019061341a565b505050509050919050565b6040518060800160405280600081526020016000815260200160008152602001600081525090565b60405180610220016040528060008152602001600073ffffffffffffffffffffffffffffffffffffffff16815260200160008152602001606081526020016060815260200160608152602001606081526020016000151581526020016060815260200160001515815260200160608152602001600015158152602001606081526020016060815260200160608152602001606081526020016000151581525090565b8280548282559060005260206000209081019282156135e3579160200282015b828111156135e25782518290816135d29190614766565b50916020019190600101906135bb565b5b5090506135f091906135f4565b5090565b5b80821115613614576000818161360b9190613618565b506001016135f5565b5090565b5080546136249061455a565b6000825580601f106136365750613655565b601f0160209004906000526020600020908101906136549190613658565b5b50565b5b80821115613671576000816000905550600101613659565b5090565b6000819050919050565b61368881613675565b82525050565b60006020820190506136a3600083018461367f565b92915050565b6000604051905090565b600080fd5b600080fd5b600080fd5b600080fd5b6000601f19601f8301169050919050565b7f4e487b7100000000000000000000000000000000000000000000000000000000600052604160045260246000fd5b613710826136c7565b810181811067ffffffffffffffff8211171561372f5761372e6136d8565b5b80604052505050565b60006137426136a9565b905061374e8282613707565b919050565b600067ffffffffffffffff82111561376e5761376d6136d8565b5b613777826136c7565b9050602081019050919050565b82818337600083830152505050565b60006137a66137a184613753565b613738565b9050828152602081018484840111156137c2576137c16136c2565b5b6137cd848285613784565b509392505050565b600082601f8301126137ea576137e96136bd565b5b81356137fa848260208601613793565b91505092915050565b600060208284031215613819576138186136b3565b5b600082013567ffffffffffffffff811115613837576138366136b8565b5b613843848285016137d5565b91505092915050565b600081519050919050565b600082825260208201905092915050565b6000819050602082019050919050565b61388181613675565b82525050565b600073ffffffffffffffffffffffffffffffffffffffff82169050919050565b60006138b282613887565b9050919050565b6138c2816138a7565b82525050565b600081519050919050565b600082825260208201905092915050565b6000819050602082019050919050565b600081519050919050565b600082825260208201905092915050565b60005b8381101561392e578082015181840152602081019050613913565b60008484015250505050565b6000613945826138f4565b61394f81856138ff565b935061395f818560208601613910565b613968816136c7565b840191505092915050565b600061397f838361393a565b905092915050565b6000602082019050919050565b600061399f826138c8565b6139a981856138d3565b9350836020820285016139bb856138e4565b8060005b858110156139f757848403895281516139d88582613973565b94506139e383613987565b925060208a019950506001810190506139bf565b50829750879550505050505092915050565b60008115159050919050565b613a1e81613a09565b82525050565b600061022083016000830151613a3d6000860182613878565b506020830151613a5060208601826138b9565b506040830151613a636040860182613878565b5060608301518482036060860152613a7b8282613994565b91505060808301518482036080860152613a95828261393a565b91505060a083015184820360a0860152613aaf8282613994565b91505060c083015184820360c0860152613ac9828261393a565b91505060e0830151613ade60e0860182613a15565b50610100830151848203610100860152613af88282613994565b915050610120830151613b0f610120860182613a15565b50610140830151848203610140860152613b298282613994565b915050610160830151613b40610160860182613a15565b50610180830151848203610180860152613b5a8282613994565b9150506101a08301518482036101a0860152613b76828261393a565b9150506101c08301518482036101c0860152613b928282613994565b9150506101e08301518482036101e0860152613bae8282613994565b915050610200830151613bc5610200860182613a15565b508091505092915050565b6000613bdc8383613a24565b905092915050565b6000602082019050919050565b6000613bfc8261384c565b613c068185613857565b935083602082028501613c1885613868565b8060005b85811015613c545784840389528151613c358582613bd0565b9450613c4083613be4565b925060208a01995050600181019050613c1c565b50829750879550505050505092915050565b60006020820190508181036000830152613c808184613bf1565b905092915050565b613c9181613675565b8114613c9c57600080fd5b50565b600081359050613cae81613c88565b92915050565b60008060408385031215613ccb57613cca6136b3565b5b6000613cd985828601613c9f565b925050602083013567ffffffffffffffff811115613cfa57613cf96136b8565b5b613d06858286016137d5565b9150509250929050565b60008060408385031215613d2757613d266136b3565b5b600083013567ffffffffffffffff811115613d4557613d446136b8565b5b613d51858286016137d5565b925050602083013567ffffffffffffffff811115613d7257613d716136b8565b5b613d7e858286016137d5565b9150509250929050565b6000819050919050565b613d9b81613d88565b82525050565b6000602082019050613db66000830184613d92565b92915050565b613dc581613a09565b82525050565b6000602082019050613de06000830184613dbc565b92915050565b600063ffffffff82169050919050565b613dff81613de6565b8114613e0a57600080fd5b50565b600081359050613e1c81613df6565b92915050565b600060208284031215613e3857613e376136b3565b5b6000613e4684828501613e0d565b91505092915050565b608082016000820151613e656000850182613878565b506020820151613e786020850182613878565b506040820151613e8b6040850182613878565b506060820151613e9e6060850182613878565b50505050565b6000608082019050613eb96000830184613e4f565b92915050565b613ec8816138a7565b82525050565b6000602082019050613ee36000830184613ebf565b92915050565b600080600060608486031215613f0257613f016136b3565b5b6000613f1086828701613c9f565b935050602084013567ffffffffffffffff811115613f3157613f306136b8565b5b613f3d868287016137d5565b925050604084013567ffffffffffffffff811115613f5e57613f5d6136b8565b5b613f6a868287016137d5565b9150509250925092565b600060208284031215613f8a57613f896136b3565b5b6000613f9884828501613c9f565b91505092915050565b600061022083016000830151613fba6000860182613878565b506020830151613fcd60208601826138b9565b506040830151613fe06040860182613878565b5060608301518482036060860152613ff88282613994565b91505060808301518482036080860152614012828261393a565b91505060a083015184820360a086015261402c8282613994565b91505060c083015184820360c0860152614046828261393a565b91505060e083015161405b60e0860182613a15565b506101008301518482036101008601526140758282613994565b91505061012083015161408c610120860182613a15565b506101408301518482036101408601526140a68282613994565b9150506101608301516140bd610160860182613a15565b506101808301518482036101808601526140d78282613994565b9150506101a08301518482036101a08601526140f3828261393a565b9150506101c08301518482036101c086015261410f8282613994565b9150506101e08301518482036101e086015261412b8282613994565b915050610200830151614142610200860182613a15565b508091505092915050565b600060208201905081810360008301526141678184613fa1565b905092915050565b600067ffffffffffffffff82111561418a576141896136d8565b5b602082029050602081019050919050565b600080fd5b60006141b36141ae8461416f565b613738565b905080838252602082019050602084028301858111156141d6576141d561419b565b5b835b8181101561421d57803567ffffffffffffffff8111156141fb576141fa6136bd565b5b80860161420889826137d5565b855260208501945050506020810190506141d8565b5050509392505050565b600082601f83011261423c5761423b6136bd565b5b813561424c8482602086016141a0565b91505092915050565b6000806000806000806000806000806101408b8d031215614279576142786136b3565b5b60006142878d828e01613c9f565b9a505060208b013567ffffffffffffffff8111156142a8576142a76136b8565b5b6142b48d828e01614227565b99505060408b013567ffffffffffffffff8111156142d5576142d46136b8565b5b6142e18d828e016137d5565b98505060608b013567ffffffffffffffff811115614302576143016136b8565b5b61430e8d828e01614227565b97505060808b013567ffffffffffffffff81111561432f5761432e6136b8565b5b61433b8d828e016137d5565b96505060a08b013567ffffffffffffffff81111561435c5761435b6136b8565b5b6143688d828e01614227565b95505060c08b013567ffffffffffffffff811115614389576143886136b8565b5b6143958d828e01614227565b94505060e08b013567ffffffffffffffff8111156143b6576143b56136b8565b5b6143c28d828e01614227565b9350506101008b013567ffffffffffffffff8111156143e4576143e36136b8565b5b6143f08d828e016137d5565b9250506101208b013567ffffffffffffffff811115614412576144116136b8565b5b61441e8d828e01614227565b9150509295989b9194979a5092959850565b600082825260208201905092915050565b600061444c826138c8565b6144568185614430565b935083602082028501614468856138e4565b8060005b858110156144a457848403895281516144858582613973565b945061449083613987565b925060208a0199505060018101905061446c565b50829750879550505050505092915050565b600060208201905081810360008301526144d08184614441565b905092915050565b600081905092915050565b60006144ee826138f4565b6144f881856144d8565b9350614508818560208601613910565b80840191505092915050565b600061452082846144e3565b915081905092915050565b7f4e487b7100000000000000000000000000000000000000000000000000000000600052602260045260246000fd5b6000600282049050600182168061457257607f821691505b6020821081036145855761458461452b565b5b50919050565b7f4e487b7100000000000000000000000000000000000000000000000000000000600052603260045260246000fd5b60008190508160005260206000209050919050565b60006020601f8301049050919050565b600082821b905092915050565b60006008830261461c7fffffffffffffffffffffffffffffffffffffffffffffffffffffffffffffffff826145df565b61462686836145df565b95508019841693508086168417925050509392505050565b6000819050919050565b600061466361465e61465984613675565b61463e565b613675565b9050919050565b6000819050919050565b61467d83614648565b6146916146898261466a565b8484546145ec565b825550505050565b600090565b6146a6614699565b6146b1818484614674565b505050565b5b818110156146d5576146ca60008261469e565b6001810190506146b7565b5050565b601f82111561471a576146eb816145ba565b6146f4846145cf565b81016020851015614703578190505b61471761470f856145cf565b8301826146b6565b50505b505050565b600082821c905092915050565b600061473d6000198460080261471f565b1980831691505092915050565b6000614756838361472c565b9150826002028217905092915050565b61476f826138f4565b67ffffffffffffffff811115614788576147876136d8565b5b614792825461455a565b61479d8282856146d9565b600060209050601f8311600181146147d057600084156147be578287015190505b6147c8858261474a565b865550614830565b601f1984166147de866145ba565b60005b82811015614806578489015182556001820191506020850194506020810190506147e1565b86831015614823578489015161481f601f89168261472c565b8355505b6001600288020188555050505b505050505050565b7f4e487b7100000000000000000000000000000000000000000000000000000000600052601160045260246000fd5b600061487282613675565b91507fffffffffffffffffffffffffffffffffffffffffffffffffffffffffffffffff82036148a4576148a3614838565b5b600182019050919050565b60006148ba82613675565b91506148c583613675565b92508282019050808211156148dd576148dc614838565b5b9291505056fea26469706673582212205785161fe9b868d20e44260818e3f12f85c9fa60d9bee5c5c3058f78eee5813364736f6c63430008100033",
  "immutableReferences": {},
  "source": "pragma solidity >= 0.7.0 < 0.9.0;\r\n\r\n\r\ncontract CrimeReport{\r\n\r\n/* Array Of Feedback in another stuct not supported yet.\r\n    struct Feedback{\r\n\r\n        // Wallet Address who submitted Feedback\r\n         address feebdbackFrom;\r\n\r\n        // Feedback\r\n        string feedback;\r\n\r\n        // Feedback Time\r\n        // uint256 timestamp;\r\n    }\r\n\r\n    */\r\n\r\n    // Conversation Model\r\n    struct MESSAGE{\r\n        uint256 id;\r\n        string from;\r\n        string message;\r\n    }\r\n\r\n    struct Crime{\r\n\r\n        // Unique Id Number for each crime\r\n        uint256 crimeId;\r\n\r\n        // Wallet Address who submitted crime details\r\n        address reporterWalletAddress;\r\n\r\n        // TimeStamp in Unix / Epoch\r\n        uint256 timeStamp;\r\n\r\n        /*\r\n        // State Name Where Crime Occured\r\n        string state; \r\n\r\n        // City Name Where Crime Occured\r\n        string city; \r\n\r\n        // Geographical Coordinates\r\n        string latitude; \r\n        string longitude; \r\n        */\r\n\r\n        string[] location;\r\n\r\n        // Crime Type -> Murder/Theft/Robbery...etc\r\n        string crimeType;\r\n\r\n        /* Questionnaire regarding crime type and mapping it to answer.\r\n           Question_Number -> Answer\r\n           mapping(uint32 => string) questionnaires;\r\n        */\r\n        \r\n        /*  Use This if Above Mapping doesn't work \r\n\r\n        // Questionnaire regarding crime type */\r\n        //string[] questionnaires;\r\n\r\n        // Answers of Questionnaire.\r\n        string[] questionnaireAnswers;\r\n\r\n        \r\n\r\n        // Crime Description in detail\r\n        string crimeDesc; \r\n\r\n        /* Details regarding suspect\r\n            KEY         -> VALUE\r\n            Name        -> name_of_suspect\r\n            Age_Group   -> Young Adult(Below 30) | Middle-aged Adult(Below 60) | Old Adults(Above 60)\r\n            Gender      -> Male | Female\r\n            Description -> Other Details to identify suspects (eg.Face color, hair color, height... etc)\r\n\r\n        mapping(string => string) suspectInfo;\r\n        */\r\n        bool isSuspectKnown;\r\n        string[] suspectInfoAnswers;\r\n\r\n        /* Details regarding vehicle if any involved in case\r\n            KEY -> VALUE\r\n            License plate state , Number, Vehicle color.. etc.\r\n            mapping(string => string) vehicleInfo;\r\n        */\r\n        bool isVehiclePresent;\r\n        string[] vehicleInfoAnswers;\r\n        \r\n\r\n        /* Victim Details if known\r\n            KEY -> VALUE\r\n            Name, address... etc.\r\n            mapping(string => string) victimInfo;\r\n        */\r\n        bool isVictimKnown;\r\n        string[] victimInfoAnswers;\r\n\r\n        // IPFS Hash If any media files attached.\r\n        string ipfsHash;\r\n\r\n        // input file names\r\n        string[] fileNames;\r\n\r\n        // Feedbacks\r\n        string[] feedbacks;\r\n\r\n        // Case is active or closed [Active = true | Close = false]\r\n        bool isCaseActive; \r\n        \r\n        /*\r\n            KEY = ADMIN | USER\r\n            Value = MESSAGE\r\n        */\r\n\r\n    }\r\n\r\n    // Statistics Model\r\n\r\n    struct Statistics{\r\n        uint murderCases;\r\n        uint theftCases;\r\n\tuint drugsCases;\r\n\tuint harassmentCases;\r\n    }\r\n\r\n    // Crime ID Wise Comversation\r\n    mapping(uint256 => MESSAGE) private conversations;\r\n\r\n    // List Of All Crimes that reported\r\n    Crime[] private crimes;\r\n    Statistics private stats;\r\n    // Stores all crimes user wise.\r\n    mapping(address => Crime[]) crimesByUsers;\r\n\r\n    // Store all crimes of city\r\n    mapping(string => Crime[]) crimesOfCity;\r\n\r\n    // Function to submit crime (Storing Crime Details)\r\n    function submitCrime(uint256 _timestamp,\r\n                         string[] memory _location,\r\n                         string memory _crimeType,\r\n                         string[] memory _questionnaireAnswers,\r\n                         string memory _crimeDesc,\r\n                         string[] memory _suspectInfoAnswers,\r\n                         string[] memory _vehicleInfoAnswers,\r\n                         string[] memory _victimInfoAnswers,\r\n                         string memory _ipfsHash,\r\n                         string[] memory _fileNames\r\n                        ) external {\r\n\r\n         Crime memory crime;     \r\n         crime.crimeId = crimes.length;   \r\n         crime.reporterWalletAddress = getReporterWalletAddress();\r\n         crime.timeStamp = _timestamp;   \r\n         crime.location = _location;\r\n         crime.crimeType = _crimeType;     \r\n         crime.questionnaireAnswers = _questionnaireAnswers;\r\n         crime.crimeDesc = _crimeDesc; \r\n         crime.isCaseActive = true;\r\n         \r\n         crime.isSuspectKnown = false;\r\n         if(_suspectInfoAnswers.length>0){\r\n             crime.isSuspectKnown = true;\r\n             crime.suspectInfoAnswers = _suspectInfoAnswers;\r\n         }\r\n\r\n         crime.isVehiclePresent = false;\r\n         if(_vehicleInfoAnswers.length>0){\r\n             crime.isVehiclePresent = true;\r\n             crime.vehicleInfoAnswers = _vehicleInfoAnswers;\r\n         }\r\n\r\n         crime.isVictimKnown = false;\r\n         if(_victimInfoAnswers.length>0){\r\n             crime.isVictimKnown = true;\r\n             crime.victimInfoAnswers = _victimInfoAnswers;\r\n         }\r\n\r\n        crime.ipfsHash = _ipfsHash;\r\n        crime.fileNames = _fileNames;\r\n        string[] memory _feedbacks;\r\n        crime.feedbacks = _feedbacks;\r\n        crimes.push(crime);\r\n\r\n        crimesByUsers[msg.sender].push(crime);\r\n        crimesOfCity[_location[1]].push(crime);\r\n\r\n        if(equal(_crimeType,\"Murder\")){\r\n            stats.murderCases++;\r\n        }else if(equal(_crimeType,\"Theft\")){\r\n            stats.theftCases++;\r\n        }else if(equal(_crimeType,\"Drugs\")){\r\n            stats.drugsCases++;\r\n        }else if(equal(_crimeType,\"HarassmentCases\")){\r\n\t\tstats.harassmentCases++;\r\n\t}\r\n\r\n    }\r\n\r\n\r\n    // Function to submit Feedbacks\r\n    function submitFeedback(uint256 _crimeId,string memory _feedback) external{\r\n        crimes[_crimeId].feedbacks.push(_feedback);\r\n    }\r\n\r\n    // Return Feedbacks By CrimeID\r\n   function getFeedbacksById(uint256 _crimeId) public view returns(string[] memory){\r\n       return crimes[_crimeId].feedbacks;\r\n   }\r\n\r\n    // Function to return all crime to admin side\r\n    function getCrimes() public view returns (Crime[] memory) {\r\n       return crimes;\r\n   }\r\n\r\n   // Return Crime By CrimeID\r\n   function getCrimeById(uint256 _crimeId) public view returns(Crime memory){\r\n       return crimes[_crimeId];\r\n   }\r\n\r\n    // Returns Total Number Of Crimes\r\n    function totalCrimes() public view returns (uint256) {\r\n       return crimes.length;\r\n   }\r\n\r\n    // Returns Address of wallet who Reporting the crime\r\n    function getReporterWalletAddress() public view returns(address){\r\n        return msg.sender;\r\n    }\r\n\r\n    // Return Crimes Submitted by the current user\r\n   function getCrimeOfCurrentUser() public view returns(Crime[] memory){\r\n        return crimesByUsers[msg.sender];\r\n   }\r\n\r\n    // Return Crimes of city\r\n   function getCrimeOfCity(string memory _city) public view returns(Crime[] memory){\r\n        return crimesOfCity[_city];\r\n   }\r\n\r\n   // Function for admin to close case.\r\n  function closeCase(uint32 _crimeId) public {\r\n    crimes[_crimeId].isCaseActive = false;\r\n  }\r\n\r\n  // Conversation of admin to crime reporter.\r\n  function sendMessage(uint256 _crimeId,string memory _message, string memory _from) public{\r\n      uint256 id = conversations[_crimeId].id + 1;\r\n      conversations[_crimeId] =  MESSAGE(id,_from,_message);\r\n  }\r\n\r\n  // Get crime Statistics\r\n  function getCrimeStatistics() public view returns(Statistics memory) {\r\n      return stats;\r\n  }\r\n \r\n\r\n  function compare(string memory _a, string memory _b) public pure returns (int) {\r\n        bytes memory a = bytes(_a);\r\n        bytes memory b = bytes(_b);\r\n        uint minLength = a.length;\r\n        if (b.length < minLength) minLength = b.length;\r\n     \r\n        for (uint i = 0; i < minLength; i ++)\r\n            if (a[i] < b[i])\r\n                return -1;\r\n            else if (a[i] > b[i])\r\n                return 1;\r\n        if (a.length < b.length)\r\n            return -1;\r\n        else if (a.length > b.length)\r\n            return 1;\r\n        else\r\n            return 0;\r\n    }\r\n\r\n    function equal(string memory _a, string memory _b) public pure returns (bool) {\r\n        return compare(_a, _b) == 0;\r\n    }\r\n\r\n}\r\n\r\n\r\n/*\r\n    Parameters For Testing\r\n\r\n    1660627677,[\"Maharashtra\",\"Jalgaon\",\"2.9454465\",\"9.2487554\"],Theft,[\"Bike\"],\"I saw the person stealing bike and going to Shiv Colony side\",[],[],[],\"IFPS_HASH_HERE\"\r\n\r\n*/",
  "sourcePath": "D:\\SIH-PROJECT\\dnetwork\\contracts\\CrimeReport.sol",
  "compiler": {
    "name": "solc",
    "version": "0.8.16+commit.07a7930e.Emscripten.clang"
  },
  "schemaVersion": "3.4.9",
  "updatedAt": "2022-08-24T07:09:31.129Z",
  "networkType": "ethereum",
  "devdoc": {
    "kind": "dev",
    "methods": {},
    "version": 1
  },
  "userdoc": {
    "kind": "user",
    "methods": {},
    "version": 1
  }
}